:100000000C9435020C945D020C945D020C945D021C
:100010000C945D020C945D020C945D020C945D02E4
:100020000C945D020C945D020C945D020C945D02D4
:100030000C945D020C945D020C945D020C945D02C4
:100040000C9456180C945D020C945D020C945D02A5
:100050000C945D020C945D020C945D020C945D02A4
:100060000C9429170C945D020000000000000000B1
:1000700030787830300030006C6C6C00000000008C
:100080006C6CFE6CFE6C6C00307CC0780CF8300040
:1000900000C6CC183066C600386C3876DCCC7600EA
:1000A0006060C00000000000183060606030180020
:1000B000603018181830600000663CFF3C66000095
:1000C000003030FC30300000000000000070306074
:1000D000000000FC000000000000000000303000C4
:1000E000060C183060C0800078CCDCFCECCC7800CA
:1000F00030F030303030FC0078CC0C3860CCFC0074
:1001000078CC0C380CCC78001C3C6CCCFE0C0C0071
:10011000FCC0F80C0CCC78003860C0F8CCCC78006F
:10012000FCCC0C183060600078CCCC78CCCC78005B
:1001300078CCCC7C0C1870000000303000303000DF
:100140000000303000703060183060C0603018003F
:100150000000FC00FC0000006030180C183060004B
:1001600078CC0C18300030007CC6DEDEDEC07800B3
:100170003078CCCCFCCCCC00FC66667C6666FC009F
:100180003C66C0C0C0663C00FC6C6666666CFC00E9
:10019000FE6268786862FE00FE6268786860F0005F
:1001A0003C66C0C0CE663E00CCCCCCFCCCCCCC00F7
:1001B00078303030303078001E0C0C0CCCCC78000D
:1001C000E6666C786C66E600F06060606266FE0071
:1001D000C6EEFED6C6C6C600C6E6F6DECEC6C6006B
:1001E000386CC6C6C66C3800FC66667C6060F00081
:1001F00078CCCCCCDC781C00FC66667C786CE600A5
:1002000078CCE0381CCC7800FCB43030303078004A
:10021000CCCCCCCCCCCCFC00CCCCCCCCCC78300076
:10022000C6C6C6D6FEEEC600C6C66C386CC6C600CC
:10023000CCCCCC7830307800FECC983062C6FE0052
:100240007860606060607800C06030180C06020062
:10025000781818181818780010386CC600000000BC
:1002600000000000000000FF303018000000000017
:100270000000780C7CCC7600E0607C666666BC0092
:10028000000078CCC0CC78001C0C0C7CCCCC760068
:10029000000078CCFCC07800386C60F06060F00042
:1002A000000076CCCC7C0CF8E0606C766666E600EC
:1002B0003000703030307800180078181818D87076
:1002C000E060666C786CE60070303030303078007A
:1002D0000000ECFED6C6C6000000F8CCCCCCCC00AA
:1002E000000078CCCCCC78000000DC66667C60F046
:1002F000000076CCCC7C0C1E0000D86C6C60F0004A
:1003000000007CC0780CF80010307C3030341800CD
:100310000000CCCCCCCC76000000CCCCCC7830002B
:100320000000C6C6D6FE6C000000C66C386CC60065
:100330000000CCCCCC7C0CF80000FC983064FC00B5
:100340001C3030E030301C00181818001818180045
:10035000E030301C3030E00076DC000000000000AF
:1003600010386CC6C6C6FE0043616C696272617467
:10037000696F6E0043616C6962726174696F6E00CF
:100380004128D441CF8300833041ED84640312813E
:1003900041E88385017941CB85392C00340241F74E
:1003A000812041EA82000041C0812641C181114182
:1003B000C582353E41C781BE41B182001B41F281F9
:1003C000084126810141E08F1F1A180A0F06458750
:1003D000320A070207050041E18F002527051009B1
:1003E0003A784D05180D383A1F41B6840A82270025
:1003F00041B78107413A8155413681E8412A82005F
:100400000082013F412B8200008200EF4111FCFC81
:100410004129D4FFFF00000008000201000003048E
:100420000700000000000000000102040810204046
:1004300080010204081020010204081020040404B2
:10044000040404040402020202020203030303037D
:100450000300000000250028002B000000000024FD
:100460000027002A00000D16FC1611241FBECFEF36
:10047000D8E0DEBFCDBF12E0A0E0B1E0ECE9F5E3EB
:1004800002C005900D92A435B107D9F723E0A4E589
:10049000B2E001C01D92A636B207E1F714E0CAE649
:1004A000D4E004C02297FE010E94AD1AC636D107DF
:1004B000C9F70E944D150C94CC1A0C9400008EBD07
:1004C00000000DB407FEFDCF8EB508952F923F9228
:1004D0004F925F926F927F928F929F92AF92BF9254
:1004E000CF92DF92EF92FF920F931F93CF93DF9300
:1004F00000D01F92CDB7DEB79B838A83380188E096
:10050000280250011124D501A859B0405D01BC2D2D
:10051000BF77CB2EEA81FB8186819781F1E0FB17C3
:1005200008F462C06B0128E0C20ED11C8C159D0539
:100530000CF46DC0AA81BB8118962D913C9119973E
:10054000FA0138962E173F070CF461C0AA81BB81CF
:10055000ED91FC9111978A01095F1F4F9B01295F63
:100560003F4F0680F781E02DCD010995AA81BB811F
:10057000ED91FC9111970084F185E02DCD01099555
:100580008501085F1F4FF5015490FFEFAF1ABF0AB6
:1005900098E0892E912C20E8422EAA81BB81ED9112
:1005A000FC911197842D85210284F385E02D882309
:1005B00019F0B301CD0103C0B7018A819B81099570
:1005C0004694B1E08B1A910841F7A016B106D9F60E
:1005D000AA81BB81ED91FC9111970484F585E02DF2
:1005E000CD010995C60175C0B8E0CB9E80011124EC
:1005F0004B01800E911E881599054CF0040F151FB4
:10060000EA81FB81208531852017310714F401969A
:1006100060C0AA81BB81ED91FC9111970150110935
:100620000680F781E02D940121503109CD01099513
:10063000AA81BB81ED91FC9111970084F185E02D99
:10064000CD0109952501B8E04B0E511CF501D49060
:10065000FFEFAF1ABF0A2C2C08E010E080E8382E1C
:10066000832D8D212C2DA1F0AA81BB81ED91FC91D0
:1006700011970284F385E02DB301CD0129830995FB
:100680002981215089F736940150110949F710C08A
:10069000AA81BB81ED91FC9111970284F385E02D35
:1006A000B701CD01298309952981215089F7EBCF25
:1006B0002A9491F6A414B50409F0C8CFAA81BB818D
:1006C000ED91FC9111970484F585E02DCD010995FC
:1006D000C4010F900F900F90DF91CF911F910F9158
:1006E000FF90EF90DF90CF90BF90AF909F908F9052
:1006F0007F906F905F904F903F902F900895CF9292
:10070000EF92FF920F931F93DC01ED91FC91068411
:10071000F785E02D09951F910F91FF90EF90CF90F5
:100720000895CF92EF92FF920F931F93CF93DF9391
:10073000EC01262F6A3081F48EAD9FAD9BAF8AAF5E
:100740002CA92F778CAD9DAD38E0239F800D911D96
:1007500011249DAF8CAF47C0862F8B7F893009F461
:1007600042C06AAD7BAD203219F461157105D9F133
:10077000E881F981E8ACF9AC0EA91FA94CAD5DADDB
:100780000088F189E02DCCA8CE0109959BAF8AAFF6
:100790002DA9222341F14CA94F77642F70E028EF57
:1007A0002403A00111242E813F81240F351F281717
:1007B0003907CCF48EAD9FAD9BAF8AAFCB0133E050
:1007C000880F991F3A95E1F72CAD3DAD820F931F2D
:1007D0009DAF8CAF28853985240F351F2817390721
:1007E00014F41DAE1CAE81E090E0DF91CF911F911B
:1007F0000F91FF90EF90CF900895FC011382128229
:1008000082E291E0918380831582148277836683EC
:10081000518740871786168615861486138612869A
:10082000178A168A158A148A138A128A118A108ADC
:1008300010AA11AA12AA13AA81E084AB85AB17AA49
:1008400016AA8FEF9FEF91AF80AF17AE16AE15AE21
:1008500014AE13AE12AE0895FC0184819581089503
:10086000AF92BF92CF92DF92EF92FF920F931F93BE
:10087000CF93DF93EC015B01E881F981088519854D
:10088000015011092E813F81215031090680F781E5
:10089000E02D40E050E060E070E00995E881F981EA
:1008A0000084F185E02DCE010995AE81BF812885B8
:1008B00039850E947A1A6B017C0143E0F694E79433
:1008C000D794C7944A95D1F7E881F981C114D1042E
:1008D000E104F10409F444C00284F385E02DB5017C
:1008E000CE010995E881F9810284F385E02DB501F7
:1008F000CE010995E881F9810284F385E02DB501E7
:10090000CE010995E881F9810284F385E02DB501D6
:10091000CE010995E881F9810284F385E02DB501C6
:10092000CE010995E881F9810284F385E02DB501B6
:10093000CE010995E881F9810284F385E02DB501A6
:10094000CE010995E881F9810284F385E02DB50196
:10095000CE01099581E0C81AD108E108F108B4CFA9
:100960000484F585E02DCE01DF91CF911F910F9189
:10097000FF90EF90DF90CF90BF90AF900994EF92EF
:10098000FF920F931F93CF93DF93EC0179018E8138
:100990009F816817790754F5888599854817590705
:1009A0002CF5E881F9810680F781E02D8A019B0111
:1009B000CE010995E881F9810084F185E02DCE0111
:1009C0000995E881F9810284F385E02DB701CE0114
:1009D0000995E881F9810484F585E02DCE01DF9148
:1009E000CF911F910F91FF90EF900994DF91CF91DC
:1009F0001F910F91FF90EF9008958F929F92AF9269
:100A0000BF92CF92DF92EF92FF920F931F93CF93FB
:100A1000DF93EC016901480157012E813F81621784
:100A200073071CF0B90161507109888599854817D1
:100A300059071CF0AC0141505109FB01EC0DFD1DA3
:100A4000E217F3071CF06901C61AD70A9A01280DAC
:100A5000391D281739071CF04C01841A950AE881C2
:100A6000F9818A01080D191D015011099B012C0DF6
:100A70003D1D215031090680F781E02DCE010995F9
:100A8000E881F9810084F185E02DCE01099594017A
:100A9000D6010E947A1A6B017C01E881F981C114A8
:100AA000D104E104F10461F00284F385E02DB50185
:100AB000CE01099581E0C81AD108E108F108EDCF0F
:100AC0000484F585E02DCE01DF91CF911F910F9128
:100AD000FF90EF90DF90CF90BF90AF909F908F905E
:100AE00009942F923F924F925F926F927F928F92D2
:100AF0009F92AF92BF92CF92DF92EF92FF920F93AD
:100B00001F93CF93DF93CDB7DEB728970FB6F89436
:100B1000DEBF0FBECDBF4C016B0158874F8359011B
:100B200062177307A1F40417150744F40427152767
:100B30004027512758874F83042715272F81388551
:100B4000021B130B0F5F1F4F21E030E015C04F81D8
:100B5000588540175107B9F42617370734F4A626ED
:100B6000B726CA24DB24AC24BD2495012C193D09E9
:100B70002F5F3F4F01E010E04F815885B601C4015F
:100B80000E94FD04A0C0FC01268137816217730713
:100B900024F06901F1E0CF1AD108F4018085918534
:100BA0004F8158854817590724F0FC013197F88781
:100BB000EF83A216B30624F05901F1E0AF1AB10891
:100BC000081719071CF08C010150110935016C1828
:100BD0007D0828012F813885421A530A77FE08C004
:100BE0007194619471084FEF5FEF5A83498304C099
:100BF00081E090E09A83898357FE08C05194419424
:100C00005108EFEFFFEFFC83EB8304C021E030E0FD
:100C10003C832B83A301440F551F5E834D83120138
:100C2000220C331C97014F815885B601C4010E94E4
:100C3000BF04461457041CF5810106191709CA148C
:100C4000DB0409F440C017FD0CC08F819885EB814F
:100C5000FC818E0F9F1F98878F832D813E81021B01
:100C6000130B49815A81C40ED51E020D131D970125
:100C70004F815885B601C4010E94BF04E0CFAD800A
:100C8000BE80A418B5088F81988580179107D9F088
:100C9000B7FC06C089819A81C80ED91EA218B30874
:100CA000EF81F8852B813C81E20FF31FF887EF83FA
:100CB0004D815E81A40EB51E9701AF01B601C4013E
:100CC0000E94BF04E0CF28960FB6F894DEBF0FBE97
:100CD000CDBFDF91CF911F910F91FF90EF90DF90EB
:100CE000CF90BF90AF909F908F907F906F905F90CC
:100CF0004F903F902F9008954F925F926F927F9206
:100D00008F929F92AF92BF92CF92DF92EF92FF921B
:100D10000F931F93CF93DF93EC016B015A012901CD
:100D2000380121E030E00E94FD04A501460D571D69
:100D30004150510901E010E09201B601CE010E943C
:100D4000FD04B601640D751D61507109830121E038
:100D500030E0A501CE010E94FD0401E010E0920107
:100D6000A501B601CE010E94FD04DF91CF911F9134
:100D70000F91FF90EF90DF90CF90BF90AF909F903A
:100D80008F907F906F905F904F9008952F923F9239
:100D90004F925F926F927F928F929F92AF92BF928B
:100DA000CF92DF92EF92FF920F931F93CF93DF9337
:100DB00000D000D0CDB7DEB76C012B013A013C83E7
:100DC0002B837901F194E194F108A12CB12C2B81B2
:100DD0003C812A153B050CF466C04501860C971C26
:100DE0009801A4012B803C80240C351CB101C60164
:100DF0000E94BF049801A401B2018B819C81681BF1
:100E0000790B7A836983C6010E94BF0443018A1863
:100E10009B089801A401B101C6010E94BF0498017A
:100E2000A40169817A81C6010E94BF041501240CC6
:100E3000351C98018B809C80860C971CA401B10105
:100E4000C6010E94BF04F201EA19FB09FA83E98393
:100E50009801A401BF01C6010E94BF04980143018B
:100E60006B817C81861A970AA401B101C6010E9498
:100E7000BF049801A40169817A81C6010E94BF0460
:100E8000C5010196EA0CFB1CE80EF91EF7FC09C02F
:100E9000EB81FC813197FC83EB83EE1AFF0AEE1A9B
:100EA000FF0A5C0194CF0F900F900F900F90DF918D
:100EB000CF911F910F91FF90EF90DF90CF90BF9057
:100EC000AF909F908F907F906F905F904F903F90EA
:100ED0002F9008952F923F924F925F926F927F9240
:100EE0008F929F92AF92BF92CF92DF92EF92FF923A
:100EF0000F931F93CF93DF9300D000D000D0CDB7D6
:100F0000DEB75C011B012A013E832D834801690184
:100F1000D194C194D108612C712C2D813E8126156C
:100F200037050CF455C0A301440D551D74018A0109
:100F30002D813E81220D331D3A832983B1018D819C
:100F40009E81681B790B7C836B83C5010E947105B0
:100F5000A201461957098A0129813A816B817C8156
:100F6000C5010E947105F301E20DF31DFC83EB83C3
:100F70009101261937093A8329834D815E81440DF9
:100F8000551D8A019F0169817A81C5010E94710501
:100F9000A2016D817E81461B570B8A012B813C810A
:100FA00069817A81C5010E947105C3010196C60C51
:100FB000D71CC80ED91ED7FC09C0ED81FE81319720
:100FC000FE83ED83CE1ADF0ACE1ADF0A3C01A5CFDD
:100FD00026960FB6F894DEBF0FBECDBFDF91CF913E
:100FE0001F910F91FF90EF90DF90CF90BF90AF9047
:100FF0009F908F907F906F905F904F903F902F9039
:1010000008954F925F926F927F928F929F92AF92CC
:10101000BF92CF92DF92EF92FF920F931F93CF93E5
:10102000DF935C01CB014A0138012701DC2CE90187
:101030002991222399F0D501ED91FC910684F78541
:10104000E02DCD2C72018301A401BC01C5010995DD
:10105000F501268137812817390754F7DF91CF91A1
:101060001F910F91FF90EF90DF90CF90BF90AF90C6
:101070009F908F907F906F905F904F9008954F92C8
:101080005F926F927F928F929F92AF92BF92CF9218
:10109000DF92EF92FF920F931F93CF93DF93EC01B8
:1010A000CB014A01F90138012701DC2C24915F01B1
:1010B0002223B9F0E881F9810684F785E02DCD2C53
:1010C00072018301A401BC01CE0109952FEFA21A80
:1010D000B20A2E813F81281739071CF0F5012491AF
:1010E000E7CFDF91CF911F910F91FF90EF90DF90AD
:1010F000CF90BF90AF909F908F907F906F905F90B8
:101100004F9008952F923F924F925F926F927F92ED
:101110008F929F92AF92BF92CF92DF92EF92FF9207
:101120000F931F93CF93DF93CDB7DEB7E4970FB63E
:10113000F894DEBF0FBECDBF8C011B01DA012D91EB
:101140003D914D915C9113972D873E874F87588B2A
:1011500050964D915D916D917C91539749875A8737
:101160006B877C876D857E858F85988929853A85F3
:101170004B855C85621B730B840B950B6D8F7E8F8B
:101180008F8F98A31C964D915D916D917C911F97C7
:1011900049A35AA36BA37CA354966D917D918D9125
:1011A0009C915797698F7A8F8B8F9C8F29A13AA139
:1011B0004BA15CA1261B370B480B590B2DA33EA35B
:1011C0004FA358A718964D915D916D917C911B97F7
:1011D000498B5A8B6B8B7C8BCB01BA0129853A8565
:1011E0004B855C85621B730B840B950B69A77AA7F3
:1011F0008BA79CA714964D915D916D917C9117974B
:101200004DA75EA76FA778AB898D9A8DAB8DBC8DEE
:10121000481B590B6A0B7B0B49AB5AAB6BAB7CABD6
:101220002DA13EA14FA158A56D8D7E8D8F8D98A1CA
:101230000E94481A6B017C0129A93AA94BA95CA913
:1012400069A57AA58BA59CA50E94481AC61AD70A3B
:10125000E80AF90AD801D096CD92DD92ED92FC927F
:10126000D397CD28CE28CF2809F49CC1D1012D9148
:101270003D914D915C91139729833A834B835C8315
:101280005096CD90DD90ED90FC90539729013A0156
:101290004C185D086E087F0818962D913D914D9170
:1012A0005C911B972D833E834F8358872C193D09F2
:1012B0004E095F092D8B3E8B4F8B588FA3019201F6
:1012C0006DA17EA18FA198A50E94481A4B015C01D7
:1012D0002D893E894F89588D69A97AA98BA99CA926
:1012E0000E94481A861A970AA80AB90AF801808E3D
:1012F000918EA28EB38E6D8D7E8D8F8D98A10E9462
:10130000481A4B015C01A301920169A57AA58BA53E
:101310009CA50E94481A861A970AA80AB90A848EC0
:10132000958EA68EB78EA70196016D857E858F85D9
:1013300098890E94481A4B015C0129813A814B81AE
:101340005C8169857A858B859C850E94481A861AFE
:10135000970AA80AB90AA501940169A17AA18BA1EB
:101360009CA10E94481A2B013C012D813E814F8196
:10137000588569857A858B859C850E94481A4B0122
:101380005C01A701960169897A898B899C890E94F1
:10139000481A861A970AA80AB90AA50194016DA5E8
:1013A0007EA58FA598A90E94481A460E571E681E52
:1013B000791E29813A814B815C8169897A898B897F
:1013C0009C890E94481A6B017C012D813E814F81CE
:1013D00058856D857E858F8598890E94481AC61A22
:1013E000D70AE80AF90AA7019601698D7A8D8B8DD3
:1013F0009C8D0E94481A460E571E681E791E40A2F8
:1014000051A262A273A2D10114962D913D914D91EA
:101410005C91179729833A834B835C835496CD90D4
:10142000DD90ED90FC90579729013A014C185D082A
:101430006E087F081C962D913D914D915C911F97F0
:101440002D833E834F8358872C193D094E095F0930
:101450002D8B3E8B4F8B588FA30192016DA17EA1E6
:101460008FA198A50E94481A4B015C012D893E89E5
:101470004F89588D69A97AA98BA99CA90E94481AFD
:10148000861A970AA80AB90A84A295A2A6A2B7A2A8
:101490006D8D7E8D8F8D98A10E94481A4B015C0145
:1014A000A301920169A57AA58BA59CA50E94481A63
:1014B000861A970AA80AB90A80A691A6A2A6B3A678
:1014C000A70196016D857E858F8598890E94481AAF
:1014D0004B015C0129813A814B815C8169857A8568
:1014E0008B859C850E94481A861A970AA80AB90A11
:1014F000A501940169A17AA18BA19CA10E94481A1F
:101500004B015C012D813E814F81588569857A852B
:101510008B859C850E94481A2B013C01A7019601EE
:1015200069897A898B899C890E94481A461A570AC8
:10153000680A790AA30192016DA57EA58FA598A9D5
:101540000E94481A860E971EA81EB91E29813A814C
:101550004B815C8169897A898B899C890E94481AB0
:101560006B017C012D813E814F8158856D857E8583
:101570008F8598890E94481AC61AD70AE80AF90A7C
:10158000A7019601698D7A8D8B8D9C8D0E94481ADA
:10159000860E971EA81EB91E84A695A6A6A6B7A657
:1015A00080E001C081E0E4960FB6F894DEBF0FBE84
:1015B000CDBFDF91CF911F910F91FF90EF90DF9002
:1015C000CF90BF90AF909F908F907F906F905F90E3
:1015D0004F903F902F900895AF92BF92CF92DF929D
:1015E000EF92FF920F931F93CF93DF93EC01A888A4
:1015F000B9888C899D890A891B89A816B90609F4BE
:101600005FC0BD8AAC8A288D398D4A8D5B8DD5012E
:101610000E94A31A6B017C012C8D3D8D4E8D5F8D38
:10162000D8010E94A31AC60ED71EE81EF91E88A173
:1016300099A1AAA1BBA1C80ED91EEA1EFB1E28A90A
:1016400039A94AA95BA9C701B6010E94581ADA0153
:10165000C9016C817D816A35710571F018F4672BC1
:1016600041F02CC0643B710521F06E30714021F0D7
:1016700025C06E817F8102C0688579856B01CC0CA5
:10168000DD1CEE24D7FCE094FE2C2C153D054E0508
:101690005F0588F46B01EE24D7FCE094FE2C2C153A
:1016A0003D054E055F0550F0CB010197AA2797FD38
:1016B000A095BA2F03C080E090E0DC019B878A8769
:1016C0008E899F890817190709F45FC01F8B0E8B3D
:1016D0002CA13DA14EA15FA1D5010E94A31A6B01CF
:1016E0007C0128A539A54AA55BA5D8010E94A31AAB
:1016F000C60ED71EE81EF91E8CA59DA5AEA5BFA5DA
:10170000C80ED91EEA1EFB1E28A939A94AA95BA941
:10171000C701B6010E94581ADA01C9016C817D81A6
:101720006A35710571F018F4672B41F02CC0643BE9
:10173000710521F06E30714021F025C068857985F2
:1017400002C06E817F816B01CC0CDD1CEE24D7FCC6
:10175000E094FE2C2C153D054E055F0588F46B01C9
:10176000EE24D7FCE094FE2C2C153D054E055F05BC
:1017700050F0CB010197AA2797FDA095BA2F03C07F
:1017800080E090E0DC019D878C87DF91CF911F91F5
:101790000F91FF90EF90DF90CF90BF90AF900895A2
:1017A000CF93DF93EC010E94EC0A2C813D8121153F
:1017B000310519F48A859B8512C02A35310519F443
:1017C0008C859D850CC08E819F81243B310519F449
:1017D0002A853B8502C02C853D85821B930BDF91BA
:1017E000CF910895CF93DF93EC010E94EC0A8C8196
:1017F0009D81009719F48C859D8514C08A359105CB
:1018000029F4888599852A853B8507C0843B910505
:1018100039F4888599852C853D85821B930B02C000
:101820008A859B85DF91CF910895FC0186859785F8
:1018300008952F923F924F925F926F927F928F9274
:101840009F92AF92BF92CF92DF92EF92FF920F934F
:101850001F93CF93DF9300D000D000D0CDB7DEB779
:101860007E836D831A015901480127013601FA016F
:1018700001900020E9F79F01215031096901C41A44
:10188000D50A43E0CC0CDD1C4A95E1F7CB010E9460
:10189000D10D8D819E810E94150CF301F695E7957F
:1018A000FA83E9839701369527953C832B83892B0F
:1018B00009F45AC08D819E810E94D00B8A159B0528
:1018C00008F452C08D819E810E94D00B95012E0D8F
:1018D0003F1D2817390708F447C08D819E810E945B
:1018E000F20B8017910708F43FC08D819E810E9402
:1018F000F20B9801260D371D28173907A8F1E12CA6
:1019000028EFF22E83019201A401B5018D819E8101
:101910000E94FD0449815A81480D591D48505109C2
:101920006B817C816A0D7B1D6C197D0932E0C32EB1
:1019300000E010E091018D819E810E9401083FEF3F
:1019400089E698E1315080409040E1F700C0000006
:10195000E12CF12C83019201A401B5018D819E81BE
:101960000E94FD0481E023C0E12C88EFF82E830162
:101970009201A401B5018D819E810E947C0649815E
:101980005A81480D591D485051096B817C816A0D5F
:101990007B1D6C197D0992E0C92EE12CF12C00E031
:1019A00018EF91018D819E810E94010880E02696AA
:1019B0000FB6F894DEBF0FBECDBFDF91CF911F9160
:1019C0000F91FF90EF90DF90CF90BF90AF909F90DE
:1019D0008F907F906F905F904F903F902F900895E1
:1019E0004F925F926F927F928F929F92AF92BF922F
:1019F000CF92EF92FF920F931F93CF93DF93EB0160
:101A00004A01390158012701F7018081882369F0D3
:101A1000E12CF8EFFF2E9501A301B401CE010E9445
:101A2000FD0481E08093540213C08091550281111E
:101A300008C0E12CF12C9501A301B401CE010E9454
:101A4000FD048091540210925502811110925402AB
:101A5000CE010E94D10DCE010E94150C892B09F4F4
:101A600044C0CE010E94D00B88159905F0F1CE013B
:101A70000E94D00B9501280D391D28173907A8F1B0
:101A8000CE010E94F20B8615970578F1CE010E94D7
:101A9000F20B9501260D371D2817390730F1CC249C
:101AA000C394E12CF12C00E018EF24E331E04AEF7D
:101AB00050E060E070E0CE010E940108F2018081F8
:101AC000811107C081E0F2018083E12CE8EFFE2E56
:101AD00004C0F2011082E12CF12C85019501A301D3
:101AE000B401CE010E94FD040AC0E12C78EFF72E6C
:101AF00085019501A301B401CE010E947C06DF910E
:101B0000CF911F910F91FF90EF90CF90BF90AF902A
:101B10009F908F907F906F905F904F9008955F9A05
:101B20000895CF93DF931F92CDB7DEB7872F2B9AFF
:101B30002D989CB59F7B9CBD2D9A9CB590649CBDB7
:101B400069830E945F022B9A2D989CB59F7B9CBD58
:101B50002D9A9CB590649CBD6981862F0F90DF9172
:101B6000CF910C945F022CB5982F93702C7F922B01
:101B70009CBD9DB582FB882780F99E7F982B9DBDDB
:101B80000895CF93DF93EC0140EF50E060E471E003
:101B90000E94FD0380E491E099838883DF91CF91D7
:101BA0000895BF92CF92DF92EF92FF920F931F930F
:101BB000CF93DF93EC01ECB4FDB485E00E94B30D4C
:101BC0005E9888EB0E945F0280E00E945F02082F0F
:101BD00088EC0E945F0280E00E945F025E9A182FEC
:101BE00010951F770F77100F163008F45AC05E98C3
:101BF00080E90E945F0280E00E945F02082F80E07F
:101C00000E945F0280E90E945F0280E00E945F0202
:101C1000D82E80E00E945F02C82E0D1140C080EDDA
:101C20000E945F0280E00E945F02D82E80E00E9446
:101C30005F0280ED0E945F0280E00E945F02B82E8A
:101C400080E00E945F02DB102AC04C2D50E096E03D
:101C5000559547959A95E1F794E0099FB0011124B5
:101C6000462B572B6FEF73E0641B750BA1F0282FE9
:101C700030E086E0359527958A95E1F784E0D89E97
:101C8000A0011124242B352B2115310521F0798B4E
:101C9000688B3B8B2A8B812F90E09F878E875E9A83
:101CA00002C01F861E86ECBCFDBC81E02E853F85F0
:101CB000232B09F480E0DF91CF911F910F91FF90CA
:101CC000EF90DF90CF90BF9008953F924F925F9238
:101CD0006F927F928F929F92AF92BF92CF92DF923C
:101CE000EF92FF920F931F93CF93DF93CDB7DEB7A1
:101CF000E0970FB6F894DEBF0FBECDBF5C0188E160
:101D0000E6E0F1E0DE01599601900D928A95E1F747
:101D1000C5010E942C042C01D501ED91FC91048099
:101D2000F581E02D60E070E0C50109956FEF7FEF70
:101D3000C5010E943004F5014085518557FF02C05E
:101D40004F5F5F4F559547954A505109D5011696FB
:101D50006D917C91179777FF02C06F5F7F4F7595EC
:101D6000679562537109CC24C394EE24EA94FE2C47
:101D700000E010E024E733E0C5010E943F08C50100
:101D80000E94D10D8111FBCF4E01B9E18B0E911C48
:101D9000612C712C382CD92CF4014481558160813F
:101DA000718100E010E022E030E0C5010E94C6062B
:101DB000D40114964D915C9115976D917C9125E01D
:101DC00030E0C5010E94C606F4014481558160815E
:101DD000718100E018EF2AE030E0C5010E94C606DC
:101DE000C5010E94D10D8823B9F2730173E0EE0C96
:101DF000FF1C7A95E1F781E090E08C0F9D1FE80EC3
:101E0000F91ED7015C964D915C915D9758966D9146
:101E10007C91599722E030E0C5010E946A07F501E4
:101E200080899189AA2797FDA095BA2FF701808311
:101E30009183A283B383D50152968D919C91539740
:101E4000AA2797FDA095BA2F84839583A683B7838D
:101E500064E670E080E090E00E94C3186FEF7FEFCF
:101E6000C5010E943004F2E06F1621F1D5011896E9
:101E70004D915C91199757FF02C04F5F5F4F559589
:101E800047954A505109F5016681778177FF02C075
:101E90006F5F7F4F7595679562537109CC24C3942A
:101EA000EE24EA94FE2C00E010E028E633E0C501C1
:101EB0000E943F08FFEF6F1A7F0A88E0880E911C8E
:101EC00093E06916710409F067CFAE014F5F5F4F71
:101ED000632D7D2DC5010E948208D501ED91FC91F5
:101EE0000480F581E02DB201C5010995C5010E946C
:101EF000D10D8111FBCFE0960FB6F894DEBF0FBE77
:101F0000CDBFDF91CF911F910F91FF90EF90DF90A8
:101F1000CF90BF90AF909F908F907F906F905F9089
:101F20004F903F900895862F5F982B982D989CB5E1
:101F30009F7B9CBD2D9A9CB590649CBD0E945F02C6
:101F40005F9A08956CE20E94930F5F980895CF9373
:101F5000DF931F92CDB7DEB7872F5F982B9A2D980E
:101F60009CB59F7B9CBD2D9A9CB590649CBD69835C
:101F70000E945F022B9A2D989CB59F7B9CBD2D9A49
:101F80009CB590649CBD6981862F0E945F025F9A18
:101F90000F90DF91CF910895AF92BF92CF92DF92D1
:101FA000EF92FF920F931F93CF93DF93EC017B018E
:101FB0006A0159016AE20E94930FB701CE010E94A3
:101FC000A70FB501CE010E94A70F6BE2CE010E94C0
:101FD000930FB601CE010E94A70FB801CE01DF9189
:101FE000CF911F910F91FF90EF90DF90CF90BF9016
:101FF000AF900C94A70F862F5F982B9A2D989CB5C5
:102000009F7B9CBD2D9A9CB590649CBD0E945F02F5
:102010005F9A08950F931F93CF93DF93EC0169307C
:10202000710519F06A35710571F48AE590E09D83B8
:102030008C8380EF90E09F838E8380E491E099878A
:10204000888718E434C06231710519F0643B71056A
:1020500071F484EB90E09D838C8380E491E09F8316
:102060008E8380EF90E09987888718E320C06B31DA
:10207000710521F07E7F6E30710571F48EE091E084
:102080009D838C8380EF90E09F838E8380E491E03A
:102090009987888718E80BC01D821C8280E491E034
:1020A0009F838E8380EF90E09987888718EE66E3A0
:1020B000CE010E94930F612FCE010E94FB0FE88199
:1020C000F98108851985015011092E813F81215020
:1020D00031090680F781E02D40E050E060E070E0DB
:1020E000CE010995DF91CF911F910F910895CF9265
:1020F000DF92EF92FF920F931F93CF93DF938C01A8
:102100005F9A289862E370E080E090E00E94C31834
:10211000289A68E770E080E090E00E94C318E0E849
:10212000F3E0EF01219684918F3FA9F1982F907CE5
:102130009038B1F0903C39F1903411F0FE01F1CFBC
:102140008F73C82E7F01D82EFFEFEF1AFF0ADD2014
:10215000B9F0F7016491C8010E94930FDA94F4CFAB
:102160008F73C82E7F01D82EFFEFEF1AFF0ADD20F4
:1021700039F0F7016491C8010E94FB0FDA94F4CFA3
:10218000CC0DD11DDBCF682F6F7370E080E090E045
:102190000E94C318D3CF60E070E0C801DF91CF91F7
:1021A0001F910F91FF90EF90DF90CF900C9430042F
:1021B0001F93CF93DF93EC01162F61E088E00E941C
:1021C000AE19289861E089E00E94AE1961E087E0CD
:1021D0000E94AE1961E08DE00E94AE1961E08BE0D3
:1021E0000E94AE1960E08CE00E94AE1929985F9AB7
:1021F00061E086E00E94AE195E9AFE01E05CFF4F4E
:1022000010839CB5937F9CBD9CB59F7D9CBD0E9417
:102210002F1685E00E94B30DCE010E947710812F0A
:102220000E94B30D6FE770E089E0DF91CF911F91BD
:102230000C94261960E00C94D810CF93DF93EC0136
:10224000FB01828193819B838A8382E291E099835F
:102250008883848195819D838C83868197819F83E8
:102260008E838085918599878887828593859B87D2
:102270008A87848595859D878C87868597859F87A6
:102280008E8780899189998B888B828993899B8B92
:102290008A8B848995899D8B8C8B868997899F8B66
:1022A0008E8B8CE17896DE01589601900D928A957E
:1022B000E1F7FB0184A98CAB85A98DAB86A997A911
:1022C0009FAB8EAB80AD91AD99AF88AF82AD93AD32
:1022D0009BAF8AAF84AD95AD9DAF8CAF86AD97AD0A
:1022E0009FAF8EAF80E491E099838883E05CFF4FDD
:1022F0008081C05CDF4F8883DF91CF9108956F921A
:102300007F928F929F92AF92BF92CF92DF92EF9285
:10231000FF920F931F93CF93DF93CDB7DEB7CE54C9
:10232000D1090FB6F894DEBF0FBECDBF5C012E966B
:102330006FAF2E972F964FAF2F97712C812C912C2A
:102340007BE0672ECC24C394E12CF12C00E018EF45
:1023500022E531E046E351E060E070E0C5010E9413
:102360000108EBE9F1E0DE01AE5BBF4F862D019085
:102370000D928A95E1F723E0C22E9E012E5B3F4F1E
:102380004FE050E06FE070E0C5010E94010832E0CC
:10239000C32E22E631E040E550E06FE070E0C50179
:1023A0000E940108B501CE0101960E941D1148E569
:1023B000E42E42E0F42E00E310E02FE330E041EBA6
:1023C00050E0BE016F5F7F4FCE01835B9F4F0E9445
:1023D000F00CE12CF12C00E018EF2AE631E046E9A0
:1023E00050E06FE070E0C5010E940108B501CE0128
:1023F00001960E941D1157E5E52E52E0F52E00E3EF
:1024000010E025E830E041EB50E0BE016F5F7F4F08
:10241000CE01835B9F4F0E94F00CE12CF12C00E079
:1024200018EF22E731E04CED50E06FE070E0C501BD
:102430000E940108B501CE0101960E941D1166E5BA
:10244000E62E62E0F62E00E310E02BEC30E041EBEC
:1024500050E0BE016F5F7F4FCE01835B9F4F0E94B4
:10246000F00C80915802882311F07720C9F09091E8
:102470005702992319F0772009F4BCC090915602B5
:10248000992349F0772019F07724739404C07724B6
:10249000739488248394882301F19920E9F002C081
:1024A000772473946AE771E0CE01825B9F4F0E94AC
:1024B000221680915702882329F010925802812C0D
:1024C000912C02C09924939480915602882329F07C
:1024D0001092580288248394912C8091570288236B
:1024E00009F191101BC081101DC060E871E0CE01A0
:1024F000825B9F4F0E94221680915802882321F010
:102500001092570281E001C080E090915602992319
:1025100041F0109257028824839404C09924939424
:1025200001C0982E809156028823D1F08820C1F0F6
:1025300068E871E0CE01825B9F4F0E942216809175
:102540005702882321F010925602812C912C809101
:102550005802882329F010925602812C99249394D2
:102560008091580281110FC08091570281110BC0D8
:1025700080915602811107C06EE871E0CE01825B46
:102580009F4F0E942216B501CE0101960E941D1197
:1025900088E2C82ED12C98ECE92EF12C0EE011E047
:1025A00024E130E046E951E0BE016F5F7F4FCE018C
:1025B000835B9F4F0E94190C882309F4C3CE60E00F
:1025C00070E0C5010E943004C25BDF4F0FB6F89483
:1025D000DEBF0FBECDBFDF91CF911F910F91FF9056
:1025E000EF90DF90CF90BF90AF909F908F907F90B3
:1025F0006F90089577247394812C6ECF2F923F9221
:102600004F925F926F927F928F929F92AF92BF9202
:10261000CF92DF92EF92FF920F931F93CF93DF93AE
:10262000CDB7DEB7CD54D1090FB6F894DEBF0FBEDB
:10263000CDBF5C012D966FAF2D972E964FAF2E9785
:10264000512C712C612C4E0182E4880E911C8AE081
:10265000482E9AE1392E20EF222ECC24C394E12C6F
:10266000F12C00E018EF26EA31E046E351E060E0AB
:1026700070E0C5010E940108E8EFF1E0D401842D6B
:1026800001900D928A95E1F7F40101900020E9F79D
:102690003197E819F909622D3E9E6019112470E006
:1026A000A3E0CA2E94014FE050E0C5010E9401084A
:1026B000B2E0CB2E2CEB31E04AE550E06FE070E069
:1026C000C5010E940108B501CE0101960E941D11AD
:1026D0001AE5E12E12E0F12E00E310E029E430E0EB
:1026E00041EB50E0BE016F5F7F4FCE01845B9F4F97
:1026F0000E94F00CE12CF12C00E018EF27EC31E007
:1027000044EB50E06FE070E0C5010E940108B501A4
:10271000CE0101960E941D1109E5E02E02E0F02E87
:1027200000E310E023EA30E041EB50E0BE016F5FD0
:102730007F4FCE01845B9F4F0E94F00C8091590225
:10274000882311F0552099F090915A02992321F095
:10275000552039F0552453948823E1F0662029F060
:1027600009C05524539477247394612C13C05524C5
:102770005394712C62ED71E0CE01835B9F4F0E94F8
:10278000221680915A02882319F010925902EBCF39
:102790006624639480915A028823A9F0772099F0E7
:1027A00065EE71E0CE01835B9F4F0E9422168091FF
:1027B0005902882331F010925A02712C66246394D6
:1027C00002C077247394B501CE0101960E941D11B9
:1027D000E8E2CE2ED12CF8ECEF2EF12C0EE011E039
:1027E00024E130E046E951E0BE016F5F7F4FCE014A
:1027F000845B9F4F0E94190C882309F42ECF60E060
:1028000070E0C5010E943004C35BDF4F0FB6F8943F
:10281000DEBF0FBECDBFDF91CF911F910F91FF9013
:10282000EF90DF90CF90BF90AF909F908F907F9070
:102830006F905F904F903F902F9008955F926F92AE
:102840007F928F929F92AF92BF92CF92DF92EF9240
:10285000FF920F931F93CF93DF93CDB7DEB7CB5487
:10286000D1090FB6F894DEBF0FBECDBF5C012C9628
:102870006FAF2C974E0182E4880E911CB9E07B2E3D
:102880001AE1612E00EF502ECC24C394E12CF12CE0
:1028900000E018EF22E032E046E351E060E070E053
:1028A000C5010E940108EAE1F2E0D401872D019000
:1028B0000D928A95E1F7F40101900020E9F7319734
:1028C000E819F909652D6E9E6019112470E0E3E0A6
:1028D000CE2E94014FE050E0C5010E940108B501E1
:1028E000CE0101960E941D11F8E2CF2ED12CA8EC4A
:1028F000EA2EF12C0BE410E024E130E04BE951E04A
:10290000BE016F5F7F4FCE01855B9F4F0E94190C08
:10291000882381F060E070E0C5010E943004B501B9
:10292000CE0101960E941D1140E060E0CE010196AB
:102930000E947F11B501CE0101960E941D1158E23F
:10294000C52ED12C68ECE62EF12C07E810E024E12E
:1029500030E048EF51E0BE016F5F7F4FCE01855BF5
:102960009F4F0E94190C882381F060E070E0C50140
:102970000E943004B501CE0101960E941D1140E075
:1029800060E0CE0101960E94FE12B501CE010196D3
:102990000E941D1138E2C32ED12C48ECE42EF12CFC
:1029A00003EC10E024E130E04EE052E0BE016F5F46
:1029B0007F4FCE01855B9F4F0E94190CB501CE0160
:1029C00001960E941D110EE011E024E130E046E97D
:1029D00051E0BE016F5F7F4FCE01855B9F4F0E942C
:1029E000190C882309F450CF60E070E0C5010E9403
:1029F0003004C55BDF4F0FB6F894DEBF0FBECDBF0E
:102A0000DF91CF911F910F91FF90EF90DF90CF90CA
:102A1000BF90AF909F908F907F906F905F90089540
:102A20000F931F93CF93DF936AEA80E090E00E94B8
:102A3000BE1A03E712E0C1E0D0E0F80161918F0116
:102A4000CE010E94BE1A2196CD31D105B1F7DF919A
:102A5000CF911F910F9108950F931F93CF93DF9301
:102A600080E090E00E94B61A8A3A79F403E712E017
:102A7000C1E0D0E0CE010E94B61AF80181938F0127
:102A80002196CD31D105B1F702C081E001C080E0CF
:102A9000DF91CF911F910F910895CF93DF93CDB721
:102AA000DEB7C154D1090FB6F894DEBF0FBECDBF5B
:102AB0000E94EB188BE592E00E941A116AE570E023
:102AC0008BE592E00E940A108CE992E00E941116B8
:102AD00063E272E08CE992E00E9422168BE592E0BC
:102AE0000E94D10D8BE592E00E94150C892B09F014
:102AF0008DC00E942C15811189C060E070E08BE5CB
:102B000092E00E9430048CE1F82E00E411E0809104
:102B10005D0290915E029C838B8380915F02909115
:102B200060029E838D8380916102909162029887FA
:102B30008F8380916302909164029A878987809144
:102B40006502909166029C878B87809167029091C5
:102B500068029E878D878091690290916A02988BA6
:102B60008F8780916B0290916C029A8B898B8091F8
:102B70006D0290916E029C8B8B8B80916F02909175
:102B800070029E8B8D8B8091710290917202988F52
:102B90008F8BE3E7F2E0DE0159968F2D01900D92C5
:102BA0008A95E1F780918F028DAB809190028EAB78
:102BB000809191029091920298AF8FAB8091930295
:102BC000909194029AAF89AF80919502909196026C
:102BD0009CAF8BAF80919702909198029EAF8DAF82
:102BE0008091990290919A0221969FAF8EAF219782
:102BF0001A83098380919B0222968FAF229740E02F
:102C000060E0CE0101960E941E1481CF8BE592E018
:102C10000E94650E0E94101570CF8BE592E00C9417
:102C2000C10D1092C50080E18093C400E0ECF0E09B
:102C300080818260808388E18093C10086E08093F8
:102C4000C2000895FB018191BF0118163CF49091D8
:102C5000C00095FFFCCF8093C600F4CF0895CF93BA
:102C6000CFB7F89480919D02811127C0E7E4F4E08A
:102C70008491E3E3F4E09491E82FF0E0EE0FFF1F7E
:102C8000E55AFB4FA591B4918C91892321F461E021
:102C90008AE00E94E71961E08AE00E94AE198CB5D3
:102CA00080618CBD8CB580648CBD61E08DE00E943C
:102CB000AE1961E08BE00E94AE1980919D028F5F9A
:102CC00080939D02CFBFCF9108958091CD0290E077
:102CD0002091CE02821B910908952091CE0280910D
:102CE000CD02281750F4E22FF0E0E153FD4F808130
:102CF00090E02F5F2093CE0208958FEF9FEF08950D
:102D0000E091CE028091CD02E81730F4F0E0E1537B
:102D1000FD4F808190E008958FEF9FEF0895089513
:102D2000CF92DF92EF92FF920F931F93CF93DF9397
:102D30007C01CB018A012091AA02222389F0EB01B8
:102D40006B01C40ED51ECC15DD0569F06991D70164
:102D5000ED91FC910190F081E02DC7010995F3CF31
:102D6000642F0E940017C801DF91CF911F910F912E
:102D7000FF90EF90DF90CF900895CF93DF931F9255
:102D8000CDB7DEB769832091AA022223D1F020912A
:102D9000AB02203240F021E030E0FC01338322839B
:102DA00080E090E015C08091AC02E82FF0E0E355A0
:102DB000FD4F998190838F5F8093AC028093AB022B
:102DC00005C061E0CE0101960E94001781E090E00D
:102DD0000F90DF91CF910895FC011382128248EE8B
:102DE00053E060E070E0448355836683778387E433
:102DF00092E09183808308958EE992E00C94EC1622
:102E0000613298F420915C03243089F460931103BB
:102E1000FC0183E193E0DC012A2F281B261718F41C
:102E200021912D93F9CF80E0089581E0089582E00B
:102E3000089585ED8093BC008091BC0084FDFCCF9B
:102E400010925C03089585EC8093BC0010925C03A3
:102E500008951F920F920FB60F9211242F933F9354
:102E60004F935F936F937F938F939F93AF93BF9392
:102E7000EF93FF938091B900887F803609F49CC05E
:102E800068F5883209F45BC090F4803109F454C0CD
:102E900038F4882309F4F5C0883009F44DC0F5C032
:102EA000883109F44CC0803209F45DC0EEC0803432
:102EB00009F468C048F4803309F455C0883309F038
:102EC000E4C08093EF02A8C0803509F44FC0883574
:102ED00009F45DC0883409F0D8C0D5C0883909F438
:102EE000C6C0A8F4883709F467C038F4883609F4F6
:102EF00063C0803709F460C0C8C0883809F4B7C01F
:102F0000803909F45FC0803809F0BFC05BC0803BE6
:102F100009F485C038F4803A09F466C0883A09F4A7
:102F20007EC0B3C0803C09F4A6C0883C09F4A3C0AD
:102F3000883B09F489C0A9C080915B0310C09091BF
:102F4000340380913303981770F5E091340381E0E6
:102F50008E0F80933403F0E0EB5CFC4F8081809314
:102F6000BB0085EC85C08093EF028DC0E0913403F7
:102F700081E08E0F809334038091BB00F0E0EB5C26
:102F8000FC4F808390913403809133036DC0E091B6
:102F9000340381E08E0F809334038091BB00F0E016
:102FA000EB5CFC4F808380915A0381116CC081E0FF
:102FB0008093590384EA60C083E080935C0310929D
:102FC000F002CFCF8091F002803208F050C0E09143
:102FD000F00281E08E0F8093F0028091BB00F0E060
:102FE000EF50FD4F8083BDCF8091F002803230F4EE
:102FF000E091F002F0E0EF50FD4F10820E941917AF
:103000006091F00270E0E0915503F091560381EF7A
:1030100092E009951092F0020E94231736C084E0D6
:1030200080935C031092120310921103E0915703F6
:10303000F0915803099580911103811105C081E039
:103040008093110310921303E091120381E08E0F1D
:1030500080931203F0E0ED5EFC4F80818093BB0013
:103060009091120380911103981708F47ACF85E8A4
:103070008093BC000AC085EC8093BC0010925C0376
:1030800004C01092EF020E941917FF91EF91BF91B7
:10309000AF919F918F917F916F915F914F913F91F0
:1030A0002F910F900FBE0F901F9018951F920F92A7
:1030B0000FB60F9211242F933F938F939F93AF934B
:1030C000BF9380915E0390915F03A0916003B091E4
:1030D000610330915D0323E0230F2D3720F4019627
:1030E000A11DB11D05C026E8230F0296A11DB11D2B
:1030F00020935D0380935E0390935F03A09360032E
:10310000B09361038091620390916303A091640383
:10311000B09165030196A11DB11D80936203909348
:103120006303A0936403B0936503BF91AF919F9134
:103130008F913F912F910F900FBE0F901F90189578
:103140003FB7F8948091620390916303A091640368
:10315000B091650326B5A89B05C02F3F19F00196D5
:10316000A11DB11D3FBF6627782F892F9A2F620FAF
:10317000711D811D911D42E0660F771F881F991FE9
:103180004A95D1F70895CF92DF92EF92FF92CF93B5
:10319000DF936B017C010E94A018EB01C114D104E4
:1031A000E104F10489F00E94471A0E94A0186C1BE8
:1031B0007D0B683E734090F381E0C81AD108E108A6
:1031C000F108C851DC4FEACFDF91CF91FF90EF902B
:1031D000DF90CF900895789484B5826084BD84B5E3
:1031E000816084BD85B5826085BD85B5816085BD02
:1031F000EEE6F0E0808181608083E1E8F0E010821B
:10320000808182608083808181608083E0E8F0E05B
:10321000808181608083E1EBF0E080818460808345
:10322000E0EBF0E0808181608083EAE7F0E080817C
:1032300084608083808182608083808181608083DC
:103240008081806880831092C10008951F93CF937E
:10325000DF93182FEB0161E00E94AE19209711F463
:1032600060E004C0CF3FD10539F461E0812FDF91E8
:10327000CF911F910C94E719E12FF0E0EB5EFB4F2B
:10328000E491E330F9F048F4E130B9F0E230A1F52F
:1032900084B5806284BDC8BD34C0E730E9F0E83051
:1032A00019F1E43049F580918000806280938000BC
:1032B000D0938B00C0938A0024C084B5806884BDFD
:1032C000C7BD1FC080918000806880938000D0932C
:1032D0008900C093880015C08091B00080688093F9
:1032E000B000C093B3000DC08091B00080628093A5
:1032F000B000C093B40005C0C038D1050CF0B5CF04
:10330000AFCFDF91CF911F910895833081F028F4E2
:10331000813099F08230A1F008958730A9F088308B
:10332000B9F08430D1F4809180008F7D03C080910A
:1033300080008F7780938000089584B58F7702C0D6
:1033400084B58F7D84BD08958091B0008F7703C0D0
:103350008091B0008F7D8093B0000895CF93DF936C
:1033600090E0FC01E75DFB4F2491FC01E35CFB4F27
:103370008491882349F190E0880F991FFC01E55A58
:10338000FB4FA591B4918F5A9B4FFC01C591D491ED
:103390009FB7611108C0F8948C91209582238C937B
:1033A000888182230AC0623051F4F8948C91322FC4
:1033B000309583238C938881822B888304C0F89472
:1033C0008C91822B8C939FBFDF91CF9108950F93A7
:1033D0001F93CF93DF931F92CDB7DEB7282F30E036
:1033E000F901EB5EFB4F8491F901E75DFB4F14910E
:1033F000F901E35CFB4F04910023C9F0882321F01D
:1034000069830E9485196981E02FF0E0EE0FFF1FAC
:10341000EF5AFB4FA591B4919FB7F8948C9161112D
:1034200003C01095812301C0812B8C939FBF0F9007
:10343000DF91CF911F910F9108950E94B11ACF9201
:10344000DF92EF92FF920F931F93CF93DF936C0164
:103450007A01EB01E60EF71E00E010E0CE15DF0565
:1034600061F06991D601ED91FC910190F081E02D20
:10347000C6010995080F191FF1CFC801DF91CF913F
:103480001F910F91FF90EF90DF90CF9008950895D6
:10349000DB018F939F930E94981ABF91AF91A29FD7
:1034A000800D911DA39F900DB29F900D1124089542
:1034B000A1E21A2EAA1BBB1BFD010DC0AA1FBB1F38
:1034C000EE1FFF1FA217B307E407F50720F0A21BAA
:1034D000B30BE40BF50B661F771F881F991F1A9417
:1034E00069F760957095809590959B01AC01BD0141
:1034F000CF0108950E94821A332312F48A1B9B0B7A
:103500000C94931AA29FB001B39FC001A39F700DAA
:10351000811D1124911DB29F700D811D1124911DDB
:1035200008950E94821AB7FF0895821B930B089595
:103530000E94821AA59F900DB49F900DA49F800DAC
:10354000911D11240895B7FF0C94981A0E94981A9F
:10355000821B930B0895EE0FFF1F0590F491E02D51
:10356000099481E090E0F8940C94CC1AF999FECF7C
:1035700092BD81BDF89A992780B50895262FF999B3
:10358000FECF1FBA92BD81BD20BD0FB6F894FA9A46
:0C359000F99A0FBE01960895F894FFCF41
:10359C0000006603800014000000140000002C01E1
:1035AC00000078000000A0000000DC00000000001B
:1035BC00000091031F1A1D1A1D1A1D1A1D1A1D1A1F
:1035CC0066027F037072657373656400000000000F
:1035DC0091031F1A0A10CC0FA20F910D8F0D6602CA
:1035EC007F03646966666963756C74792076362E20
:1035FC0039004541535920203A004D454449554D19
:10360C003A004841524420203A00656173790A001F
:10361C006D656469756D0A00686172640A006E6F8D
:10362C007468696E67004261636B00446966666921
:10363C0063756C74790067656E657261746F722066
:10364C0073657474696E6773207633005265616CB0
:10365C002D54696D653A005072652D54696D652065
:10366C003A0070726554696D652073656C6563749E
:10367C006564200A007265616C54696D6520736520
:10368C006C65637465640A0047656E657261746F7E
:10369C00720073657474696E6773207631005265BD
:1036AC007365742053636F72650053657474696E2F
:1036BC0067730053756363657366756C6C79206909
:1036CC006E697469616C6973656420555341525419
:1036DC00200A0000000000BD16901665166D1680BD
:0436EC00168F16001F
:00000001FF
