:100000000C9429020C9451020C9451020C9451024C
:100010000C9451020C9451020C9451020C94510214
:100020000C9451020C9451020C9451020C94510204
:100030000C9451020C9451020C9451020C945102F4
:100040000C9444300C9451020C9451020C945102C3
:100050000C9451020C9451020C9451020C945102D4
:100060000C94172F0C9451020000000000000000B7
:1000700030787830300030006C6C6C00000000008C
:100080006C6CFE6CFE6C6C00307CC0780CF8300040
:1000900000C6CC183066C600386C3876DCCC7600EA
:1000A0006060C00000000000183060606030180020
:1000B000603018181830600000663CFF3C66000095
:1000C000003030FC30300000000000000070306074
:1000D000000000FC000000000000000000303000C4
:1000E000060C183060C0800078CCDCFCECCC7800CA
:1000F00030F030303030FC0078CC0C3860CCFC0074
:1001000078CC0C380CCC78001C3C6CCCFE0C0C0071
:10011000FCC0F80C0CCC78003860C0F8CCCC78006F
:10012000FCCC0C183060600078CCCC78CCCC78005B
:1001300078CCCC7C0C1870000000303000303000DF
:100140000000303000703060183060C0603018003F
:100150000000FC00FC0000006030180C183060004B
:1001600078CC0C18300030007CC6DEDEDEC07800B3
:100170003078CCCCFCCCCC00FC66667C6666FC009F
:100180003C66C0C0C0663C00FC6C6666666CFC00E9
:10019000FE6268786862FE00FE6268786860F0005F
:1001A0003C66C0C0CE663E00CCCCCCFCCCCCCC00F7
:1001B00078303030303078001E0C0C0CCCCC78000D
:1001C000E6666C786C66E600F06060606266FE0071
:1001D000C6EEFED6C6C6C600C6E6F6DECEC6C6006B
:1001E000386CC6C6C66C3800FC66667C6060F00081
:1001F00078CCCCCCDC781C00FC66667C786CE600A5
:1002000078CCE0381CCC7800FCB43030303078004A
:10021000CCCCCCCCCCCCFC00CCCCCCCCCC78300076
:10022000C6C6C6D6FEEEC600C6C66C386CC6C600CC
:10023000CCCCCC7830307800FECC983062C6FE0052
:100240007860606060607800C06030180C06020062
:10025000781818181818780010386CC600000000BC
:1002600000000000000000FF303018000000000017
:100270000000780C7CCC7600E0607C666666BC0092
:10028000000078CCC0CC78001C0C0C7CCCCC760068
:10029000000078CCFCC07800386C60F06060F00042
:1002A000000076CCCC7C0CF8E0606C766666E600EC
:1002B0003000703030307800180078181818D87076
:1002C000E060666C786CE60070303030303078007A
:1002D0000000ECFED6C6C6000000F8CCCCCCCC00AA
:1002E000000078CCCCCC78000000DC66667C60F046
:1002F000000076CCCC7C0C1E0000D86C6C60F0004A
:1003000000007CC0780CF80010307C3030341800CD
:100310000000CCCCCCCC76000000CCCCCC7830002B
:100320000000C6C6D6FE6C000000C66C386CC60065
:100330000000CCCCCC7C0CF80000FC983064FC00B5
:100340001C3030E030301C00181818001818180045
:10035000E030301C3030E00076DC000000000000AF
:1003600010386CC6C6C6FE004128D441CF83008336
:100370003041ED846403128141E88385017941CBEA
:1003800085392C00340241F7812041EA8200004186
:10039000C0812641C1811141C582353E41C781BE20
:1003A00041B182001B41F281084126810141E08F69
:1003B0001F1A180A0F064587320A0702070500416F
:1003C000E18F0025270510093A784D05180D383AB8
:1003D0001F41B6840A82270041B78107413A8155FF
:1003E000413681E8412A82000082013F412B820090
:1003F000008200EF4111FCFC4129D4FFFF00000006
:1004000008000201000003040700000000000000D3
:10041000000102040810204080010204081020019D
:100420000204081020040404040404040402020268
:100430000202020303030303030000000025002857
:10044000002B0000000000240027002A0000E21218
:10045000352E11241FBECFEFD8E0DEBFCDBF12E096
:10046000A0E0B1E0EAE3FAE602C005900D92A838F8
:10047000B107D9F726E0A8E8B2E001C01D92AD337C
:10048000B207E1F714E0C2E5D4E004C02297FE0110
:100490000E944A34CE34D107C9F70E9424120C942A
:1004A0001B350C940000EF92FF920F931F93CF9394
:1004B000DF93EC0160E070E00E94B014EE24E3945E
:1004C00085E0F82E00E411E024E130E040E050E067
:1004D00060E070E0CE010E94FC1624E130E040E0D4
:1004E00050E06CED70E0CE010E94FC16DF91CF91E0
:1004F0001F910F91FF90EF900895DC01ED91FC9119
:100500000190F081E02D09948EBD00000DB407FE2E
:10051000FDCF8EB508958F929F92AF92BF92CF92EA
:10052000DF92EF92FF920F931F93CF93DF93982E5A
:100530000E949C346C010E949C347C010E949C347B
:100540008C010E949C345C01E92DF0E085E0882E4E
:100550008E9EE0018F9ED00D1124C75EDA4FC6013A
:1005600065E070E00E94E1338983188229E630E07B
:10057000C701B9010E94E1338A568B83C801B901D2
:100580000E94E1338A568C83AF014F5F5F4F849E98
:10059000F001859EF00D1124E75EFA4FC501B90107
:1005A0000E94E1338A56808380911001882311F0E4
:1005B00081E00BC080916F05882349F00E949C3434
:1005C00062E070E00E94E1338F5F8A830FC0809108
:1005D0006E05882359F0911002C082E0F6CF81E0C9
:1005E000981619F082E0981201C09A82DF91CF919B
:1005F0001F910F91FF90EF90DF90CF90BF90AF9041
:100600009F908F90089580E00E948B0281E00E946D
:100610008B0282E00C948B022F923F924F925F925A
:100620006F927F928F929F92AF92BF92CF92DF9202
:10063000EF92FF920F931F93CF93DF9300D01F92FF
:10064000CDB7DEB70AE912E08BE992E09B838A839B
:100650009EE9E92E92E0F92E41E06624639429E6B2
:10066000C22ED12C32E0232E312C443009F441E04B
:1006700049830E949C344C010E949C345C01C4015B
:1006800065E070E00E94E133782EF8018083EA8112
:10069000FB81329710820E949C342C010E949C3472
:1006A0004C010E949C349C01F7013297C201B601B3
:1006B0000E94E1338A5680833196C401B6010E94BC
:1006C000E1338A568083C901B6010E94E1338A561C
:1006D000F7018083809110014981882331F0F8016E
:1006E0007082EA81FB81608224C080916F0588233B
:1006F00059F0F8017082C501B1010E94E133019601
:10070000EA81FB81808315C080916E05882389F082
:10071000F8017082413041F0423021F4EA81FB81DE
:10072000608206C0433021F422E0EA81FB8120830D
:100730004F5F0B5F1F4F8A819B8105969B838A8346
:1007400095E0E90EF11CEA81FB81EB51F54009F0DF
:100750008CCF85E0E9E9F2E0A9E1B5E001900D92E6
:100760008A95E1F785E0EEE9F2E0AEE1B5E00190CF
:100770000D928A95E1F785E0E3EAF2E0A3E2B5E0C5
:1007800001900D928A95E1F70F900F900F90DF91F5
:10079000CF911F910F91FF90EF90DF90CF90BF907E
:1007A000AF909F908F907F906F905F904F903F9011
:1007B0002F900895282F30E090918C02899FA001FE
:1007C00011244537510514F00C940C0381110FC00E
:1007D00081E0890F80938C0245E0429FD001439FC6
:1007E000B00D1124A75EBA4F90E0039628C0813067
:1007F00091F480918B028F5F80938B0245E0429F42
:10080000D001439FB00D1124A75EBA4F90E001962E
:10081000880F991F14C08230E9F480918A028F5F9B
:1008200080938A0245E0429FD001439FB00D11247E
:10083000A75EBA4F23E0829FC00111240596489F0E
:10084000F001499FF00D1124E756FD4F01900D92E4
:100850004A95E1F70895CF93DF93EC01FB01828184
:1008600093819B838A8386E891E09983888384813E
:1008700095819D838C83868197819F838E838085DC
:10088000918599878887828593859B878A878485C8
:1008900095859D878C87868597859F878E8780899C
:1008A0009189998B888B828993899B8B8A8B848988
:1008B00095899D8B8C8B868997899F8B8E8B8CE1FC
:1008C0007896DE01589601900D928A95E1F7FB012A
:1008D00084A98CAB85A98DAB86A997A99FAB8EAB5C
:1008E00080AD91AD99AF88AF82AD93AD9BAF8AAF2C
:1008F00084AD95AD9DAF8CAF86AD97AD9FAF8EAFFC
:1009000086EC91E099838883E05CFF4F8081C05C36
:10091000DF4F8883DF91CF910895FF920F931F934C
:10092000CF93DF93CDB7DEB7C554D1090FB6F89496
:10093000DEBF0FBECDBF8C018091890281110DC039
:1009400080917005811109C080911101882329F0DF
:100950000E94030381E08093890280916E058130BB
:1009600009F05BC090918802983009F056C010924F
:10097000880290911A05943011F483E002C091111D
:1009800003C080931A050FC00E949C3462E070E09F
:100990000E94E13390911A05811102C09F5F01C04E
:1009A000915090931A0580911F05843011F483E0D3
:1009B00003C0811104C081E080931F050FC00E9415
:1009C0009C3462E070E00E94E13390911F05811138
:1009D00002C09F5F01C0915090931F058091240534
:1009E000843011F483E003C0811104C081E080935E
:1009F000240513C080911F05843079F00E949C3437
:100A000062E070E00E94E13390912405811102C000
:100A10009F5F01C09150909324058FEF23968FAF75
:100A2000239724968FAF249725968FAF2597809193
:100A30009802863151F410929802809170058823B3
:100A400011F080E00FC080E021C0809197028631D4
:100A500071F41092970210928E0280917005882393
:100A600021F081E00E94DA0313C081E00FC0809181
:100A70009602863169F41092960210928D0280914E
:100A80007005882311F082E0EDCF82E00E948B0296
:100A900080911B0540919502F0909202B80181303F
:100AA00031F5CE01019626964FAF26970E942B0472
:100AB00026964FAD26976F2DCE0101960E94F20A21
:100AC00040919802F0901A05B801CE010196269641
:100AD0004FAF26970E942B042CE135E026964FADB0
:100AE00026976F2DCE0101960E94090925C0CE01DF
:100AF000019626964FAF26970E942B0426964FAD5F
:100B000026976F2DCE0101960E94020E4091980209
:100B1000F0901A05B801CE01019626964FAF2697A0
:100B20000E942B042CE135E026964FAD26976F2DC1
:100B3000CE0101960E944C0C80919702809319057A
:100B40009091200580919702913069F587FD5CC0F6
:100B500040919402F0909102B801CE010196269640
:100B60004FAF26970E942B0426964FAD26976F2DE8
:100B7000CE0101960E94F20A40919702F0901F0563
:100B8000B801CE01019626964FAF26970E942B04FE
:100B900021E235E026964FAD26976F2DCE010196C6
:100BA0000E9409092DC087FD2FC040919402F0904A
:100BB0009102B801CE01019626964FAF26970E946A
:100BC0002B0426964FAD26976F2DCE0101960E94DD
:100BD000020E40919702F0901F05B801CE010196D8
:100BE00026964FAF26970E942B049E012E5B3F4F07
:100BF00026964FAD26976F2DCE0101960E944C0C84
:100C00008091970280931E05909125058091960210
:100C1000913069F587FD5BC040919302F09090029E
:100C2000B801CE01019626964FAF26970E942B045D
:100C300026964FAD26976F2DCE0101960E94F20A9F
:100C400040919602F0902405B801CE0101962696B7
:100C50004FAF26970E942B0426E235E026964FAD33
:100C600026976F2DCE0101960E9409092CC087FDA1
:100C70002EC040919302F0909002B801CE010196EF
:100C800026964FAF26970E942B0426964FAD2697A7
:100C90006F2DCE0101960E94020E40919602F090B7
:100CA0002405B801CE01019626964FAF26970E94E3
:100CB0002B0426E235E026964FAD26976F2DCE0108
:100CC00001960E944C0C809197028093230580919D
:100CD000980280939502209197022093940290911C
:100CE00096029093930230911A05309392023091BC
:100CF0001F053093910230912405309390028F5F4D
:100D000080939802873048F430918E02311105C0EB
:100D100080918D02811109C00EC02F5F2093970230
:100D200021E020938E028D3098F39F5F909396027E
:100D300081E080938D02809188028F5F809388028A
:100D4000CB5BDF4F0FB6F894DEBF0FBECDBFDF9198
:100D5000CF911F910F91FF9008952F923F924F9244
:100D60005F926F927F928F929F92AF92BF92CF923B
:100D7000DF92EF92FF920F931F93CF93DF93CDB744
:100D8000DEB7C754D1090FB6F894DEBF0FBECDBF92
:100D90003C0180910E0123968FAF239780910C0127
:100DA00024968FAF249780910D0125968FAF2597BC
:100DB00080910F01813061F080916D05813051F09B
:100DC00080916C05813059F026961FAE26970BC096
:100DD00085E006C094E026969FAF269704C083E086
:100DE00026968FAF2697B301CE0101960E942B0461
:100DF000CE0101960E94530283E295E00E943825BD
:100E000010929802109297021092960210929502F8
:100E100010929402109293021092920210929102F8
:100E20001092900210928F0210928E0210928D02F8
:100E30008091700581110E940C03412C512C212CB2
:100E4000312C28961FAE1EAE2897812C912CB12CE8
:100E500012E080917205882309F11092720560E01A
:100E600070E0C3010E94B014C95BDF4F0FB6F89465
:100E7000DEBF0FBECDBFDF91CF911F910F91FF90CD
:100E8000EF90DF90CF90BF90AF909F908F907F902A
:100E90006F905F904F903F902F90089580917105D3
:100EA000882309F459C01092980210929702109268
:100EB0009602109295021092940210929302109250
:100EC0009202109291021092900210928F02109250
:100ED0008E0210928D0280910E0123968FAF239780
:100EE00080910C0124968FAF249780910D01259657
:100EF0008FAF259780910F01813061F080916D0552
:100F0000813051F080916C05813059F026961FAEEA
:100F100026970BC095E006C084E026968FAF2697F3
:100F200004C093E026969FAF2697B301CE010196A9
:100F30000E942B04CE0101960E945302109271056B
:100F4000412C512C212C312C28961FAE1EAE2897F7
:100F5000812C912CB12C12E0B301CE0101960E949C
:100F60002B04CE0101960E948D04B301CE0101969F
:100F70000E942B049E012E5B3F4F4CE0612FCE015F
:100F800001960E94090980911B05813031F49091EE
:100F900098029C50953040F033C0823089F5909192
:100FA00098029C509B3060F590911A0591130BC0EC
:100FB000B301CE0101960E942B04B401CE0101962B
:100FC0000E94CD0F1DC0813051F428968EAD9FAD8B
:100FD0002897892BA9F49FEF891A990A0BC08230B0
:100FE00079F428968EAD9FAD2897892B49F492E02D
:100FF000890E911C81E090E028969FAF8EAF2897D4
:1010000080912005813031F4809197028C50853099
:1010100040F02CC0823051F5809197028C508A307C
:1010200028F580911F0581130BC0B301CE010196F5
:101030000E942B04B401CE0101960E94CD0F16C070
:1010400080911B05813039F42114310479F49FEF2C
:10105000891A990A08C0823049F42114310431F404
:1010600082E0880E911C22242394312C8091250546
:10107000813031F4809196028C50853040F02CC044
:10108000823051F5809196028C508A3028F58091FB
:10109000240581130BC0B301CE0101960E942B04DD
:1010A000B401CE0101960E94CD0F16C080911B05A0
:1010B000813039F44114510479F49FEF891A990A67
:1010C00008C0823049F44114510431F482E0880EA2
:1010D000911C44244394512C80919802813059F002
:1010E00080919702813061F080919602813051F4B5
:1010F000412C512C07C028961FAE1EAE289702C067
:10110000212C312C83E295E00E947B25882309F471
:10111000A0CE83E295E00E946F25813049F4B301AF
:10112000CE0101960E942B04CE0101960E94A925B2
:1011300083E295E00E946C258539C0F0B1100FC0A4
:10114000B301CE0101960E942B044CE0612FCE0129
:1011500001960E94F20A143020F51F5F22C0B3945A
:1011600026969FAD2697B91630F124C083E295E00C
:101170000E946C25873470F183E295E00E946C2513
:101180008C3640F5B11010C0B301CE0101960E941B
:101190002B044CE0612FCE0101960E94F20A11113E
:1011A0001150BB24B39407C0B39426968FAD2697F5
:1011B000B81608F0B12CB301CE0101960E942B04A1
:1011C0009E012E5B3F4F4CE0612FCE0101960E94A5
:1011D00009090DC083E295E00E946C25893738F03B
:1011E00083E295E00E946C25883808F4B12CAA248B
:1011F000A394C12CD12CEE24E39465E0F62E0AE0F2
:10120000940142E050E066E170E0C3010E9484175F
:1012100020CE6F927F928F929F92AF92BF92CF9289
:10122000DF92EF92FF920F931F93CF93DF936C01A6
:10123000762E642EE9018881887F99819C7F28E041
:10124000929F70011124F82A8A8186958695869549
:10125000E82A842F0E94731B5C01872D0E94781B53
:1012600000E410E028E230E0A501BC01C6010E94C4
:10127000FC168881887F99819C7F28E0929F70016D
:101280001124F82A8A81869586958695E82A862DE6
:101290000E94731B8C01872D0E94781B4C01862DA8
:1012A0000E94731B5C01872D0E94781B065E1F4FF6
:1012B0009401265F3F4FA501405F5F4FBC016F5F08
:1012C0007F4FC6010E94F1158881887F99819C7F9C
:1012D00028E0929F70011124F82A8A8186958695CC
:1012E0008695E82A862D0E94731B8C01872D0E940B
:1012F000781B4C01862D0E94731B5C01872D0E9478
:10130000781B065E1F4F9401225E3F4FA501405F90
:101310005F4FBC01695D7F4FC6010E94F115888156
:10132000887F99819C7F28E0929F70011124F82A80
:101330008A81869586958695E82A862D0E94731B5C
:101340008C01872D0E94781B4C01862D0E94731BF7
:101350005C01872D0E94781B065E1F4F9401225E60
:101360003F4FA501465E5F4FBC01665F7F4FC601E0
:101370000E94F1158881887F99819C7F28E0929F47
:1013800070011124F82A8A81869586958695E82A27
:10139000862D0E94731B8C01872D0E94781B4C01A7
:1013A000862D0E94731B5C01872D0E94781B0A5DAD
:1013B0001F4F9401225E3F4FA5014A5D5F4FBC0164
:1013C000665F7F4FC6010E94F1158881887F9981F1
:1013D0009C7F28E0929F70011124F82A8A818695CB
:1013E00086958695E82A862D0E94731B8C01872D91
:1013F0000E94781B4C01862D0E94731B5C01872D77
:101400000E94781B0A5D1F4F9401265F3F4FA50184
:10141000405D5F4FBC016F5F7F4FC6010E94F115B9
:101420008881887F99819C7F28E0929F7001112498
:10143000F82A8A81869586958695E82A862D0E94C7
:10144000731B8C01872D0E94781B4C01862D0E94F6
:10145000731B5C01872D0E94781B0A5D1F4F94014E
:10146000225E3F4FA501405D5F4FBC01695D7F4F2C
:10147000C6010E94F1158881887F99819C7F28E0B0
:10148000929F70011124F82A8A8186958695869507
:10149000E82A862D0E94731B8C01872D0E94781BE1
:1014A0004C01862D0E94731B5C01872D0E94781BC6
:1014B0000A5D1F4F9401265F3F4FA501465E5F4FB7
:1014C000BC01665F7F4FC6010E94F1158881887F4D
:1014D00099819C7F28E0929F70011124F82A8A81CB
:1014E000869586958695E82A862D0E94731B8C0129
:1014F000872D0E94781B4C01862D0E94731B5C0176
:10150000872D0E94781B0A5D1F4F9401225E3F4F7A
:10151000A501465E5F4FBC01625E7F4FC6010E941F
:10152000F1158881887F99819C7F28E0929F7001C6
:101530001124F82A8A81869586958695E82A862D33
:101540000E94731B8C01872D0E94781B4C01862DF5
:101550000E94731B5C01872D0E94781B005F1F4F48
:1015600094012A5D3F4FA501405F5F4FBC01C6015A
:101570000E94F1158881887F99819C7F28E0929F45
:1015800070011124F82A8A81869586958695E82A25
:10159000862D0E94731B8C01872D0E94781B5C0195
:1015A000862D0E94731BEC01872D0E94781B005D25
:1015B0001F4F95012A5D3F4FAE01405D5F4FBC015B
:1015C000C6010E94F115DF91CF911F910F91FF90FD
:1015D000EF90DF90CF90BF90AF909F908F907F90D3
:1015E0006F900895AF92BF92CF92DF92EF92FF92E9
:1015F0000F931F93CF93DF93EC01B62EA42E842F6D
:101600000E94731B8C018B2D0E94781B6C018A2D0C
:101610000E94731B7C018B2D0E94781B065E1F4F5E
:101620009601265F3F4FA701405F5F4FBC016F5F90
:101630007F4FE12CF12CCE010E94F1158A2D0E94E2
:10164000731B8C018B2D0E94781B6C018A2D0E94CC
:10165000731B7C018B2D0E94781B065E1F4F960129
:10166000225E3F4FA701405F5F4FBC01695D7F4F26
:10167000E12CF12CCE010E94F1158A2D0E94731BE2
:101680008C018B2D0E94781B6C018A2D0E94731B8C
:101690007C018B2D0E94781B065E1F4F9601225EF7
:1016A0003F4FA701465E5F4FBC01665F7F4FE12C55
:1016B000F12CCE010E94F1158A2D0E94731B8C0122
:1016C0008B2D0E94781B6C018A2D0E94731B7C015C
:1016D0008B2D0E94781B0A5D1F4F9601225E3F4FA3
:1016E000A7014A5D5F4FBC01665F7F4FE12CF12C83
:1016F000CE010E94F1158A2D0E94731B8C018B2D47
:101700000E94781B6C018A2D0E94731B7C018B2D1B
:101710000E94781B0A5D1F4F9601265F3F4FA7016D
:10172000405D5F4FBC016F5F7F4FE12CF12CCE011C
:101730000E94F1158A2D0E94731B8C018B2D0E9433
:10174000781B6C018A2D0E94731B7C018B2D0E94DB
:10175000781B0A5D1F4F9601225E3F4FA701405D37
:101760005F4FBC01695D7F4FE12CF12CCE010E94DF
:10177000F1158A2D0E94731B8C018B2D0E94781B02
:101780006C018A2D0E94731B7C018B2D0E94781B9B
:101790000A5D1F4F9601265F3F4FA701465E5F4FD0
:1017A000BC01665F7F4FE12CF12CCE010E94F11548
:1017B0008A2D0E94731B8C018B2D0E94781B6C015B
:1017C0008A2D0E94731B7C018B2D0E94781B0A5D61
:1017D0001F4F9601225E3F4FA701465E5F4FBC013F
:1017E000625E7F4FE12CF12CCE010E94F1158A2D13
:1017F0000E94731B8C018B2D0E94781B6C018A2D1B
:101800000E94731B7C018B2D0E94781B005F1F4F71
:101810009601285D3F4FA701405F5F4FE12CF12CFF
:10182000BC01CE010E94F1158A2D0E94731B8C0110
:101830008B2D0E94781B7C018A2D0E94731B6C01EA
:101840008B2D0E94781B005D1F4F9701285D3F4F35
:10185000A601405D5F4FE12CF12CBC01CE010E943E
:10186000F1158A2D0E94731B6C018B2D0E94781B31
:1018700000E410E028E230E0A601BC01CE010E94A5
:10188000FC16DF91CF911F910F91FF90EF90DF90A9
:10189000CF90BF90AF9008956F927F928F929F925A
:1018A000AF92BF92CF92DF92EF92FF920F931F936E
:1018B000CF93DF936C01762E642EE9018881887FB7
:1018C00099819C7F28E0929F70011124F82A8A81D7
:1018D000869586958695E82A842F0E94731B8C0135
:1018E000872D0E94781B4C01862D0E94731B5C0182
:1018F000872D0E94781B0E5C1F4F9401295D3F4F7E
:10190000A5014E5C5F4FBC01C6010E94F1158881A4
:10191000887F99819C7F28E0929F70011124F82A8A
:101920008A81869586958695E82A862D0E94731B66
:101930008C01872D0E94781B4C01862D0E94731B01
:101940005C01872D0E94781B015C1F4F94012B5F67
:101950003F4FA5014E5C5F4FBC016B5F7F4FC601DF
:101960000E94F1158881887F99819C7F28E0929F51
:1019700070011124F82A8A81869586958695E82A31
:10198000862D0E94731B8C01872D0E94781B4C01B1
:10199000862D0E94731B5C01872D0E94781B015CC1
:1019A0001F4F94012D5D3F4FA5014E5C5F4FBC0161
:1019B0006D5D7F4FC6010E94F1158881887F9981F6
:1019C0009C7F28E0929F70011124F82A8A818695D5
:1019D00086958695E82A862D0E94731B8C01872D9B
:1019E0000E94781B4C01862D0E94731B5C01872D81
:1019F0000E94781B0D5D1F4F9401225E3F4FA50191
:101A00004D5D5F4FBC01665F7F4FC6010E94F115BF
:101A10008881887F99819C7F28E0929F70011124A2
:101A2000F82A8A81869586958695E82A862D0E94D1
:101A3000731B8C01872D0E94781B4C01862D0E9400
:101A4000731B5C01872D0E94781B0E5C1F4F940155
:101A50002B5F3F4FA5014D5D5F4FBC01665F7F4F20
:101A6000C6010E94F1158881887F99819C7F28E0BA
:101A7000929F70011124F82A8A8186958695869511
:101A8000E82A862D0E94731B8C01872D0E94781BEB
:101A90004C01862D0E94731B5C01872D0E94781BD0
:101AA0000E5C1F4F94012D5D3F4FA5014D5D5F4FB3
:101AB000BC01625E7F4FC6010E94F1158881887F5C
:101AC00099819C7F28E0929F70011124F82A8A81D5
:101AD000869586958695E82A862D0E94731B8C0133
:101AE000872D0E94781B4C01862D0E94731B5C0180
:101AF000872D0E94781B0D5D1F4F9401265F3F4F7D
:101B0000A501475E5F4FBC01665F7F4FC6010E9423
:101B1000F1158881887F99819C7F28E0929F7001D0
:101B20001124F82A8A81869586958695E82A862D3D
:101B30000E94731B8C01872D0E94781B4C01862DFF
:101B40000E94731B5C01872D0E94781B0D5D1F4F47
:101B50009401225E3F4FA501475E5F4FBC01625E6C
:101B60007F4FC6010E94F1158881887F99819C7FF3
:101B700028E0929F70011124F82A8A818695869523
:101B80008695E82A8DEF860D0E94731B5C01872DD8
:101B90000E94781B0AE510E028E230E0A501BC01B4
:101BA000C6010E94FC168881887F99819C7F28E06D
:101BB000929F70011124F82A8A81869586958695D0
:101BC000E82A862D0E94731BEC01872D0E94781B4A
:101BD000AE01455E5F4F05E210E028E230E0BC0157
:101BE000C6010E94FC16DF91CF911F910F91FF90CB
:101BF000EF90DF90CF90BF90AF909F908F907F90AD
:101C00006F900895AF92BF92CF92DF92EF92FF92C2
:101C10000F931F93CF93DF93EC01B62EA42E842F46
:101C20000E94731B8C018B2D0E94781B6C018A2DE6
:101C30000E94731B7C018B2D0E94781B0E5C1F4F32
:101C40009601295D3F4FA7014E5C5F4FE12CF12CBF
:101C5000BC01CE010E94F1158A2D0E94731B8C01DC
:101C60008B2D0E94781B6C018A2D0E94731B7C01B6
:101C70008B2D0E94781B015C1F4F96012B5F3F4FFD
:101C8000A7014E5C5F4FBC016B5F7F4FE12CF12CD5
:101C9000CE010E94F1158A2D0E94731B8C018B2DA1
:101CA0000E94781B6C018A2D0E94731B7C018B2D76
:101CB0000E94781B015C1F4F96012D5D3F4FA701CD
:101CC0004E5C5F4FBC016D5D7F4FE12CF12CCE016E
:101CD0000E94F1158A2D0E94731B8C018B2D0E948E
:101CE000781B6C018A2D0E94731B7C018B2D0E9436
:101CF000781B0D5D1F4F9601225E3F4FA7014D5D82
:101D00005F4FBC01665F7F4FE12CF12CCE010E943A
:101D1000F1158A2D0E94731B8C018B2D0E94781B5C
:101D20006C018A2D0E94731B7C018B2D0E94781BF5
:101D30000E5C1F4F96012B5F3F4FA7014D5D5F4F1C
:101D4000BC01665F7F4FE12CF12CCE010E94F115A2
:101D50008A2D0E94731B8C018B2D0E94781B6C01B5
:101D60008A2D0E94731B7C018B2D0E94781B0E5CB8
:101D70001F4F96012D5D3F4FA7014D5D5F4FBC0189
:101D8000625E7F4FE12CF12CCE010E94F1158A2D6D
:101D90000E94731B8C018B2D0E94781B6C018A2D75
:101DA0000E94731B7C018B2D0E94781B0D5D1F4FC1
:101DB0009601265F3F4FA701475E5F4FBC01665FFC
:101DC0007F4FE12CF12CCE010E94F1158A2D0E944B
:101DD000731B8C018B2D0E94781B7C018A2D0E9425
:101DE000731B6C018B2D0E94781B0D5D1F4F97019B
:101DF000225E3F4FA601475E5F4FBC01625E7F4F90
:101E0000E12CF12CCE010E94F1158DEF8A0D0E947C
:101E1000731B6C018B2D0E94781B0AE510E028E2F1
:101E200030E0A601BC01CE010E94FC168A2D0E9462
:101E3000731B6C018B2D0E94781BA601455E5F4FC2
:101E400005E210E028E230E0BC01CE010E94FC1661
:101E5000DF91CF911F910F91FF90EF90DF90CF9086
:101E6000BF90AF9008950C94D6340C94DE346F92EA
:101E70007F928F929F92AF92BF92CF92DF92EF921A
:101E8000FF920F931F93CF93DF93CDB7DEB7CB5461
:101E9000D1090FB6F894DEBF0FBECDBF5C014E0175
:101EA00082E4880E911C3AE0D32E4AE1742E50EF62
:101EB000652EECE3F1E0D4018D2D01900D928A9511
:101EC000E1F7F40101900020E9F73197E819F909E9
:101ED000662D7E9E6019112470E093E0C92EE12CDE
:101EE000F12C00E018EF94014FE050E0C5010E9492
:101EF0004617B501CE0101960E942B0428E2E22E7E
:101F0000F12C08EC10E02BE430E044E150E06AE210
:101F100071E0CE0101960E94F61E882349F060E030
:101F200070E0C5010E94B01481E0809371051FC06C
:101F3000B501CE0101960E942B0488E2E82EF12C17
:101F400008EC10E027E830E044E150E062E371E0A3
:101F5000CE0101960E94F61E882309F4AACF60E004
:101F600070E0C5010E94B01481E080937205C55BEA
:101F7000DF4F0FB6F894DEBF0FBECDBFDF91CF911C
:101F80001F910F91FF90EF90DF90CF90BF90AF9097
:101F90009F908F907F906F9008952F923F924F92D5
:101FA0005F926F927F928F929F92AF92BF92CF92E9
:101FB000DF92EF92FF920F931F93CF93DF93CDB7F2
:101FC000DEB7C955D1090FB6F894DEBF0FBECDBF3D
:101FD0004C013B018BEA90E00E94330F182F60E028
:101FE00070E0C4010E94B01411113CC060E08BEAA3
:101FF00090E00E94350F61E48EEA90E00E94350F78
:1020000061E48FEA90E00E94350F61E480EB90E09C
:102010000E94350F60E08CEA90E00E94350F61E489
:1020200081EB90E00E94350F61E482EB90E00E942A
:10203000350F61E483EB90E00E94350F60E08DEA9C
:1020400090E00E94350F61E484EB90E00E94350F30
:1020500061E485EB90E00E94350F61E486EB90E04F
:102060000E94350F01E4B02E81E469968FAF699725
:1020700068968FAF68971E018DE4280E311C2E01E3
:1020800082E4480E511C80917105882321F081E083
:102090008093710582C180917205882321F081E0CF
:1020A000809372057AC18DEA90E00E94330F90E030
:1020B0008615970508F062C1EDE4F1E0D1018AE0F0
:1020C00001900D928A95E1F7F10101900020E9F766
:1020D0003197E219F30960EF8AE18E9F60191124AC
:1020E00070E0E3E0CE2EE12CF12C00E018EF91013E
:1020F0004FE050E0C4010E944617F3E0AF2EC12C20
:10210000D12CE12CA8EFFA2E0AE0930140E550E033
:1021100066E470E0C4010E948417E7E5F1E0D201B3
:102120008BE001900D928A95E1F7F2010190002079
:10213000E9F73197E419F50960EF84E18E9F6019A2
:10214000112470E0B2E0CB2EE12CF12C00E018EF6E
:1021500092014CE850E0C4010E944617B401CE0140
:1021600001960E942B0468962FAD689740EA50E0D4
:1021700063E270E0CE0101960E94722168968FAFF3
:102180006897B401CE0101960E942B0469962FAD89
:10219000699740EA50E06FE570E0CE0101960E9439
:1021A000722169968FAF6997B401CE0101960E94A2
:1021B0002B042B2D40EA50E06BE970E0CE01019634
:1021C0000E947221B82EB401CE0101960E942B0408
:1021D00018E2E12EF12C08EC10E020EF30E044E1B1
:1021E00050E066E471E0CE0101960E94F61E88235D
:1021F00009F449CF8BEA90E00E94330F182F282F63
:1022000030E02615370508F057C08EEA90E00E94AE
:10221000330F282F8FEA90E06A962FAF6A970E94BB
:10222000330FA82E80EB90E00E94330FC82E8CEA6B
:1022300090E00E94330FD82E81EB90E00E94330F84
:10224000E82E82EB90E00E94330FF82E83EB90E0B3
:102250000E94330F082F662D8BEA90E00E94350F05
:1022600068966FAD68978EEA90E00E94350F699688
:102270006FAD69978FEA90E00E94350F6B2D80EB70
:1022800090E00E94350F612F8CEA90E00E94350F9C
:102290006A962FAD6A97622F81EB90E00E94350F0E
:1022A0006A2D82EB90E00E94350F6C2D83EB90E05D
:1022B0000E94350F6D2D32C08CEA90E00E94330FE2
:1022C000182F282F30E026153705C0F581EB90E058
:1022D0000E94330FE82E82EB90E00E94330FF82E1D
:1022E00083EB90E00E94330F082F662D8CEA90E07C
:1022F0000E94350F68966FAD689781EB90E00E9461
:10230000350F69966FAD699782EB90E00E94350FAB
:102310006B2D83EB90E00E94350F612F8DEA90E0EA
:102320000E94350F6E2D84EB90E00E94350F6F2DCB
:1023300085EB90E00E94350F602F1CC08DEA90E085
:102340000E94330F90E086159705C0F4662D8DEA44
:1023500090E00E94350F68966FAD689784EB90E02F
:102360000E94350F69966FAD699785EB90E00E94EA
:10237000350F6B2D86EB90E00E94350F60E070E02A
:10238000C4010E94B014B401CE0101960E942B0436
:10239000CE0101960E94370F76CEC75ADF4F0FB697
:1023A000F894DEBF0FBECDBFDF91CF911F910F918B
:1023B000FF90EF90DF90CF90BF90AF909F908F9065
:1023C0007F906F905F904F903F902F9008950F9364
:1023D0001F93CF93DF936AEA80E090E00E94DE349F
:1023E0000CE315E0C1E0D0E0F80161918F01CE016E
:1023F0000E94DE342196CD31D105B1F7DF91CF9126
:102400001F910F9108950F931F93CF93DF9380E057
:1024100090E00E94D6348A3A79F40CE315E0C1E0EA
:10242000D0E0CE010E94D634F80181938F0121962D
:10243000CD31D105B1F702C081E001C080E0DF916C
:10244000CF911F910F910895CF93DF93CDB7DEB752
:10245000C154D1090FB6F894DEBF0FBECDBF0E94A4
:10246000D93084E295E00E9435256AE570E084E287
:1024700095E00E94252485E695E00E940E2D62E6F7
:1024800071E085E695E00E941F2D84E295E00E94B0
:102490002E2284E295E00E946F1B892B09F08BC0ED
:1024A0000E940312811187C060E070E084E295E031
:1024B0000E94B0148CE1F82E06EC11E08091260504
:1024C000909127059C838B83809128059091290505
:1024D0009E838D8380912A0590912B0598878F8309
:1024E00080912C0590912D059A87898780912E05E2
:1024F00090912F059C878B878091300590913105B5
:102500009E878D878091320590913305988B8F87B8
:1025100080913405909135059A8B898B8091360591
:10252000909137059C8B8B8B809138059091390564
:102530009E8B8D8B80913A0590913B05988F8F8B68
:10254000ECE3F5E0DE0159968F2D01900D928A950E
:10255000E1F7809158058DAB809159058EAB809144
:102560005A0590915B0598AF8FAB80915C05909177
:102570005D059AAF89AF80915E0590915F059CAF34
:102580008BAF80916005909161059EAF8DAF80917A
:1025900062059091630521969FAF8EAF21971A83B4
:1025A00009838091640522968FAF2297CE01019610
:1025B0000E94361D83CF84E295E00E94C2220E94D1
:1025C000E71172CF84E295E00C941E222F923F9285
:1025D0004F925F926F927F928F929F92AF92BF9233
:1025E000CF92DF92EF92FF920F931F93CF93DF93DF
:1025F00000D01F92CDB7DEB79B838A83380188E075
:10260000280250011124D501A859B0405D01BC2D0C
:10261000BF77CB2EEA81FB8186819781F1E0FB17A2
:1026200008F462C06B0128E0C20ED11C8C159D0518
:102630000CF46DC0AA81BB8118962D913C9119971D
:10264000FA0138962E173F070CF461C0AA81BB81AE
:10265000ED91FC9111978A01095F1F4F9B01295F42
:102660003F4F0680F781E02DCD010995AA81BB81FE
:10267000ED91FC9111970084F185E02DCD01099534
:102680008501085F1F4FF5015490FFEFAF1ABF0A95
:1026900098E0892E912C20E8422EAA81BB81ED91F1
:1026A000FC911197842D85210284F385E02D8823E8
:1026B00019F0B301CD0103C0B7018A819B8109954F
:1026C0004694B1E08B1A910841F7A016B106D9F6ED
:1026D000AA81BB81ED91FC9111970484F585E02DD1
:1026E000CD010995C60175C0B8E0CB9E80011124CB
:1026F0004B01800E911E881599054CF0040F151F93
:10270000EA81FB81208531852017310714F4019679
:1027100060C0AA81BB81ED91FC9111970150110914
:102720000680F781E02D940121503109CD010995F2
:10273000AA81BB81ED91FC9111970084F185E02D78
:10274000CD0109952501B8E04B0E511CF501D4903F
:10275000FFEFAF1ABF0A2C2C08E010E080E8382EFB
:10276000832D8D212C2DA1F0AA81BB81ED91FC91AF
:1027700011970284F385E02DB301CD0129830995DA
:102780002981215089F736940150110949F710C069
:10279000AA81BB81ED91FC9111970284F385E02D14
:1027A000B701CD01298309952981215089F7EBCF04
:1027B0002A9491F6A414B50409F0C8CFAA81BB816C
:1027C000ED91FC9111970484F585E02DCD010995DB
:1027D000C4010F900F900F90DF91CF911F910F9137
:1027E000FF90EF90DF90CF90BF90AF909F908F9031
:1027F0007F906F905F904F903F902F900895CF9271
:10280000EF92FF920F931F93DC01ED91FC910684F0
:10281000F785E02D09951F910F91FF90EF90CF90D4
:102820000895CF92EF92FF920F931F93CF93DF9370
:10283000EC01262F6A3081F48EAD9FAD9BAF8AAF3D
:102840002CA92F778CAD9DAD38E0239F800D911D75
:1028500011249DAF8CAF47C0862F8B7F893009F440
:1028600042C06AAD7BAD203219F461157105D9F112
:10287000E881F981E8ACF9AC0EA91FA94CAD5DADBA
:102880000088F189E02DCCA8CE0109959BAF8AAFD5
:102890002DA9222341F14CA94F77642F70E028EF36
:1028A0002403A00111242E813F81240F351F2817F6
:1028B0003907CCF48EAD9FAD9BAF8AAFCB0133E02F
:1028C000880F991F3A95E1F72CAD3DAD820F931F0C
:1028D0009DAF8CAF28853985240F351F2817390700
:1028E00014F41DAE1CAE81E090E0DF91CF911F91FA
:1028F0000F91FF90EF90CF900895FC011382128208
:1029000086E891E0918380831582148277836683C1
:102910005187408717861686158614861386128679
:10292000178A168A158A148A138A128A118A108ABB
:1029300010AA11AA12AA13AA81E084AB85AB17AA28
:1029400016AA8FEF9FEF91AF80AF17AE16AE15AE00
:1029500014AE13AE12AE0895FC01848195810895E2
:10296000AF92BF92CF92DF92EF92FF920F931F939D
:10297000CF93DF93EC015B01E881F981088519852C
:10298000015011092E813F81215031090680F781C4
:10299000E02D40E050E060E070E00995E881F981C9
:1029A0000084F185E02DCE010995AE81BF81288597
:1029B00039850E9417346B017C0143E0F694E7945B
:1029C000D794C7944A95D1F7E881F981C114D1040D
:1029D000E104F10409F444C00284F385E02DB5015B
:1029E000CE010995E881F9810284F385E02DB501D6
:1029F000CE010995E881F9810284F385E02DB501C6
:102A0000CE010995E881F9810284F385E02DB501B5
:102A1000CE010995E881F9810284F385E02DB501A5
:102A2000CE010995E881F9810284F385E02DB50195
:102A3000CE010995E881F9810284F385E02DB50185
:102A4000CE010995E881F9810284F385E02DB50175
:102A5000CE01099581E0C81AD108E108F108B4CF88
:102A60000484F585E02DCE01DF91CF911F910F9168
:102A7000FF90EF90DF90CF90BF90AF900994EF92CE
:102A8000FF920F931F93CF93DF93EC0179018E8117
:102A90009F816817790754F58885998548175907E4
:102AA0002CF5E881F9810680F781E02D8A019B01F0
:102AB000CE010995E881F9810084F185E02DCE01F0
:102AC0000995E881F9810284F385E02DB701CE01F3
:102AD0000995E881F9810484F585E02DCE01DF9127
:102AE000CF911F910F91FF90EF900994DF91CF91BB
:102AF0001F910F91FF90EF9008958F929F92AF9248
:102B0000BF92CF92DF92EF92FF920F931F93CF93DA
:102B1000DF93EC016901480157012E813F81621763
:102B200073071CF0B90161507109888599854817B0
:102B300059071CF0AC0141505109FB01EC0DFD1D82
:102B4000E217F3071CF06901C61AD70A9A01280D8B
:102B5000391D281739071CF04C01841A950AE881A1
:102B6000F9818A01080D191D015011099B012C0DD5
:102B70003D1D215031090680F781E02DCE010995D8
:102B8000E881F9810084F185E02DCE010995940159
:102B9000D6010E9417346B017C01E881F981C114D0
:102BA000D104E104F10461F00284F385E02DB50164
:102BB000CE01099581E0C81AD108E108F108EDCFEE
:102BC0000484F585E02DCE01DF91CF911F910F9107
:102BD000FF90EF90DF90CF90BF90AF909F908F903D
:102BE00009942F923F924F925F926F927F928F92B1
:102BF0009F92AF92BF92CF92DF92EF92FF920F938C
:102C00001F93CF93DF93CDB7DEB728970FB6F89415
:102C1000DEBF0FBECDBF4C016B0158874F835901FA
:102C200062177307A1F40417150744F40427152746
:102C30004027512758874F83042715272F81388530
:102C4000021B130B0F5F1F4F21E030E015C04F81B7
:102C5000588540175107B9F42617370734F4A626CC
:102C6000B726CA24DB24AC24BD2495012C193D09C8
:102C70002F5F3F4F01E010E04F815885B601C4013E
:102C80000E947D15A0C0FC01268137816217730761
:102C900024F06901F1E0CF1AD108F4018085918513
:102CA0004F8158854817590724F0FC013197F88760
:102CB000EF83A216B30624F05901F1E0AF1AB10870
:102CC000081719071CF08C010150110935016C1807
:102CD0007D0828012F813885421A530A77FE08C0E3
:102CE0007194619471084FEF5FEF5A83498304C078
:102CF00081E090E09A83898357FE08C05194419403
:102D00005108EFEFFFEFFC83EB8304C021E030E0DC
:102D10003C832B83A301440F551F5E834D83120117
:102D2000220C331C97014F815885B601C4010E94C3
:102D30003F15461457041CF5810106191709CA14DA
:102D4000DB0409F440C017FD0CC08F819885EB812E
:102D5000FC818E0F9F1F98878F832D813E81021BE0
:102D6000130B49815A81C40ED51E020D131D970104
:102D70004F815885B601C4010E943F15E0CFAD8058
:102D8000BE80A418B5088F81988580179107D9F067
:102D9000B7FC06C089819A81C80ED91EA218B30853
:102DA000EF81F8852B813C81E20FF31FF887EF83D9
:102DB0004D815E81A40EB51E9701AF01B601C4011D
:102DC0000E943F15E0CF28960FB6F894DEBF0FBEE5
:102DD000CDBFDF91CF911F910F91FF90EF90DF90CA
:102DE000CF90BF90AF909F908F907F906F905F90AB
:102DF0004F903F902F9008954F925F926F927F92E5
:102E00008F929F92AF92BF92CF92DF92EF92FF92FA
:102E10000F931F93CF93DF93EC016B015A012901AC
:102E2000380121E030E00E947D15A501460D571DB7
:102E30004150510901E010E09201B601CE010E941B
:102E40007D15B601640D751D61507109830121E086
:102E500030E0A501CE010E947D1501E010E0920155
:102E6000A501B601CE010E947D15DF91CF911F9182
:102E70000F91FF90EF90DF90CF90BF90AF909F9019
:102E80008F907F906F905F904F9008954F925F92D8
:102E90006F927F928F929F92AF92BF92CF92DF926A
:102EA000EF92FF920F931F93CF93DF935C01CB01BF
:102EB0004A0138012701DC2CE9012991222399F0EC
:102EC000D501ED91FC910684F785E02DCD2C7201A2
:102ED0008301A401BC01C5010995F5012681378153
:102EE0002817390754F7DF91CF911F910F91FF9069
:102EF000EF90DF90CF90BF90AF909F908F907F909A
:102F00006F905F904F9008952F923F924F925F92F3
:102F10006F927F928F929F92AF92CF92DF92EF92B9
:102F2000FF920F931F93CF93DF93CDB7DEB76197D7
:102F30000FB6F894DEBF0FBECDBF4C013B012A0196
:102F4000C90117017601CA2C402F50E0BE016F5F06
:102F50007F4F0E94B13481019E012F5F3F4FA2013C
:102F6000B301C4010E94461761960FB6F894DEBF04
:102F70000FBECDBFDF91CF911F910F91FF90EF90CA
:102F8000DF90CF90AF909F908F907F906F905F90E9
:102F90004F903F902F900895AF92CF92DF92EF9293
:102FA000FF920F9330E00E9484170F91FF90EF90F3
:102FB000DF90CF90AF9008952F923F924F925F9203
:102FC0006F927F928F929F92AF92BF92CF92DF9239
:102FD000EF92FF920F931F93CF93DF93CDB7DEB79E
:102FE000E4970FB6F894DEBF0FBECDBF8C011B0176
:102FF000DA012D913D914D915C9113972D873E877C
:103000004F87588B50964D915D916D917C91539760
:1030100049875A876B877C876D857E858F859889E0
:1030200029853A854B855C85621B730B840B950B58
:103030006D8F7E8F8F8F98A31C964D915D916D91B2
:103040007C911F9749A35AA36BA37CA354966D91BF
:103050007D918D919C915797698F7A8F8B8F9C8FE3
:1030600029A13AA14BA15CA1261B370B480B590B98
:103070002DA33EA34FA358A718964D915D916D9136
:103080007C911B97498B5A8B6B8B7C8BCB01BA0144
:1030900029853A854B855C85621B730B840B950BE8
:1030A00069A77AA78BA79CA714964D915D916D9106
:1030B0007C9117974DA75EA76FA778AB898D9A8DE6
:1030C000AB8DBC8D481B590B6A0B7B0B49AB5AABC4
:1030D0006BAB7CAB2DA13EA14FA158A56D8D7E8D14
:1030E0008F8D98A10E94BD336B017C0129A93AA95B
:1030F0004BA95CA969A57AA58BA59CA50E94BD33A7
:10310000C61AD70AE80AF90AD801D096CD92DD92FC
:10311000ED92FC92D397CD28CE28CF2809F49CC1FC
:10312000D1012D913D914D915C91139729833A8363
:103130004B835C835096CD90DD90ED90FC9053973F
:1031400029013A014C185D086E087F0818962D91E8
:103150003D914D915C911B972D833E834F83588702
:103160002C193D094E095F092D8B3E8B4F8B588FD3
:10317000A30192016DA17EA18FA198A50E94BD33EC
:103180004B015C012D893E894F89588D69A97AA927
:103190008BA99CA90E94BD33861A970AA80AB90A6E
:1031A000F801808E918EA28EB38E6D8D7E8D8F8D67
:1031B00098A10E94BD334B015C01A301920169A556
:1031C0007AA58BA59CA50E94BD33861A970AA80AEA
:1031D000B90A848E958EA68EB78EA70196016D854D
:1031E0007E858F8598890E94BD334B015C012981C2
:1031F0003A814B815C8169857A858B859C850E94AB
:10320000BD33861A970AA80AB90AA501940169A1D3
:103210007AA18BA19CA10E94BD332B013C012D8181
:103220003E814F81588569857A858B859C850E9472
:10323000BD334B015C01A701960169897A898B89AD
:103240009C890E94BD33861A970AA80AB90AA5016B
:1032500094016DA57EA58FA598A90E94BD33460E49
:10326000571E681E791E29813A814B815C816989CC
:103270007A898B899C890E94BD336B017C012D81E9
:103280003E814F8158856D857E858F8598890E9406
:10329000BD33C61AD70AE80AF90AA7019601698D53
:1032A0007A8D8B8D9C8D0E94BD33460E571E681EF5
:1032B000791E40A251A262A273A2D10114962D914F
:1032C0003D914D915C91179729833A834B835C83A1
:1032D0005496CD90DD90ED90FC90579729013A01DE
:1032E0004C185D086E087F081C962D913D914D91FC
:1032F0005C911F972D833E834F8358872C193D097E
:103300004E095F092D8B3E8B4F8B588FA301920185
:103310006DA17EA18FA198A50E94BD334B015C01D8
:103320002D893E894F89588D69A97AA98BA99CA9B5
:103330000E94BD33861A970AA80AB90A84A295A2E8
:10334000A6A2B7A26D8D7E8D8F8D98A10E94BD33F0
:103350004B015C01A301920169A57AA58BA59CA5EF
:103360000E94BD33861A970AA80AB90A80A691A6B8
:10337000A2A6B3A6A70196016D857E858F85988943
:103380000E94BD334B015C0129813A814B815C81F4
:1033900069857A858B859C850E94BD33861A970A3C
:1033A000A80AB90AA501940169A17AA18BA19CA1DF
:1033B0000E94BD334B015C012D813E814F815885B8
:1033C00069857A858B859C850E94BD332B013C01E4
:1033D000A701960169897A898B899C890E94BD33EE
:1033E000461A570A680A790AA30192016DA57EA5BB
:1033F0008FA598A90E94BD33860E971EA81EB91EE0
:1034000029813A814B815C8169897A898B899C8980
:103410000E94BD336B017C012D813E814F81588517
:103420006D857E858F8598890E94BD33C61AD70A1F
:10343000E80AF90AA7019601698D7A8D8B8D9C8D1A
:103440000E94BD33860E971EA81EB91E84A695A69F
:10345000A6A6B7A680E001C081E0E4960FB6F89476
:10346000DEBF0FBECDBFDF91CF911F910F91FF90B7
:10347000EF90DF90CF90BF90AF909F908F907F9014
:103480006F905F904F903F902F900895AF92BF92B2
:10349000CF92DF92EF92FF920F931F93CF93DF9320
:1034A000EC01A888B9888C899D890A891B89A8168E
:1034B000B90609F45FC0BD8AAC8A288D398D4A8D62
:1034C0005B8DD5010E9440346B017C012C8D3D8DBC
:1034D0004E8D5F8DD8010E944034C60ED71EE81E67
:1034E000F91E88A199A1AAA1BBA1C80ED91EEA1EE6
:1034F000FB1E28A939A94AA95BA9C701B6010E94E8
:10350000F533DA01C9016C817D816A35710571F08D
:1035100018F4672B41F02CC0643B710521F06E302C
:10352000714021F025C06E817F8102C06885798558
:103530006B01CC0CDD1CEE24D7FCE094FE2C2C158A
:103540003D054E055F0588F46B01EE24D7FCE09441
:10355000FE2C2C153D054E055F0550F0CB01019763
:10356000AA2797FDA095BA2F03C080E090E0DC0168
:103570009B878A878E899F890817190709F45FC07E
:103580001F8B0E8B2CA13DA14EA15FA1D5010E94E6
:1035900040346B017C0128A539A54AA55BA5D8015B
:1035A0000E944034C60ED71EE81EF91E8CA59DA5AC
:1035B000AEA5BFA5C80ED91EEA1EFB1E28A939A9B3
:1035C0004AA95BA9C701B6010E94F533DA01C90116
:1035D0006C817D816A35710571F018F4672B41F0BB
:1035E0002CC0643B710521F06E30714021F025C084
:1035F0006885798502C06E817F816B01CC0CDD1CF2
:10360000EE24D7FCE094FE2C2C153D054E055F05FD
:1036100088F46B01EE24D7FCE094FE2C2C153D05BC
:103620004E055F0550F0CB010197AA2797FDA095A5
:10363000BA2F03C080E090E0DC019D878C87DF918A
:10364000CF911F910F91FF90EF90DF90CF90BF909F
:10365000AF900895CF93DF93EC010E94461A2C811E
:103660003D812115310519F48A859B8512C02A35C3
:10367000310519F48C859D850CC08E819F81243B7A
:10368000310519F42A853B8502C02C853D85821BB6
:10369000930BDF91CF910895CF93DF93EC010E94BC
:1036A000461A8C819D81009719F48C859D8514C0E4
:1036B0008A35910529F4888599852A853B8507C037
:1036C000843B910539F4888599852C853D85821B3D
:1036D000930B02C08A859B85DF91CF910895FC01F1
:1036E00086859785089525E1829FC001112408955C
:1036F00028E2829FC0011124449608950C94D63488
:103700002F923F924F925F926F927F928F929F92F1
:10371000AF92BF92CF92DF92EF92FF920F931F93DF
:10372000CF93DF93CDB7DEB7C955D1090FB6F89463
:10373000DEBF0FBECDBF4C0160E070E00E94B01450
:103740008EEA90E00E947E1B782E8FEA90E00E9425
:103750007E1BB82E80EB90E00E947E1B68961CAE0C
:103760001DAE1EAE1FAE689765967FAE65976696D6
:10377000BFAE669767968FAF679781EB90E00E9428
:103780007E1B782E82EB90E00E947E1BB82E83EB8E
:1037900090E00E947E1B64961CAE1DAE1EAE1FAE56
:1037A000649761967FAE61976296BFAE62976396AB
:1037B0008FAF639784EB90E00E947E1B782E85EBA1
:1037C00090E00E947E1BB82E86EB90E00E947E1B4C
:1037D00060961CAE1DAE1EAE1FAE60972D967FAEDE
:1037E0002D972E96BFAE2E972F968FAF2F973E0117
:1037F00082E4680E711CFAE0BF2EF40178962F0166
:10380000A6EC2A2EA1E03A2EC401805C9F4F6A9656
:103810009FAF8EAF6A97EDE4F1E0D3018B2D01905D
:103820000D928A95E1F7F30101900020E9F73197B5
:10383000E619F70960EF9AE19E9F6019112470E084
:1038400083E0C82EE12CF12C00E018EF93014FE04B
:1038500050E0C4010E94461792E0C92E28E931E0E9
:103860004BE450E064E170E0C4010E9446179E0101
:103870002C5A3F4F4BE450E066E470E0C4010E94D4
:1038800046178BEA90E00E947E1B22E0A22EC12CFC
:10389000D12CE12C38EFF32E0AE0282F4BE450E036
:1038A00062E870E0C4010E94CC1742E0C42EE12C13
:1038B000F12C00E018EF2AE931E047E850E064E13C
:1038C00070E0C4010E9446179E01205B3F4F47E80D
:1038D00050E066E470E0C4010E9446178CEA90E074
:1038E0000E947E1BC12CD12CE12C58EFF52E0AE052
:1038F000282F47E850E062E870E0C4010E94CC172E
:1039000062E0C62EE12CF12C00E018EF2CE931E04A
:1039100043EC50E064E170E0C4010E9446179E0150
:10392000245B3F4F43EC50E066E470E0C4010E942A
:1039300046178DEA90E00E947E1BC12CD12CE12C11
:1039400078EFF72E0AE0282F43EC50E062E870E0B1
:10395000C4010E94CC17F401828193819C838B83E4
:10396000848195819E838D838681978198878F83BB
:10397000808591859A878987828593859C878B87A7
:10398000848595859E878D8786859785988B8F877B
:10399000808991899A8B898B828993899C8B8B8B67
:1039A000848995899E8B8D8B86899789988F8F8B3B
:1039B000F201DE0159968CE101900D928A95E1F7B2
:1039C000F40184A98DAB85A98EAB86A997A998AF80
:1039D0008FAB80AD91AD9AAF89AF82AD93AD9CAF07
:1039E0008BAF84AD95AD9EAF8DAF86AD97AD219673
:1039F0009FAF8EAF21973A8229826A96EEADFFADD6
:103A00006A97808122968FAF2297E8E2EE2EF12C02
:103A100008EC10E02FEF30E044E150E06EE971E097
:103A2000CE0101960E94F61E882309F4F4CE60E0D0
:103A300070E0C4010E94B014C75ADF4F0FB6F8946B
:103A4000DEBF0FBECDBFDF91CF911F910F91FF90D1
:103A5000EF90DF90CF90BF90AF909F908F907F902E
:103A60006F905F904F903F902F900895CF93DF938A
:103A7000CDB7DEB7CA54D1090FB6F894DEBF0FBE7A
:103A8000CDBF5C0160E070E00E94B0144E0122E402
:103A9000820E911C49E0D42E5AE1752E60EF662EFD
:103AA000E9EBF1E0D4018D2D01900D928A95E1F7BB
:103AB000F40101900020E9F73197E819F909662D22
:103AC0007E9E6019112470E023E0C22EE12CF12CBF
:103AD00000E018EF94014FE050E0C5010E94461746
:103AE000B501CE0101960E942B0438E2E32EF12CA1
:103AF00008EC10E027E330E044E150E063EA71E0D5
:103B0000CE0101960E94F61E882349F0B501CE0130
:103B100001960E942B04CE0101960E94AD06B501CC
:103B2000CE0101960E942B0498E2E92EF12C08ECBC
:103B300010E02EE630E044E150E060EB71E0CE01B1
:103B400001960E94F61E882349F0B501CE01019628
:103B50000E942B04CE0101960E94FC2BB501CE01E0
:103B600001960E942B0488E2E82EF12C08EC10E06C
:103B700025EA30E044E150E06DE471E0CE010196C9
:103B80000E94F61E882349F0B501CE0101960E94DD
:103B90002B04CE0101960E94801B80910E01887F2C
:103BA00090910C019C7F28E0929F70011124F82ACB
:103BB00080910D01869586958695E82A00E410E0AF
:103BC00028E230E04BEE50E064E670E0C5010E9470
:103BD000FC1680910E01887F90910C019C7F28E05B
:103BE000929F70011124F82A80910D018695869587
:103BF0008695E82A05E011E02EE630E04BEF50E034
:103C000065E670E0C5010E94F11580910E01887F84
:103C100090910C019C7F28E0929F70011124F82A5A
:103C200080910D01869586958695E82A22E830E0F8
:103C30004BEF50E06BE870E0C5010E94F1158091F8
:103C40000E01887F90910C019C7F28E0929F70016B
:103C50001124F82A80910D01869586958695E82A8B
:103C600022E830E045E051E06EE670E0C5010E94D8
:103C7000F11580910E01887F90910C019C7F28E0C6
:103C8000929F70011124F82A80910D0186958695E6
:103C90008695E82A01E111E022E830E041E151E0B7
:103CA0006EE670E0C5010E94F11580910E01887FDB
:103CB00090910C019C7F28E0929F70011124F82ABA
:103CC00080910D01869586958695E82A2EE630E04E
:103CD0004BE151E065E670E0C5010E94F11580916D
:103CE0000E01887F90910C019C7F28E0929F7001CB
:103CF0001124F82A80910D01869586958695E82AEB
:103D000022E830E04BE151E06BE870E0C5010E9431
:103D1000F11580910E01887F90910C019C7F28E025
:103D2000929F70011124F82A80910D018695869545
:103D30008695E82A2EE630E045E051E06EE670E038
:103D4000C5010E94F11580910E01887F90910C01B0
:103D50009C7F28E0929F70011124F82A80910D0128
:103D6000869586958695E82A22E830E045E051E080
:103D700062E870E0C5010E94F11580910E01887F14
:103D800090910C019C7F28E0929F70011124F82AE9
:103D900080910D01869586958695E82A0BEF10E0B7
:103DA0002AE830E04BEF50E064E670E0C5010E9485
:103DB000F11580910E01887F90910C019C7F28E085
:103DC000929F70011124F82A80910D0186958695A5
:103DD0008695E82A0BE111E02AE830E04BE151E05A
:103DE00064E670E0C5010E94F1155ACE2F923F9211
:103DF0004F925F926F927F928F929F92AF92BF92FB
:103E0000CF92DF92EF92FF920F931F93CF93DF93A6
:103E100000D000D000D0CDB7DEB79E838D831B01CC
:103E20005A01490128013701FB0101900020E9F7FF
:103E30009F01215031096901C61AD70A43E0CC0C11
:103E4000DD1C4A95E1F70E942E228D819E810E9401
:103E50006F1BF701F695E795FA83E983980136958C
:103E600027953C832B83892B09F45AC08D819E8131
:103E70000E942A1B8A159B0508F452C08D819E81E1
:103E80000E942A1B9501200F311F2817390708F4BB
:103E900047C08D819E810E944C1B8815990508F4AE
:103EA0003FC08D819E810E944C1B94012E0D3F1DB1
:103EB00028173907A8F1E12C28EFF22E830192018F
:103EC000A401B5018D819E810E947D1549815A8191
:103ED000480D591D485051096B817C816A0D7B1D2D
:103EE0006C197D0932E0C32E00E010E091018D8154
:103EF0009E810E9446173FEF89E698E1315080404D
:103F00009040E1F700C00000E12CF12C8301920108
:103F1000A401B5018D819E810E947D1581E023C0A1
:103F2000E12C88EFF82E83019201A401B5018D8167
:103F30009E810E94FC1649815A81480D591D4850A6
:103F400051096B817C816A0D7B1D6C197D0992E0A2
:103F5000C92EE12CF12C00E018EF91018D819E819A
:103F60000E94461780E026960FB6F894DEBF0FBE7B
:103F7000CDBFDF91CF911F910F91FF90EF90DF9018
:103F8000CF90BF90AF909F908F907F906F905F90F9
:103F90004F903F902F9008952F923F924F925F92B3
:103FA0006F927F928F929F92AF92BF92CF92DF9249
:103FB000EF92FF920F931F93CF93DF93EC015B017E
:103FC000942E822E202E3E2CE12CE8EFFE2E0AE0CD
:103FD00010E028EC30E0AB0164E170E00E94FC16D8
:103FE000650185E0C81AD108692D70E080E090E095
:103FF0000E94CE3223EC35EF48E45FE30E945A334F
:1040000020E030E040E251E40E9437320E949B32CF
:104010002B013C01822D8C7F98E0899F7001112437
:10402000369436943694E328882D887FF82A04E164
:1040300010E024E130E0A601B201CE010E947D151E
:10404000CE010E942E22CE010E946F1B892B09F403
:1040500063C0CE010E942A1B44970CF45DC0CE01C0
:104060000E942A1B893C91050CF056C0CE010E948B
:104070004C1B8C159D0508F44FC0CE010E944C1BB3
:104080009501215F3F4F2817390708F445C0CE013D
:104090000E942A1BBC01882777FD8095982F0E94DB
:1040A000CE3220E030E048E85FE30E945A330E94BD
:1040B000A032962EE12CF12C24E130E0A601B201D1
:1040C000CE010E947D15E12C78EFF72E0AE010E07A
:1040D00028EC30E0A50164E170E0CE010E94FC16FE
:1040E000692D70E080E090E00E94CE3223EC35EF45
:1040F00048E45FE30E945A3320E030E040E251E4BC
:104100000E9437320E949B3204E110E024E130E04B
:10411000A601CE010E947D15892DDF91CF911F91BF
:104120000F91FF90EF90DF90CF90BF90AF909F9056
:104130008F907F906F905F904F903F902F90089559
:104140006F927F928F929F92AF92BF92CF92DF92A7
:10415000EF92FF920F931F93CF93DF936C015B015C
:104160004A01E9013801F8018081882321F0E12C1E
:10417000B8EFFB2E02C0E12CF12C8E019E01A401B0
:10418000B501C6010E947D15C6010E942E22C601FE
:104190000E946F1B892BF1F0C6010E942A1B8A1511
:1041A0009B05C0F0C6010E942A1B9E012A0D3B1DE3
:1041B0002817390778F0C6010E944C1B881599050D
:1041C00048F0C6010E944C1B9E01280D391D28177E
:1041D000390758F4E12CF8EFFF2E8E019E01A4015F
:1041E000B501C6010E94FC1616C0F3018081811141
:1041F00007C081E0F3018083E12CA8EFFA2E04C010
:10420000F3011082E12CF12C8E019E01A401B50175
:10421000C6010E947D15DF91CF911F910F91FF90F4
:10422000EF90DF90CF90BF90AF909F908F907F9056
:104230006F900895CF93DF93EC01FB01828193810E
:104240009B838A8386E891E0998388838481958122
:104250009D838C83868197819F838E8380859185C2
:1042600099878887828593859B878A8784859585AA
:104270009D878C87868597859F878E878089918982
:10428000998B888B828993899B8B8A8B848995896A
:104290009D8B8C8B868997899F8B8E8B8CE17896F2
:1042A000DE01589601900D928A95E1F7FB0184A9F1
:1042B0008CAB85A98DAB86A997A99FAB8EAB80AD42
:1042C00091AD99AF88AF82AD93AD9BAF8AAF84AD0E
:1042D00095AD9DAF8CAF86AD97AD9FAF8EAFDF91A3
:1042E000CF9108954F925F926F927F928F929F929B
:1042F000AF92BF92CF92DF92EF92FF920F931F93F4
:10430000CF93DF93CDB7DEB7C154D1090FB6F89480
:10431000DEBF0FBECDBF6C015B014A012B3519F02A
:1043200020930A0103C081E480930A01B601CE0103
:1043300001960E941A2116EC612E11E0712E7A82EC
:104340006982260180E4480E511CF2018081229688
:104350008FAF229702E3E02EF12C02E310E09401EC
:10436000A5016AE071E0CE0101960E94F61E882345
:10437000C9F080910A018F5F80930A01B601CE01D6
:1043800001960E941A217A826982F2018081229626
:104390008FAF22979401A5016AE071E0CE010196EA
:1043A0000E94F61E80910A01CF5BDF4F0FB6F89492
:1043B000DEBF0FBECDBFDF91CF911F910F91FF9058
:1043C000EF90DF90CF90BF90AF909F908F907F90B5
:1043D0006F905F904F9008955F9A0895CF93DF9309
:1043E0001F92CDB7DEB7872F2B9A2D989CB59F7B58
:1043F0009CBD2D9A9CB590649CBD69830E948402EB
:104400002B9A2D989CB59F7B9CBD2D9A9CB5906452
:104410009CBD6981862F0F90DF91CF910C9484020F
:104420002CB5982F93702C7F922B9CBD9DB582FB51
:10443000882780F99E7F982B9DBD0895CF93DF93A9
:10444000EC0140EF50E060E471E00E947D1486ECE6
:1044500091E099838883DF91CF910895BF92CF92A5
:10446000DF92EF92FF920F931F93CF93DF93EC01B4
:10447000ECB4FDB485E00E9410225E9888EB0E94A7
:10448000840280E00E948402082F88EC0E9484024B
:1044900080E00E9484025E9A182F10951F770F7794
:1044A000100F163008F45AC05E9880E90E9484020A
:1044B00080E00E948402082F80E00E94840280E94C
:1044C0000E94840280E00E948402D82E80E00E9434
:1044D0008402C82E0D1140C080ED0E94840280E04D
:1044E0000E948402D82E80E00E94840280ED0E9407
:1044F000840280E00E948402B82E80E00E94840240
:10450000DB102AC04C2D50E096E0559547959A95C2
:10451000E1F794E0099FB0011124462B572B6FEF70
:1045200073E0641B750BA1F0282F30E086E0359511
:1045300027958A95E1F784E0D89EA0011124242BC9
:10454000352B2115310521F0798B688B3B8B2A8B1C
:10455000812F90E09F878E875E9A02C01F861E86FD
:10456000ECBCFDBC81E02E853F85232B09F480E067
:10457000DF91CF911F910F91FF90EF90DF90CF903F
:10458000BF9008952F923F924F925F926F927F92C9
:104590008F929F92AF92BF92CF92DF92EF92FF9253
:1045A0000F931F93CF93DF93CDB7DEB7E0970FB68E
:1045B000F894DEBF0FBECDBF6C0188E1E2E1F1E00F
:1045C000DE01599601900D928A95E1F7C6010E948D
:1045D000AC142C01D601ED91FC910480F581E02D05
:1045E00060E070E0C60109956FEF7FEFC6010E94A1
:1045F000B014C6010E942E228111FBCF5E01B9E1E9
:10460000AB0EB11C612C712C1501F5014481558153
:1046100060817181E12CF12C02E010E022E030E0B9
:10462000C6010E94FC16D50114964D915C91159718
:104630006D917C9105E010E025E030E0C6010E941C
:10464000FC16F5014481558160817181E12C38EFC0
:10465000F32E0AE010E02AE030E0C6010E94FC16CA
:10466000C6010E942E22882381F2430123E0880C98
:10467000991C2A95E1F781E090E08C0F9D1F880E30
:10468000991ED4015C964D915C915D9758966D9101
:104690007C91599702E010E022E030E0C6010E94D0
:1046A0007D15F60180899189AA2797FDA095BA2FDB
:1046B000F40180839183A283B383D60152968D91B6
:1046C0009C915397AA2797FDA095BA2F8483958331
:1046D000A683B78364E670E080E090E00E94B1308A
:1046E0006FEF7FEFC6010E94B014FFEF6F1A7F0AD1
:1046F00088E0A80EB11C93E06916710409F085CF1B
:10470000AE014F5F5F4FB101C6010E94DC17D601B9
:10471000ED91FC910480F581E02DB201C60109956F
:10472000C6010E942E228111FBCFE0960FB6F894AD
:10473000DEBF0FBECDBFDF91CF911F910F91FF90D4
:10474000EF90DF90CF90BF90AF909F908F907F9031
:104750006F905F904F903F902F900895862F5F98B5
:104760002B982D989CB59F7B9CBD2D9A9CB59064F1
:104770009CBD0E9484025F9A08956CE20E94AE2361
:104780005F980895CF93DF931F92CDB7DEB7872F41
:104790005F982B9A2D989CB59F7B9CBD2D9A9CB5BC
:1047A00090649CBD69830E9484022B9A2D989CB5CD
:1047B0009F7B9CBD2D9A9CB590649CBD6981862F82
:1047C0000E9484025F9A0F90DF91CF910895AF927B
:1047D000BF92CF92DF92EF92FF920F931F93CF93EE
:1047E000DF93EC017B016A0159016AE20E94AE236A
:1047F000B701CE010E94C223B501CE010E94C2239F
:104800006BE2CE010E94AE23B601CE010E94C2230C
:10481000B801CE01DF91CF911F910F91FF90EF90E2
:10482000DF90CF90BF90AF900C94C223862F5F98FB
:104830002B9A2D989CB59F7B9CBD2D9A9CB590641E
:104840009CBD0E9484025F9A08950F931F93CF939B
:10485000DF93EC016930710519F06A35710571F467
:104860008AE590E09D838C8380EF90E09F838E8328
:1048700080E491E09987888718E434C0623171053B
:1048800019F0643B710571F484EB90E09D838C8397
:1048900080E491E09F838E8380EF90E09987888702
:1048A00018E320C06B31710521F07E7F6E307105F9
:1048B00071F48EE091E09D838C8380EF90E09F8384
:1048C0008E8380E491E09987888718E80BC01D8269
:1048D0001C8280E491E09F838E8380EF90E0998733
:1048E000888718EE66E3CE010E94AE23612FCE01C9
:1048F0000E941624E881F981088519850150110963
:104900002E813F81215031090680F781E02D40E062
:1049100050E060E070E0CE010995DF91CF911F91EA
:104920000F910895CF92DF92EF92FF920F931F9312
:10493000CF93DF938C015F9A289862E370E080E068
:1049400090E00E94B130289A68E770E080E090E043
:104950000E94B130E8E6F3E0EF01219684918F3FA9
:10496000A9F1982F907C9038B1F0903C39F19034B7
:1049700011F0FE01F1CF8F73C82E7F01D82EFFEF0B
:10498000EF1AFF0ADD20B9F0F7016491C8010E9417
:10499000AE23DA94F4CF8F73C82E7F01D82EFFEFA9
:1049A000EF1AFF0ADD2039F0F7016491C8010E9477
:1049B0001624DA94F4CFCC0DD11DDBCF682F6F73A2
:1049C00070E080E090E00E94B130D3CF60E070E012
:1049D000C801DF91CF911F910F91FF90EF90DF9071
:1049E000CF900C94B0141F93CF93DF93EC01162F4C
:1049F00061E088E00E949C31289861E089E00E9493
:104A00009C3161E087E00E949C3161E08DE00E9472
:104A10009C3161E08BE00E949C3160E08CE00E9460
:104A20009C3129985F9A61E086E00E949C315E9AF1
:104A3000FE01E05CFF4F10839CB5937F9CBD9CB54D
:104A40009F7D9CBD0E942C2D85E00E941022CE01EE
:104A50000E949224812F0E9410226FE770E089E06B
:104A6000DF91CF911F910C94143160E00C94F324EA
:104A700084E795E00E94F92D62E570E084E795E017
:104A80000E941D2E60E470E084E795E00E947D02A4
:104A900060E070E084E795E00E947D0284E795E0A5
:104AA0000E94322E91E0811190E0892F089562E5F5
:104AB00070E084E795E00E941D2E60E070E084E7DE
:104AC00095E00E947D0284E795E00E94322E91E0FD
:104AD000811190E0892F0895809168050895809153
:104AE0006B05882331F081FB992790F981E08927B4
:104AF000089580E008951F93CF93DF93EC0146E083
:104B000050E062E570E084E795E00E94102E10E02E
:104B100084E795E00E94622D892B71F084E795E08F
:104B20000E946A2DE12FF0E0EA59FA4F27E182272F
:104B3000479680831F5FECCFCE010E94572581E00E
:104B400090916B05911101C080E0DF91CF911F9191
:104B500008955F926F927F928F929F92AF92BF92D1
:104B6000CF92DF92EF92FF920F931F93CF93DF9339
:104B7000CDB7DEB7CB54D1090FB6F894DEBF0FBE68
:104B8000CDBF5C0160E070E00E94B0144E0182E491
:104B9000880E911C5AE0752E6AE1662E70EF572E32
:104BA000DD24D394E7EFF1E0D401872D01900D923D
:104BB0008A95E1F7F40101900020E9F73197E819AF
:104BC000F909652D6E9E6019112470E033E0C32E43
:104BD000E12CF12C00E018EF28ED31E04FE050E03F
:104BE000C5010E944617B501CE0101960E942B0413
:104BF00048E2E42EF12C08EC10E02BE430E044E134
:104C000050E06EED71E0CE0101960E94F61EB501F6
:104C1000882349F0CE0101960E942B04CE01019613
:104C20000E94530252C0CE0101960E942B0428E23A
:104C3000E22EF12C08EC10E027E830E044E150E0EF
:104C40006AEE71E0CE0101960E94F61E882321F0E3
:104C500081E08093710539C0B501CE0101960E94B3
:104C60002B0498E2E92EF12C08EC10E023EC30E064
:104C700044E150E060EB71E0CE0101960E94F61E27
:104C8000882349F0B501CE0101960E942B04CE0184
:104C900001960E94FC2BB501CE0101960E942B04C7
:104CA00088E2E82EF12C08EC10E02FEF30E044E130
:104CB00050E062E371E0CE0101960E94F61E882367
:104CC00009F470CFD09272056DCFC55BDF4F0FB680
:104CD000F894DEBF0FBECDBFDF91CF911F910F9132
:104CE000FF90EF90DF90CF90BF90AF909F908F900C
:104CF0007F906F905F9008950C94DE348F929F9216
:104D0000AF92BF92CF92DF92EF92FF920F931F93D9
:104D1000CF93DF93CDB7DEB7C154D1090FB6F89466
:104D2000DEBF0FBECDBF5C01812C912CD12C93E056
:104D3000C92EE12CF12C00E018EF21E032E04FE029
:104D400050E060E070E0C5010E94461722E0C22EEC
:104D50002DE032E040E550E06FE070E0C5010E94D8
:104D60004617B501CE0101960E942B040FE011E019
:104D700020E330E04FE350E061EB70E0CE010196BC
:104D80000E94A02000E018EF24E132E046E950E064
:104D90006FE070E0C5010E944617B501CE01019693
:104DA0000E942B040DE615E020E330E045E850E0DA
:104DB00061EB70E0CE0101960E94A02000E018EFA8
:104DC0002CE132E04CED50E06FE070E0C5010E9454
:104DD0004617B501CE0101960E942B040CE615E0A2
:104DE00020E330E04BEC50E061EB70E0CE01019647
:104DF0000E94A02020910F0190916D0580916C057B
:104E0000222311F08820A9F0992319F0882009F4B1
:104E100082C0882349F0882019F08824839404C034
:104E200088248394992493942223A9F0D11003C059
:104E300011C088248394992329F010920F01912C9A
:104E4000D12C02C0DD24D394882329F010920F01C5
:104E500099249394D12C9923C9F0D11012C09110A8
:104E600015C090910F01992321F010926D0591E0EA
:104E700001C090E0882341F010926D05992493942D
:104E800005C0DD24D39402C0D92E15C0882399F023
:104E9000992089F080916D05882321F010926C058E
:104EA000912CD12C80910F01882329F010926C0550
:104EB000912CDD24D394B501CE0101960E942B04E0
:104EC00088E2E82EF12C08EC10E02EE031E044E11D
:104ED00050E06EE971E0CE0101960E94F61E882333
:104EE00009F425CF60E070E0C5010E94B014CF5BEB
:104EF000DF4F0FB6F894DEBF0FBECDBFDF91CF916D
:104F00001F910F91FF90EF90DF90CF90BF90AF90E7
:104F10009F908F90089588248394912C9BCFAF927B
:104F2000BF92CF92EF92FF920F931F93CF93DF9395
:104F3000CDB7DEB7C254D1090FB6F894DEBF0FBEAD
:104F4000CDBF5C0133E0C32EE12CF12C00E018EF63
:104F500024E232E04FE050E060E070E0C5010E94E2
:104F6000461740910E01B501CE01019623964FAF31
:104F700023970E942B0400E023964FAD2397242F04
:104F80006CE370E0CE0101960E94CC1F80930E016D
:104F900040910C01B501CE01019623964FAF2397A6
:104FA0000E942B0423964FAD2397042F20E064E644
:104FB00070E0CE0101960E94CC1F80930C014091BD
:104FC0000D01B501CE01019623964FAF23970E94A4
:104FD0002B0423964FAD2397E42E00E020E06CE8ED
:104FE00070E0CE0101960E94CC1F80930D0190913C
:104FF0000C019C7F28E0929F7001112490910E017A
:10500000987FF92A869586958695E82A00E410E02F
:1050100028E230E044EB50E064E670E0C5010E9415
:10502000FC1680910E01887F90910C019C7F28E0F6
:10503000929F70011124F82A80910D018695869522
:105040008695E82A0EEC10E02EE630E044EC50E0C5
:1050500065E670E0C5010E94F11580910E01887F20
:1050600090910C019C7F28E0929F70011124F82AF6
:1050700080910D01869586958695E82A22E830E094
:1050800044EC50E06BE870E0C5010E94F11580919E
:105090000E01887F90910C019C7F28E0929F700107
:1050A0001124F82A80910D01869586958695E82A27
:1050B00022E830E04EEC50E06EE670E0C5010E9460
:1050C000F11580910E01887F90910C019C7F28E062
:1050D000929F70011124F82A80910D018695869582
:1050E0008695E82A0AED10E022E830E04AED50E02B
:1050F0006EE670E0C5010E94F11580910E01887F77
:1051000090910C019C7F28E0929F70011124F82A55
:1051100080910D01869586958695E82A2EE630E0E9
:1051200044EE50E065E670E0C5010E94F115809103
:105130000E01887F90910C019C7F28E0929F700166
:105140001124F82A80910D01869586958695E82A86
:1051500022E830E044EE50E06BE870E0C5010E94C8
:10516000F11580910E01887F90910C019C7F28E0C1
:10517000929F70011124F82A80910D0186958695E1
:105180008695E82A2EE630E04EEC50E06EE670E0C0
:10519000C5010E94F11580910E01887F90910C014C
:1051A0009C7F28E0929F70011124F82A80910D01C4
:1051B000869586958695E82A22E830E04EEC50E008
:1051C00062E870E0C5010E94F11580910E01887FB0
:1051D00090910C019C7F28E0929F70011124F82A85
:1051E00080910D01869586958695E82A04EC10E05D
:1051F0002AE830E044EC50E064E670E0C5010E942B
:10520000F11580910E01887F90910C019C7F28E020
:10521000929F70011124F82A80910D018695869540
:105220008695E82A04EE10E02AE830E044EE50E0EB
:1052300064E670E0C5010E94F115B501CE0101964A
:105240000E942B0448E2E42EF12C08EC10E02EE042
:1052500031E044E150E066E471E0CE0101960E9445
:10526000F61E882309F46ECE60E070E0C5010E944E
:10527000B014CE5BDF4F0FB6F894DEBF0FBECDBFCC
:10528000DF91CF911F910F91FF90EF90CF90BF9042
:10529000AF9008958F929F92AF92BF92CF92DF927C
:1052A000EF92FF920F931F93CF93DF93CDB7DEB7AB
:1052B000C154D1090FB6F894DEBF0FBECDBF5C015B
:1052C000812C912CD12C63E0C62EE12CF12C00E036
:1052D00018EF2AE232E04FE050E060E070E0C501F4
:1052E0000E94461772E0C72E25E332E040E550E009
:1052F0006FE070E0C5010E944617B501CE0101962E
:105300000E942B0400E111E020E330E04FE350E085
:1053100061EB70E0CE0101960E94A02000E018EF42
:1053200024E132E046E950E06FE070E0C5010E9400
:105330004617B501CE0101960E942B040FE615E039
:1053400020E330E045E850E061EB70E0CE010196EB
:105350000E94A02000E018EF2DE332E04CED50E079
:105360006FE070E0C5010E944617B501CE010196BD
:105370000E942B040EE615E020E330E04BEC50E0F9
:1053800061EB70E0CE0101960E94A02020911001F7
:1053900090916F0580916E05222311F08820A9F06D
:1053A000992319F0882009F482C0882349F08820C5
:1053B00019F08824839404C08824839499249394B6
:1053C0002223A9F0D11003C011C08824839499230B
:1053D00029F010921001912CD12C02C0DD24D3941D
:1053E000882329F01092100199249394D12C9923A9
:1053F000C9F0D11012C0911015C0909110019923DD
:1054000021F010926F0591E001C090E0882341F0F7
:1054100010926F059924939405C0DD24D39402C0A3
:10542000D92E15C0882399F0992089F080916F05B5
:10543000882321F010926E05912CD12C80911001BF
:10544000882329F010926E05912CDD24D394B501A8
:10545000CE0101960E942B0458E2E52EF12C08ECB7
:1054600010E02EE031E044E150E06EE971E0CE0161
:1054700001960E94F61E882309F425CF60E070E0B3
:10548000C5010E94B014CF5BDF4F0FB6F894DEBFAA
:105490000FBECDBFDF91CF911F910F91FF90EF9085
:1054A000DF90CF90BF90AF909F908F900895882409
:1054B0008394912C9BCFAF92BF92CF92EF92FF92A9
:1054C0000F931F93CF93DF93CDB7DEB7C154D109AC
:1054D0000FB6F894DEBF0FBECDBF5C01B3E0CB2E9C
:1054E000E12CF12C00E018EF25E432E04FE050E031
:1054F00060E070E0C5010E944617B501CE0101963B
:105500000E942B0418E2E12EF12C08EC10E02BE4B1
:1055100030E044E150E06AE272E0CE0101960E9480
:10552000F61E882371F060E070E0C5010E94B0149F
:10553000B501CE0101960E942B04CE0101960E9476
:105540004A29B501CE0101960E942B04A8E2EA2E59
:10555000F12C08EC10E027E830E044E150E064E290
:1055600072E0CE0101960E94F61E882371F060E081
:1055700070E0C5010E94B014B501CE0101960E94F1
:105580002B04CE0101960E948F27B501CE01019612
:105590000E942B04F8E2EF2EF12C08EC10E023EC33
:1055A00030E044E150E061E072E0CE0101960E94FB
:1055B000F61E882371F060E070E0C5010E94B0140F
:1055C000B501CE0101960E942B04CE0101960E94E6
:1055D0007E26B501CE0101960E942B04E8E2EE2E54
:1055E000F12C08EC10E02EE031E044E150E06EE9EF
:1055F00071E0CE0101960E94F61E882309F46ECF59
:1056000060E070E0C5010E94B014CF5BDF4F0FB6C1
:10561000F894DEBF0FBECDBFDF91CF911F910F91E8
:10562000FF90EF90CF90BF90AF9008953F924F9230
:105630005F926F927F928F929F92AF92BF92CF9222
:10564000DF92EF92FF920F931F93CF93DF93CDB72B
:10565000DEB7CB54D1090FB6F894DEBF0FBECDBF75
:105660005C01612CD12C712C4E0182E4880E911CBE
:105670002AE0522E3AE1432E40EF342EE2E6F2E0E9
:10568000D401852D01900D928A95E1F7F4010190E6
:105690000020E9F73197E819F909632D4E9E60194A
:1056A000112470E083E0C82EE12CF12C00E018EF0B
:1056B00094014FE050E0C5010E94461792E0C92EC8
:1056C0002CE432E04AE550E06FE070E0C5010E9452
:1056D0004617B501CE0101960E942B0401E111E0AD
:1056E00020E330E049E450E061EB70E0CE01019648
:1056F0000E94A02000E018EF27E532E044EB50E0E4
:105700006FE070E0C5010E944617B501CE01019619
:105710000E942B0400E715E020E330E043EA50E06C
:1057200061EB70E0CE0101960E94A020909170057F
:1057300080911101992311F0662089F0882321F0CE
:10574000662039F066246394992389F071100AC0A9
:1057500004C066246394DD24D394712C08C06624AD
:105760006394D12C882371F010927005F4CF8823B4
:1057700071F0DD2061F080917005882331F0109286
:105780001101D12C7724739402C0DD24D394B50188
:10579000CE0101960E942B0408E2E02EF12C08ECC9
:1057A00010E02EE031E044E150E06EE971E0CE011E
:1057B00001960E94F61E882309F460CF60E070E035
:1057C000C5010E94B014C55BDF4F0FB6F894DEBF71
:1057D0000FBECDBFDF91CF911F910F91FF90EF9042
:1057E000DF90CF90BF90AF909F908F907F906F9001
:1057F0005F904F903F9008956F927F928F929F920B
:10580000AF92BF92CF92DF92EF92FF920F931F93CE
:10581000CF93DF93CDB7DEB7CA54D1090FB6F89452
:10582000DEBF0FBECDBF5C0160E070E00E94B0142F
:105830004E0182E4880E911CA9E0DA2EBAE17B2E9B
:1058400010EF612EE0EBF1E0D4018D2D01900D926F
:105850008A95E1F7F40101900020E9F73197E81902
:10586000F909662D7E9E6019112470E0E3E0CE2ECA
:10587000E12CF12C00E018EF94014FE050E0C5015D
:105880000E944617B501CE0101960E942B04F8E252
:10589000EF2EF12C08EC10E02BE430E044E150E076
:1058A00065E472E0CE0101960E94F61E882371F035
:1058B00060E070E0C5010E94B014B501CE01019610
:1058C0000E942B04CE0101960E945B2AB501CE01F5
:1058D00001960E942B0478E2E72EF12C08EC10E0F0
:1058E00027E830E044E150E062E672E0CE01019644
:1058F0000E94F61E882371F060E070E0C5010E94EE
:10590000B014B501CE0101960E942B04CE01019680
:105910000E94162BB501CE0101960E942B0468E26D
:10592000E62EF12C08EC10E023EC30E044E150E0EE
:105930006CE672E0CE0101960E94F61E8823E1F12A
:1059400060E08BEA90E00E947C2661E48EEA90E0C1
:105950000E947C2661E48FEA90E00E947C2661E44C
:1059600080EB90E00E947C2660E08CEA90E00E9450
:105970007C2661E481EB90E00E947C2661E482EB6E
:1059800090E00E947C2661E483EB90E00E947C26FC
:1059900060E08DEA90E00E947C2661E484EB90E078
:1059A0000E947C2661E485EB90E00E947C2661E405
:1059B00086EB90E00E947C26B501CE0101960E9404
:1059C0002B0458E2E52EF12C08EC10E02EE031E03B
:1059D00044E150E06EE971E0CE0101960E94F61EAE
:1059E000882309F42FCF60E070E0C5010E94B01455
:1059F000C65BDF4F0FB6F894DEBF0FBECDBFDF91A1
:105A0000CF911F910F91FF90EF90DF90CF90BF90BB
:105A1000AF909F908F907F906F9008951092C500E7
:105A200080E18093C400E0ECF0E0808182608083BC
:105A300088E18093C10086E08093C2000895FB0155
:105A40008191BF0118163CF49091C00095FFFCCFE6
:105A50008093C600F4CF0895CF93CFB7F894809188
:105A60007305811127C0EFE2F4E08491EBE1F4E0EB
:105A70009491E82FF0E0EE0FFF1FED5BFB4FA59137
:105A8000B4918C91892321F461E08AE00E94D531A0
:105A900061E08AE00E949C318CB580618CBD8CB540
:105AA00080648CBD61E08DE00E949C3161E08BE000
:105AB0000E949C31809173058F5F80937305CFBFE7
:105AC000CF9108958091A40590E02091A505821BB7
:105AD000910908952091A5058091A405281750F4F7
