:100000000C9429020C9451020C9451020C9451024C
:100010000C9451020C9451020C9451020C94510214
:100020000C9451020C9451020C9451020C94510204
:100030000C9451020C9451020C9451020C945102F4
:100040000C94D4310C9451020C9451020C94510232
:100050000C9451020C9451020C9451020C945102D4
:100060000C94A7300C945102000000000000000026
:1000700030787830300030006C6C6C00000000008C
:100080006C6CFE6CFE6C6C00307CC0780CF8300040
:1000900000C6CC183066C600386C3876DCCC7600EA
:1000A0006060C00000000000183060606030180020
:1000B000603018181830600000663CFF3C66000095
:1000C000003030FC30300000000000000070306074
:1000D000000000FC000000000000000000303000C4
:1000E000060C183060C0800078CCDCFCECCC7800CA
:1000F00030F030303030FC0078CC0C3860CCFC0074
:1001000078CC0C380CCC78001C3C6CCCFE0C0C0071
:10011000FCC0F80C0CCC78003860C0F8CCCC78006F
:10012000FCCC0C183060600078CCCC78CCCC78005B
:1001300078CCCC7C0C1870000000303000303000DF
:100140000000303000703060183060C0603018003F
:100150000000FC00FC0000006030180C183060004B
:1001600078CC0C18300030007CC6DEDEDEC07800B3
:100170003078CCCCFCCCCC00FC66667C6666FC009F
:100180003C66C0C0C0663C00FC6C6666666CFC00E9
:10019000FE6268786862FE00FE6268786860F0005F
:1001A0003C66C0C0CE663E00CCCCCCFCCCCCCC00F7
:1001B00078303030303078001E0C0C0CCCCC78000D
:1001C000E6666C786C66E600F06060606266FE0071
:1001D000C6EEFED6C6C6C600C6E6F6DECEC6C6006B
:1001E000386CC6C6C66C3800FC66667C6060F00081
:1001F00078CCCCCCDC781C00FC66667C786CE600A5
:1002000078CCE0381CCC7800FCB43030303078004A
:10021000CCCCCCCCCCCCFC00CCCCCCCCCC78300076
:10022000C6C6C6D6FEEEC600C6C66C386CC6C600CC
:10023000CCCCCC7830307800FECC983062C6FE0052
:100240007860606060607800C06030180C06020062
:10025000781818181818780010386CC600000000BC
:1002600000000000000000FF303018000000000017
:100270000000780C7CCC7600E0607C666666BC0092
:10028000000078CCC0CC78001C0C0C7CCCCC760068
:10029000000078CCFCC07800386C60F06060F00042
:1002A000000076CCCC7C0CF8E0606C766666E600EC
:1002B0003000703030307800180078181818D87076
:1002C000E060666C786CE60070303030303078007A
:1002D0000000ECFED6C6C6000000F8CCCCCCCC00AA
:1002E000000078CCCCCC78000000DC66667C60F046
:1002F000000076CCCC7C0C1E0000D86C6C60F0004A
:1003000000007CC0780CF80010307C3030341800CD
:100310000000CCCCCCCC76000000CCCCCC7830002B
:100320000000C6C6D6FE6C000000C66C386CC60065
:100330000000CCCCCC7C0CF80000FC983064FC00B5
:100340001C3030E030301C00181818001818180045
:10035000E030301C3030E00076DC000000000000AF
:1003600010386CC6C6C6FE004128D441CF83008336
:100370003041ED846403128141E88385017941CBEA
:1003800085392C00340241F7812041EA8200004186
:10039000C0812641C1811141C582353E41C781BE20
:1003A00041B182001B41F281084126810141E08F69
:1003B0001F1A180A0F064587320A0702070500416F
:1003C000E18F0025270510093A784D05180D383AB8
:1003D0001F41B6840A82270041B78107413A8155FF
:1003E000413681E8412A82000082013F412B820090
:1003F000008200EF4111FCFC4129D4FFFF00000006
:1004000008000201000003040700000000000000D3
:10041000000102040810204080010204081020019D
:100420000204081020040404040404040402020268
:100430000202020303030303030000000025002857
:10044000002B0000000000240027002A0000651394
:10045000C52F11241FBECFEFD8E0DEBFCDBF12E005
:10046000A0E0B1E0EAE5FDE602C005900D92A83DEE
:10047000B107D9F726E0A8EDB2E001C01D92AA3875
:10048000B207E1F714E0C2E5D4E004C02297FE0110
:100490000E94DA35CE34D107C9F70E94A7120C9416
:1004A000AB360C940000EF92FF920F931F93CF9303
:1004B000DF93EC0160E070E00E943315EE24E394DA
:1004C00085E0F82E00E411E024E130E040E050E067
:1004D00060E070E0CE010E947F1724E130E040E050
:1004E00050E06CED70E0CE010E947F17DF91CF915C
:1004F0001F910F91FF90EF900895DC01ED91FC9119
:100500000190F081E02D09948EBD00000DB407FE2E
:10051000FDCF8EB508958F929F92AF92BF92CF92EA
:10052000DF92EF92FF920F931F93CF93DF93982E5A
:100530000E942C366C010E942C367C010E942C36C5
:100540008C010E942C365C01E92DF0E085E0882EBC
:100550008E9EE0018F9ED00D1124CB59DA4FC6013B
:1005600065E070E00E9471358983188229E630E0E9
:10057000C701B9010E9471358A568B83C801B90140
:100580000E9471358A568C83AF014F5F5F4F849E06
:10059000F001859EF00D1124EB59FA4FC501B90108
:1005A0000E9471358A56808380911101882311F051
:1005B00081E00BC08091BC05882349F00E942C3655
:1005C00062E070E00E9471358F5F8A830FC0809176
:1005D000BB05882359F0911002C082E0F6CF81E07C
:1005E000981619F082E0981201C09A82DF91CF919B
:1005F0001F910F91FF90EF90DF90CF90BF90AF9041
:100600009F908F90089580E00E948B0281E00E946D
:100610008B0282E00C948B022F923F924F925F925A
:100620006F927F928F929F92AF92BF92CF92DF9202
:10063000EF92FF920F931F93CF93DF9300D01F92FF
:10064000CDB7DEB706EE12E087EE92E09B838A8399
:100650009AEEE92E92E0F92E41E06624639429E6B1
:10066000C22ED12C32E0232E312C443009F441E04B
:1006700049830E942C364C010E942C365C01C40137
:1006800065E070E00E947135782EF8018083EA8180
:10069000FB81329710820E942C362C010E942C364E
:1006A0004C010E942C369C01F7013297C201B60121
:1006B0000E9471358A5680833196C401B6010E942A
:1006C00071358A568083C901B6010E9471358A56F8
:1006D000F7018083809111014981882331F0F8016D
:1006E0007082EA81FB81608224C08091BC058823EE
:1006F00059F0F8017082C501B1010E94713501966F
:10070000EA81FB81808315C08091BB05882389F035
:10071000F8017082413041F0423021F4EA81FB81DE
:10072000608206C0433021F422E0EA81FB8120830D
:100730004F5F0B5F1F4F8A819B8105969B838A8346
:1007400095E0E90EF11CEA81FB81E756F54009F0DE
:100750008CCF85E0E5EEF2E0A5E6B5E001900D92E4
:100760008A95E1F785E0EAEEF2E0AAE6B5E00190CD
:100770000D928A95E1F785E0EFEEF2E0AFE6B5E0A5
:1007800001900D928A95E1F70F900F900F90DF91F5
:10079000CF911F910F91FF90EF90DF90CF90BF907E
:1007A000AF909F908F907F906F905F904F903F9011
:1007B0002F900895282F30E09091E402899FA001A6
:1007C00011244537510514F00C940C0381110FC00E
:1007D00081E0890F8093E40245E0429FD001439F6E
:1007E000B00D1124AB59BA4F90E0039628C0813068
:1007F00091F48091E3028F5F8093E30245E0429F92
:10080000D001439FB00D1124AB59BA4F90E001962F
:10081000880F991F14C08230E9F48091E2028F5F43
:100820008093E20245E0429FD001439FB00D112426
:10083000AB59BA4F23E0829FC00111240596489F0F
:10084000F001499FF00D1124EB51FD4F01900D92E5
:100850004A95E1F70895CF93DF93EC01FB01828184
:1008600093819B838A8381EB91E099838883848140
:1008700095819D838C83868197819F838E838085DC
:10088000918599878887828593859B878A878485C8
:1008900095859D878C87868597859F878E8780899C
:1008A0009189998B888B828993899B8B8A8B848988
:1008B00095899D8B8C8B868997899F8B8E8B8CE1FC
:1008C0007896DE01589601900D928A95E1F7FB012A
:1008D00084A98CAB85A98DAB86A997A99FAB8EAB5C
:1008E00080AD91AD99AF88AF82AD93AD9BAF8AAF2C
:1008F00084AD95AD9DAF8CAF86AD97AD9FAF8EAFFC
:100900008BEF91E099838883E05CFF4F8081C05C2E
:10091000DF4F8883DF91CF910895FF920F931F934C
:10092000CF93DF93CDB7DEB7C554D1090FB6F89496
:10093000DEBF0FBECDBF8C018091D90281110DC0E9
:100940008091BD05811109C080911201882329F091
:100950000E94030381E08093D9028091BB0581301E
:1009600009F05BC09091D802983009F056C01092FF
:10097000D80290916605943011F483E002C0911181
:1009800003C0809366050FC00E942C3662E070E0C1
:100990000E94713590916605811102C09F5F01C070
:1009A00091509093660580916B05843011F483E03B
:1009B00003C0811104C081E080936B050FC00E94C9
:1009C0002C3662E070E00E94713590916B058111C8
:1009D00002C09F5F01C0915090936B05809170059C
:1009E000843011F483E003C0811104C081E080935E
:1009F000700513C080916B05843079F00E942C360D
:100A000062E070E00E94713590917005811102C022
:100A10009F5F01C09150909370058FEF23968FAF29
:100A2000239724968FAF249725968FAF2597809193
:100A3000E102863151F41092E1028091BD058823D4
:100A400011F080E00FC080E021C08091E00286318B
:100A500071F41092E0021092DB028091BD058823B0
:100A600021F081E00E94DA0313C081E00FC0809181
:100A7000DF02863169F41092DF021092DA0280916F
:100A8000BD05882311F082E0EDCF82E00E948B0249
:100A90008091670540916505F090DE02B8018130D4
:100AA00031F5CE01019626964FAF26970E942B0472
:100AB00026964FAD26976F2DCE0101960E94FC0A17
:100AC0004091E102F0906605B801CE0101962696AC
:100AD0004FAF26970E942B0428E635E026964FADAF
:100AE00026976F2DCE0101960E94130925C0CE01D5
:100AF000019626964FAF26970E942B0426964FAD5F
:100B000026976F2DCE0101960E940C0E4091E102B6
:100B1000F0906605B801CE01019626964FAF269754
:100B20000E942B0428E635E026964FAD26976F2DC0
:100B3000CE0101960E94560C8091E10280936505DA
:100B400090916C058091E002913069F587FD5CC061
:100B500040916A05F090DD02B801CE01019626961B
:100B60004FAF26970E942B0426964FAD26976F2DE8
:100B7000CE0101960E94FC0A4091E002F0906B05C4
:100B8000B801CE01019626964FAF26970E942B04FE
:100B90002DE635E026964FAD26976F2DCE010196B6
:100BA0000E9413092DC087FD2FC040916A05F09067
:100BB000DD02B801CE01019626964FAF26970E941E
:100BC0002B0426964FAD26976F2DCE0101960E94DD
:100BD0000C0E4091E002F0906B05B801CE01019639
:100BE00026964FAF26970E942B049E012E5B3F4F07
:100BF00026964FAD26976F2DCE0101960E94560C7A
:100C00008091E00280936A05909171058091DF02E6
:100C1000913069F587FD5BC040916F05F090DC0273
:100C2000B801CE01019626964FAF26970E942B045D
:100C300026964FAD26976F2DCE0101960E94FC0A95
:100C40004091DF02F0907005B801CE010196269622
:100C50004FAF26970E942B0422E735E026964FAD32
:100C600026976F2DCE0101960E9413092CC087FD97
:100C70002EC040916F05F090DC02B801CE010196C4
:100C800026964FAF26970E942B0426964FAD2697A7
:100C90006F2DCE0101960E940C0E4091DF02F09064
:100CA0007005B801CE01019626964FAF26970E9497
:100CB0002B0422E735E026964FAD26976F2DCE0107
:100CC00001960E94560C8091DF0280936F058091FF
:100CD00066058093DE0280916B058093DD02809132
:100CE00070058093DC028091E1028F5F8093E102C6
:100CF000873048F49091DB02911105C08091DA02AF
:100D000081110BC012C09091E0029F5F9093E002AE
:100D100091E09093DB028D3088F38091DF028F5F4A
:100D20008093DF0281E08093DA028091D8028F5FA6
:100D30008093D802CB5BDF4F0FB6F894DEBF0FBEB7
:100D4000CDBFDF91CF911F910F91FF9008952F920A
:100D50003F924F925F926F927F928F929F92AF924B
:100D6000BF92CF92DF92EF92FF920F931F93CF9398
:100D7000DF93CDB7DEB7C754D1090FB6F894DEBF05
:100D80000FBECDBF3C0180910F0123968FAF2397FB
:100D900080910D0124968FAF249780910E012596A6
:100DA0008FAF259780911001813061F08091BA0555
:100DB000813051F08091B905813059F026961FAEEF
:100DC00026970BC085E006C094E026969FAF269735
:100DD00004C083E026968FAF2697B301CE0101961B
:100DE0000E942B04CE0101960E9453028FE695E0EB
:100DF0000E94BB251092E1021092E0021092DF02E5
:100E00001092DE021092DD021092DC021092DB02E0
:100E10001092DA028091BD0581110E940C03212CF1
:100E2000312C412C512C28961FAE1EAE2897812CB8
:100E3000912CB12C12E08091BF05882309F110920A
:100E4000BF0560E070E0C3010E943315C95BDF4F4E
:100E50000FB6F894DEBF0FBECDBFDF91CF911F91CB
:100E60000F91FF90EF90DF90CF90BF90AF909F9049
:100E70008F907F906F905F904F903F902F9008954C
:100E80008091BE05882309F451C01092E1021092AE
:100E9000E0021092DF021092DE021092DD02109248
:100EA000DC021092DB021092DA0280910F0123968D
:100EB0008FAF239780910D0124968FAF2497809157
:100EC0000E0125968FAF259780911001813061F03A
:100ED0008091BA05813051F08091B905813059F087
:100EE00026961FAE26970BC095E006C084E0269696
:100EF0008FAF269704C093E026969FAF2697B30145
:100F0000CE0101960E942B04CE0101960E9453024D
:100F10001092BE05212C312C412C512C28961FAE4D
:100F20001EAE2897812C912CB12C12E0B301CE017A
:100F300001960E942B04CE0101960E948D04B301FC
:100F4000CE0101960E942B049E012E5B3F4F4CE088
:100F5000612FCE0101960E941309809167058130AF
:100F600031F49091E1029C50953040F033C08230D2
:100F700089F59091E1029C509C3060F59091660556
:100F800091130BC0B301CE0101960E942B04B40152
:100F9000CE0101960E942C101DC0813051F428967C
:100FA0008EAD9FAD2897892BA9F49FEF891A990AD6
:100FB0000BC0823079F428968EAD9FAD2897892B8F
:100FC00049F492E0890E911C81E090E028969FAF51
:100FD0008EAF289780916C05813031F48091E002CA
:100FE0008C50853040F02DC0823059F58091E00260
:100FF0008C508C3030F580916B0581130BC0B301A0
:10100000CE0101960E942B04B401CE0101960E94EC
:101010002C1017C080916705813041F441145104B0
:1010200081F494012F5F3F4F490108C0823049F499
:101030004114510431F492E0890E911C44244394EC
:10104000512C80917105813031F48091DF028C50F8
:10105000853040F02CC0823051F58091DF028C50F9
:101060008C3028F58091700581130BC0B301CE013F
:1010700001960E942B04B401CE0101960E942C100F
:1010800016C080916705813039F42114310479F458
:101090008FEF881A980A08C0823049F4211431046D
:1010A00031F492E0890E911C22242394312C8091FA
:1010B000E102813059F08091E002813061F080914D
:1010C000DF02813051F4212C312C07C028961FAE4D
:1010D0001EAE289702C0412C512C8FE695E00E944D
:1010E0000126882309F4A7CE8FE695E00E94F52516
:1010F000813049F4B301CE0101960E942B04CE0148
:1011000001960E942F268FE695E00E94F2258539F0
:1011100020F08091B805811127C08FE695E00E94EC
:10112000EF25873920F080910C0181111DC08FE6D9
:1011300095E00E94F225873430F08FE695E00E941A
:10114000F2258C3638F08FE695E00E94EF258A353F
:1011500030F04AC08091B80581111EC0F4CF809153
:101160000C01811119C040C0B1100FC0B301CE01F4
:1011700001960E942B044CE0612FCE0101960E9443
:10118000FC0A1430C0F41F5F16C0B39426968FADCE
:101190002697B816D0F018C0B11010C0B301CE0118
:1011A00001960E942B044CE0612FCE0101960E9413
:1011B000FC0A11111150BB24B39407C0B3942696B6
:1011C0009FAD2697B91608F0B12CB301CE01019658
:1011D0000E942B049E012E5B3F4F4CE0612FCE01FD
:1011E00001960E9413090DC08FE695E00E94F2253A
:1011F000893738F08FE695E00E94F225883808F4A8
:10120000B12CAA24A394C12CD12CEE24E39465E044
:10121000F62E0AE0940142E050E066E170E0C3017E
:101220000E94071808CE6F927F928F929F92AF9282
:10123000BF92CF92DF92EF92FF920F931F93CF93C3
:10124000DF936C01762E642EE9018881887F998175
:101250009C7F28E0929F70011124F82A8A8186954C
:1012600086958695E82A842F0E94F61B5C01872DBF
:101270000E94FB1B00E410E028E230E0A501BC0165
:10128000C6010E947F178881887F99819C7F28E012
:10129000929F70011124F82A8A81869586958695F9
:1012A000E82A862D0E94F61B8C01872D0E94FB1BCD
:1012B0004C01862D0E94F61B5C01872D0E94FB1BB2
:1012C000065E1F4F9401265F3F4FA501405F5F4FB1
:1012D000BC016F5F7F4FC6010E9474168881887FB2
:1012E00099819C7F28E0929F70011124F82A8A81BD
:1012F000869586958695E82A862D0E94F61B8C0198
:10130000872D0E94FB1B4C01862D0E94F61B5C0161
:10131000872D0E94FB1B065E1F4F9401225E3F4FEC
:10132000A501405F5F4FBC01695D7F4FC6010E9410
:1013300074168881887F99819C7F28E0929F700134
:101340001124F82A8A81869586958695E82A862D25
:101350000E94F61B8C01872D0E94FB1B4C01862DE1
:101360000E94F61B5C01872D0E94FB1B065E1F4F2F
:101370009401225E3F4FA501465E5F4FBC01665F50
:101380007F4FC6010E9474168881887F99819C7F57
:1013900028E0929F70011124F82A8A81869586950B
:1013A0008695E82A862D0E94F61B8C01872D0E94C7
:1013B000FB1B4C01862D0E94F61B5C01872D0E94B1
:1013C000FB1B0A5D1F4F9401225E3F4FA5014A5D42
:1013D0005F4FBC01665F7F4FC6010E947416888113
:1013E000887F99819C7F28E0929F70011124F82AC0
:1013F0008A81869586958695E82A862D0E94F61B19
:101400008C01872D0E94FB1B4C01862D0E94F61B30
:101410005C01872D0E94FB1B0A5D1F4F9401265F14
:101420003F4FA501405D5F4FBC016F5F7F4FC6011D
:101430000E9474168881887F99819C7F28E0929F02
:1014400070011124F82A8A81869586958695E82A66
:10145000862D0E94F61B8C01872D0E94FB1B4C01E0
:10146000862D0E94F61B5C01872D0E94FB1B0A5DE6
:101470001F4F9401225E3F4FA501405D5F4FBC01AD
:10148000695D7F4FC6010E9474168881887F9981AB
:101490009C7F28E0929F70011124F82A8A8186950A
:1014A00086958695E82A862D0E94F61B8C01872D4D
:1014B0000E94FB1B4C01862D0E94F61B5C01872DB0
:1014C0000E94FB1B0A5D1F4F9401265F3F4FA50141
:1014D000465E5F4FBC01665F7F4FC6010E94741677
:1014E0008881887F99819C7F28E0929F70011124D8
:1014F000F82A8A81869586958695E82A862D0E9407
:10150000F61B8C01872D0E94FB1B4C01862D0E942F
:10151000F61B5C01872D0E94FB1B0A5D1F4F940187
:10152000225E3F4FA501465E5F4FBC01625E7F4F6A
:10153000C6010E9474168881887F99819C7F28E06B
:10154000929F70011124F82A8A8186958695869546
:10155000E82A862D0E94F61B8C01872D0E94FB1B1A
:101560004C01862D0E94F61B5C01872D0E94FB1BFF
:10157000005F1F4F94012A5D3F4FA501405F5F4F01
:10158000BC01C6010E9474168881887F99819C7F66
:1015900028E0929F70011124F82A8A818695869509
:1015A0008695E82A862D0E94F61B8C01872D0E94C5
:1015B000FB1B5C01862D0E94F61BEC01872D0E940F
:1015C000FB1B005D1F4F95012A5D3F4FAE01405D43
:1015D0005F4FBC01C6010E947416DF91CF911F912D
:1015E0000F91FF90EF90DF90CF90BF90AF909F90C2
:1015F0008F907F906F900895AF92BF92CF92DF92BD
:10160000EF92FF920F931F93CF93DF93EC01B62ECF
:10161000A42E842F0E94F61B8C018B2D0E94FB1B95
:101620006C018A2D0E94F61B7C018B2D0E94FB1BF6
:10163000065E1F4F9601265F3F4FA701405F5F4F39
:10164000BC016F5F7F4FE12CF12CCE010E9474161C
:101650008A2D0E94F61B8C018B2D0E94FB1B6C01B6
:101660008A2D0E94F61B7C018B2D0E94FB1B065EBF
:101670001F4F9601225E3F4FA701405F5F4FBC01A5
:10168000695D7F4FE12CF12CCE010E9474168A2DEA
:101690000E94F61B8C018B2D0E94FB1B6C018A2D76
:1016A0000E94F61B7C018B2D0E94FB1B065E1F4FC8
:1016B0009601225E3F4FA701465E5F4FBC01665F09
:1016C0007F4FE12CF12CCE010E9474168A2D0E94CE
:1016D000F61B8C018B2D0E94FB1B6C018A2D0E9436
:1016E000F61B7C018B2D0E94FB1B0A5D1F4F960190
:1016F000225E3F4FA7014A5D5F4FBC01665F7F4F8F
:10170000E12CF12CCE010E9474168A2D0E94F61B4A
:101710008C018B2D0E94FB1B6C018A2D0E94F61BF5
:101720007C018B2D0E94FB1B0A5D1F4F9601265FDB
:101730003F4FA701405D5F4FBC016F5F7F4FE12CC2
:10174000F12CCE010E9474168A2D0E94F61B8C018A
:101750008B2D0E94FB1B6C018A2D0E94F61B7C01C5
:101760008B2D0E94FB1B0A5D1F4F9601225E3F4F8F
:10177000A701405D5F4FBC01695D7F4FE12CF12CFB
:10178000CE010E9474168A2D0E94F61B8C018B2DAF
:101790000E94FB1B6C018A2D0E94F61B7C018B2D85
:1017A0000E94FB1B0A5D1F4F9601265F3F4FA7015A
:1017B000465E5F4FBC01665F7F4FE12CF12CCE018E
:1017C0000E9474168A2D0E94F61B8C018B2D0E949C
:1017D000FB1B6C018A2D0E94F61B7C018B2D0E9445
:1017E000FB1B0A5D1F4F9601225E3F4FA701465E1D
:1017F0005F4FBC01625E7F4FE12CF12CCE010E9455
:1018000074168A2D0E94F61B8C018B2D0E94FB1BE7
:101810006C018A2D0E94F61B7C018B2D0E94FB1B04
:10182000005F1F4F9601285D3F4FA701405F5F4F4C
:10183000E12CF12CBC01CE010E9474168A2D0E946D
:10184000F61B8C018B2D0E94FB1B7C018A2D0E94B4
:10185000F61B6C018B2D0E94FB1B005D1F4F970137
:10186000285D3F4FA601405D5F4FE12CF12CBC018C
:10187000CE010E9474168A2D0E94F61B6C018B2DDE
:101880000E94FB1B00E410E028E230E0A601BC014E
:10189000CE010E947F17DF91CF911F910F91FF9092
:1018A000EF90DF90CF90BF90AF9008956F927F92AE
:1018B0008F929F92AF92BF92CF92DF92EF92FF9260
:1018C0000F931F93CF93DF936C01762E642EE90163
:1018D0008881887F99819C7F28E0929F70011124E4
:1018E000F82A8A81869586958695E82A842F0E9413
:1018F000F61B8C01872D0E94FB1B4C01862D0E943C
:10190000F61B5C01872D0E94FB1B0E5C1F4F940190
:10191000295D3F4FA5014E5C5F4FBC01C6010E948F
:1019200074168881887F99819C7F28E0929F70013E
:101930001124F82A8A81869586958695E82A862D2F
:101940000E94F61B8C01872D0E94FB1B4C01862DEB
:101950000E94F61B5C01872D0E94FB1B015C1F4F40
:1019600094012B5F3F4FA5014E5C5F4FBC016B5F45
:101970007F4FC6010E9474168881887F99819C7F61
:1019800028E0929F70011124F82A8A818695869515
:101990008695E82A862D0E94F61B8C01872D0E94D1
:1019A000FB1B4C01862D0E94F61B5C01872D0E94BB
:1019B000FB1B015C1F4F94012D5D3F4FA5014E5C49
:1019C0005F4FBC016D5D7F4FC6010E947416888118
:1019D000887F99819C7F28E0929F70011124F82ACA
:1019E0008A81869586958695E82A862D0E94F61B23
:1019F0008C01872D0E94FB1B4C01862D0E94F61B3B
:101A00005C01872D0E94FB1B0D5D1F4F9401225E20
:101A10003F4FA5014D5D5F4FBC01665F7F4FC60123
:101A20000E9474168881887F99819C7F28E0929F0C
:101A300070011124F82A8A81869586958695E82A70
:101A4000862D0E94F61B8C01872D0E94FB1B4C01EA
:101A5000862D0E94F61B5C01872D0E94FB1B0E5CED
:101A60001F4F94012B5F3F4FA5014D5D5F4FBC01A0
:101A7000665F7F4FC6010E9474168881887F9981B6
:101A80009C7F28E0929F70011124F82A8A81869514
:101A900086958695E82A862D0E94F61B8C01872D57
:101AA0000E94FB1B4C01862D0E94F61B5C01872DBA
:101AB0000E94FB1B0E5C1F4F94012D5D3F4FA50143
:101AC0004D5D5F4FBC01625E7F4FC6010E94741680
:101AD0008881887F99819C7F28E0929F70011124E2
:101AE000F82A8A81869586958695E82A862D0E9411
:101AF000F61B8C01872D0E94FB1B4C01862D0E943A
:101B0000F61B5C01872D0E94FB1B0D5D1F4F94018E
:101B1000265F3F4FA501475E5F4FBC01665F7F4F69
:101B2000C6010E9474168881887F99819C7F28E075
:101B3000929F70011124F82A8A8186958695869550
:101B4000E82A862D0E94F61B8C01872D0E94FB1B24
:101B50004C01862D0E94F61B5C01872D0E94FB1B09
:101B60000D5D1F4F9401225E3F4FA501475E5F4F01
:101B7000BC01625E7F4FC6010E9474168881887F17
:101B800099819C7F28E0929F70011124F82A8A8114
:101B9000869586958695E82A8DEF860D0E94F61B20
:101BA0005C01872D0E94FB1B0AE510E028E230E073
:101BB000A501BC01C6010E947F178881887F998199
:101BC0009C7F28E0929F70011124F82A8A818695D3
:101BD00086958695E82A862D0E94F61BEC01872DB6
:101BE0000E94FB1BAE01455E5F4F05E210E028E25C
:101BF00030E0BC01C6010E947F17DF91CF911F9199
:101C00000F91FF90EF90DF90CF90BF90AF909F909B
:101C10008F907F906F900895AF92BF92CF92DF9296
:101C2000EF92FF920F931F93CF93DF93EC01B62EA9
:101C3000A42E842F0E94F61B8C018B2D0E94FB1B6F
:101C40006C018A2D0E94F61B7C018B2D0E94FB1BD0
:101C50000E5C1F4F9601295D3F4FA7014E5C5F4F01
:101C6000E12CF12CBC01CE010E9474168A2D0E9439
:101C7000F61B8C018B2D0E94FB1B6C018A2D0E9490
:101C8000F61B7C018B2D0E94FB1B015C1F4F9601F4
:101C90002B5F3F4FA7014E5C5F4FBC016B5F7F4FD7
:101CA000E12CF12CCE010E9474168A2D0E94F61BA5
:101CB0008C018B2D0E94FB1B6C018A2D0E94F61B50
:101CC0007C018B2D0E94FB1B015C1F4F96012D5D3B
:101CD0003F4FA7014E5C5F4FBC016D5D7F4FE12C14
:101CE000F12CCE010E9474168A2D0E94F61B8C01E5
:101CF0008B2D0E94FB1B6C018A2D0E94F61B7C0120
:101D00008B2D0E94FB1B0D5D1F4F9601225E3F4FE6
:101D1000A7014D5D5F4FBC01665F7F4FE12CF12C49
:101D2000CE010E9474168A2D0E94F61B8C018B2D09
:101D30000E94FB1B6C018A2D0E94F61B7C018B2DDF
:101D40000E94FB1B0E5C1F4F96012B5F3F4FA701AC
:101D50004D5D5F4FBC01665F7F4FE12CF12CCE01E2
:101D60000E9474168A2D0E94F61B8C018B2D0E94F6
:101D7000FB1B6C018A2D0E94F61B7C018B2D0E949F
:101D8000FB1B0E5C1F4F96012D5D3F4FA7014D5D64
:101D90005F4FBC01625E7F4FE12CF12CCE010E94AF
:101DA00074168A2D0E94F61B8C018B2D0E94FB1B42
:101DB0006C018A2D0E94F61B7C018B2D0E94FB1B5F
:101DC0000D5D1F4F9601265F3F4FA701475E5F4F96
:101DD000BC01665F7F4FE12CF12CCE010E9474168E
:101DE0008A2D0E94F61B8C018B2D0E94FB1B7C010F
:101DF0008A2D0E94F61B6C018B2D0E94FB1B0D5D32
:101E00001F4F9701225E3F4FA601475E5F4FBC0107
:101E1000625E7F4FE12CF12CCE010E9474168DEF93
:101E20008A0D0E94F61B6C018B2D0E94FB1B0AE59C
:101E300010E028E230E0A601BC01CE010E947F172D
:101E40008A2D0E94F61B6C018B2D0E94FB1BA601A4
:101E5000455E5F4F05E210E028E230E0BC01CE01B4
:101E60000E947F17DF91CF911F910F91FF90EF900C
:101E7000DF90CF90BF90AF9008950C9466360C948D
:101E80006E362F923F924F925F926F927F928F9217
:101E90009F92AF92BF92CF92DF92EF92FF920F93F9
:101EA0001F93CF93DF93CDB7DEB7CB54D1090FB6D5
:101EB000F894DEBF0FBECDBF4C012B01B42E3E0106
:101EC00082E4680E711CFAE13F2EA0EF2A2EE4E6B0
:101ED000F1E0D3018AE001900D928A95E1F7F301D8
:101EE00001900020E9F73197E619F709622D3E9E2F
:101EF0006019112470E0E3E0CE2EE12CF12C00E01B
:101F000018EF93014FE050E0C4010E94C917B110CF
:101F10004BC062E0C62E2BE231E04CE350E06FE0B4
:101F200070E0C4010E94C9178091B805882359F058
:101F3000CC24C39427E331E040E550E06FE070E04B
:101F4000C4010E94C91723E0A22EC12CD12CE12C80
:101F500038EFF32E0AE0920144E650E066E470E0C8
:101F6000C4010E94071842E0C42EE12CF12C00E0CD
:101F700018EF28E431E04CE850E06FE070E0C40175
:101F80000E94C9178DEA90E00E943D0FC12CD12C10
:101F9000E12C58EFF52E0AE0282F4AEA50E066E4DB
:101FA00070E0C4010E944F18B401CE0101960E9456
:101FB0002B0498E2E92EF12C08EC10E02CED30E037
:101FC00044E150E062E571E0CE0101960E94791F84
:101FD000882349F060E070E0C4010E94331581E07D
:101FE0008093BE051FC0B401CE0101960E942B0450
:101FF00088E2E82EF12C08EC10E02EE031E044E11C
:1020000050E06AE571E0CE0101960E94791F8823B5
:1020100009F45DCF60E070E0C4010E94331581E0F7
:102020008093BF05C55BDF4F0FB6F894DEBF0FBED0
:10203000CDBFDF91CF911F910F91FF90EF90DF9077
:10204000CF90BF90AF909F908F907F906F905F9058
:102050004F903F902F9008952F923F924F925F9212
:102060006F927F928F929F92AF92BF92CF92DF92A8
:10207000EF92FF920F931F93CF93DF93CDB7DEB70D
:10208000C955D1090FB6F894DEBF0FBECDBF4C01C4
:102090003B018BEA90E00E943D0F182F60E070E05A
:1020A000C4010E94331511113CC060E08BEA90E03E
:1020B0000E943F0F61E48EEA90E00E943F0F61E4CE
:1020C0008FEA90E00E943F0F61E480EB90E00E9475
:1020D0003F0F60E08CEA90E00E943F0F61E481EBEB
:1020E00090E00E943F0F61E482EB90E00E943F0F7E
:1020F00061E483EB90E00E943F0F60E08DEA90E0A6
:102100000E943F0F61E484EB90E00E943F0F61E486
:1021100085EB90E00E943F0F61E486EB90E00E9427
:102120003F0F8091B805882311F0660C771C31E4CD
:10213000232E41E4342E51E4B52ECE01835B9F4F14
:1021400069969FAF8EAF69972E0192E4490E511C9C
:102150008091BE05882321F081E08093BE05A0C157
:102160008091BF05882321F081E08093BF0598C14D
:102170008DEA90E00E943D0F90E08615970560F093
:1021800060E070E0C4010E943315B401CE010196F5
:102190000E942B0440E07EC1E4E6F1E0DE01A35B97
:1021A000BF4F8AE001900D928A95E1F76996EEADF6
:1021B000FFAD699701900020E9F7319769968EADE0
:1021C0009FAD6997E81BF90B65EF9AE19E9F601937
:1021D000112470E093E0C92EE12CF12C00E018EFFF
:1021E0009E01235B3F4F4FE050E0C4010E94C9179E
:1021F00022E0C22E2EE631E048E250E06FE070E0CF
:10220000C4010E94C9178091B805882359F0CC24D5
:10221000C39427E331E04CE350E06FE070E0C40189
:102220000E94C917B3E0AB2EC12CD12CE12C18EFC2
:10223000F12E0AE0930140E550E066E470E0C4014D
:102240000E940718E2E8F1E0D2018BE001900D92C4
:102250008A95E1F7F20101900020E9F73197E4193E
:10226000F50960EF84E18E9F6019112470E002E0AF
:10227000C02EE12CF12C00E018EF92014CE850E068
:10228000C4010E94C917B401CE0101960E942B041B
:102290002B2D40EA50E063E270E0CE0101960E94EF
:1022A000F521B82EB401CE0101960E942B04232DF6
:1022B00040EA50E06FE570E0CE0101960E94F52102
:1022C000382EB401CE0101960E942B04222D40EA43
:1022D00050E06BE970E0CE0101960E94F521282EB6
:1022E000B401CE0101960E942B0488E2E82EF12C65
:1022F00008EC10E020EF30E044E150E06BE771E0E3
:10230000CE0101960E94791F882309F421CF8BEA20
:1023100090E00E943D0F182F282F30E0261537053A
:1023200008F053C08EEA90E00E943D0F282F8FEAFC
:1023300090E06A962FAF6A970E943D0FA82E80EB1F
:1023400090E00E943D0FC82E8CEA90E00E943D0F65
:10235000D82E81EB90E00E943D0FE82E82EB90E0BA
:102360000E943D0FF82E83EB90E00E943D0F082F56
:10237000662D8BEA90E00E943F0F6B2D8EEA90E075
:102380000E943F0F632D8FEA90E00E943F0F622D65
:1023900080EB90E00E943F0F612F8CEA90E00E945A
:1023A0003F0F6A962FAD6A97622F81EB90E00E94F3
:1023B0003F0F6A2D82EB90E00E943F0F6C2D83EB64
:1023C00090E00E943F0F6D2D2EC08CEA90E00E949D
:1023D0003D0F182F282F30E026153705A0F581EB8B
:1023E00090E00E943D0FE82E82EB90E00E943D0FAE
:1023F000F82E83EB90E00E943D0F082F662D8CEAAB
:1024000090E00E943F0F6B2D81EB90E00E943F0F08
:10241000632D82EB90E00E943F0F622D83EB90E0F2
:102420000E943F0F612F8DEA90E00E943F0F6E2DBA
:1024300084EB90E00E943F0F6F2D85EB90E00E94AF
:102440003F0F602F18C08DEA90E00E943D0F90E092
:1024500086159705A0F4662D8DEA90E00E943F0F47
:102460006B2D84EB90E00E943F0F632D85EB90E095
:102470000E943F0F622D86EB90E00E943F0F60E0CC
:1024800070E0C4010E943315B401CE0101960E9490
:102490002B0441E0B301CE0101960E94410F58CEBA
:1024A000C75ADF4F0FB6F894DEBF0FBECDBFDF9126
:1024B000CF911F910F91FF90EF90DF90CF90BF9041
:1024C000AF909F908F907F906F905F904F903F90D4
:1024D0002F9008950F931F93CF93DF936AEA80E0C4
:1024E00090E00E946E3608E815E0C1E0D0E0F80107
:1024F00061918F01CE010E946E362196CD31D105BA
:10250000B1F7DF91CF911F910F9108950F931F9312
:10251000CF93DF9380E090E00E9466368A3A79F4A8
:1025200008E815E0C1E0D0E0CE010E946636F8016F
:1025300081938F012196CD31D105B1F702C081E0A1
:1025400001C080E0DF91CF911F910F910895CF934B
:10255000DF93CDB7DEB7C154D1090FB6F894DEBF13
:102560000FBECDBF0E94693280E795E00E94B8257A
:102570006AE570E080E795E00E94A82481EB95E091
:102580000E949E2E6DE871E081EB95E00E94AF2ED7
:1025900080E795E00E94B12280E795E00E94F21B5F
:1025A000892B09F08BC00E948612811187C060E0E0
:1025B00070E080E795E00E9433158CE1F82E0BEF78
:1025C00011E080917205909173059C838B838091BB
:1025D0007405909175059E838D8380917605909109
:1025E000770598878F8380917805909179059A87F0
:1025F000898780917A0590917B059C878B87809154
:102600007C0590917D059E878D8780917E059091B8
:102610007F05988B8F8780918005909181059A8B9B
:10262000898B80918205909183059C8B8B8B809107
:102630008405909185059E8B8D8B80918605909168
:102640008705988F8F8BE8E8F5E0DE0159968F2D8E
:1026500001900D928A95E1F78091A4058DAB809150
:10266000A5058EAB8091A6059091A70598AF8FAB7D
:102670008091A8059091A9059AAF89AF8091AA058C
:102680009091AB059CAF8BAF8091AC059091AD055F
:102690009EAF8DAF8091AE059091AF0521969FAF13
:1026A0008EAF21971A8309838091B00522968FAF50
:1026B0002297CE0101960E94B91D83CF80E795E055
:1026C0000E9445230E946A1272CF80E795E00C9425
:1026D000A1222F923F924F925F926F927F928F92A0
:1026E0009F92AF92BF92CF92DF92EF92FF920F93A1
:1026F0001F93CF93DF9300D01F92CDB7DEB79B839C
:102700008A83380188E0280250011124D501A85994
:10271000B0405D01BC2DBF77CB2EEA81FB81868165
:102720009781F1E0FB1708F462C06B0128E0C20E4C
:10273000D11C8C159D050CF46DC0AA81BB81189627
:102740002D913C911997FA0138962E173F070CF4FA
:1027500061C0AA81BB81ED91FC9111978A01095F4B
:102760001F4F9B01295F3F4F0680F781E02DCD0170
:102770000995AA81BB81ED91FC9111970084F185A7
:10278000E02DCD0109958501085F1F4FF50154909B
:10279000FFEFAF1ABF0A98E0892E912C20E8422E55
:1027A000AA81BB81ED91FC911197842D8521028432
:1027B000F385E02D882319F0B301CD0103C0B701E3
:1027C0008A819B8109954694B1E08B1A910841F763
:1027D000A016B106D9F6AA81BB81ED91FC911197A3
:1027E0000484F585E02DCD010995C60175C0B8E0DA
:1027F000CB9E800111244B01800E911E88159905F6
:102800004CF0040F151FEA81FB81208531852017CC
:10281000310714F4019660C0AA81BB81ED91FC914F
:102820001197015011090680F781E02D9401215084
:102830003109CD010995AA81BB81ED91FC911197D8
:102840000084F185E02DCD0109952501B8E04B0EFE
:10285000511CF501D490FFEFAF1ABF0A2C2C08E0F1
:1028600010E080E8382E832D8D212C2DA1F0AA8137
:10287000BB81ED91FC9111970284F385E02DB301AA
:10288000CD01298309952981215089F7369401507A
:10289000110949F710C0AA81BB81ED91FC911197F4
:1028A0000284F385E02DB701CD01298309952981A3
:1028B000215089F7EBCF2A9491F6A414B50409F0BE
:1028C000C8CFAA81BB81ED91FC9111970484F58555
:1028D000E02DCD010995C4010F900F900F90DF916D
:1028E000CF911F910F91FF90EF90DF90CF90BF900D
:1028F000AF909F908F907F906F905F904F903F90A0
:102900002F900895CF92EF92FF920F931F93DC01C7
:10291000ED91FC910684F785E02D09951F910F91AB
:10292000FF90EF90CF900895CF92EF92FF920F9388
:102930001F93CF93DF93EC01262F6A3081F48EAD85
:102940009FAD9BAF8AAF2CA92F778CAD9DAD38E0A2
:10295000239F800D911D11249DAF8CAF47C0862F02
:102960008B7F893009F442C06AAD7BAD203219F407
:1029700061157105D9F1E881F981E8ACF9AC0EA9CE
:102980001FA94CAD5DAD0088F189E02DCCA8CE012A
:1029900009959BAF8AAF2DA9222341F14CA94F770E
:1029A000642F70E028EF2403A00111242E813F81C1
:1029B000240F351F28173907CCF48EAD9FAD9BAF80
:1029C0008AAFCB0133E0880F991F3A95E1F72CAD20
:1029D0003DAD820F931F9DAF8CAF28853985240FA5
:1029E000351F2817390714F41DAE1CAE81E090E0A6
:1029F000DF91CF911F910F91FF90EF90CF900895AD
:102A0000FC011382128281EB91E091838083158215
:102A100014827783668351874087178616861586CA
:102A2000148613861286178A168A158A148A138AC0
:102A3000128A118A108A10AA11AA12AA13AA81E076
:102A400084AB85AB17AA16AA8FEF9FEF91AF80AF2B
:102A500017AE16AE15AE14AE13AE12AE0895FC014D
:102A6000848195810895AF92BF92CF92DF92EF92C9
:102A7000FF920F931F93CF93DF93EC015B01E881EB
:102A8000F98108851985015011092E813F81215056
:102A900031090680F781E02D40E050E060E070E011
:102AA0000995E881F9810084F185E02DCE01099531
:102AB000AE81BF81288539850E94A7356B017C01D5
:102AC00043E0F694E794D794C7944A95D1F7E88108
:102AD000F981C114D104E104F10409F444C0028471
:102AE000F385E02DB501CE010995E881F9810284D5
:102AF000F385E02DB501CE010995E881F9810284C5
:102B0000F385E02DB501CE010995E881F9810284B4
:102B1000F385E02DB501CE010995E881F9810284A4
:102B2000F385E02DB501CE010995E881F981028494
:102B3000F385E02DB501CE010995E881F981028484
:102B4000F385E02DB501CE010995E881F981028474
:102B5000F385E02DB501CE01099581E0C81AD108B1
:102B6000E108F108B4CF0484F585E02DCE01DF91B2
:102B7000CF911F910F91FF90EF90DF90CF90BF907A
:102B8000AF900994EF92FF920F931F93CF93DF932F
:102B9000EC0179018E819F816817790754F588854A
:102BA0009985481759072CF5E881F9810680F78146
:102BB000E02D8A019B01CE010995E881F98100840D
:102BC000F185E02DCE010995E881F9810284F38534
:102BD000E02DB701CE010995E881F9810484F585DE
:102BE000E02DCE01DF91CF911F910F91FF90EF90DB
:102BF0000994DF91CF911F910F91FF90EF9008956D
:102C00008F929F92AF92BF92CF92DF92EF92FF92FC
:102C10000F931F93CF93DF93EC0169014801570194
:102C20002E813F81621773071CF0B9016150710951
:102C300088859985481759071CF0AC014150510906
:102C4000FB01EC0DFD1DE217F3071CF06901C61A2C
:102C5000D70A9A01280D391D281739071CF04C0195
:102C6000841A950AE881F9818A01080D191D01501D
:102C700011099B012C0D3D1D215031090680F78162
:102C8000E02DCE010995E881F9810084F185E02DE0
:102C9000CE0109959401D6010E94A7356B017C01F4
:102CA000E881F981C114D104E104F10461F00284E6
:102CB000F385E02DB501CE01099581E0C81AD10850
:102CC000E108F108EDCF0484F585E02DCE01DF9118
:102CD000CF911F910F91FF90EF90DF90CF90BF9019
:102CE000AF909F908F9009942F923F924F925F9256
:102CF0006F927F928F929F92AF92BF92CF92DF920C
:102D0000EF92FF920F931F93CF93DF93CDB7DEB770
:102D100028970FB6F894DEBF0FBECDBF4C016B01F4
:102D200058874F83590162177307A1F404171507D9
:102D300044F4042715274027512758874F83042739
:102D400015272F813885021B130B0F5F1F4F21E0C2
:102D500030E015C04F81588540175107B9F4261748
:102D6000370734F4A626B726CA24DB24AC24BD24B6
:102D700095012C193D092F5F3F4F01E010E04F8175
:102D80005885B601C4010E940016A0C0FC0126812E
:102D900037816217730724F06901F1E0CF1AD10877
:102DA000F401808591854F8158854817590724F093
:102DB000FC013197F887EF83A216B30624F059017E
:102DC000F1E0AF1AB108081719071CF08C01015087
:102DD000110935016C187D0828012F813885421AA8
:102DE000530A77FE08C07194619471084FEF5FEF4A
:102DF0005A83498304C081E090E09A83898357FE17
:102E000008C0519441945108EFEFFFEFFC83EB832E
:102E100004C021E030E03C832B83A301440F551F05
:102E20005E834D831201220C331C97014F8158851C
:102E3000B601C4010E94C215461457041CF5810155
:102E400006191709CA14DB0409F440C017FD0CC0A9
:102E50008F819885EB81FC818E0F9F1F98878F83D0
:102E60002D813E81021B130B49815A81C40ED51E50
:102E7000020D131D97014F815885B601C4010E94B0
:102E8000C215E0CFAD80BE80A418B5088F819885AB
:102E900080179107D9F0B7FC06C089819A81C80EC6
:102EA000D91EA218B308EF81F8852B813C81E20F6F
:102EB000F31FF887EF834D815E81A40EB51E970145
:102EC000AF01B601C4010E94C215E0CF28960FB62B
:102ED000F894DEBF0FBECDBFDF91CF911F910F9150
:102EE000FF90EF90DF90CF90BF90AF909F908F902A
:102EF0007F906F905F904F903F902F9008954F92EA
:102F00005F926F927F928F929F92AF92BF92CF9279
:102F1000DF92EF92FF920F931F93CF93DF93EC0119
:102F20006B015A012901380121E030E00E940016AE
:102F3000A501460D571D4150510901E010E09201D5
:102F4000B601CE010E940016B601640D751D6150D8
:102F50007109830121E030E0A501CE010E94001635
:102F600001E010E09201A501B601CE010E94001619
:102F7000DF91CF911F910F91FF90EF90DF90CF9055
:102F8000BF90AF909F908F907F906F905F904F9089
:102F900008954F925F926F927F928F929F92AF921D
:102FA000BF92CF92DF92EF92FF920F931F93CF9336
:102FB000DF935C01CB014A0138012701DC2CE901D8
:102FC0002991222399F0D501ED91FC910684F78592
:102FD000E02DCD2C72018301A401BC01C50109952E
:102FE000F501268137812817390754F7DF91CF91F2
:102FF0001F910F91FF90EF90DF90CF90BF90AF9017
:103000009F908F907F906F905F904F9008952F9238
:103010003F924F925F926F927F928F929F92AF9268
:10302000CF92DF92EF92FF920F931F93CF93DF9394
:10303000CDB7DEB761970FB6F894DEBF0FBECDBF38
:103040004C013B012A01C90117017601CA2C402F0E
:1030500050E0BE016F5F7F4F0E94413681019E01AB
:103060002F5F3F4FA201B301C4010E94C9176196AF
:103070000FB6F894DEBF0FBECDBFDF91CF911F9189
:103080000F91FF90EF90DF90CF90AF909F908F9037
:103090007F906F905F904F903F902F900895AF92E8
:1030A000CF92DF92EF92FF920F9330E00E940718C9
:1030B0000F91FF90EF90DF90CF90AF9008952F92F7
:1030C0003F924F925F926F927F928F929F92AF92B8
:1030D000BF92CF92DF92EF92FF920F931F93CF9305
:1030E000DF93CDB7DEB7E4970FB6F894DEBF0FBE1F
:1030F000CDBF8C011B01DA012D913D914D915C9169
:1031000013972D873E874F87588B50964D915D9131
:103110006D917C91539749875A876B877C876D8522
:103120007E858F85988929853A854B855C85621BCC
:10313000730B840B950B6D8F7E8F8F8F98A31C96CE
:103140004D915D916D917C911F9749A35AA36BA3FB
:103150007CA354966D917D918D919C915797698F29
:103160007A8F8B8F9C8F29A13AA14BA15CA1261B42
:10317000370B480B590B2DA33EA34FA358A7189606
:103180004D915D916D917C911B97498B5A8B6B8B07
:103190007C8BCB01BA0129853A854B855C85621B06
:1031A000730B840B950B69A77AA78BA79CA7149622
:1031B0004D915D916D917C9117974DA75EA76FA77B
:1031C00078AB898D9A8DAB8DBC8D481B590B6A0BE2
:1031D0007B0B49AB5AAB6BAB7CAB2DA13EA14FA196
:1031E00058A56D8D7E8D8F8D98A10E944D356B01F8
:1031F0007C0129A93AA94BA95CA969A57AA58BA547
:103200009CA50E944D35C61AD70AE80AF90AD801CA
:10321000D096CD92DD92ED92FC92D397CD28CE2818
:10322000CF2809F49CC1D1012D913D914D915C9124
:10323000139729833A834B835C835096CD90DD901E
:10324000ED90FC90539729013A014C185D086E08E7
:103250007F0818962D913D914D915C911B972D8380
:103260003E834F8358872C193D094E095F092D8BEA
:103270003E8B4F8B588FA30192016DA17EA18FA130
:1032800098A50E944D354B015C012D893E894F89DF
:10329000588D69A97AA98BA99CA90E944D35861AD7
:1032A000970AA80AB90AF801808E918EA28EB38E71
:1032B0006D8D7E8D8F8D98A10E944D354B015C01E7
:1032C000A301920169A57AA58BA59CA50E944D3505
:1032D000861A970AA80AB90A848E958EA68EB78E8A
:1032E000A70196016D857E858F8598890E944D3551
:1032F0004B015C0129813A814B815C8169857A852A
:103300008B859C850E944D35861A970AA80AB90AB2
:10331000A501940169A17AA18BA19CA10E944D35C0
:103320002B013C012D813E814F81588569857A852D
:103330008B859C850E944D354B015C01A701960150
:1033400069897A898B899C890E944D35861A970AEA
:10335000A80AB90AA50194016DA57EA58FA598A913
:103360000E944D35460E571E681E791E29813A81EE
:103370004B815C8169897A898B899C890E944D3552
:103380006B017C012D813E814F8158856D857E8545
:103390008F8598890E944D35C61AD70AE80AF90A1E
:1033A000A7019601698D7A8D8B8D9C8D0E944D357C
:1033B000460E571E681E791E40A251A262A273A239
:1033C000D10114962D913D914D915C9117972983D0
:1033D0003A834B835C835496CD90DD90ED90FC90C6
:1033E000579729013A014C185D086E087F081C9612
:1033F0002D913D914D915C911F972D833E834F837D
:1034000058872C193D094E095F092D8B3E8B4F8B38
:10341000588FA30192016DA17EA18FA198A50E9452
:103420004D354B015C012D893E894F89588D69A925
:103430007AA98BA99CA90E944D35861A970AA80AD9
:10344000B90A84A295A2A6A2B7A26D8D7E8D8F8D9A
:1034500098A10E944D354B015C01A301920169A521
:103460007AA58BA59CA50E944D35861A970AA80AB5
:10347000B90A80A691A6A2A6B3A6A70196016D855A
:103480007E858F8598890E944D354B015C0129818D
:103490003A814B815C8169857A858B859C850E9408
:1034A0004D35861A970AA80AB90AA501940169A19F
:1034B0007AA18BA19CA10E944D354B015C012D810D
:1034C0003E814F81588569857A858B859C850E94D0
:1034D0004D352B013C01A701960169897A898B89B9
:1034E0009C890E944D35461A570A680A790AA30139
:1034F00092016DA57EA58FA598A90E944D35860ED7
:10350000971EA81EB91E29813A814B815C81698969
:103510007A898B899C890E944D356B017C012D81B4
:103520003E814F8158856D857E858F8598890E9463
:103530004D35C61AD70AE80AF90AA7019601698D1E
:103540007A8D8B8D9C8D0E944D35860E971EA81E00
:10355000B91E84A695A6A6A6B7A680E001C081E004
:10356000E4960FB6F894DEBF0FBECDBFDF91CF91CA
:103570001F910F91FF90EF90DF90CF90BF90AF9091
:103580009F908F907F906F905F904F903F902F9083
:103590000895AF92BF92CF92DF92EF92FF920F9376
:1035A0001F93CF93DF93EC01A888B9888C899D89FC
:1035B0000A891B89A816B90609F45FC0BD8AAC8ABE
:1035C000288D398D4A8D5B8DD5010E94D0356B01D8
:1035D0007C012C8D3D8D4E8D5F8DD8010E94D035A4
:1035E000C60ED71EE81EF91E88A199A1AAA1BBA1EB
:1035F000C80ED91EEA1EFB1E28A939A94AA95BA933
:10360000C701B6010E948535DA01C9016C817D814F
:103610006A35710571F018F4672B41F02CC0643BDA
:10362000710521F06E30714021F025C06E817F81DF
:1036300002C0688579856B01CC0CDD1CEE24D7FCBB
:10364000E094FE2C2C153D054E055F0588F46B01BA
:10365000EE24D7FCE094FE2C2C153D054E055F05AD
:1036600050F0CB010197AA2797FDA095BA2F03C070
:1036700080E090E0DC019B878A878E899F8908170C
:10368000190709F45FC01F8B0E8B2CA13DA14EA121
:103690005FA1D5010E94D0356B017C0128A539A519
:1036A0004AA55BA5D8010E94D035C60ED71EE81EDC
:1036B000F91E8CA59DA5AEA5BFA5C80ED91EEA1EF4
:1036C000FB1E28A939A94AA95BA9C701B6010E9416
:1036D0008535DA01C9016C817D816A35710571F02A
:1036E00018F4672B41F02CC0643B710521F06E305B
:1036F000714021F025C06885798502C06E817F8187
:103700006B01CC0CDD1CEE24D7FCE094FE2C2C15B8
:103710003D054E055F0588F46B01EE24D7FCE0946F
:10372000FE2C2C153D054E055F0550F0CB01019791
:10373000AA2797FDA095BA2F03C080E090E0DC0196
:103740009D878C87DF91CF911F910F91FF90EF9014
:10375000DF90CF90BF90AF900895CF93DF93EC01AF
:103760000E94C91A2C813D812115310519F48A85E1
:103770009B8512C02A35310519F48C859D850CC0B6
:103780008E819F81243B310519F42A853B8502C037
:103790002C853D85821B930BDF91CF910895CF93AC
:1037A000DF93EC010E94C91A8C819D81009719F466
:1037B0008C859D8514C08A35910529F48885998565
:1037C0002A853B8507C0843B910539F48885998516
:1037D0002C853D85821B930B02C08A859B85DF91DA
:1037E000CF910895FC0186859785089525E1829FF4
:1037F000C0011124089528E2829FC001112444963B
:1038000008950C9466362F923F924F925F926F927A
:103810007F928F929F92AF92BF92CF92DF92EF9260
:10382000FF920F931F93CF93DF93CDB7DEB7C955A8
:10383000D1090FB6F894DEBF0FBECDBF4C0160E0DA
:1038400070E00E9433158EEA90E00E94011C782EF1
:103850008FEA90E00E94011CB82E80EB90E00E945D
:10386000011C68961CAE1DAE1EAE1FAE6897659615
:103870007FAE65976696BFAE669767968FAF679780
:1038800081EB90E00E94011C782E82EB90E00E9478
:10389000011CB82E83EB90E00E94011C64961CAEC4
:1038A0001DAE1EAE1FAE649761967FAE61976296A5
:1038B000BFAE629763968FAF639784EB90E00E94F0
:1038C000011C782E85EB90E00E94011CB82E86EB3F
:1038D00090E00E94011C60961CAE1DAE1EAE1FAE95
:1038E00060972D967FAE2D972E96BFAE2E972F9672
:1038F0008FAF2F973E0182E4680E711CFAE0BF2E55
:10390000F40178962F01ABEF2A2EA1E03A2EC401E4
:10391000805C9F4F6A969FAF8EAF6A97EEECF1E0A6
:10392000D3018B2D01900D928A95E1F7F30101905F
:103930000020E9F73197E619F70960EF9AE19E9FB9
:103940006019112470E083E0C82EE12CF12C00E016
:1039500018EF93014FE050E0C4010E94C91792E0B4
:10396000C92E23EC31E04BE450E064E170E0C40187
:103970000E94C9179E012C5A3F4F4BE450E066E469
:1039800070E0C4010E94C9178BEA90E00E94011CFC
:1039900022E0A22EC12CD12CE12C38EFF32E0AE02C
:1039A000282F4BE450E062E870E0C4010E944F18F9
:1039B00042E0C42EE12CF12C00E018EF25EC31E0C0
:1039C00047E850E064E170E0C4010E94C9179E011D
:1039D000205B3F4F47E850E066E470E0C4010E947E
:1039E000C9178CEA90E00E94011CC12CD12CE12C5B
:1039F00058EFF52E0AE0282F47E850E062E870E023
:103A0000C4010E944F1862E0C62EE12CF12C00E0A8
:103A100018EF27EC31E043EC50E064E170E0C401C2
:103A20000E94C9179E01245B3F4F43EC50E066E4BF
:103A300070E0C4010E94C9178DEA90E00E94011C49
:103A4000C12CD12CE12C78EFF72E0AE0282F43EC83
:103A500050E062E870E0C4010E944F18F4018281D6
:103A600093819C838B83848195819E838D838681C2
:103A7000978198878F83808591859A8789878285AA
:103A800093859C878B87848595859E878D87868582
:103A90009785988B8F87808991899A8B898B82896A
:103AA00093899C8B8B8B848995899E8B8D8B868942
:103AB0009789988F8F8BF201DE0159968CE10190E6
:103AC0000D928A95E1F7F40184A98DAB85A98EAB9F
:103AD00086A997A998AF8FAB80AD91AD9AAF89AF0A
:103AE00082AD93AD9CAF8BAF84AD95AD9EAF8DAFE6
:103AF00086AD97AD21969FAF8EAF21973A822982EE
:103B00006A96EEADFFAD6A97808122968FAF2297BD
:103B1000E8E2EE2EF12C08EC10E02FEF30E044E16B
:103B200050E069EC71E0CE0101960E94791F882374
:103B300009F4F4CE60E070E0C4010E943315C75A66
:103B4000DF4F0FB6F894DEBF0FBECDBFDF91CF9130
:103B50001F910F91FF90EF90DF90CF90BF90AF90AB
:103B60009F908F907F906F905F904F903F902F909D
:103B70000895CF93DF93CDB7DEB7CA54D1090FB6FE
:103B8000F894DEBF0FBECDBF5C0160E070E00E9424
:103B900033154E0122E4820E911C49E0D42E5AE1E5
:103BA000752E60EF662EEEEEF1E0D4018D2D0190C2
:103BB0000D928A95E1F7F40101900020E9F7319721
:103BC000E819F909662D7E9E6019112470E023E042
:103BD000C22EE12CF12C00E018EF94014FE050E0F0
:103BE000C5010E94C917B501CE0101960E942B04A0
:103BF00038E2E32EF12C08EC10E027E330E044E15A
:103C000050E068ED71E0CE0101960E94791F882393
:103C100049F0B501CE0101960E942B04CE01019618
:103C20000E94A706B501CE0101960E942B0498E2DE
:103C3000E92EF12C08EC10E02EE630E044E150E0F3
:103C400065EE71E0CE0101960E94791F882349F04C
:103C5000B501CE0101960E942B04CE0101960E946F
:103C60008C2DB501CE0101960E942B0488E2E82E2E
:103C7000F12C08EC10E025EA30E044E150E06EEC75
:103C800071E0CE0101960E94791F882349F0B501A9
:103C9000CE0101960E942B04CE0101960E94031CC6
:103CA00080910F01887F90910D019C7F28E0929F69
:103CB00070011124F82A80910E01869586958695CB
:103CC000E82A00E410E028E230E04BEE50E064E641
:103CD00070E0C5010E947F1780910F01887F90914D
:103CE0000D019C7F28E0929F70011124F82A809199
:103CF0000E01869586958695E82A05E011E02EE668
:103D000030E04BEF50E065E670E0C5010E947416AC
:103D100080910F01887F90910D019C7F28E0929FF8
:103D200070011124F82A80910E018695869586955A
:103D3000E82A22E830E04BEF50E06BE870E0C50184
:103D40000E94741680910F01887F90910D019C7FD5
:103D500028E0929F70011124F82A80910E01869527
:103D600086958695E82A22E830E045E051E06EE647
:103D700070E0C5010E94741680910F01887F9091B8
:103D80000D019C7F28E0929F70011124F82A8091F8
:103D90000E01869586958695E82A01E111E022E8D4
:103DA00030E041E151E06EE670E0C5010E9474161A
:103DB00080910F01887F90910D019C7F28E0929F58
:103DC00070011124F82A80910E01869586958695BA
:103DD000E82A2EE630E04BE151E065E670E0C501EF
:103DE0000E94741680910F01887F90910D019C7F35
:103DF00028E0929F70011124F82A80910E01869587
:103E000086958695E82A22E830E04BE151E06BE8A0
:103E100070E0C5010E94741680910F01887F909117
:103E20000D019C7F28E0929F70011124F82A809157
:103E30000E01869586958695E82A2EE630E045E0C7
:103E400051E06EE670E0C5010E94741680910F018A
:103E5000887F90910D019C7F28E0929F7001112432
:103E6000F82A80910E01869586958695E82A22E8A3
:103E700030E045E051E062E870E0C5010E94741650
:103E800080910F01887F90910D019C7F28E0929F87
:103E900070011124F82A80910E01869586958695E9
:103EA000E82A0BEF10E02AE830E04BEF50E064E640
:103EB00070E0C5010E94741680910F01887F909177
:103EC0000D019C7F28E0929F70011124F82A8091B7
:103ED0000E01869586958695E82A0BE111E02AE881
:103EE00030E04BE151E064E670E0C5010E947416D9
:103EF0005ACE2F923F924F925F926F927F928F9203
:103F00009F92AF92BF92CF92DF92EF92FF920F9368
:103F10001F93CF93DF9300D000D000D0CDB7DEB792
:103F20009E838D831B015A01490128013701FB0142
:103F300001900020E9F79F01215031096901C61A5B
:103F4000D70A43E0CC0CDD1C4A95E1F70E94B12270
:103F50008D819E810E94F21BF701F695E795FA8309
:103F6000E9839801369527953C832B83892B09F4A7
:103F70005AC08D819E810E94AD1B8A159B0508F455
:103F800052C08D819E810E94AD1B9501200F311F73
:103F90002817390708F447C08D819E810E94CF1BE6
:103FA0008815990508F43FC08D819E810E94CF1B22
:103FB00094012E0D3F1D28173907A8F1E12C28EF99
:103FC000F22E83019201A401B5018D819E810E9490
:103FD000001649815A81480D591D485051096B817D
:103FE0007C816A0D7B1D6C197D0932E0C32E00E0D7
:103FF00010E091018D819E810E94C9173FEF89E6F3
:1040000098E1315080409040E1F700C00000E12C81
:10401000F12C83019201A401B5018D819E810E9442
:10402000001681E023C0E12C88EFF82E8301920175
:10403000A401B5018D819E810E947F1749815A811B
:10404000480D591D485051096B817C816A0D7B1DBB
:104050006C197D0992E0C92EE12CF12C00E018EFDB
:1040600091018D819E810E94C91780E026960FB62E
:10407000F894DEBF0FBECDBFDF91CF911F910F919E
:10408000FF90EF90DF90CF90BF90AF909F908F9078
:104090007F906F905F904F903F902F9008952F9258
:1040A0003F924F925F926F927F928F929F92AF92C8
:1040B000BF92CF92DF92EF92FF920F931F93CF9315
:1040C000DF93EC015B01942E822E202E3E2CE12CFE
:1040D000E8EFFE2E0AE010E028EC30E0AB0164E1EE
:1040E00070E00E947F17650185E0C81AD108692D2C
:1040F00070E080E090E00E945E3423EC35EF48E40D
:104100005FE30E94EA3420E030E040E251E40E94A4
:10411000C7330E942B342B013C01822D8C7F98E009
:10412000899F70011124369436943694E328882DA3
:10413000887FF82A04E110E024E130E0A601B20112
:10414000CE010E940016CE010E94B122CE010E9433
:10415000F21B892B09F463C0CE010E94AD1B44976A
:104160000CF45DC0CE010E94AD1B893C91050CF0A2
:1041700056C0CE010E94CF1B8C159D0508F44FC080
:10418000CE010E94CF1B9501215F3F4F28173907B1
:1041900008F445C0CE010E94AD1BBC01882777FD05
:1041A0008095982F0E945E3420E030E048E85FE37D
:1041B0000E94EA340E943034962EE12CF12C24E146
:1041C00030E0A601B201CE010E940016E12C78EF8A
:1041D000F72E0AE010E028EC30E0A50164E170E081
:1041E000CE010E947F17692D70E080E090E00E9470
:1041F0005E3423EC35EF48E45FE30E94EA3420E0CC
:1042000030E040E251E40E94C7330E942B3404E1C5
:1042100010E024E130E0A601CE010E940016892DB5
:10422000DF91CF911F910F91FF90EF90DF90CF9092
:10423000BF90AF909F908F907F906F905F904F90C6
:104240003F902F9008956F927F928F929F92AF929E
:10425000BF92CF92DF92EF92FF920F931F93CF9373
:10426000DF936C015B014A01E9013801F8018081AB
:10427000882321F0E12CB8EFFB2E02C0E12CF12CB9
:104280008E019E01A401B501C6010E940016C6015F
:104290000E94B122C6010E94F21B892BF1F0C601D7
:1042A0000E94AD1B8A159B05C0F0C6010E94AD1B84
:1042B0009E012A0D3B1D2817390778F0C6010E9480
:1042C000CF1B8815990548F0C6010E94CF1B9E019F
:1042D000280D391D2817390758F4E12CF8EFFF2E67
:1042E0008E019E01A401B501C6010E947F1716C070
:1042F000F3018081811107C081E0F3018083E12C0B
:10430000A8EFFA2E04C0F3011082E12CF12C8E01EB
:104310009E01A401B501C6010E940016DF91CF9154
:104320001F910F91FF90EF90DF90CF90BF90AF90D3
:104330009F908F907F906F900895CF93DF93EC01C3
:10434000FB01828193819B838A8381EB91E0998336
:104350008883848195819D838C83868197819F83C7
:104360008E838085918599878887828593859B87B1
:104370008A87848595859D878C87868597859F8785
:104380008E8780899189998B888B828993899B8B71
:104390008A8B848995899D8B8C8B868997899F8B45
:1043A0008E8B8CE17896DE01589601900D928A955D
:1043B000E1F7FB0184A98CAB85A98DAB86A997A9F0
:1043C0009FAB8EAB80AD91AD99AF88AF82AD93AD11
:1043D0009BAF8AAF84AD95AD9DAF8CAF86AD97ADE9
:1043E0009FAF8EAFDF91CF9108954F925F926F9202
:1043F0007F928F929F92AF92BF92CF92DF92EF9275
:10440000FF920F931F93CF93DF93CDB7DEB7C154C5
:10441000D1090FB6F894DEBF0FBECDBF6C015B01B2
:104420004A012B3519F020930A0103C081E48093DF
:104430000A01B601CE0101960E949D211BEF612E5B
:1044400011E0712E7A826982260180E4480E511CA7
:10445000F201808122968FAF229702E3E02EF12CA9
:1044600002E310E09401A5016AE071E0CE0101963B
:104470000E94791F8823C9F080910A018F5F809381
:104480000A01B601CE0101960E949D217A826982BD
:10449000F201808122968FAF22979401A5016AE0F4
:1044A00071E0CE0101960E94791F80910A01CF5BD5
:1044B000DF4F0FB6F894DEBF0FBECDBFDF91CF91B7
:1044C0001F910F91FF90EF90DF90CF90BF90AF9032
:1044D0009F908F907F906F905F904F9008955F9A1C
:1044E0000895CF93DF931F92CDB7DEB7872F2B9A16
:1044F0002D989CB59F7B9CBD2D9A9CB590649CBDCE
:1045000069830E9484022B9A2D989CB59F7B9CBD49
:104510002D9A9CB590649CBD6981862F0F90DF9188
:10452000CF910C9484022CB5982F93702C7F922BF2
:104530009CBD9DB582FB882780F99E7F982B9DBDF1
:104540000895CF93DF93EC0140EF50E060E471E019
:104550000E9400158BEF91E099838883DF91CF91C2
:104560000895BF92CF92DF92EF92FF920F931F9325
:10457000CF93DF93EC01ECB4FDB485E00E9493226D
:104580005E9888EB0E94840280E00E948402082FDB
:1045900088EC0E94840280E00E9484025E9A182FB8
:1045A00010951F770F77100F163008F45AC05E98D9
:1045B00080E90E94840280E00E948402082F80E04B
:1045C0000E94840280E90E94840280E00E948402AA
:1045D000D82E80E00E948402C82E0D1140C080EDCC
:1045E0000E94840280E00E948402D82E80E00E9413
:1045F000840280ED0E94840280E00E948402B82E32
:1046000080E00E948402DB102AC04C2D50E096E02E
:10461000559547959A95E1F794E0099FB0011124CB
:10462000462B572B6FEF73E0641B750BA1F0282FFF
:1046300030E086E0359527958A95E1F784E0D89EAD
:10464000A0011124242B352B2115310521F0798B64
:10465000688B3B8B2A8B812F90E09F878E875E9A99
:1046600002C01F861E86ECBCFDBC81E02E853F8506
:10467000232B09F480E0DF91CF911F910F91FF90E0
:10468000EF90DF90CF90BF9008952F923F924F927E
:104690005F926F927F928F929F92AF92BF92CF92D2
:1046A000DF92EF92FF920F931F93CF93DF93CDB7DB
:1046B000DEB7E0970FB6F894DEBF0FBECDBF6C013A
:1046C00088E1E3E1F1E0DE01599601900D928A95CF
:1046D000E1F7C6010E942F152C01D601ED91FC9146
:1046E0000480F581E02D60E070E0C60109956FEF70
:1046F0007FEFC6010E943315C6010E94B1228111CD
:10470000FBCF5E01B9E1AB0EB11C612C712C150120
:10471000F5014481558160817181E12CF12C02E029
:1047200010E022E030E0C6010E947F17D501149608
:104730004D915C9115976D917C9105E010E025E01D
:1047400030E0C6010E947F17F501448155816081E8
:104750007181E12C38EFF32E0AE010E02AE030E01E
:10476000C6010E947F17C6010E94B122882381F2F0
:10477000430123E0880C991C2A95E1F781E090E041
:104780008C0F9D1F880E991ED4015C964D915C91F3
:104790005D9758966D917C91599702E010E022E068
:1047A00030E0C6010E940016F60180899189AA278F
:1047B00097FDA095BA2FF40180839183A283B383E0
:1047C000D60152968D919C915397AA2797FDA0955B
:1047D000BA2F84839583A683B78364E670E080E074
:1047E00090E00E9441326FEF7FEFC6010E943315C7
:1047F000FFEF6F1A7F0A88E0A80EB11C93E06916DC
:10480000710409F085CFAE014F5F5F4FB101C60162
:104810000E945F18D601ED91FC910480F581E02D96
:10482000B201C6010995C6010E94B1228111FBCFD8
:10483000E0960FB6F894DEBF0FBECDBFDF91CF91EB
:104840001F910F91FF90EF90DF90CF90BF90AF90AE
:104850009F908F907F906F905F904F903F902F90A0
:104860000895862F5F982B982D989CB59F7B9CBDB3
:104870002D9A9CB590649CBD0E9484025F9A089515
:104880006CE20E9431245F980895CF93DF931F92CA
:10489000CDB7DEB7872F5F982B9A2D989CB59F7B5D
:1048A0009CBD2D9A9CB590649CBD69830E94840236
:1048B0002B9A2D989CB59F7B9CBD2D9A9CB590649E
:1048C0009CBD6981862F0E9484025F9A0F90DF91C0
:1048D000CF910895AF92BF92CF92DF92EF92FF9265
:1048E0000F931F93CF93DF93EC017B016A01590172
:1048F0006AE20E943124B701CE010E944524B5012D
:10490000CE010E9445246BE2CE010E943124B60103
:10491000CE010E944524B801CE01DF91CF911F91B5
:104920000F91FF90EF90DF90CF90BF90AF900C94DD
:104930004524862F5F982B9A2D989CB59F7B9CBD14
:104940002D9A9CB590649CBD0E9484025F9A089544
:104950000F931F93CF93DF93EC016930710519F02A
:104960006A35710571F48AE590E09D838C8380EF50
:1049700090E09F838E8380E491E09987888718E494
:1049800034C06231710519F0643B710571F484EB38
:1049900090E09D838C8380E491E09F838E8380EF01
:1049A00090E09987888718E320C06B31710521F06A
:1049B0007E7F6E30710571F48EE091E09D838C8373
:1049C00080EF90E09F838E8380E491E099878887D1
:1049D00018E80BC01D821C8280E491E09F838E83C7
:1049E00080EF90E09987888718EE66E3CE010E94F9
:1049F0003124612FCE010E949924E881F981088534
:104A00001985015011092E813F81215031090680FD
:104A1000F781E02D40E050E060E070E0CE010995C4
:104A2000DF91CF911F910F910895CF92DF92EF9276
:104A3000FF920F931F93CF93DF938C015F9A289877
:104A400062E370E080E090E00E944132289A68E7DB
:104A500070E080E090E00E944132E8E6F3E0EF0190
:104A6000219684918F3FA9F1982F907C9038B1F0D6
:104A7000903C39F1903411F0FE01F1CF8F73C82EC4
:104A80007F01D82EFFEFEF1AFF0ADD20B9F0F70102
:104A90006491C8010E943124DA94F4CF8F73C82E38
:104AA0007F01D82EFFEFEF1AFF0ADD2039F0F70162
:104AB0006491C8010E949924DA94F4CFCC0DD11DE1
:104AC000DBCF682F6F7370E080E090E00E9441328E
:104AD000D3CF60E070E0C801DF91CF911F910F91BB
:104AE000FF90EF90DF90CF900C9433151F93CF93EE
:104AF000DF93EC01162F61E088E00E942C332898A8
:104B000061E089E00E942C3361E087E00E942C3351
:104B100061E08DE00E942C3361E08BE00E942C3339
:104B200060E08CE00E942C3329985F9A61E086E077
:104B30000E942C335E9AFE01E05CFF4F10839CB50F
:104B4000937F9CBD9CB59F7D9CBD0E94BC2E85E043
:104B50000E949322CE010E941525812F0E9493224C
:104B60006FE770E089E0DF91CF911F910C94A43240
:104B700060E00C94762581EC95E00E94892F62E537
:104B800070E081EC95E00E94AD2F60E470E081EC74
:104B900095E00E947D0260E070E081EC95E00E946B
:104BA0007D0281EC95E00E94C22F91E0811190E09E
:104BB000892F089562E570E081EC95E00E94AD2FA9
:104BC00060E070E081EC95E00E947D0281EC95E070
:104BD0000E94C22F91E0811190E0892F0895809169
:104BE000B20508958091B40508958091B705882392
:104BF00031F081FB992790F981E08927089580E0C1
:104C000008951F93CF93DF93EC0146E050E062E5F7
:104C100070E081EC95E00E94A02F10E081EC95E01F
:104C20000E94F22E892B71F081EC95E00E94FA2E01
:104C3000E12FF0E0EE54FA4F27E182274796808378
:104C40001F5FECCFCE010E94DA2581E09091B7057D
:104C5000911101C080E0DF91CF911F9108955F9283
:104C60006F927F928F929F92AF92BF92CF92DF927C
:104C7000EF92FF920F931F93CF93DF93CDB7DEB7E1
:104C8000CB54D1090FB6F894DEBF0FBECDBF5C0187
:104C900060E070E00E9433154E0182E4880E911CA2
:104CA0005AE0752E6AE1662E70EF572EDD24D394FC
:104CB000ECE2F2E0D401872D01900D928A95E1F7A4
:104CC000F40101900020E9F73197E819F909652D01
:104CD0006E9E6019112470E033E0C32EE12CF12C9C
:104CE00000E018EF2DE032E04FE050E0C5010E94F7
:104CF000C917B501CE0101960E942B0448E2E42EAB
:104D0000F12C08EC10E02BE430E044E150E063E1EA
:104D100072E0CE0101960E94791FB501882349F007
:104D2000CE0101960E942B04CE0101960E945302EF
:104D300052C0CE0101960E942B0428E2E22EF12CF3
:104D400008EC10E027E830E044E150E06FE172E069
:104D5000CE0101960E94791F882321F081E0809383
:104D6000BE0539C0B501CE0101960E942B0498E220
:104D7000E92EF12C08EC10E023EC30E044E150E0A7
:104D800065EE71E0CE0101960E94791F882349F0FB
:104D9000B501CE0101960E942B04CE0101960E941E
:104DA0008C2DB501CE0101960E942B0488E2E82EDD
:104DB000F12C08EC10E02FEF30E044E150E06AE520
:104DC00071E0CE0101960E94791F882309F470CF0B
:104DD000D092BF056DCFC55BDF4F0FB6F894DEBF35
:104DE0000FBECDBFDF91CF911F910F91FF90EF903C
:104DF000DF90CF90BF90AF909F908F907F906F90FB
:104E00005F9008950C946E368F929F92AF92BF92EE
:104E1000CF92DF92EF92FF920F931F93CF93DF9386
:104E2000CDB7DEB7C154D1090FB6F894DEBF0FBEBF
:104E3000CDBF5C01812C912CD12C93E0C92EE12CAB
:104E4000F12C00E018EF26E332E04FE050E060E0A4
:104E500070E0C5010E94C91722E0C22E2FE332E0A4
:104E600040E550E06FE070E0C5010E94C917B50150
:104E7000CE0101960E942B0400E111E020E330E016
:104E80004FE350E061EB70E0CE0101960E942321D8
:104E900000E018EF26E432E046E950E06FE070E011
:104EA000C5010E94C917B501CE0101960E942B04CD
:104EB0000AEB15E020E330E045E850E061EB70E0FC
:104EC000CE0101960E94232100E018EF2EE432E08B
:104ED0004CED50E06FE070E0C5010E94C917B501CC
:104EE000CE0101960E942B0409EB15E020E330E08F
:104EF0004BEC50E061EB70E0CE0101960E94232163
:104F0000209110019091BA058091B905222311F0EA
:104F10008820A9F0992319F0882009F482C08823F9
:104F200049F0882019F08824839404C0882483944D
:104F3000992493942223A9F0D11003C011C088248E
:104F40008394992329F010921001912CD12C02C046
:104F5000DD24D394882329F010921001992493948E
:104F6000D12C9923C9F0D11012C0911015C0909185
:104F70001001992321F01092BA0591E001C090E050
:104F8000882341F01092BA059924939405C0DD243A
:104F9000D39402C0D92E15C0882399F0992089F0A6
:104FA0008091BA05882321F01092B905912CD12C5B
:104FB00080911001882329F01092B905912CDD24ED
:104FC000D394B501CE0101960E942B0488E2E82E0D
:104FD000F12C08EC10E02EE031E044E150E069EC07
:104FE00071E0CE0101960E94791F882309F425CF34
:104FF00060E070E0C5010E943315CF5BDF4F0FB654
:10500000F894DEBF0FBECDBFDF91CF911F910F91FE
:10501000FF90EF90DF90CF90BF90AF909F908F90D8
:10502000089588248394912C9BCF3F924F925F9256
:105030006F927F928F929F92AF92BF92CF92DF92A8
:10504000EF92FF920F931F93CF93DF93CDB7DEB70D
:10505000CA54D1090FB6F894DEBF0FBECDBF5C01B4
:10506000612CD12C712C4E0182E4880E911C79E0C8
:10507000572EEAE14E2EF0EF3F2EEAE6F2E0D401A1
:10508000852D01900D928A95E1F7F40101900020A1
:10509000E9F73197E819F909632D4E9E601911243B
:1050A00070E053E0C52EE12CF12C00E018EF9401E4
:1050B0004FE050E0C5010E94C91762E0C62E26E508
:1050C00032E040E550E06FE070E0C5010E94C91792
:1050D000B501CE0101960E942B040CE011E020E303
:1050E00030E04FE350E061EB70E0CE0101960E94AA
:1050F000232100E018EF20E632E046E950E06FE0BF
:1051000070E0C5010E94C917B501CE0101960E9449
:105110002B0408EB15E020E330E045E850E061EBBC
:1051200070E0CE0101960E94232190910C018091A4
:10513000B805992311F0662089F0882321F06620B4
:1051400039F066246394992389F071100AC004C071
:1051500066246394DD24D394712C08C06624639480
:10516000D12C882371F010920C01F4CF882371F0B8
:10517000DD2061F080910C01882331F01092B80598
:10518000D12C7724739402C0DD24D394B501CE01D1
:1051900001960E942B0448E2E42EF12C08EC10E06A
:1051A00028EC30E044E150E066E372E0CE01019685
:1051B0000E94791F882371F060E070E0C5010E94B1
:1051C0003315B501CE0101960E942B04CE01019644
:1051D0000E940427B501CE0101960E942B0438E2FB
:1051E000E32EF12C08EC10E02EE031E044E150E039
:1051F00069EC71E0CE0101960E94791F882309F4C1
:105200003CCF60E070E0C5010E943315C65BDF4F04
:105210000FB6F894DEBF0FBECDBFDF91CF911F91C7
:105220000F91FF90EF90DF90CF90BF90AF909F9045
:105230008F907F906F905F904F903F900895AF92C6
:10524000BF92CF92EF92FF920F931F93CF93DF9372
:10525000CDB7DEB7C254D1090FB6F894DEBF0FBE8A
:10526000CDBF5C01A3E0CA2EE12CF12C00E018EFC9
:1052700023E732E04FE050E060E070E0C5010E94BB
:10528000C91740910F01B501CE01019623964FAF8A
:1052900023970E942B0400E023964FAD2397242FE1
:1052A0006CE370E0CE0101960E944F2080930F01C5
:1052B00040910D01B501CE01019623964FAF239782
:1052C0000E942B0423964FAD2397042F20E064E621
:1052D00070E0CE0101960E944F2080930D01409115
:1052E0000E01B501CE01019623964FAF23970E9480
:1052F0002B0423964FAD2397E42E00E020E06CE8CA
:1053000070E0CE0101960E944F2080930E01909193
:105310000D019C7F28E0929F7001112490910F0154
:10532000987FF92A869586958695E82A00E410E00C
:1053300028E230E044EB50E064E670E0C5010E94F2
:105340007F1780910F01887F90910D019C7F28E04D
:10535000929F70011124F82A80910E0186958695FE
:105360008695E82A0EEC10E02EE630E044EC50E0A2
:1053700065E670E0C5010E94741680910F01887F78
:1053800090910D019C7F28E0929F70011124F82AD2
:1053900080910E01869586958695E82A22E830E070
:1053A00044EC50E06BE870E0C5010E9474168091F7
:1053B0000F01887F90910D019C7F28E0929F7001E2
:1053C0001124F82A80910E01869586958695E82A03
:1053D00022E830E04EEC50E06EE670E0C5010E943D
:1053E000741680910F01887F90910D019C7F28E0B9
:1053F000929F70011124F82A80910E01869586955E
:105400008695E82A0AED10E022E830E04AED50E007
:105410006EE670E0C5010E94741680910F01887FCE
:1054200090910D019C7F28E0929F70011124F82A31
:1054300080910E01869586958695E82A2EE630E0C5
:1054400044EE50E065E670E0C5010E94741680915C
:105450000F01887F90910D019C7F28E0929F700141
:105460001124F82A80910E01869586958695E82A62
:1054700022E830E044EE50E06BE870E0C5010E94A5
:10548000741680910F01887F90910D019C7F28E018
:10549000929F70011124F82A80910E0186958695BD
:1054A0008695E82A2EE630E04EEC50E06EE670E09D
:1054B000C5010E94741680910F01887F90910D01A3
:1054C0009C7F28E0929F70011124F82A80910E01A0
:1054D000869586958695E82A22E830E04EEC50E0E5
:1054E00062E870E0C5010E94741680910F01887F08
:1054F00090910D019C7F28E0929F70011124F82A61
:1055000080910E01869586958695E82A04EC10E038
:105510002AE830E044EC50E064E670E0C5010E9407
:10552000741680910F01887F90910D019C7F28E077
:10553000929F70011124F82A80910E01869586951C
:105540008695E82A04EE10E02AE830E044EE50E0C8
:1055500064E670E0C5010E947416B501CE010196A3
:105560000E942B04B8E2EB2EF12C08EC10E02EE0A8
:1055700031E044E150E06BE771E0CE0101960E941A
:10558000791F882309F46ECE60E070E0C5010E94A7
:105590003315CE5BDF4F0FB6F894DEBF0FBECDBF25
:1055A000DF91CF911F910F91FF90EF90CF90BF901F
:1055B000AF9008958F929F92AF92BF92CF92DF9259
:1055C000EF92FF920F931F93CF93DF93CDB7DEB788
:1055D000C154D1090FB6F894DEBF0FBECDBF5C0138
:1055E000812C912CD12C03E0C02EE12CF12C00E079
:1055F00018EF29E732E04FE050E060E070E0C501CD
:105600000E94C91782E0C82E24E832E040E550E04D
:105610006FE070E0C5010E94C917B501CE01019687
:105620000E942B0401E111E020E330E04FE350E061
:1056300061EB70E0CE0101960E94232100E018EF9B
:1056400026E432E046E950E06FE070E0C5010E94D8
:10565000C917B501CE0101960E942B040CEB15E091
:1056600020E330E045E850E061EB70E0CE010196C8
:105670000E94232100E018EF2CE832E04CED50E0CE
:105680006FE070E0C5010E94C917B501CE01019617
:105690000E942B040BEB15E020E330E04BEC50E0D4
:1056A00061EB70E0CE0101960E942321209111014F
:1056B0009091BC058091BB05222311F08820A9F0B0
:1056C000992319F0882009F482C0882349F08820A2
:1056D00019F08824839404C0882483949924939493
:1056E0002223A9F0D11003C011C0882483949923E8
:1056F00029F010921101912CD12C02C0DD24D394F9
:10570000882329F01092110199249394D12C992384
:10571000C9F0D11012C0911015C0909111019923B8
:1057200021F01092BC0591E001C090E0882341F087
:105730001092BC059924939405C0DD24D39402C033
:10574000D92E15C0882399F0992089F08091BC0545
:10575000882321F01092BB05912CD12C809111014E
:10576000882329F01092BB05912CDD24D394B50138
:10577000CE0101960E942B0418E2E12EF12C08ECD8
:1057800010E02EE031E044E150E069EC71E0CE0140
:1057900001960E94791F882309F425CF60E070E00C
:1057A000C5010E943315CF5BDF4F0FB6F894DEBF03
:1057B0000FBECDBFDF91CF911F910F91FF90EF9062
:1057C000DF90CF90BF90AF909F908F9008958824E6
:1057D0008394912C9BCFAF92BF92CF92EF92FF9286
:1057E0000F931F93CF93DF93CDB7DEB7C154D10989
:1057F0000FB6F894DEBF0FBECDBF5C0143E0C42EF0
:10580000E12CF12C00E018EF24E932E04FE050E009
:1058100060E070E0C5010E94C917B501CE01019694
:105820000E942B0458E2E52EF12C08EC10E02BE44A
:1058300030E044E150E069E772E0CE0101960E9459
:10584000791F882371F060E070E0C5010E94331574
:10585000B501CE0101960E942B04CE0101960E9453
:10586000DA2AB501CE0101960E942B0438E2E32E1C
:10587000F12C08EC10E027E830E044E150E063E769
:1058800072E0CE0101960E94791F882371F060E0DA
:1058900070E0C5010E943315B501CE0101960E944A
:1058A0002B04CE0101960E941F29B501CE0101965D
:1058B0000E942B0428E2E22EF12C08EC10E023ECED
:1058C00030E044E150E06AE672E0CE0101960E94C9
:1058D000791F882371F060E070E0C5010E943315E4
:1058E000B501CE0101960E942B04CE0101960E94C3
:1058F0001528B501CE0101960E942B0498E2E92EED
:10590000F12C08EC10E02EE031E044E150E069ECCD
:1059100071E0CE0101960E94791F882309F46ECFB1
:1059200060E070E0C5010E943315CF5BDF4F0FB61A
:10593000F894DEBF0FBECDBFDF91CF911F910F91C5
:10594000FF90EF90CF90BF90AF9008953F924F920D
:105950005F926F927F928F929F92AF92BF92CF92FF
:10596000DF92EF92FF920F931F93CF93DF93CDB708
:10597000DEB7CB54D1090FB6F894DEBF0FBECDBF52
:105980005C01612CD12C712C4E0182E4880E911C9B
:10599000AAE05A2EBAE14B2E10EF312EE1EBF2E0E5
:1059A000D401852D01900D928A95E1F7F4010190C3
:1059B0000020E9F73197E819F909632D4E9E601927
:1059C000112470E0E3E0CE2EE12CF12C00E018EF82
:1059D00094014FE050E0C5010E94C917F2E0CF2EBC
:1059E0002BE932E04AE550E06FE070E0C5010E942B
:1059F000C917B501CE0101960E942B0402E111E006
:105A000020E330E049E450E061EB70E0CE01019624
:105A10000E94232100E018EF26EA32E044EB50E038
:105A20006FE070E0C5010E94C917B501CE01019673
:105A30000E942B040DEB15E020E330E043EA50E038
:105A400061EB70E0CE0101960E9423219091BD058B
:105A500080911201992311F0662089F0882321F0AA
:105A6000662039F066246394992389F071100AC086
:105A700004C066246394DD24D394712C08C066248A
:105A80006394D12C882371F01092BD05F4CF882344
:105A900071F0DD2061F08091BD05882331F0109216
:105AA0001201D12C7724739402C0DD24D394B50164
:105AB000CE0101960E942B0468E2E62EF12C08EC40
:105AC00010E02EE031E044E150E069EC71E0CE01FD
:105AD00001960E94791F882309F460CF60E070E08E
