:100000000C9429020C9451020C9451020C9451024C
:100010000C9451020C9451020C9451020C94510214
:100020000C9451020C9456130C9451020C945102EE
:100030000C9451020C9451020C9451020C945102F4
:100040000C94DF320C9451020C9451020C94510226
:100050000C9451020C9451020C9451020C945102D4
:100060000C94B2310C94510200000000000000001A
:1000700030787830300030006C6C6C00000000008C
:100080006C6CFE6CFE6C6C00307CC0780CF8300040
:1000900000C6CC183066C600386C3876DCCC7600EA
:1000A0006060C00000000000183060606030180020
:1000B000603018181830600000663CFF3C66000095
:1000C000003030FC30300000000000000070306074
:1000D000000000FC000000000000000000303000C4
:1000E000060C183060C0800078CCDCFCECCC7800CA
:1000F00030F030303030FC0078CC0C3860CCFC0074
:1001000078CC0C380CCC78001C3C6CCCFE0C0C0071
:10011000FCC0F80C0CCC78003860C0F8CCCC78006F
:10012000FCCC0C183060600078CCCC78CCCC78005B
:1001300078CCCC7C0C1870000000303000303000DF
:100140000000303000703060183060C0603018003F
:100150000000FC00FC0000006030180C183060004B
:1001600078CC0C18300030007CC6DEDEDEC07800B3
:100170003078CCCCFCCCCC00FC66667C6666FC009F
:100180003C66C0C0C0663C00FC6C6666666CFC00E9
:10019000FE6268786862FE00FE6268786860F0005F
:1001A0003C66C0C0CE663E00CCCCCCFCCCCCCC00F7
:1001B00078303030303078001E0C0C0CCCCC78000D
:1001C000E6666C786C66E600F06060606266FE0071
:1001D000C6EEFED6C6C6C600C6E6F6DECEC6C6006B
:1001E000386CC6C6C66C3800FC66667C6060F00081
:1001F00078CCCCCCDC781C00FC66667C786CE600A5
:1002000078CCE0381CCC7800FCB43030303078004A
:10021000CCCCCCCCCCCCFC00CCCCCCCCCC78300076
:10022000C6C6C6D6FEEEC600C6C66C386CC6C600CC
:10023000CCCCCC7830307800FECC983062C6FE0052
:100240007860606060607800C06030180C06020062
:10025000781818181818780010386CC600000000BC
:1002600000000000000000FF303018000000000017
:100270000000780C7CCC7600E0607C666666BC0092
:10028000000078CCC0CC78001C0C0C7CCCCC760068
:10029000000078CCFCC07800386C60F06060F00042
:1002A000000076CCCC7C0CF8E0606C766666E600EC
:1002B0003000703030307800180078181818D87076
:1002C000E060666C786CE60070303030303078007A
:1002D0000000ECFED6C6C6000000F8CCCCCCCC00AA
:1002E000000078CCCCCC78000000DC66667C60F046
:1002F000000076CCCC7C0C1E0000D86C6C60F0004A
:1003000000007CC0780CF80010307C3030341800CD
:100310000000CCCCCCCC76000000CCCCCC7830002B
:100320000000C6C6D6FE6C000000C66C386CC60065
:100330000000CCCCCC7C0CF80000FC983064FC00B5
:100340001C3030E030301C00181818001818180045
:10035000E030301C3030E00076DC000000000000AF
:1003600010386CC6C6C6FE004128D441CF83008336
:100370003041ED846403128141E88385017941CBEA
:1003800085392C00340241F7812041EA8200004186
:10039000C0812641C1811141C582353E41C781BE20
:1003A00041B182001B41F281084126810141E08F69
:1003B0001F1A180A0F064587320A0702070500416F
:1003C000E18F0025270510093A784D05180D383AB8
:1003D0001F41B6840A82270041B78107413A8155FF
:1003E000413681E8412A82000082013F412B820090
:1003F000008200EF4111FCFC4129D4FFFF00000006
:1004000008000201000003040700000000000000D3
:10041000000102040810204080010204081020019D
:100420000204081020040404040404040402020268
:100430000202020303030303030000000025002857
:10044000002B0000000000240027002A00002F14C9
:10045000D03011241FBECFEFD8E0DEBFCDBF13E0F8
:10046000A0E0B1E0E6E9FFE602C005900D92A630FB
:10047000B107D9F724E0A6E0B3E001C01D92AF3484
:10048000B207E1F714E0C2E5D4E004C02297FE0110
:100490000E941037CE34D107C9F70E947A130C940A
:1004A000C9370C940000EF92FF920F931F93CF93E4
:1004B000DF93EC0160E070E00E94FD15EE24E39410
:1004C00085E0F82E00E411E024E130E040E050E067
:1004D00060E070E0CE010E94491824E130E040E085
:1004E00050E06CED70E0CE010E944918DF91CF9191
:1004F0001F910F91FF90EF900895DC01ED91FC9119
:100500000190F081E02D09948EBD00000DB407FE2E
:10051000FDCF8EB508958F929F92AF92BF92CF92EA
:10052000DF92EF92FF920F931F93CF93DF93982E5A
:100530000E9462376C010E9462377C010E94623720
:100540008C010E9462375C01E92DF0E085E0882E85
:100550008E9EE0018F9ED00D1124C15FDC4FC6013D
:1005600065E070E00E9488368983188229E630E0D1
:10057000C701B9010E9488368A568B83C801B90128
:100580000E9488368A568C83AF014F5F5F4F849EEE
:10059000F001859EF00D1124E15FFC4FC501B9010A
:1005A0000E9488368A56808380911401882311F036
:1005B00081E00BC080918203882349F00E9462375A
:1005C00062E070E00E9488368F5F8A830FC080915E
:1005D0008103882359F0911002C082E0F6CF81E0B8
:1005E000981619F082E0981201C09A82DF91CF919B
:1005F0001F910F91FF90EF90DF90CF90BF90AF9041
:100600009F908F90089580E00E948B0281E00E946D
:100610008B0282E00C948B02CF93DF93EC01FB0101
:10062000828193819B838A838FEC91E09983888375
:10063000848195819D838C83868197819F838E831E
:100640008085918599878887828593859B878A870E
:10065000848595859D878C87868597859F878E87DE
:1006600080899189998B888B828993899B8B8A8BCE
:10067000848995899D8B8C8B868997899F8B8E8B9E
:100680008CE17896DE01589601900D928A95E1F7FB
:10069000FB0184A98CAB85A98DAB86A997A99FABDB
:1006A0008EAB80AD91AD99AF88AF82AD93AD9BAF6E
:1006B0008AAF84AD95AD9DAF8CAF86AD97AD9FAF42
:1006C0008EAF85E292E099838883E05CFF4F808162
:1006D000C05CDF4F8883DF91CF910895EF92FF9246
:1006E0000F931F93CF93DF93CDB7DEB7C554D109D6
:1006F0000FB6F894DEBF0FBECDBF7C01809106031C
:10070000811105C00E94030381E0809306032091BC
:100710008103213009F05DC080910E036CE00E94DE
:100720006836911156C080911003843021F483E023
:100730008093100314C0811103C0209310030FC0D5
:100740000E94623762E070E00E9488369091100348
:10075000811102C09F5F01C091509093100380915E
:100760001503843011F483E003C0811104C081E0DB
:10077000809315030FC00E94623762E070E00E9410
:10078000883690911503811102C09F5F01C091507E
:100790009093150380911A03843011F483E003C011
:1007A000811104C081E080931A0313C08091150366
:1007B000843079F00E94623762E070E00E948836EF
:1007C00090911A03811102C09F5F01C091509093D4
:1007D0001A038FEF23968FAF239724968FAF24971A
:1007E00025968FAF259780910E038831C1F4109222
:1007F0000E0340910F0310910B03B701CE01019638
:1008000026964FAF26970E940C0326964FAD26974B
:10081000612FCE0101960E94930D80E03BC0809134
:100820000D038831D1F410920D031092080340910A
:10083000140310910A03B701CE01019626964FAF1B
:1008400026970E940C0326964FAD2697612FCE0166
:1008500001960E94930D81E01DC080910C038831A8
:10086000D9F410920C0310920703409119031091D0
:100870000903B701CE01019626964FAF26970E9435
:100880000C0326964FAD2697612FCE0101960E944C
:10089000930D82E00E948B028091110340910F031F
:1008A00010910B03B701813041F5CE0101962696D8
:1008B0004FAF26970E940C0320E026964FAD269757
:1008C000612FCE0101960E945E0A40910E031091A5
:1008D0001003B701CE01019626964FAF26970E94CE
:1008E0000C0300E022E133E026964FAD2697612FFE
:1008F000CE0101960E944C0825C0CE010196269695
:100900004FAF26970E940C0326964FAD2697612F76
:10091000CE0101960E94930D40910E031091100399
:10092000B701CE01019626964FAF26970E940C0381
:1009300022E133E026964FAD2697612FCE01019636
:100940000E94DD0B80910E0380930F0380910E03B4
:100950008F5F80930E03873028F4809108038823EB
:1009600009F46CC080910D038F5F80930D0391E0BB
:100970009093080390911603913079F587FD5EC03E
:100980004091140310910A03B701CE0101962696F7
:100990004FAF26970E940C0320E026964FAD269776
:1009A000612FCE0101960E945E0A40910D031091C5
:1009B0001503B701CE01019626964FAF26970E94E8
:1009C0000C0300E027E133E026964FAD2697612F18
:1009D000CE0101960E944C082DC087FD2FC040918A
:1009E000140310910A03B701CE01019626964FAF6A
:1009F00026970E940C0326964FAD2697612FCE01B5
:100A000001960E94930D40910D0310911503B701BB
:100A1000CE01019626964FAF26970E940C039E01A9
:100A20002E5B3F4F26964FAD2697612FCE01019644
:100A30000E94DD0B80910D038093140380910E03BF
:100A40008D3028F480910703882309F46BC08091CE
:100A50000C038F5F80930C0391E0909307039091B8
:100A60001B03913079F587FD5DC04091190310910A
:100A70000903B701CE01019626964FAF26970E9433
:100A80000C0320E026964FAD2697612FCE010196EC
:100A90000E945E0A40910C0310911A03B701CE0127
:100AA000019626964FAF26970E940C0300E02CE19A
:100AB00033E026964FAD2697612FCE0101960E9416
:100AC0004C082CC087FD2EC04091190310910903DA
:100AD000B701CE01019626964FAF26970E940C03D0
:100AE00026964FAD2697612FCE0101960E94930D59
:100AF00040910C0310911A03B701CE01019626967E
:100B00004FAF26970E940C032CE133E026964FADA1
:100B10002697612FCE0101960E94DD0B80910C0378
:100B2000809319038091100380930B038091150328
:100B300080930A0380911A0380930903CB5BDF4FF4
:100B40000FB6F894DEBF0FBECDBFDF91CF911F91DE
:100B50000F91FF90EF9008952F923F924F925F92E6
:100B60006F927F928F929F92AF92BF92CF92DF92BD
:100B7000EF92FF920F931F93CF93DF93CDB7DEB722
:100B8000C454D1090FB6F894DEBF0FBECDBF4C01DF
:100B90000E946237BC01882777FD8095982F2EEF41
:100BA0003FEF40E050E00E94BE36CB0101960E942C
:100BB00067378091120123968FAF239780911001A0
:100BC00024968FAF24978091110125968FAF25979A
:100BD0000E94030380911301813051F080918003C2
:100BE000813049F080917F03813041F0412C08C071
:100BF00025E0422E05C094E0492E02C083E0482E35
:100C0000B401CE0101960E940C03CE0101960E9410
:100C1000530289E193E00E94282B10920E03109258
:100C20000D0310920C0310920B0310920A03109202
:100C300009031092080310920703B3E03B2E612CC6
:100C4000712C512C12E0B12E02E0202E80918403F1
:100C5000882311F181E08093840360E070E0C40197
:100C60000E94FD15CC5BDF4F0FB6F894DEBF0FBEC0
:100C7000CDBFDF91CF911F910F91FF90EF90DF904B
:100C8000CF90BF90AF909F908F907F906F905F902C
:100C90004F903F902F90089580918303882309F40B
:100CA000AAC010920E0310920D0310920C03109222
:100CB0000B0310920A03109209031092080310927A
:100CC00007030E9403038091120123968FAF23979D
:100CD0008091100124968FAF249780911101259661
:100CE0008FAF259780911301813051F0809180035F
:100CF000813049F080917F03813041F0412C08C060
:100D0000A5E04A2E05C0F4E04F2E02C0E3E04E2ECF
:100D1000B401CE0101960E940C03CE0101960E94FF
:100D20005302109206031092830353E0352E612C78
:100D3000712C512C62E0B62E72E0272E5CC063E06D
:100D400082E692E00E94DE21682F70E033E0A32E5D
:100D5000C12CD12CE12C48EFF42E0AE0232D46E9DA
:100D600050E0C4010E9419192FEF83ED90E3215048
:100D700080409040E1F700C0000063E082E692E02E
:100D80000E94DE21682F70E0E12CF12C232D46E932
:100D900050E0C4010E94191921E032122BC063E017
:100DA0008DE391E00E94DE21682F70E023E0C22EE7
:100DB00000E018EF2DE331E046E950E0C4010E9465
:100DC00093188FEF93ED20E3815090402040E1F79E
:100DD00000C0000063E08DE391E00E94DE21682FF7
:100DE00070E000E010E02DE331E046E950E0C4019E
:100DF0000E9493183A943110A2CFB401CE0101960B
:100E00000E940C03CE0101960E946E03B401CE0134
:100E100001960E940C0301E09E012E5B3F4F4CE0C7
:100E20006B2DCE0101960E944C0880917803882397
:100E300081F1B401CE0101960E940C0322E04CE046
:100E4000622DCE0101960E945E0A0E94F22A282E8F
:100E5000811110C0B401CE0101960E940C0302E082
:100E60009E012E5B3F4F4CE060E0CE0101960E9458
:100E70004C08F0CF0E94162B882359F0B401CE0104
:100E800001960E940C0341E0B301CE0101960E943D
:100E9000C80E80911103813031F490910F039C5062
:100EA000943040F00EC0823061F490910F039C505A
:100EB000973038F4909110039B1581F190910F03B6
:100EC00055C080911603813031F4909114039C50E9
:100ED000943040F00EC0823061F4909114039C5025
:100EE000973038F4909115039B15C1F0909114033D
:100EF0003DC080911B03813031F4909119039C50C7
:100F0000943040F039C08230B9F5909119039C506B
:100F1000973090F590911A039B1126C08091780329
:100F20008823B9F00E940E2B8FEF91EE24E08150C0
:100F300090402040E1F700C00000B401CE010196CE
:100F40000E940C0340E0B301CE0101960E94C80E3E
:100F500013C0B401CE0101960E940C03B301CE016F
:100F600001960E94ED1008C0909119039F3011F076
:100F7000923111F4680E711C89E193E00E946E2B8E
:100F8000882309F463CE89E193E00E94622B8130CB
:100F900049F4B401CE0101960E940C03CE010196E2
:100FA0000E949C2B89E193E00E945F2B853930F4ED
:100FB00089E193E00E945C2B873998F0511030C092
:100FC000B401CE0101960E940C0321E04CE06B2D90
:100FD000CE0101960E945E0A83E08B15F0F0B39477
:100FE0001CC089E193E00E945F2B873480F189E186
:100FF00093E00E945F2B8C3650F5511011C0B40164
:10100000CE0101960E940C0321E04CE06B2DCE0135
:1010100001960E945E0AB110BA945524539404C0FC
:101020005394541408F0512C8B2D0E94042BB401BE
:10103000CE0101960E940C0301E09E012E5B3F4F02
:101040004CE06B2DCE0101960E944C0813C089E143
:1010500093E00E945C2B8A3580F289E193E00E9444
:101060005F2B893738F089E193E00E945F2B883845
:1010700008F4512CAA24A394C12CD12CEE24E3947F
:1010800095E0F92E0AE0930142E050E066E170E05D
:10109000C4010E94D118DACD5F926F927F928F9235
:1010A0009F92AF92BF92CF92DF92EF92FF920F93F7
:1010B0001F93CF93DF934C01762E642EE901502EBF
:1010C0008881887F99819C7F28E0929F70011124FC
:1010D000F82A8A81869586958695E82A842F0E942B
:1010E000C01C6C01872D0E94C51C00E410E028E2A2
:1010F00030E0A601BC01C4010E9449188881887FA4
:1011000099819C7F28E0929F70011124F82A8A819E
:10111000869586958695E82A862D0E94C01C8C01AE
:10112000872D0E94C51C5C01862D0E94C01C6C018D
:10113000872D0E94C51C065E1F4F9501265F3F4FFD
:10114000A601405F5F4FBC016F5F7F4FC4010E94EB
:101150003E178881887F99819C7F28E0929F70014B
:101160001124F82A8A81869586958695E82A862D07
:101170000E94C01C8C01872D0E94C51C5C01862D1D
:101180000E94C01C6C01872D0E94C51C065E1F4F6B
:101190009501225E3F4FA601405F5F4FBC01695D34
:1011A0007F4FC4010E943E178881887F99819C7F70
:1011B00028E0929F70011124F82A8A8186958695ED
:1011C0008695E82A862D0E94C01C8C01872D0E94DE
:1011D000C51C5C01862D0E94C01C6C01872D0E94DD
:1011E000C51C065E1F4F9501225E3F4FA601465E5D
:1011F0005F4FBC01665F7F4FC4010E943E1788812C
:10120000887F99819C7F28E0929F70011124F82AA1
:101210008A81869586958695E82A862D0E94C01C2F
:101220008C01872D0E94C51C5C01862D0E94C01C6C
:101230006C01872D0E94C51C0A5D1F4F9501225E1F
:101240003F4FA6014A5D5F4FBC01665F7F4FC401FF
:101250000E943E178881887F99819C7F28E0929F19
:1012600070011124F82A8A81869586958695E82A48
:10127000862D0E94C01C8C01872D0E94C51C5C011C
:10128000862D0E94C01C6C01872D0E94C51C0A5D22
:101290001F4F9501265F3F4FA601405D5F4FBC0188
:1012A0006F5F7F4FC4010E943E178881887F9981BC
:1012B0009C7F28E0929F70011124F82A8A818695EC
:1012C00086958695E82A862D0E94C01C8C01872D64
:1012D0000E94C51C5C01862D0E94C01C6C01872DDC
:1012E0000E94C51C0A5D1F4F9501225E3F4FA6015B
:1012F000405D5F4FBC01695D7F4FC4010E943E1796
:101300008881887F99819C7F28E0929F70011124B9
:10131000F82A8A81869586958695E82A862D0E94E8
:10132000C01C8C01872D0E94C51C5C01862D0E946B
:10133000C01C6C01872D0E94C51C0A5D1F4F9501C2
:10134000265F3F4FA601465E5F4FBC01665F7F4F41
:10135000C4010E943E178881887F99819C7F28E084
:10136000929F70011124F82A8A8186958695869528
:10137000E82A862D0E94C01C8C01872D0E94C51C66
:101380005C01862D0E94C01C6C01872D0E94C51C2B
:101390000A5D1F4F9501225E3F4FA601465E5F4FDB
:1013A000BC01625E7F4FC4010E943E178881887F26
:1013B00099819C7F28E0929F70011124F82A8A81EC
:1013C000869586958695E82A862D0E94C01C8C01FC
:1013D000872D0E94C51C5C01862D0E94C01C6C01DB
:1013E000872D0E94C51C005F1F4F95012A5D3F4F4E
:1013F000A601405F5F4FBC01C4010E943E17888177
:10140000887F99819C7F28E0929F70011124F82A9F
:101410008A81869586958695E82A862D0E94C01C2D
:101420008C01872D0E94C51C5C01862D0E94C01C6A
:101430006C01872D0E94C51C005D1F4F95012A5D20
:101440003F4FA601405D5F4FBC01C4010E943E17A3
:10145000552021F18881887F99819C7F28E0929F87
:1014600070011124F82A8A81869586958695E82A46
:10147000862D0E94C01CEC01872D0E94C51CAE0168
:10148000435E5F4FBC016E5E7F4FAA24A394C12CC4
:10149000D12C0AE0252DC4010E941919DF91CF91AA
:1014A0001F910F91FF90EF90DF90CF90BF90AF9082
:1014B0009F908F907F906F905F9008956F927F9232
:1014C0009F92AF92BF92CF92DF92EF92FF920F93D3
:1014D0001F93CF93DF931F92CDB7DEB73C01B62E9B
:1014E000942E2223C9F0842F29830E94C01C8C01D2
:1014F0008B2D0E94C51CA801435E5F4FBC016E5E30
:101500007F4FAA24A394C12CD12CE12CF12C0AE00A
:101510002981C3010E941919892D0E94C01C8C01C8
:101520008B2D0E94C51C6C01892D0E94C01C7C0162
:101530008B2D0E94C51C065E1F4F9601265F3F4FF4
:10154000A701405F5F4FBC016F5F7F4FE12CF12C23
:10155000C3010E943E17892D0E94C01C8C018B2D57
:101560000E94C51C6C01892D0E94C01C7C018B2D22
:101570000E94C51C065E1F4F9601225E3F4FA701C9
:10158000405F5F4FBC01695D7F4FE12CF12CC301CF
:101590000E943E17892D0E94C01C8C018B2D0E9439
:1015A000C51C6C01892D0E94C01C7C018B2D0E94E2
:1015B000C51C065E1F4F9601225E3F4FA701465E87
:1015C0005F4FBC01665F7F4FE12CF12CC3010E948D
:1015D0003E17892D0E94C01C8C018B2D0E94C51CBA
:1015E0006C01892D0E94C01C7C018B2D0E94C51CA2
:1015F0000A5D1F4F9601225E3F4FA7014A5D5F4F74
:10160000BC01665F7F4FE12CF12CC3010E943E17A5
:10161000892D0E94C01C8C018B2D0E94C51C6C0161
:10162000892D0E94C01C7C018B2D0E94C51C0A5D67
:101630001F4F9601265F3F4FA701405D5F4FBC01E2
:101640006F5F7F4FE12CF12CC3010E943E17892D63
:101650000E94C01C8C018B2D0E94C51C6C01892D21
:101660000E94C01C7C018B2D0E94C51C0A5D1F4F6F
:101670009601225E3F4FA701405D5F4FBC01695D4F
:101680007F4FE12CF12CC3010E943E17892D0E944F
:10169000C01C8C018B2D0E94C51C6C01892D0E94E1
:1016A000C01C7C018B2D0E94C51C0A5D1F4F96013A
:1016B000265F3F4FA701465E5F4FBC01665F7F4FCD
:1016C000E12CF12CC3010E943E17892D0E94C01C01
:1016D0008C018B2D0E94C51C6C01892D0E94C01CA1
:1016E0007C018B2D0E94C51C0A5D1F4F9601225E56
:1016F0003F4FA701465E5F4FBC01625E7F4FE12C0A
:10170000F12CC3010E943E17892D0E94C01C8C0140
:101710008B2D0E94C51C6C01892D0E94C01C7C0170
:101720008B2D0E94C51C005F1F4F9601285D3F4F07
:10173000A701405F5F4FE12CF12CBC01C3010E9467
:101740003E17892D0E94C01C8C018B2D0E94C51C48
:101750007C01892D0E94C01C6C018B2D0E94C51C30
:10176000005D1F4F9701285D3F4FA601405D5F4F11
:10177000E12CF12CBC01C3010E943E17892D0E946F
:10178000C01C6C018B2D0E94C51C00E410E028E2F7
:1017900030E0A601BC01C3010E9449180F90DF91FF
:1017A000CF911F910F91FF90EF90DF90CF90BF905E
:1017B000AF909F907F906F9008956F927F928F92DD
:1017C0009F92AF92BF92CF92DF92EF92FF920F93D0
:1017D0001F93CF93DF936C01762E642EE9018881ED
:1017E000887F99819C7F28E0929F70011124F82ABC
:1017F0008A81869586958695E82A842F0E94C01C4A
:101800008C01872D0E94C51C4C01862D0E94C01C96
:101810005C01872D0E94C51C0E5C1F4F9401295D41
:101820003F4FA5014E5C5F4FBC01C6010E943E17B1
:101830008881887F99819C7F28E0929F7001112484
:10184000F82A8A81869586958695E82A862D0E94B3
:10185000C01C8C01872D0E94C51C4C01862D0E9446
:10186000C01C5C01872D0E94C51C015C1F4F9401A8
:101870002B5F3F4FA5014E5C5F4FBC016B5F7F4FFD
:10188000C6010E943E178881887F99819C7F28E04D
:10189000929F70011124F82A8A81869586958695F3
:1018A000E82A862D0E94C01C8C01872D0E94C51C31
:1018B0004C01862D0E94C01C5C01872D0E94C51C16
:1018C000015C1F4F94012D5D3F4FA5014E5C5F4FA2
:1018D000BC016D5D7F4FC6010E943E178881887FE5
:1018E00099819C7F28E0929F70011124F82A8A81B7
:1018F000869586958695E82A862D0E94C01C8C01C7
:10190000872D0E94C51C4C01862D0E94C01C5C01C5
:10191000872D0E94C51C0D5D1F4F9401225E3F4F15
:10192000A5014D5D5F4FBC01665F7F4FC6010E9400
:101930003E178881887F99819C7F28E0929F700163
:101940001124F82A8A81869586958695E82A862D1F
:101950000E94C01C8C01872D0E94C51C4C01862D45
:101960000E94C01C5C01872D0E94C51C0E5C1F4F8D
:1019700094012B5F3F4FA5014D5D5F4FBC01665F3A
:101980007F4FC6010E943E178881887F99819C7F86
:1019900028E0929F70011124F82A8A818695869505
:1019A0008695E82A862D0E94C01C8C01872D0E94F6
:1019B000C51C4C01862D0E94C01C5C01872D0E9415
:1019C000C51C0E5C1F4F94012D5D3F4FA5014D5D61
:1019D0005F4FBC01625E7F4FC6010E943E17888147
:1019E000887F99819C7F28E0929F70011124F82ABA
:1019F0008A81869586958695E82A862D0E94C01C48
:101A00008C01872D0E94C51C4C01862D0E94C01C94
:101A10005C01872D0E94C51C0D5D1F4F9401265F40
:101A20003F4FA501475E5F4FBC01665F7F4FC60118
:101A30000E943E178881887F99819C7F28E0929F31
:101A400070011124F82A8A81869586958695E82A60
:101A5000862D0E94C01C8C01872D0E94C51C4C0144
:101A6000862D0E94C01C5C01872D0E94C51C0D5D47
:101A70001F4F9401225E3F4FA501475E5F4FBC019F
:101A8000625E7F4FC6010E943E178881887F9981E0
:101A90009C7F28E0929F70011124F82A8A81869504
:101AA00086958695E82A8DEF860D0E94C01C5C0104
:101AB000872D0E94C51C0AE510E028E230E0A50150
:101AC000BC01C6010E9449188881887F99819C7F4A
:101AD00028E0929F70011124F82A8A8186958695C4
:101AE0008695E82A862D0E94C01CEC01872D0E9455
:101AF000C51CAE01455E5F4F05E210E028E230E014
:101B0000BC01C6010E944918DF91CF911F910F912E
:101B1000FF90EF90DF90CF90BF90AF909F908F900D
:101B20007F906F900895AF92BF92CF92DF92EF9225
:101B3000FF920F931F93CF93DF93EC01B62EA42E49
:101B4000842F0E94C01C8C018B2D0E94C51C6C012F
:101B50008A2D0E94C01C7C018B2D0E94C51C0E5C2E
:101B60001F4F9601295D3F4FA7014E5C5F4FE12C4F
:101B7000F12CBC01CE010E943E178A2D0E94C01C90
:101B80008C018B2D0E94C51C6C018A2D0E94C01CEB
:101B90007C018B2D0E94C51C015C1F4F96012B5FA1
:101BA0003F4FA7014E5C5F4FBC016B5F7F4FE12C45
:101BB000F12CCE010E943E178A2D0E94C01C8C0180
:101BC0008B2D0E94C51C6C018A2D0E94C01C7C01BB
:101BD0008B2D0E94C51C015C1F4F96012D5D3F4F50
:101BE000A7014E5C5F4FBC016D5D7F4FE12CF12C76
:101BF000CE010E943E178A2D0E94C01C8C018B2DA5
:101C00000E94C51C6C018A2D0E94C01C7C018B2D7A
:101C10000E94C51C0D5D1F4F9601225E3F4FA7011C
:101C20004D5D5F4FBC01665F7F4FE12CF12CCE0113
:101C30000E943E178A2D0E94C01C8C018B2D0E9491
:101C4000C51C6C018A2D0E94C01C7C018B2D0E943A
:101C5000C51C0E5C1F4F96012B5F3F4FA7014D5DCA
:101C60005F4FBC01665F7F4FE12CF12CCE010E94DB
:101C70003E178A2D0E94C01C8C018B2D0E94C51C12
:101C80006C018A2D0E94C01C7C018B2D0E94C51CFA
:101C90000E5C1F4F96012D5D3F4FA7014D5D5F4FBD
:101CA000BC01625E7F4FE12CF12CCE010E943E17F9
:101CB0008A2D0E94C01C8C018B2D0E94C51C6C01BA
:101CC0008A2D0E94C01C7C018B2D0E94C51C0D5DBD
:101CD0001F4F9601265F3F4FA701475E5F4FBC0134
:101CE000665F7F4FE12CF12CCE010E943E178A2DBA
:101CF0000E94C01C8C018B2D0E94C51C7C018A2D6A
:101D00000E94C01C6C018B2D0E94C51C0D5D1F4FD5
:101D10009701225E3F4FA601475E5F4FBC01625EA6
:101D20007F4FE12CF12CCE010E943E178DEF8A0DE2
:101D30000E94C01C6C018B2D0E94C51C0AE510E09E
:101D400028E230E0A601BC01CE010E9449188A2D8C
:101D50000E94C01C6C018B2D0E94C51CA601455E13
:101D60005F4F05E210E028E230E0BC01CE010E94A6
:101D70004918DF91CF911F910F91FF90EF90DF9065
:101D8000CF90BF90AF9008950C94A3370C94AB37CD
:101D90004F925F926F927F928F929F92AF92BF927B
:101DA000CF92DF92EF92FF920F931F93CF93DF9327
:101DB000CDB7DEB7CB54D1090FB6F894DEBF0FBE56
:101DC000CDBF4C013B01542E60E070E00E94FD1538
:101DD0000E94222B0AE0B02E89E0482E552009F4FB
:101DE0008DC0E1E6F1E0DE01AE5BBF4F842D0190D6
:101DF0000D928A95E1F763E0CE018E5B9F4F0E94C2
:101E0000DE21682F70E0E3E0CE2EE12CF12C00E023
:101E100018EF9E012E5B3F4F4FE050E0C4010E943F
:101E2000931862E083E491E00E94DE21682F70E065
:101E3000F2E0CF2E23E431E04CE350E0C4010E94F5
:101E40009318A3E0AA2EC12CD12CE12CB8EFFB2EC5
:101E50000AE0930144E650E066E470E0C4010E94A9
:101E6000D118B401CE0101960E940C0318E2E12EB4
:101E7000F12C08EC10E02CED30E044E150E06FE490
:101E800071E0CE0101960E944C20882349F0B401F4
:101E9000CE0101960E940C03CE0101960E94262AD3
:101EA000B401CE0101960E940C0368E2E62EF12CEB
:101EB00008EC10E02EE031E044E150E067E571E02D
:101EC000CE0101960E944C20882309F487CF77C069
:101ED000B401CE0101960E940C0388E2E82EF12C99
:101EE00008EC10E02EE031E044E150E067E571E0FD
:101EF000CE0101960E944C20811161C0EAE6F1E01A
:101F0000DE01AE5BBF4F8B2D01900D928A95E1F7FC
:101F100063E0CE018E5B9F4F0E94DE21682F70E050
:101F200093E0C92EE12CF12C00E018EF9E012E5B0E
:101F30003F4F4FE050E0C4010E94931862E083E4F9
:101F400091E00E94DE21682F70E022E0C22E23E49F
:101F500031E04CE350E0C4010E94931833E0A32E1B
:101F6000C12CD12CE12C48EFF42E0AE0930144E679
:101F700050E066E470E0C4010E94D118B401CE01C3
:101F800001960E940C0358E2E52EF12C08EC10E0BB
:101F90002CED30E044E150E06FE471E0CE010196B9
:101FA0000E944C20882309F493CFB401CE010196FE
:101FB0000E940C03CE0101960E94262A89CF60E080
:101FC00070E0C4010E94FD1581E080938403C55B2D
:101FD000DF4F0FB6F894DEBF0FBECDBFDF91CF91BC
:101FE0001F910F91FF90EF90DF90CF90BF90AF9037
:101FF0009F908F907F906F905F904F9008955F9229
:102000006F927F928F929F92AF92BF92CF92DF9208
:10201000EF92FF920F931F93CF93DF93CDB7DEB76D
:10202000CB54D1090FB6F894DEBF0FBECDBF4C0123
:102030003B01B42EAAE05A2EE2EAF1E0DE01AE5BEB
:10204000BF4F852D01900D928A95E1F763E0CE0197
:102050008E5B9F4F0E94DE21682F70E0F3E0CF2E51
:10206000E12CF12C00E018EF9E012E5B3F4F4FE07A
:1020700050E0C4010E949318B1105AC062E083E49A
:1020800091E00E94DE21682F70E0E2E0CE2E23E492
:1020900031E042E350E0C4010E9493188091810333
:1020A000882381F061E084E791E00E94DE21682FBF
:1020B00070E0CC24C39424E731E04BE450E0C40149
:1020C0000E94931833E0A32EC12CD12CE12C48EFB1
:1020D000F42E0AE0930144E650E066E470E0C401A7
:1020E0000E94D11862E08DE891E00E94DE21682F05
:1020F00070E052E0C52EE12CF12C00E018EF28E949
:1021000031E04CE850E0C4010E9493188DEA90E061
:102110000E94C40EC12CD12CE12C68EFF62E0AE0EF
:10212000282F4AEA50E066E470E0C4010E941919C1
:10213000B401CE0101960E940C0328E2E22EF12C9C
:1021400008EC10E02CED30E044E150E06FE471E089
:10215000CE0101960E944C20882349F060E070E097
:10216000C4010E94FD1581E0809383031FC0B40168
:10217000CE0101960E940C0398E2E92EF12C08ECA6
:1021800010E02EE031E044E150E067E571E0CE017F
:1021900001960E944C20882309F44ECF60E070E045
:1021A000C4010E94FD1581E080938403C55BDF4F6D
:1021B0000FB6F894DEBF0FBECDBFDF91CF911F9158
:1021C0000F91FF90EF90DF90CF90BF90AF909F90D6
:1021D0008F907F906F905F9008952F923F924F92D3
:1021E0005F926F927F928F929F92AF92BF92CF92A7
:1021F000DF92EF92FF920F931F93CF93DF93CDB7B0
:10220000DEB7C655D1090FB6F894DEBF0FBECDBFFD
:102210004C013B018EEA90E00E94C40E182F60E052
:1022200070E0C4010E94FD1511113CC060E08BEA12
:1022300090E00E94C60E61E48EEA90E00E94C60E15
:1022400061E48FEA90E00E94C60E61E480EB90E0CA
:102250000E94C60E60E08CEA90E00E94C60E61E427
:1022600081EB90E00E94C60E61E482EB90E00E9458
:10227000C60E61E483EB90E00E94C60E60E08DEA3A
:1022800090E00E94C60E61E484EB90E00E94C60ECE
:1022900061E485EB90E00E94C60E61E486EB90E07D
:1022A0000E94C60E80918103882311F0660C771C72
:1022B00031E4432E41E4542E51E4B52E6BE0262E3A
:1022C00080918303882321F081E08093830397C169
:1022D00080918403882321F081E0809384038FC15F
:1022E0008DEA90E00E94C40E90E08615970560F09C
:1022F00060E070E0C4010E94FD15B401CE010196BA
:102300000E940C0340E075C1E2EAF1E0DE01A35B4C
:10231000BF4F8AE001900D928A95E1F763E0CE010C
:10232000835B9F4F0E94DE21682F70E093E0C92EEF
:10233000E12CF12C00E018EF9E01235B3F4F4FE0B2
:1023400050E0C4010E94931862E08CEA91E00E9480
:10235000DE21682F70E022E0C22E2CEA31E048E254
:1023600050E0C4010E94931880918103882381F07A
:1023700061E084E791E00E94DE21682F70E0CC24C8
:10238000C39424E731E041E450E0C4010E94931873
:10239000B3E0AB2EC12CD12CE12C18EFF12E0AE0CA
:1023A000930140E550E066E470E0C4010E94D1185A
:1023B000E0ECF1E0DE01AE5BBF4F822D01900D92AB
:1023C0008A95E1F762E0CE018E5B9F4F0E94DE218D
:1023D000682F70E002E0C02EE12CF12C00E018EF35
:1023E0009E012E5B3F4F4CE850E0C4010E949318C1
:1023F000B401CE0101960E940C032B2D40EA50E05F
:1024000063E270E0CE0101960E945E22B82EB40114
:10241000CE0101960E940C03252D40EA50E06FE5A5
:1024200070E0CE0101960E945E22582EB401CE01CA
:1024300001960E940C03242D40EA50E06BE970E005
:10244000CE0101960E945E22482EB401CE01019673
:102450000E940C0388E2E82EF12C08EC10E020EF3B
:1024600030E044E150E069EB71E0CE0101960E945A
:102470004C20882309F424CF8BEA90E00E94C40EFC
:10248000182F282F30E02615370508F04DC08EEAAA
:1024900090E00E94C40E382E8FEA90E00E94C40E95
:1024A000A82E80EB90E00E94C40EC82E8CEA90E02B
:1024B0000E94C40ED82E81EB90E00E94C40EE82E3C
:1024C00082EB90E00E94C40EF82E83EB90E00E9415
:1024D000C40E082F662D8BEA90E00E94C60E6B2D6D
:1024E0008EEA90E00E94C60E652D8FEA90E00E9471
:1024F000C60E642D80EB90E00E94C60E612F8CEA20
:1025000090E00E94C60E632D81EB90E00E94C60E03
:102510006A2D82EB90E00E94C60E6C2D83EB90E05A
:102520000E94C60E6D2D2EC08CEA90E00E94C40E53
:10253000182F282F30E026153705A0F581EB90E005
:102540000E94C40EE82E82EB90E00E94C40EF82E8A
:1025500083EB90E00E94C40E082F662D8CEA90E079
:102560000E94C60E6B2D81EB90E00E94C60E652D79
:1025700082EB90E00E94C60E642D83EB90E00E94F7
:10258000C60E612F8DEA90E00E94C60E6E2D84EB80
:1025900090E00E94C60E6F2D85EB90E00E94C60E63
:1025A000602F18C08DEA90E00E94C40E90E086155E
:1025B0009705A0F4662D8DEA90E00E94C60E6B2D63
:1025C00084EB90E00E94C60E652D85EB90E00E94A2
:1025D000C60E642D86EB90E00E94C60E60E070E0AF
:1025E000C4010E94FD15B401CE0101960E940C03A6
:1025F00041E0B301CE0101960E94FF0F61CECA5A9D
:10260000DF4F0FB6F894DEBF0FBECDBFDF91CF9185
:102610001F910F91FF90EF90DF90CF90BF90AF9000
:102620009F908F907F906F905F904F903F902F90F2
:1026300008950F931F93CF93DF936AEA80E090E0B1
:102640000E94AB3702E313E0C1E0D0E0F8016191F2
:102650008F01CE010E94AB372196CD31D105B1F764
:10266000DF91CF911F910F9108950F931F93CF93F7
:10267000DF9380E090E00E94A3378A3A79F402E386
:1026800013E0C1E0D0E0CE010E94A337F8018193AE
:102690008F012196CD31D105B1F702C081E001C093
:1026A00080E0DF91CF911F910F9108951F920F92BB
:1026B0000FB60F9211242F933F934F935F936F9315
:1026C0007F938F939F93AF93BF93EF93FF930E945A
:1026D0002126FF91EF91BF91AF919F918F917F91B3
:1026E0006F915F914F913F912F910F900FBE0F907F
:1026F0001F901895CF93DF93CDB7DEB7C154D109A2
:102700000FB6F894DEBF0FBECDBF0E94743364E0F5
:102710008AE193E00E94DF256AE570E08AE193E0B8
:102720000E9411258AE193E00E941A238AE193E036
:102730000E94BC1C892B09F08BC00E9435138111AB
:1027400087C060E070E08AE193E00E94FD158CE1B3
:10275000F82E05E212E080911C0390911D039C83EA
:102760008B8380911E0390911F039E838D838091A4
:1027700020039091210398878F8380912203909169
:1027800023039A87898780912403909125039C874E
:102790008B8780912603909127039E878D87809158
:1027A000280390912903988B8F8780912A03909119
:1027B0002B039A8B898B80912C0390912D039C8BFA
:1027C0008B8B80912E0390912F039E8B8D8B80910C
:1027D000300390913103988F8F8BE2E3F3E0DE01B9
:1027E00059968F2D01900D928A95E1F780914E03B5
:1027F0008DAB80914F038EAB80915003909151032C
:1028000098AF8FAB80915203909153039AAF89AFE9
:1028100080915403909155039CAF8BAF80915603E8
:10282000909157039EAF8DAF8091580390915903BB
:1028300021969FAF8EAF21971A83098380915A0307
:1028400022968FAF2297CE0101960E94781E83CFE9
:102850008AE193E00E94AE230E94191372CF8AE1AD
:1028600093E00C940A232F923F924F925F926F92C3
:102870007F928F929F92AF92BF92CF92DF92EF9210
:10288000FF920F931F93CF93DF9300D01F92CDB78A
:10289000DEB79B838A83380188E028025001112427
:1028A000D501A859B0405D01BC2DBF77CB2EEA8180
:1028B000FB8186819781F1E0FB1708F462C06B0110
:1028C00028E0C20ED11C8C159D050CF46DC0AA81A8
:1028D000BB8118962D913C911997FA0138962E17C5
:1028E0003F070CF461C0AA81BB81ED91FC91119767
:1028F0008A01095F1F4F9B01295F3F4F0680F781C7
:10290000E02DCD010995AA81BB81ED91FC91119734
:102910000084F185E02DCD0109958501085F1F4FE9
:10292000F5015490FFEFAF1ABF0A98E0892E912C61
:1029300020E8422EAA81BB81ED91FC911197842D54
:1029400085210284F385E02D882319F0B301CD01A0
:1029500003C0B7018A819B8109954694B1E08B1A27
:10296000910841F7A016B106D9F6AA81BB81ED9175
:10297000FC9111970484F585E02DCD010995C601E0
:1029800075C0B8E0CB9E800111244B01800E911ED2
:10299000881599054CF0040F151FEA81FB812085ED
:1029A00031852017310714F4019660C0AA81BB81DC
:1029B000ED91FC911197015011090680F781E02DEE
:1029C000940121503109CD010995AA81BB81ED9176
:1029D000FC9111970084F185E02DCD010995250129
:1029E000B8E04B0E511CF501D490FFEFAF1ABF0AAF
:1029F0002C2C08E010E080E8382E832D8D212C2D22
:102A0000A1F0AA81BB81ED91FC9111970284F3851D
:102A1000E02DB301CD01298309952981215089F742
:102A200036940150110949F710C0AA81BB81ED917C
:102A3000FC9111970284F385E02DB701CD01298324
:102A400009952981215089F7EBCF2A9491F6A41496
:102A5000B50409F0C8CFAA81BB81ED91FC91119713
:102A60000484F585E02DCD010995C4010F900F90E8
:102A70000F90DF91CF911F910F91FF90EF90DF901A
:102A8000CF90BF90AF909F908F907F906F905F900E
:102A90004F903F902F900895CF92EF92FF920F9317
:102AA0001F93DC01ED91FC910684F785E02D0995DB
:102AB0001F910F91FF90EF90CF900895CF92EF92DA
:102AC000FF920F931F93CF93DF93EC01262F6A3071
:102AD00081F48EAD9FAD9BAF8AAF2CA92F778CADC3
:102AE0009DAD38E0239F800D911D11249DAF8CAFCB
:102AF00047C0862F8B7F893009F442C06AAD7BAD19
:102B0000203219F461157105D9F1E881F981E8AC39
:102B1000F9AC0EA91FA94CAD5DAD0088F189E02D7F
:102B2000CCA8CE0109959BAF8AAF2DA9222341F1F4
:102B30004CA94F77642F70E028EF2403A0011124E3
:102B40002E813F81240F351F28173907CCF48EAD15
:102B50009FAD9BAF8AAFCB0133E0880F991F3A95A9
:102B6000E1F72CAD3DAD820F931F9DAF8CAF288553
:102B70003985240F351F2817390714F41DAE1CAEF4
:102B800081E090E0DF91CF911F910F91FF90EF9046
:102B9000CF900895FC01138212828FEC91E0918313
:102BA00080831582148277836683518740871786D6
:102BB00016861586148613861286178A168A158A33
:102BC000148A138A128A118A108A10AA11AA12AAC8
:102BD00013AA81E084AB85AB17AA16AA8FEF9FEFEB
:102BE00091AF80AF17AE16AE15AE14AE13AE12AEE7
:102BF0000895FC01848195810895AF92BF92CF9290
:102C0000DF92EF92FF920F931F93CF93DF93EC012C
:102C10005B01E881F98108851985015011092E8130
:102C20003F81215031090680F781E02D40E050E0DE
:102C300060E070E00995E881F9810084F185E02D7C
:102C4000CE010995AE81BF81288539850E94DD3688
:102C50006B017C0143E0F694E794D794C7944A95BE
:102C6000D1F7E881F981C114D104E104F10409F438
:102C700044C00284F385E02DB501CE010995E881B9
:102C8000F9810284F385E02DB501CE010995E88133
:102C9000F9810284F385E02DB501CE010995E88123
:102CA000F9810284F385E02DB501CE010995E88113
:102CB000F9810284F385E02DB501CE010995E88103
:102CC000F9810284F385E02DB501CE010995E881F3
:102CD000F9810284F385E02DB501CE010995E881E3
:102CE000F9810284F385E02DB501CE01099581E0DB
:102CF000C81AD108E108F108B4CF0484F585E02DA5
:102D0000CE01DF91CF911F910F91FF90EF90DF9057
:102D1000CF90BF90AF900994EF92FF920F931F93C3
:102D2000CF93DF93EC0179018E819F81681779073A
:102D300054F588859985481759072CF5E881F9815C
:102D40000680F781E02D8A019B01CE010995E8817B
:102D5000F9810084F185E02DCE010995E881F981A2
:102D60000284F385E02DB701CE010995E881F98150
:102D70000484F585E02DCE01DF91CF911F910F9155
:102D8000FF90EF900994DF91CF911F910F91FF90E9
:102D9000EF9008958F929F92AF92BF92CF92DF9261
:102DA000EF92FF920F931F93CF93DF93EC01690192
:102DB000480157012E813F81621773071CF0B9014A
:102DC0006150710988859985481759071CF0AC0135
:102DD00041505109FB01EC0DFD1DE217F3071CF0FA
:102DE0006901C61AD70A9A01280D391D2817390713
:102DF0001CF04C01841A950AE881F9818A01080DBA
:102E0000191D015011099B012C0D3D1D2150310947
:102E10000680F781E02DCE010995E881F9810084D3
:102E2000F185E02DCE0109959401D6010E94DD3691
:102E30006B017C01E881F981C114D104E104F10442
:102E400061F00284F385E02DB501CE01099581E0A2
:102E5000C81AD108E108F108EDCF0484F585E02D0A
:102E6000CE01DF91CF911F910F91FF90EF90DF90F6
:102E7000CF90BF90AF909F908F9009942F923F92E8
:102E80004F925F926F927F928F929F92AF92BF927A
:102E9000CF92DF92EF92FF920F931F93CF93DF9326
:102EA000CDB7DEB728970FB6F894DEBF0FBECDBF03
:102EB0004C016B0158874F83590162177307A1F4C6
:102EC0000417150744F4042715274027512758876E
:102ED0004F83042715272F813885021B130B0F5FA3
:102EE0001F4F21E030E015C04F8158854017510732
:102EF000B9F42617370734F4A626B726CA24DB24EC
:102F0000AC24BD2495012C193D092F5F3F4F01E0F2
:102F100010E04F815885B601C4010E94CA16A0C0B6
:102F2000FC01268137816217730724F06901F1E003
:102F3000CF1AD108F401808591854F8158854817B3
:102F4000590724F0FC013197F887EF83A216B306E6
:102F500024F05901F1E0AF1AB108081719071CF065
:102F60008C010150110935016C187D0828012F8151
:102F70003885421A530A77FE08C07194619471082B
:102F80004FEF5FEF5A83498304C081E090E09A835A
:102F9000898357FE08C0519441945108EFEFFFEF29
:102FA000FC83EB8304C021E030E03C832B83A3014E
:102FB000440F551F5E834D831201220C331C970171
:102FC0004F815885B601C4010E948C1646145704DF
:102FD0001CF5810106191709CA14DB0409F440C065
:102FE00017FD0CC08F819885EB81FC818E0F9F1F90
:102FF00098878F832D813E81021B130B49815A8153
:10300000C40ED51E020D131D97014F815885B601C0
:10301000C4010E948C16E0CFAD80BE80A418B50814
:103020008F81988580179107D9F0B7FC06C08981F8
:103030009A81C80ED91EA218B308EF81F8852B819A
:103040003C81E20FF31FF887EF834D815E81A40E70
:10305000B51E9701AF01B601C4010E948C16E0CFE6
:1030600028960FB6F894DEBF0FBECDBFDF91CF918B
:103070001F910F91FF90EF90DF90CF90BF90AF9096
:103080009F908F907F906F905F904F903F902F9088
:1030900008954F925F926F927F928F929F92AF921C
:1030A000BF92CF92DF92EF92FF920F931F93CF9335
:1030B000DF93EC016B015A012901380121E030E076
:1030C0000E94CA16A501460D571D4150510901E045
:1030D00010E09201B601CE010E94CA16B601640D3D
:1030E000751D61507109830121E030E0A501CE0119
:1030F0000E94CA1601E010E09201A501B601CE01BE
:103100000E94CA16DF91CF911F910F91FF90EF900F
:10311000DF90CF90BF90AF909F908F907F906F90F7
:103120005F904F9008954F925F926F927F928F922F
:103130009F92AF92BF92CF92DF92EF92FF920F9346
:103140001F93CF93DF935C01CB014A013801270124
:10315000DC2CE9012991222399F0D501ED91FC9114
:103160000684F785E02DCD2C72018301A401BC01FA
:10317000C5010995F501268137812817390754F7CC
:10318000DF91CF911F910F91FF90EF90DF90CF9043
:10319000BF90AF909F908F907F906F905F904F9077
:1031A00008952F923F924F925F926F927F928F92EB
:1031B0009F92AF92CF92DF92EF92FF920F931F9365
:1031C000CF93DF93CDB7DEB761970FB6F894DEBF2C
:1031D0000FBECDBF4C013B012A01C9011701760189
:1031E000CA2C402F50E0BE016F5F7F4F0E947E3798
:1031F00081019E012F5F3F4FA201B301C4010E94D4
:10320000931861960FB6F894DEBF0FBECDBFDF9165
:10321000CF911F910F91FF90EF90DF90CF90AF90E3
:103220009F908F907F906F905F904F903F902F90E6
:103230000895AF92CF92DF92EF92FF920F9330E01A
:103240000E94D1180F91FF90EF90DF90CF90AF9038
:1032500008952F923F924F925F926F927F928F923A
:103260009F92AF92BF92CF92DF92EF92FF920F9315
:103270001F93CF93DF93CDB7DEB7E4970FB6F894E3
:10328000DEBF0FBECDBF8C011B01DA012D913D9138
:103290004D915C9113972D873E874F87588B5096A1
:1032A0004D915D916D917C91539749875A876B87BA
:1032B0007C876D857E858F85988929853A854B85A4
:1032C0005C85621B730B840B950B6D8F7E8F8F8FCC
:1032D00098A31C964D915D916D917C911F9749A388
:1032E0005AA36BA37CA354966D917D918D919C9173
:1032F0005797698F7A8F8B8F9C8F29A13AA14BA109
:103300005CA1261B370B480B590B2DA33EA34FA3E3
:1033100058A718964D915D916D917C911B97498BA3
:103320005A8B6B8B7C8BCB01BA0129853A854B85F7
:103330005C85621B730B840B950B69A77AA78BA71F
:103340009CA714964D915D916D917C9117974DA717
:103350005EA76FA778AB898D9A8DAB8DBC8D481B0E
:10336000590B6A0B7B0B49AB5AAB6BAB7CAB2DA1FA
:103370003EA14FA158A56D8D7E8D8F8D98A10E9485
:1033800058366B017C0129A93AA94BA95CA969A50A
:103390007AA58BA59CA50E945836C61AD70AE80ABA
:1033A000F90AD801D096CD92DD92ED92FC92D39796
:1033B000CD28CE28CF2809F49CC1D1012D913D9173
:1033C0004D915C91139729833A834B835C8350968C
:1033D000CD90DD90ED90FC90539729013A014C1867
:1033E0005D086E087F0818962D913D914D915C9176
:1033F0001B972D833E834F8358872C193D094E0917
:103400005F092D8B3E8B4F8B588FA30192016DA1CD
:103410007EA18FA198A50E9458364B015C012D8991
:103420003E894F89588D69A97AA98BA99CA90E94C8
:103430005836861A970AA80AB90AF801808E918E22
:10344000A28EB38E6D8D7E8D8F8D98A10E94583681
:103450004B015C01A301920169A57AA58BA59CA5EE
:103460000E945836861A970AA80AB90A848E958E41
:10347000A68EB78EA70196016D857E858F8598896A
:103480000E9458364B015C0129813A814B815C8155
:1034900069857A858B859C850E945836861A970A9D
:1034A000A80AB90AA501940169A17AA18BA19CA1DE
:1034B0000E9458362B013C012D813E814F81588559
:1034C00069857A858B859C850E9458364B015C0105
:1034D000A701960169897A898B899C890E9458364F
:1034E000861A970AA80AB90AA50194016DA57EA5B6
:1034F0008FA598A90E945836460E571E681E791E41
:1035000029813A814B815C8169897A898B899C897F
:103510000E9458366B017C012D813E814F81588578
:103520006D857E858F8598890E945836C61AD70A80
:10353000E80AF90AA7019601698D7A8D8B8D9C8D19
:103540000E945836460E571E681E791E40A251A290
:1035500062A273A2D10114962D913D914D915C917F
:10356000179729833A834B835C835496CD90DD90E3
:10357000ED90FC90579729013A014C185D086E08B0
:103580007F081C962D913D914D915C911F972D8345
:103590003E834F8358872C193D094E095F092D8BB7
:1035A0003E8B4F8B588FA30192016DA17EA18FA1FD
:1035B00098A50E9458364B015C012D893E894F89A0
:1035C000588D69A97AA98BA99CA90E945836861A98
:1035D000970AA80AB90A84A295A2A6A2B7A26D8DDD
:1035E0007E8D8F8D98A10E9458364B015C01A301FE
:1035F000920169A57AA58BA59CA50E945836861ACA
:10360000970AA80AB90A80A691A6A2A6B3A6A701FE
:1036100096016D857E858F8598890E9458364B016D
:103620005C0129813A814B815C8169857A858B8532
:103630009C850E945836861A970AA80AB90AA501DD
:10364000940169A17AA18BA19CA10E9458364B01DB
:103650005C012D813E814F81588569857A858B85F6
:103660009C850E9458362B013C01A701960169896F
:103670007A898B899C890E945836461A570A680AAB
:10368000790AA30192016DA57EA58FA598A90E9434
:103690005836860E971EA81EB91E29813A814B8185
:1036A0005C8169897A898B899C890E9458366B0173
:1036B0007C012D813E814F8158856D857E858F856A
:1036C00098890E945836C61AD70AE80AF90AA7014B
:1036D0009601698D7A8D8B8D9C8D0E945836860E51
:1036E000971EA81EB91E84A695A6A6A6B7A680E01A
:1036F00001C081E0E4960FB6F894DEBF0FBECDBFE7
:10370000DF91CF911F910F91FF90EF90DF90CF90BD
:10371000BF90AF909F908F907F906F905F904F90F1
:103720003F902F900895AF92BF92CF92DF92EF9289
:10373000FF920F931F93CF93DF93EC01A888B98872
:103740008C899D890A891B89A816B90609F45FC06E
:10375000BD8AAC8A288D398D4A8D5B8DD5010E943A
:1037600006376B017C012C8D3D8D4E8D5F8DD80110
:103770000E940637C60ED71EE81EF91E88A199A121
:10378000AAA1BBA1C80ED91EEA1EFB1E28A939A9F1
:103790004AA95BA9C701B6010E949C36DA01C9019A
:1037A0006C817D816A35710571F018F4672B41F0E9
:1037B0002CC0643B710521F06E30714021F025C0B2
:1037C0006E817F8102C0688579856B01CC0CDD1C20
:1037D000EE24D7FCE094FE2C2C153D054E055F052C
:1037E00088F46B01EE24D7FCE094FE2C2C153D05EB
:1037F0004E055F0550F0CB010197AA2797FDA095D4
:10380000BA2F03C080E090E0DC019B878A878E8915
:103810009F890817190709F45FC01F8B0E8B2CA115
:103820003DA14EA15FA1D5010E9406376B017C012D
:1038300028A539A54AA55BA5D8010E940637C60E62
:10384000D71EE81EF91E8CA59DA5AEA5BFA5C80E66
:10385000D91EEA1EFB1E28A939A94AA95BA9C701DE
:10386000B6010E949C36DA01C9016C817D816A35FE
:10387000710571F018F4672B41F02CC0643B7105A1
:1038800021F06E30714021F025C06885798502C035
:103890006E817F816B01CC0CDD1CEE24D7FCE094A3
:1038A000FE2C2C153D054E055F0588F46B01EE24BA
:1038B000D7FCE094FE2C2C153D054E055F0550F01D
:1038C000CB010197AA2797FDA095BA2F03C080E0EE
:1038D00090E0DC019D878C87DF91CF911F910F9144
:1038E000FF90EF90DF90CF90BF90AF900895CF936F
:1038F000DF93EC010E94931B2C813D812115310542
:1039000019F48A859B8512C02A35310519F48C85F6
:103910009D850CC08E819F81243B310519F42A8539
:103920003B8502C02C853D85821B930BDF91CF9197
:103930000895CF93DF93EC010E94931B8C819D81AE
:10394000009719F48C859D8514C08A35910529F45A
:10395000888599852A853B8507C0843B910539F484
:10396000888599852C853D85821B930B02C08A85AD
:103970009B85DF91CF910895FC01868597850895F9
:1039800025E1829FC0011124089528E2829FC00191
:103990001124449608950C94A3372F923F924F928E
:1039A0005F926F927F928F929F92AF92BF92CF92CF
:1039B000DF92EF92FF920F931F93CF93DF93CDB7D8
:1039C000DEB7C755D1090FB6F894DEBF0FBECDBF25
:1039D0004C0160E070E00E94FD158EEA90E00E94CC
:1039E000CB1C782E8FEA90E00E94CB1CB82E80EB87
:1039F00090E00E94CB1C68961CAE1DAE1EAE1FAEA2
:103A0000689765967FAE65976696BFAE6697679630
:103A10008FAF679781EB90E00E94CB1C782E82EBF2
:103A200090E00E94CB1CB82E83EB90E00E94CB1C50
:103A300064961CAE1DAE1EAE1FAE649761967FAE3F
:103A400061976296BFAE629763968FAF639784EB80
:103A500090E00E94CB1C782E85EB90E00E94CB1C5E
:103A6000B82E86EB90E00E94CB1C60961CAE1DAE7B
:103A70001EAE1FAE60972D967FAE2D972E96BFAED1
:103A80002E972F968FAF2F97FAE0BF2EC40148963E
:103A90002C01A5E26A2EA2E07A2E140190E4290EF0
:103AA000311CECEEF1E0DE01AE5BBF4F8B2D0190DF
:103AB0000D928A95E1F763E0CE018E5B9F4F0E94E5
:103AC000DE21682F70E083E0C82EE12CF12C00E0AD
:103AD00018EF9E012E5B3F4F4FE050E0C4010E9463
:103AE000931892E0C92E21EE31E04BE450E064E1FE
:103AF00070E0C4010E9493189E012C5A3F4F4BE482
:103B000050E066E470E0C4010E9493188BEA90E0F4
:103B10000E94CB1C22E0A22EC12CD12CE12C38EF2C
:103B2000F32E0AE0282F4BE450E062E870E0C40175
:103B30000E94191942E0C42EE12CF12C00E018EF8C
:103B400023EE31E047E850E064E170E0C4010E94F8
:103B500093189E01205B3F4F47E850E066E470E019
:103B6000C4010E9493188CEA90E00E94CB1CC12CE7
:103B7000D12CE12C58EFF52E0AE0282F47E850E031
:103B800062E870E0C4010E94191962E0C62EE12CBF
:103B9000F12C00E018EF25EE31E043EC50E064E159
:103BA00070E0C4010E9493189E01245B3F4F43ECD8
:103BB00050E066E470E0C4010E9493188DEA90E042
:103BC0000E94CB1CC12CD12CE12C78EFF72E0AE0FF
:103BD000282F43EC50E062E870E0C4010E941919FC
:103BE000F401828193819C838B83848195819E8360
:103BF0008D838681978198878F83808591859A8729
:103C00008987828593859C878B87848595859E8708
:103C10008D8786859785988B8F87808991899A8BE8
:103C2000898B828993899C8B8B8B848995899E8BC8
:103C30008D8B86899789988F8F8BF201DE0159963B
:103C40008CE101900D928A95E1F7F40184A98DAB86
:103C500085A98EAB86A997A998AF8FAB80AD91ADA2
:103C60009AAF89AF82AD93AD9CAF8BAF84AD95AD6C
:103C70009EAF8DAF86AD97AD21969FAF8EAF21974A
:103C80007A826982F101808122968FAF2297E8E2E1
:103C9000EE2EF12C08EC10E02FEF30E044E150E084
:103CA00067EE71E0CE0101960E944C20882309F452
:103CB000F8CE60E070E0C4010E94FD15C95ADF4FE4
:103CC0000FB6F894DEBF0FBECDBFDF91CF911F912D
:103CD0000F91FF90EF90DF90CF90BF90AF909F90AB
:103CE0008F907F906F905F904F903F902F900895AE
:103CF000CF93DF93CDB7DEB7C154D1090FB6F89497
:103D0000DEBF0FBECDBF5C011092840359E0D52EFB
:103D1000B501CE0101960E940C0348E2E42EF12C7D
:103D200008EC10E027E330E044E150E066EF71E09A
:103D3000CE0101960E944C20B501882349F0CE01A6
:103D400001960E940C03CE0101960E94AC05E0CFC3
:103D5000CE0101960E940C0338E2E32EF12C08EC10
:103D600010E029E630E044E150E063E072E0CE018B
:103D700001960E944C20B501882349F0CE0101969E
:103D80000E940C03CE0101960E94262AC1CFCE01CB
:103D900001960E940C0328E2E22EF12C08EC10E0C0
:103DA0002BE930E044E150E06FE072E0CE01019693
:103DB0000E944C20B501882349F0CE0101960E9453
:103DC0000C03CE0101960E94ED2DA2CFCE010196EB
:103DD0000E940C0398E2E92EF12C08EC10E02DEC87
:103DE00030E044E150E06CEE71E0CE0101960E94BB
:103DF0004C20882351F0B501CE0101960E940C039E
:103E0000CE0101960E94CD1C83CFE8E1F2E0DE01F5
:103E100011968D2D01900D928A95E1F763E0CE0108
:103E200001960E94DE21682F70E083E0C82EE12C0D
:103E3000F12C00E018EF9E012F5F3F4F4FE050E064
:103E4000C5010E94931880911201887F9091100102
:103E50009C7F28E0929F70011124F82A8091110123
:103E6000869586958695E82A00E410E028E230E001
:103E70004AEF50E064E670E0C5010E944918809165
:103E80001201887F909110019C7F28E0929F700121
:103E90001124F82A80911101869586958695E82A45
:103EA00004E111E02EE630E04AE051E065E670E022
:103EB000C5010E943E1780911201887F90911001E8
:103EC0009C7F28E0929F70011124F82A80911101B3
:103ED000869586958695E82A22E830E04AE051E00A
:103EE0006BE870E0C5010E943E1780911201887F47
:103EF000909110019C7F28E0929F70011124F82A74
:103F000080911101869586958695E82A22E830E011
:103F100044E151E06EE670E0C5010E943E178091D9
:103F20001201887F909110019C7F28E0929F700180
:103F30001124F82A80911101869586958695E82AA4
:103F400000E211E022E830E040E251E06EE670E08D
:103F5000C5010E943E1780911201887F9091100147
:103F60009C7F28E0929F70011124F82A8091110112
:103F7000869586958695E82A2EE630E04AE251E05D
:103F800065E670E0C5010E943E1780911201887FAE
:103F9000909110019C7F28E0929F70011124F82AD3
:103FA00080911101869586958695E82A22E830E071
:103FB0004AE251E06BE870E0C5010E943E17809133
:103FC0001201887F909110019C7F28E0929F7001E0
:103FD0001124F82A80911101869586958695E82A04
:103FE0002EE630E044E151E06EE670E0C5010E944B
:103FF0003E1780911201887F909110019C7F28E0EC
:10400000929F70011124F82A80911101869586955E
:104010008695E82A22E830E044E151E062E870E069
:10402000C5010E943E1780911201887F9091100176
:104030009C7F28E0929F70011124F82A8091110141
:10404000869586958695E82A0AE011E02AE830E010
:104050004AE051E064E670E0C5010E943E1780919D
:104060001201887F909110019C7F28E0929F70013F
:104070001124F82A80911101869586958695E82A63
:104080000AE211E02AE830E04AE251E064E670E03A
:10409000C5010E943E173CCE2F923F924F925F92F5
:1040A0006F927F928F929F92AF92BF92CF92DF9248
:1040B000EF92FF920F931F93CF93DF9300D000D026
:1040C00000D0CDB7DEB79E838D837C836B835A018E
:1040D000490118012701DB010D900020E9F7FD01DE
:1040E00031976F01C61AD70A0E941A23E12C98EF64
:1040F000F92E82019101A401B5018D819E810E945A
:104100004918C40108979A838983C20196958795B7
:10411000A981BA81A80FB91FBA83A9833101769406
:1041200067946A0C7B1C43E0CC0CDD1C4A95E1F7DC
:104130006C187D0852E0C52EE12CF12C00E018EF40
:104140002B813C81AD01B3018D819E810E9493182A
:104150008D819E810E94BC1C892B09F44EC08D81EB
:104160009E810E94771C8A159B0508F446C08D81AC
:104170009E810E94771C91012A0D3B1D281739074B
:10418000E0F18D819E810E94991C88159905A8F106
:104190008D819E810E94991C9201280D391D28173E
:1041A000390758F1E12C88EFF82E82019101A40122
:1041B000B5018D819E810E94CA1600E010E02B811E
:1041C0003C8149815A81B3018D819E810E9493185F
:1041D000BFEFE9E6F8E1B150E040F040E1F700C0A0
:1041E0000000E12CF12C82019101A401B5018D8127
:1041F0009E810E94CA1681E001C080E026960FB61B
:10420000F894DEBF0FBECDBFDF91CF911F910F910C
:10421000FF90EF90DF90CF90BF90AF909F908F90E6
:104220007F906F905F904F903F902F9008952F92C6
:104230003F924F925F926F927F928F929F92AF9236
:10424000BF92CF92DF92EF92FF920F931F93CF9383
:10425000DF93EC015B01942E822E202E3E2CE12C6C
:10426000F8EFFF2E0AE010E028EC30E0AB0164E14B
:1042700070E00E944918650125E0C21AD108692D35
:1042800070E080E090E00E94693523EC35EF48E46F
:104290005FE30E94F53520E030E040E251E40E9407
:1042A000D2340E9436352B013C01822D8C7F98E060
:1042B000899F70011124369436943694E328882D12
:1042C000887FF82A04E110E024E130E0A601B20181
:1042D000CE010E94CA16CE010E941A23CE010E946E
:1042E000BC1C892B09F456C0CE010E94771C449750
:1042F0000CF450C0CE010E94771C893C91050CF053
:1043000049C0CE010E94991C8C159D0508F442C03D
:10431000CE010E94991C2FE0A20EB11CA816B9066E
:10432000C8F1CE010E94771CBC01882777FD8095DB
:10433000982F0E94693520E030E048E85FE30E9452
:10434000F5350E943B35962EE12CF12C24E130E02E
:10435000A601B201CE010E94CA16692D70E080E06C
:1043600090E00E94693523EC35EF48E45FE30E945A
:10437000F53520E030E040E251E40E94D2340E9462
:104380003635E12CE8EFFE2E24E130E0A601CE0127
:104390000E94CA16892DDF91CF911F910F91FF9036
:1043A000EF90DF90CF90BF90AF909F908F907F90D5
:1043B0006F905F904F903F902F900895623051F42E
:1043C000DC010D900020E9F71197A81BB90B88E7D5
:1043D00098E016C0633051F4DC010D900020E9F73D
:1043E0001197A81BB90B88E79CE00AC0613061F403
:1043F000DC010D900020E9F71197A81B88E794E0F5
:10440000A99F80191124089580E00895CF93DF9328
:10441000EC01FB01828193819B838A838FEC91E085
:1044200099838883848195819D838C8386819781FC
:104430009F838E83808591859987888782859385E0
:104440009B878A87848595859D878C8786859785B8
:104450009F878E8780899189998B888B82899389A0
:104460009B8B8A8B848995899D8B8C8B8689978978
:104470009F8B8E8B8CE17896DE01589601900D9281
:104480008A95E1F7FB0184A98CAB85A98DAB86A940
:1044900097A99FAB8EAB80AD91AD99AF88AF82AD40
:1044A00093AD9BAF8AAF84AD95AD9DAF8CAF86AD1C
:1044B00097AD9FAF8EAFDF91CF9108954F925F92EE
:1044C0006F927F928F929F92AF92BF92CF92DF9224
:1044D000EF92FF920F931F93CF93DF93CDB7DEB789
:1044E000C154D1090FB6F894DEBF0FBECDBF6C0129
:1044F0005B014A012B3519F020930A0103C081E4C6
:1045000080930A01B601CE0101960E94062205E2BF
:10451000602E02E0702E7A826982260180E4480EC5
:10452000511CF201808122968FAF229782E3E82E00
:10453000F12C02E310E09401A5016AE071E0CE01E4
:1045400001960E944C208823C9F080910A018F5F58
:1045500080930A01B601CE0101960E9406227A825A
:104560006982F201808122968FAF22979401A50182
:104570006AE071E0CE0101960E944C2080910A0110
:10458000CF5BDF4F0FB6F894DEBF0FBECDBFDF911C
:10459000CF911F910F91FF90EF90DF90CF90BF9040
:1045A000AF909F908F907F906F905F904F90089505
:1045B0005F9A0895CF93DF931F92CDB7DEB7872F11
:1045C0002B9A2D989CB59F7B9CBD2D9A9CB5906491
:1045D0009CBD69830E9484022B9A2D989CB59F7B79
:1045E0009CBD2D9A9CB590649CBD6981862F0F90CF
:1045F000DF91CF910C9484022CB5982F93702C7F6F
:10460000922B9CBD9DB582FB882780F99E7F982BBD
:104610009DBD0895CF93DF93EC0140EF50E060E43F
:1046200071E00E94CA1585E292E099838883DF9148
:10463000CF910895BF92CF92DF92EF92FF920F93A6
:104640001F93CF93DF93EC01ECB4FDB485E00E949F
:10465000FC225E9888EB0E94840280E00E94840223
:10466000082F88EC0E94840280E00E9484025E9AF7
:10467000182F10951F770F77100F163008F45AC0B7
:104680005E9880E90E94840280E00E948402082FE4
:1046900080E00E94840280E90E94840280E00E94FF
:1046A0008402D82E80E00E948402C82E0D1140C0E2
:1046B00080ED0E94840280E00E948402D82E80E077
:1046C0000E94840280ED0E94840280E00E948402A5
:1046D000B82E80E00E948402DB102AC04C2D50E0EE
:1046E00096E0559547959A95E1F794E0099FB001BA
:1046F0001124462B572B6FEF73E0641B750BA1F051
:10470000282F30E086E0359527958A95E1F784E0FB
:10471000D89EA0011124242B352B2115310521F021
:10472000798B688B3B8B2A8B812F90E09F878E87BC
:104730005E9A02C01F861E86ECBCFDBC81E02E8501
:104740003F85232B09F480E0DF91CF911F910F91DA
:10475000FF90EF90DF90CF90BF9008952F923F92FF
:104760004F925F926F927F928F929F92AF92BF9281
:10477000CF92DF92EF92FF920F931F93CF93DF932D
:10478000CDB7DEB7E0970FB6F894DEBF0FBECDBF52
:104790006C0188E1E5E1F1E0DE01599601900D92AE
:1047A0008A95E1F7C6010E94F9152C01D601ED9119
:1047B000FC910480F581E02D60E070E0C601099570
:1047C0006FEF7FEFC6010E94FD15C6010E941A23FC
:1047D0008111FBCF5E01B9E1AB0EB11C612C712CD4
:1047E0001501F5014481558160817181E12CF12C25
:1047F00002E010E022E030E0C6010E944918D50135
:1048000014964D915C9115976D917C9105E010E0A7
:1048100025E030E0C6010E944918F5014481558128
:1048200060817181E12C38EFF32E0AE010E02AE07C
:1048300030E0C6010E944918C6010E941A2388234D
:1048400081F2430123E0880C991C2A95E1F781E06D
:1048500090E08C0F9D1F880E991ED4015C964D919F
:104860005C915D9758966D917C91599702E010E0AC
:1048700022E030E0C6010E94CA16F60180899189C3
:10488000AA2797FDA095BA2FF40180839183A28374
:10489000B383D60152968D919C915397AA2797FD89
:1048A000A095BA2F84839583A683B78364E670E0CE
:1048B00080E090E00E944C336FEF7FEFC6010E94D2
:1048C000FD15FFEF6F1A7F0A88E0A80EB11C93E078
:1048D0006916710409F085CFAE014F5F5F4FB101DA
:1048E000C6010E942919D601ED91FC910480F58141
:1048F000E02DB201C6010995C6010E941A2381115B
:10490000FBCFE0960FB6F894DEBF0FBECDBFDF91B0
:10491000CF911F910F91FF90EF90DF90CF90BF90BC
:10492000AF909F908F907F906F905F904F903F904F
:104930002F900895862F5F982B982D989CB59F7B7C
:104940009CBD2D9A9CB590649CBD0E9484025F9A88
:1049500008956CE20E949A245F980895CF93DF93A4
:104960001F92CDB7DEB7872F5F982B9A2D989CB5F5
:104970009F7B9CBD2D9A9CB590649CBD69830E94D1
:1049800084022B9A2D989CB59F7B9CBD2D9A9CB53B
:1049900090649CBD6981862F0E9484025F9A0F906B
:1049A000DF91CF910895AF92BF92CF92DF92EF92B5
:1049B000FF920F931F93CF93DF93EC017B016A016A
:1049C00059016AE20E949A24B701CE010E94AE24E6
:1049D000B501CE010E94AE246BE2CE010E949A2462
:1049E000B601CE010E94AE24B801CE01DF91CF9175
:1049F0001F910F91FF90EF90DF90CF90BF90AF90FD
:104A00000C94AE24862F5F982B9A2D989CB59F7B93
:104A10009CBD2D9A9CB590649CBD0E9484025F9AB7
:104A200008950F931F93CF93DF93EC0169307105C5
:104A300019F06A35710571F48AE590E09D838C83E5
:104A400080EF90E09F838E8380E491E09987888750
:104A500018E434C06231710519F0643B710571F4DA
:104A600084EB90E09D838C8380E491E09F838E8330
:104A700080EF90E09987888718E320C06B3171053B
:104A800021F07E7F6E30710571F48EE091E09D83A0
:104A90008C8380EF90E09F838E8380E491E0998700
:104AA000888718E80BC01D821C8280E491E09F83F8
:104AB0008E8380EF90E09987888718EE66E3CE01B9
:104AC0000E949A24612FCE010E940225E881F9817B
:104AD00008851985015011092E813F812150310926
:104AE0000680F781E02D40E050E060E070E0CE010C
:104AF0000995DF91CF911F910F910895CF92DF9289
:104B0000EF92FF920F931F93CF93DF938C015F9AE5
:104B1000289862E370E080E090E00E944C33289A8D
:104B200068E770E080E090E00E944C33E8E6F3E054
:104B3000EF01219684918F3FA9F1982F907C9038B6
:104B4000B1F0903C39F1903411F0FE01F1CF8F7348
:104B5000C82E7F01D82EFFEFEF1AFF0ADD20B9F033
:104B6000F7016491C8010E949A24DA94F4CF8F73FC
:104B7000C82E7F01D82EFFEFEF1AFF0ADD2039F093
:104B8000F7016491C8010E940225DA94F4CFCC0D9C
:104B9000D11DDBCF682F6F7370E080E090E00E9442
:104BA0004C33D3CF60E070E0C801DF91CF911F910B
:104BB0000F91FF90EF90DF90CF900C94FD151F9315
:104BC000CF93DF93EC01162F61E088E00E94373429
:104BD000289861E089E00E94373461E087E00E9414
:104BE000373461E08DE00E94373461E08BE00E9451
:104BF000373460E08CE00E94373429985F9A61E096
:104C000086E00E9437345E9AFE01E05CFF4F10831D
:104C10009CB5937F9CBD9CB59F7D9CBD0E94C72F7A
:104C200085E00E94FC22CE010E947E25812F0E94F9
:104C3000FC226FE770E089E0DF91CF911F910C9427
:104C4000AF3380915D038111DBC1809165038823BF
:104C500071F180917303809172032091710347B1C8
:104C600081E090E0BC0102C0660F771F2A95E2F751
:104C70009B01242B27B926B14091730330E002C079
:104C8000359527954A95E2F720FFF1C020915F0303
:104C90002111EDC021E020935F033091710328B111
:104CA000032E01C0880F0A94EAF7822B88B98091FD
:104CB00066038823D1F180917203209173034091A0
:104CC000710367B181E090E0FC0102C0EE0FFF1FAD
:104CD0002A95E2F79F01FC0102C0EE0FFF1F4A95E3
:104CE000E2F72E2B3F2B262B27B926B140917203DA
:104CF00030E002C0359527954A95E2F720FF28C19C
:104D000020915F03211124C121E020935F033091A2
:104D1000730328B102C0880F991F3A95E2F7809576
:104D2000909530E08223932388B98091640388238F
:104D300009F498C080916F0381115BC081E080937A
:104D40006C03909170039830E1F410926C03109210
:104D5000700310926F0380935E0380916E038093C3
:104D60006D033091710328B181E090E002C0880F9B
:104D7000991F3A95E2F78095909530E0822393232E
:104D800088B980916503882331F080916D0320916B
:104D9000700390E006C080916D032091700390E055
:104DA0002F5F02C0959587952A95E2F730917103A0
:104DB00028B180FF09C081E090E0032E01C0880F78
:104DC0000A94EAF7822B0CC081E090E002C0880FC1
:104DD000991F3A95E2F78095909530E082239323CE
:104DE00088B981E080936F03809170038F5F809317
:104DF000700380916703811103C181E080936B038D
:104E000080916803883061F4109268031092670300
:104E100010926B0380916A038093690310926A0376
:104E200086B12091720390E002C0959587952A95EE
:104E3000E2F780FF0EC03091680320916A0381E0A1
:104E400090E0032E01C0880F0A94EAF7822B80932A
:104E50006A03809168038F5F8093680381E0809389
:104E6000670308951092670310926F03089580916D
:104E70005F03882309F41BCF2091740330917503DD
:104E800080910C0190910D012817390709F042C05B
:104E90008091620390916303892BB1F48091710337
:104EA00048B121E030E0F90102C0EE0FFF1F8A9502
:104EB000E2F7CF018095909550E08423952388B93F
:104EC000309363032093620380915E038823A1F0F3
:104ED00010925F0310925E033091710328B181E05C
:104EE00090E002C0880F991F3A95E2F7809590955F
:104EF00030E08223932388B91092750310927403D3
:104F00008091640391E08927809364031092610388
:104F10001092600380916C03882381F030917303B9
:104F200028B181E090E002C0880F991F3A95E2F71E
:104F30008095909530E08223932388B98091740303
:104F40009091750301969093750380937403AFCE8F
:104F500080915F03882309F447C020917403309146
:104F6000750380910C0190910D012817390791F577
:104F70008091620390916303892BB1F48091730354
:104F800048B121E030E0B90102C0660F771F8A9571
:104F9000E2F7CB018095909550E08423952388B962
:104FA000309363032093620310927503109274038D
:104FB0008091640391E089278093640310926103D8
:104FC0001092600380915E03882321F010925F03AA
:104FD00010925E03809174039091750301969093F3
:104FE000750380937403A1CE3091730328B181E0DF
:104FF00090E0032E01C0880F0A94EAF7822B94CE2A
:10500000089517B818B880937303609372034093A0
:10501000710330930D0120930C0110925D03F894FD
:10502000E0E7F0E08081816080837894089581E0FA
:10503000809366031092650310925B0380935C0378
:10504000089581E0809365031092660380935B036B
:1050500010925C03089581E080935D03089580932E
:105060006E0308958091690308958F929F92AF9285
:10507000BF92CF92DF92EF92FF920F931F93CF9345
:10508000DF93CDB7DEB72B970FB6F894DEBF0FBE18
:10509000CDBF5C019BE0D92E23E0822E912C809124
:1050A00076038F5F80937603E5E4F2E0DE011196EC
:1050B0008D2D01900D928A95E1F763E0CE01019666
:1050C0000E94DE21682F70E083E0C82EE12CF12CD5
:1050D00000E018EF9E012F5F3F4F4FE050E0C50109
:1050E0000E9493180091760310E00E946237B40189
:1050F0000E948836BC016F5F7F4FC8010E948836CE
:10510000CC24C394892B71F400E018EF27E332E03C
:105110004CE350E06FE070E0C5010E9493180E94DC
:1051200021280FC0E12CF12C00E018EF2EE332E033
:105130004CE350E06FE070E0C5010E9493180E94BC
:10514000172884E20E942F2800E010E080910E01D1
:1051500090910F010817190780F40E943228F82E49
:1051600084E20E942F2884E2F81204C081E0809338
:10517000770303C00F5F1F4FE9CF80917703882328
:1051800009F48DCF2B960FB6F894DEBF0FBECDBFBE
:10519000DF91CF911F910F91FF90EF90DF90CF9013
:1051A000BF90AF909F908F9008955F926F927F9283
:1051B0008F929F92AF92BF92CF92DF92EF92FF9227
:1051C0000F931F93CF93DF93CDB7DEB7CC54D109A4
:1051D0000FB6F894DEBF0FBECDBF4C01162F60E0B6
:1051E00070E00E94FD1524E030E041E060E083E0E3
:1051F0000E940128113041F40E941728B12C8BE045
:10520000682E772473940FC0123019F40E9421285D
:10521000F5CFB401CE0101960E940C03CE01019698
:105220000E943528EBCF809184038111F8C00E9441
:105230003228582EEEE6F2E0DE01AE5BBF4F862D3F
:1052400001900D928A95E1F763E0CE018E5B9F4F4E
:105250000E94DE21682F70E0A3E0CA2EE12CF12C21
:1052600000E018EF9E012E5B3F4F4FE050E0C4017D
:105270000E94931862E080E592E00E94DE21682F90
:1052800070E0B2E0CB2E20E532E041E450E0C40112
:105290000E94931812E0A12EC12CD12CE12C08EF12
:1052A000F02E0AE0252D45E550E064E170E0C401F0
:1052B0000E941919BB2009F467C082E40E942F28BC
:1052C0000E943228182FE2E0AE2EC12CD12CE12C06
:1052D000F8EFFF2E0AE0282F45E550E064E170E08A
:1052E000C4010E9419191234C9F470927803809194
:1052F0005C03882349F02FEF81EE94E02150804039
:105300009040E1F700C00000B401CE0101960E9478
:105310000C03CE0101960E94AC054FC0B401CE0132
:1053200001960E940C0378E2E72EF12C08EC10E0C5
:105330002CE830E044E150E06AE572E0CE010196ED
:105340000E944C208111B12CB401CE0101960E9423
:105350000C0368E2E62EF12C08EC10E02FEF30E0B1
:1053600044E150E067EE71E0CE0101960E944C20CE
:10537000882309F49FCF60E070E0C4010E94FD150E
:1053800070928403B11019C0B401CE0101960E943D
:105390000C0358E2E52EF12C08EC10E02CE830E08C
:1053A00044E150E064E672E0CE0101960E944C2098
:1053B000BB24B394811117C015C0B401CE0101966E
:1053C0000E940C0348E2E42EF12C08EC10E02CE8DB
:1053D00030E044E150E06AE572E0CE0101960E94BF
:1053E0004C208111B12CB401CE0101960E940C0316
:1053F00038E2E32EF12C08EC10E02FEF30E044E12E
:1054000050E067EE71E0CE0101960E944C208823A7
:1054100009F409CF60E070E0C4010E94FD15C45B8F
:10542000DF4F0FB6F894DEBF0FBECDBFDF91CF9137
:105430001F910F91FF90EF90DF90CF90BF90AF90B2
:105440009F908F907F906F905F900895AF92BF92E2
:10545000CF92DF92EF92FF920F931F93CF93DF9340
:10546000CDB7DEB7CE54D1090FB6F894DEBF0FBE6C
:10547000CDBF5C0160E070E00E94FD156DE0D62EAE
:1054800080918403811197C0EBE8F2E0DE01AE5B0E
:10549000BF4F8D2D01900D928A95E1F762E0CE010C
:1054A0008E5B9F4F0E94DE21682F70E042E0C42E89
:1054B000E12CF12C00E018EF9E012E5B3F4F4FE0F6
:1054C00050E0C5010E949318B501CE0101960E94DB
:1054D0000C0358E2E52EF12C08EC10E027E330E055
:1054E00044E150E069E772E0CE0101960E944C2051
:1054F000B501882331F0CE0101960E940C0361E0D2
:1055000037C0CE0101960E940C0338E2E32EF12C45
:1055100008EC10E029E630E044E150E062E972E096
:10552000CE0101960E944C20B501882331F0CE01B6
:1055300001960E940C0362E01BC0CE0101960E94FE
:105540000C0328E2E22EF12C08EC10E02BE930E00D
:1055500044E150E060E872E0CE0101960E944C20E8
:10556000882351F0B501CE0101960E940C0360E042
:10557000CE0101960E94D528B501CE0101960E9468
:105580000C0398E2E92EF12C08EC10E02FEF30E04C
:1055900044E150E067EE71E0CE0101960E944C209C
:1055A000882309F46DCF60E070E0C5010E94FD150D
:1055B00081E08093840360E070E0C5010E94FD15E6
:1055C000C25BDF4F0FB6F894DEBF0FBECDBFDF91D9
:1055D000CF911F910F91FF90EF90DF90CF90BF90F0
:1055E000AF90089580917803882361F00E9432285B
:1055F0008695282F30E0C9010A9797FD0196959569
:105600008795089584EC089590917803992329F063
:10561000880F880F8C5E0C942F2808958091780352
:10562000882319F088E50C942F2808958091780339
:10563000882329F00E94322891E0883509F090E013
:10564000892F08958091780381110C942B28089557
:1056500086E893E00E94943062E570E086E893E08B
:105660000E94B83060E470E086E893E00E947D021A
:1056700060E070E086E893E00E947D0286E893E0B7
:105680000E94CD3091E0811190E0892F089562E56C
:1056900070E086E893E00E94B83060E070E086E851
:1056A00093E00E947D0286E893E00E94CD3091E075
:1056B000811190E0892F0895809179030895809158
:1056C0007B03089580917E03882331F081FB992725
:1056D00090F981E08927089580E008951F93CF9382
:1056E000DF93EC0146E050E062E570E086E893E08D
:1056F0000E94AB3010E086E893E00E94FD2F892BDA
:1057000071F086E893E00E940530E12FF0E0E75861
:10571000FC4F27E18227479680831F5FECCFCE01A5
:105720000E94472B81E090917E03911101C080E09F
:10573000DF91CF911F910895AF92BF92CF92EF92D8
:10574000FF920F931F93CF93DF93CDB7DEB7C15472
:10575000D1090FB6F894DEBF0FBECDBF5C0160E08B
:1057600070E00E94FD1563E088E992E00E94DE216E
:10577000682F70E023E0C22EE12CF12C00E018EF3E
:1057800028E932E04FE050E0C5010E949318B501CE
:10579000CE0101960E940C0338E2E32EF12C08ECB6
:1057A00010E02BE430E044E150E06EE972E0CE011D
:1057B00001960E944C20B501882349F0CE01019644
:1057C0000E940C03CE0101960E94530233C0CE0109
:1057D00001960E940C0398E2E92EF12C08EC10E0EF
:1057E00027E830E044E150E06AEA72E0CE01019639
:1057F0000E944C20882321F081E0809383031AC00B
:10580000B501CE0101960E940C0388E2E82EF12C2E
:1058100008EC10E02FEF30E044E150E067E571E084
:10582000CE0101960E944C20882309F49CCF81E090
:1058300080938403CF5BDF4F0FB6F894DEBF0FBEBB
:10584000CDBFDF91CF911F910F91FF90EF90CF903F
:10585000BF90AF9008950C94AB37AF92BF92CF92A8
:10586000EF92FF920F931F93CF93DF93CDB7DEB7E5
:10587000C254D1090FB6F894DEBF0FBECDBF5C0194
:1058800063E087EB92E00E94DE21682F70E083E006
:10589000C82EE12CF12C00E018EF27EB32E04FE0AE
:1058A00050E0C5010E94931840911201B501CE014C
:1058B000019623964FAF23970E940C0300E0239696
:1058C0004FAD2397242F6CE370E0CE0101960E9428
:1058D00017218093120140911001B501CE0101966C
:1058E00023964FAF23970E940C0323964FAD239727
:1058F000042F20E064E670E0CE0101960E9417219B
:105900008093100140911101B501CE0101962396BB
:105910004FAF23970E940C0323964FAD2397E42E9D
:1059200000E020E06CE870E0CE0101960E941721B3
:1059300080931101909110019C7F28E0929F70014B
:10594000112490911201987FF92A86958695869563
:10595000E82A00E410E028E230E044EB50E064E69E
:1059600070E0C5010E94491880911201887F9091D2
:1059700010019C7F28E0929F70011124F82A8091E9
:105980001101869586958695E82A0EEC10E02EE6A4
:1059900030E044EC50E065E670E0C5010E943E173F
:1059A00080911201887F909110019C7F28E0929F46
:1059B00070011124F82A80911101869586958695AB
:1059C000E82A22E830E044EC50E06BE870E0C501E2
:1059D0000E943E1780911201887F909110019C7F58
:1059E00028E0929F70011124F82A80911101869578
:1059F00086958695E82A22E830E04EEC50E06EE687
:105A000070E0C5010E943E1780911201887F90913D
:105A100010019C7F28E0929F70011124F82A809148
:105A20001101869586958695E82A0AED10E022E810
:105A300030E04AED50E06EE670E0C5010E943E178E
:105A400080911201887F909110019C7F28E0929FA5
:105A500070011124F82A809111018695869586950A
:105A6000E82A2EE630E044EE50E065E670E0C5013D
:105A70000E943E1780911201887F909110019C7FB7
:105A800028E0929F70011124F82A809111018695D7
:105A900086958695E82A22E830E044EE50E06BE8EF
:105AA00070E0C5010E943E1780911201887F90919D
:105AB00010019C7F28E0929F70011124F82A8091A8
:105AC0001101869586958695E82A2EE630E04EEC03
:105AD00050E06EE670E0C5010E943E178091120111
