:100000000C9429020C9451020C9451020C9451024C
:100010000C9451020C9451020C9451020C94510214
:100020000C9451020C943A0A0C9451020C94510213
:100030000C9451020C9451020C9451020C945102F4
:100040000C943E0F0C9451020C9451020C945102EA
:100050000C9451020C9451020C9451020C945102D4
:100060000C94110E0C9451020000000000000000DE
:1000700030787830300030006C6C6C00000000008C
:100080006C6CFE6CFE6C6C00307CC0780CF8300040
:1000900000C6CC183066C600386C3876DCCC7600EA
:1000A0006060C00000000000183060606030180020
:1000B000603018181830600000663CFF3C66000095
:1000C000003030FC30300000000000000070306074
:1000D000000000FC000000000000000000303000C4
:1000E000060C183060C0800078CCDCFCECCC7800CA
:1000F00030F030303030FC0078CC0C3860CCFC0074
:1001000078CC0C380CCC78001C3C6CCCFE0C0C0071
:10011000FCC0F80C0CCC78003860C0F8CCCC78006F
:10012000FCCC0C183060600078CCCC78CCCC78005B
:1001300078CCCC7C0C1870000000303000303000DF
:100140000000303000703060183060C0603018003F
:100150000000FC00FC0000006030180C183060004B
:1001600078CC0C18300030007CC6DEDEDEC07800B3
:100170003078CCCCFCCCCC00FC66667C6666FC009F
:100180003C66C0C0C0663C00FC6C6666666CFC00E9
:10019000FE6268786862FE00FE6268786860F0005F
:1001A0003C66C0C0CE663E00CCCCCCFCCCCCCC00F7
:1001B00078303030303078001E0C0C0CCCCC78000D
:1001C000E6666C786C66E600F06060606266FE0071
:1001D000C6EEFED6C6C6C600C6E6F6DECEC6C6006B
:1001E000386CC6C6C66C3800FC66667C6060F00081
:1001F00078CCCCCCDC781C00FC66667C786CE600A5
:1002000078CCE0381CCC7800FCB43030303078004A
:10021000CCCCCCCCCCCCFC00CCCCCCCCCC78300076
:10022000C6C6C6D6FEEEC600C6C66C386CC6C600CC
:10023000CCCCCC7830307800FECC983062C6FE0052
:100240007860606060607800C06030180C06020062
:10025000781818181818780010386CC600000000BC
:1002600000000000000000FF303018000000000017
:100270000000780C7CCC7600E0607C666666BC0092
:10028000000078CCC0CC78001C0C0C7CCCCC760068
:10029000000078CCFCC07800386C60F06060F00042
:1002A000000076CCCC7C0CF8E0606C766666E600EC
:1002B0003000703030307800180078181818D87076
:1002C000E060666C786CE60070303030303078007A
:1002D0000000ECFED6C6C6000000F8CCCCCCCC00AA
:1002E000000078CCCCCC78000000DC66667C60F046
:1002F000000076CCCC7C0C1E0000D86C6C60F0004A
:1003000000007CC0780CF80010307C3030341800CD
:100310000000CCCCCCCC76000000CCCCCC7830002B
:100320000000C6C6D6FE6C000000C66C386CC60065
:100330000000CCCCCC7C0CF80000FC983064FC00B5
:100340001C3030E030301C00181818001818180045
:10035000E030301C3030E00076DC000000000000AF
:1003600010386CC6C6C6FE004128D441CF83008336
:100370003041ED846403128141E88385017941CBEA
:1003800085392C00340241F7812041EA8200004186
:10039000C0812641C1811141C582353E41C781BE20
:1003A00041B182001B41F281084126810141E08F69
:1003B0001F1A180A0F064587320A0702070500416F
:1003C000E18F0025270510093A784D05180D383AB8
:1003D0001F41B6840A82270041B78107413A8155FF
:1003E000413681E8412A82000082013F412B820090
:1003F000008200EF4111FCFC4129D4FFFF00000006
:1004000008000201000003040700000000000000D3
:10041000000102040810204080010204081020019D
:100420000204081020040404040404040402020268
:100430000202020303030303030000000025002857
:10044000002B0000000000240027002A0000040CFC
:100450002F0D11241FBECFEFD8E0DEBFCDBF11E0BE
:10046000A0E0B1E0ECE4F3E202C005900D92A63901
:10047000B107D9F722E0A6E9B1E001C01D92AF3A79
:10048000B207E1F714E0C2E5D4E004C02297FE0110
:100490000E945011CE34D107C9F70E947F0A0C94F4
:1004A000A4110C9400008EBD00000DB407FEFDCF1A
:1004B0008EB50895DC01ED91FC910190F081E02D65
:1004C00009942F923F924F925F926F927F928F92F8
:1004D0009F92AF92BF92CF92DF92EF92FF920F93D3
:1004E0001F93CF93DF9300D01F92CDB7DEB79B83CE
:1004F0008A83380188E0280250011124D501A859C7
:10050000B0405D01BC2DBF77CB2EEA81FB81868197
:100510009781F1E0FB1708F462C06B0128E0C20E7E
:10052000D11C8C159D050CF46DC0AA81BB81189659
:100530002D913C911997FA0138962E173F070CF42C
:1005400061C0AA81BB81ED91FC9111978A01095F7D
:100550001F4F9B01295F3F4F0680F781E02DCD01A2
:100560000995AA81BB81ED91FC9111970084F185D9
:10057000E02DCD0109958501085F1F4FF5015490CD
:10058000FFEFAF1ABF0A98E0892E912C20E8422E87
:10059000AA81BB81ED91FC911197842D8521028464
:1005A000F385E02D882319F0B301CD0103C0B70115
:1005B0008A819B8109954694B1E08B1A910841F795
:1005C000A016B106D9F6AA81BB81ED91FC911197D5
:1005D0000484F585E02DCD010995C60175C0B8E00C
:1005E000CB9E800111244B01800E911E8815990528
:1005F0004CF0040F151FEA81FB81208531852017FF
:10060000310714F4019660C0AA81BB81ED91FC9181
:100610001197015011090680F781E02D94012150B6
:100620003109CD010995AA81BB81ED91FC9111970A
:100630000084F185E02DCD0109952501B8E04B0E30
:10064000511CF501D490FFEFAF1ABF0A2C2C08E023
:1006500010E080E8382E832D8D212C2DA1F0AA8169
:10066000BB81ED91FC9111970284F385E02DB301DC
:10067000CD01298309952981215089F736940150AC
:10068000110949F710C0AA81BB81ED91FC91119726
:100690000284F385E02DB701CD01298309952981D5
:1006A000215089F7EBCF2A9491F6A414B50409F0F0
:1006B000C8CFAA81BB81ED91FC9111970484F58587
:1006C000E02DCD010995C4010F900F900F90DF919F
:1006D000CF911F910F91FF90EF90DF90CF90BF903F
:1006E000AF909F908F907F906F905F904F903F90D2
:1006F0002F900895CF92EF92FF920F931F93DC01FA
:10070000ED91FC910684F785E02D09951F910F91DD
:10071000FF90EF90CF900895CF92EF92FF920F93BA
:100720001F93CF93DF93EC01262F6A3081F48EADB7
:100730009FAD9BAF8AAF2CA92F778CAD9DAD38E0D4
:10074000239F800D911D11249DAF8CAF47C0862F34
:100750008B7F893009F442C06AAD7BAD203219F439
:1007600061157105D9F1E881F981E8ACF9AC0EA900
:100770001FA94CAD5DAD0088F189E02DCCA8CE015C
:1007800009959BAF8AAF2DA9222341F14CA94F7740
:10079000642F70E028EF2403A00111242E813F81F3
:1007A000240F351F28173907CCF48EAD9FAD9BAFB2
:1007B0008AAFCB0133E0880F991F3A95E1F72CAD52
:1007C0003DAD820F931F9DAF8CAF28853985240FD7
:1007D000351F2817390714F41DAE1CAE81E090E0D8
:1007E000DF91CF911F910F91FF90EF90CF900895DF
:1007F000FC01138212828AE091E09183808315824A
:1008000014827783668351874087178616861586FC
:10081000148613861286178A168A158A148A138AF2
:10082000128A118A108A10AA11AA12AA13AA81E0A8
:1008300084AB85AB17AA16AA8FEF9FEF91AF80AF5D
:1008400017AE16AE15AE14AE13AE12AE0895AF923B
:10085000BF92CF92DF92EF92FF920F931F93CF93AD
:10086000DF93EC015B01E881F9810885198501506E
:1008700011092E813F81215031090680F781E02D39
:1008800040E050E060E070E00995E881F981008483
:10089000F185E02DCE010995AE81BF81288539858E
:1008A0000E9430116B017C0143E0F694E794D794E9
:1008B000C7944A95D1F7E881F981C114D104E104C4
:1008C000F10409F444C00284F385E02DB501CE01A2
:1008D0000995E881F9810284F385E02DB501CE0107
:1008E0000995E881F9810284F385E02DB501CE01F7
:1008F0000995E881F9810284F385E02DB501CE01E7
:100900000995E881F9810284F385E02DB501CE01D6
:100910000995E881F9810284F385E02DB501CE01C6
:100920000995E881F9810284F385E02DB501CE01B6
:100930000995E881F9810284F385E02DB501CE01A6
:10094000099581E0C81AD108E108F108B4CF048400
:10095000F585E02DCE01DF91CF911F910F91FF9092
:10096000EF90DF90CF90BF90AF900994EF92FF92FD
:100970000F931F93CF93DF93EC0179018E819F81B9
:100980006817790754F588859985481759072CF514
:10099000E881F9810680F781E02D8A019B01CE0173
:1009A0000995E881F9810084F185E02DCE01099552
:1009B000E881F9810284F385E02DB701CE01099524
:1009C000E881F9810484F585E02DCE01DF91CF9196
:1009D0001F910F91FF90EF900994DF91CF911F919C
:1009E0000F91FF90EF9008958F929F92AF92BF92D8
:1009F000CF92DF92EF92FF920F931F93CF93DF93EB
:100A0000EC016901480157012E813F81621773078C
:100A10001CF0B901615071098885998548175907FB
:100A20001CF0AC0141505109FB01EC0DFD1DE2171A
:100A3000F3071CF06901C61AD70A9A01280D391D5F
:100A4000281739071CF04C01841A950AE881F981AE
:100A50008A01080D191D015011099B012C0D3D1D26
:100A6000215031090680F781E02DCE010995E881FA
:100A7000F9810084F185E02DCE0109959401D6011C
:100A80000E9430116B017C01E881F981C114D1040D
:100A9000E104F10461F00284F385E02DB501CE019B
:100AA000099581E0C81AD108E108F108EDCF048466
:100AB000F585E02DCE01DF91CF911F910F91FF9031
:100AC000EF90DF90CF90BF90AF909F908F90099460
:100AD0002F923F924F925F926F927F928F929F924E
:100AE000AF92BF92CF92DF92EF92FF920F931F933C
:100AF000CF93DF93CDB7DEB728970FB6F894DEBF5C
:100B00000FBECDBF4C016B0158874F83590162174F
:100B10007307A1F40417150744F404271527402789
:100B2000512758874F83042715272F813885021BAB
:100B3000130B0F5F1F4F21E030E015C04F81588528
:100B400040175107B9F42617370734F4A626B726FD
:100B5000CA24DB24AC24BD2495012C193D092F5F48
:100B60003F4F01E010E04F815885B601C4010E945B
:100B7000F404A0C0FC01268137816217730724F0BA
:100B80006901F1E0CF1AD108F401808591854F8188
:100B900058854817590724F0FC013197F887EF83EF
:100BA000A216B30624F05901F1E0AF1AB1080817F4
:100BB00019071CF08C010150110935016C187D08D2
:100BC00028012F813885421A530A77FE08C0719494
:100BD000619471084FEF5FEF5A83498304C081E04D
:100BE00090E09A83898357FE08C05194419451083C
:100BF000EFEFFFEFFC83EB8304C021E030E03C83A8
:100C00002B83A301440F551F5E834D831201220CD9
:100C1000331C97014F815885B601C4010E94B60468
:100C2000461457041CF5810106191709CA14DB0480
:100C300009F440C017FD0CC08F819885EB81FC81C1
:100C40008E0F9F1F98878F832D813E81021B130B70
:100C500049815A81C40ED51E020D131D97014F8183
:100C60005885B601C4010E94B604E0CFAD80BE80B5
:100C7000A418B5088F81988580179107D9F0B7FC23
:100C800006C089819A81C80ED91EA218B308EF81C7
:100C9000F8852B813C81E20FF31FF887EF834D81AC
:100CA0005E81A40EB51E9701AF01B601C4010E947A
:100CB000B604E0CF28960FB6F894DEBF0FBECDBFC6
:100CC000DF91CF911F910F91FF90EF90DF90CF9028
:100CD000BF90AF909F908F907F906F905F904F905C
:100CE0003F902F9008952F923F924F925F926F9274
:100CF0007F928F929F92AF92BF92CF92DF92EF92AC
:100D0000FF920F931F93CF93DF9300D000D000D0BA
:100D1000CDB7DEB75C011B012A013E832D8348015C
:100D20006901D194C194D108612C712C2D813E812F
:100D3000261537050CF455C0A301440D551D74014B
:100D40008A012D813E81220D331D3A832983B10111
:100D50008D819E81681B790B7C836B83C5010E940A
:100D60006805A201461957098A0129813A816B81D8
:100D70007C81C5010E946805F301E20DF31DFC832F
:100D8000EB839101261937093A8329834D815E81CE
:100D9000440D551D8A019F0169817A81C5010E9418
:100DA0006805A2016D817E81461B570B8A012B814C
:100DB0003C8169817A81C5010E946805C301019661
:100DC000C60CD71CC80ED91ED7FC09C0ED81FE8108
:100DD0003197FE83ED83CE1ADF0ACE1ADF0A3C017B
:100DE000A5CF26960FB6F894DEBF0FBECDBFDF911C
:100DF000CF911F910F91FF90EF90DF90CF90BF9018
:100E0000AF909F908F907F906F905F904F903F90AA
:100E10002F9008954F925F926F927F928F929F9240
:100E2000AF92BF92CF92DF92EF92FF920F931F93F8
:100E3000CF93DF935C01CB014A0138012701DC2C01
:100E4000E9012991222399F0D501ED91FC910684C5
:100E5000F785E02DCD2C72018301A401BC01C501F1
:100E60000995F501268137812817390754F7DF9155
:100E7000CF911F910F91FF90EF90DF90CF90BF9097
:100E8000AF909F908F907F906F905F904F9008955C
:100E90002F923F924F925F926F927F928F929F928A
:100EA000AF92CF92DF92EF92FF920F931F93CF9367
:100EB000DF93CDB7DEB761970FB6F894DEBF0FBEF4
:100EC000CDBF4C013B012A01C90117017601CA2C93
:100ED000402F50E0BE016F5F7F4F0E94591181018A
:100EE0009E012F5F3F4FA201B301C4010E940A0778
:100EF00061960FB6F894DEBF0FBECDBFDF91CF91E4
:100F00001F910F91FF90EF90DF90CF90AF909F9047
:100F10008F907F906F905F904F903F902F900895AB
:100F20002F923F924F925F926F927F928F929F92F9
:100F3000AF92CF92DF92EF92FF920F931F93CF93D6
:100F4000DF93CDB7DEB761970FB6F894DEBF0FBE63
:100F5000CDBF4C013B012A01C90117017601CA2C02
:100F6000402F50E0BE016F5F7F4F0E946F118101E3
:100F70009E012F5F3F4FA201B301C4010E940A07E7
:100F800061960FB6F894DEBF0FBECDBFDF91CF9153
:100F90001F910F91FF90EF90DF90CF90AF909F90B7
:100FA0008F907F906F905F904F903F902F9008951B
:100FB000AF92CF92DF92EF92FF920F9330E00E94B8
:100FC00090070F91FF90EF90DF90CF90AF90089532
:100FD0005F9A0895CF93DF931F92CDB7DEB7872F27
:100FE0002B9A2D989CB59F7B9CBD2D9A9CB59064A7
:100FF0009CBD69830E9453022B9A2D989CB59F7BC0
:101000009CBD2D9A9CB590649CBD6981862F0F90E4
:10101000DF91CF910C9453022CB5982F93702C7FB5
:10102000922B9CBD9DB582FB882780F99E7F982BD3
:101030009DBD0895CF93DF93EC0140EF50E060E455
:1010400071E00E94F80380E291E099838883DF9148
:10105000CF910895862F5F982B982D989CB59F7BF4
:101060009CBD2D9A9CB590649CBD0E9453025F9AD2
:1010700008956CE20E942A085F980895CF93DF9349
:101080001F92CDB7DEB7872F5F982B9A2D989CB50E
:101090009F7B9CBD2D9A9CB590649CBD69830E94EA
:1010A00053022B9A2D989CB59F7B9CBD2D9A9CB585
:1010B00090649CBD6981862F0E9453025F9A0F90B5
:1010C000DF91CF910895AF92BF92CF92DF92EF92CE
:1010D000FF920F931F93CF93DF93EC017B016A0183
:1010E00059016AE20E942A08B701CE010E943E0817
:1010F000B501CE010E943E086BE2CE010E942A0893
:10110000B601CE010E943E08B801CE01DF91CF9119
:101110001F910F91FF90EF90DF90CF90BF90AF9015
:101120000C943E08862F5F982B9A2D989CB59F7B38
:101130009CBD2D9A9CB590649CBD0E9453025F9A01
:1011400008950F931F93CF93DF93EC0169307105DE
:1011500019F06A35710571F48AE590E09D838C83FE
:1011600080EF90E09F838E8380E491E09987888769
:1011700018E434C06231710519F0643B710571F4F3
:1011800084EB90E09D838C8380E491E09F838E8349
:1011900080EF90E09987888718E320C06B31710554
:1011A00021F07E7F6E30710571F48EE091E09D83B9
:1011B0008C8380EF90E09F838E8380E491E0998719
:1011C000888718E80BC01D821C8280E491E09F8311
:1011D0008E8380EF90E09987888718EE66E3CE01D2
:1011E0000E942A08612FCE010E949208E881F981AD
:1011F00008851985015011092E813F81215031093F
:101200000680F781E02D40E050E060E070E0CE0124
:101210000995DF91CF911F910F910895CF92DF92A1
:10122000EF92FF920F931F93CF93DF938C015F9AFE
:10123000289862E370E080E090E00E94AB0F289A6B
:1012400068E770E080E090E00E94AB0FE8E6F3E032
:10125000EF01219684918F3FA9F1982F907C9038CF
:10126000B1F0903C39F1903411F0FE01F1CF8F7361
:10127000C82E7F01D82EFFEFEF1AFF0ADD20B9F04C
:10128000F7016491C8010E942A08DA94F4CF8F73A1
:10129000C82E7F01D82EFFEFEF1AFF0ADD2039F0AC
:1012A000F7016491C8010E949208DA94F4CFCC0D42
:1012B000D11DDBCF682F6F7370E080E090E00E945B
:1012C000AB0FD3CF60E070E0C801DF91CF911F91E9
:1012D0000F91FF90EF90DF90CF900C9427041F9315
:1012E000CF93DF93EC01162F61E088E00E94961007
:1012F000289861E089E00E94961061E087E00E94F2
:10130000961061E08DE00E94961061E08BE00E94F3
:10131000961060E08CE00E94961029985F9A61E038
:1013200086E00E9496105E9AFE01E05CFF4F1083FB
:101330009CB5937F9CBD9CB59F7D9CBD0E94260C57
:1013400085E00E940C08CE010E940E09812F0E94A8
:101350000C086FE770E089E0DF91CF911F910C944A
:101360000E1060E00C946F0986EE91E00E94F30C81
:1013700062E570E086EE91E00E94170D60E470E097
:1013800086EE91E00E945A0260E070E086EE91E005
:101390000E945A0286EE91E00E942C0D91E081118C
:1013A00090E0892F089562E570E086EE91E00E945A
:1013B000170D60E070E086EE91E00E945A0286EE22
:1013C00091E00E942C0D91E0811190E0892F089509
:1013D00080919601089580919701089580919801D8
:1013E000089580919901089580919A0108958091BE
:1013F0009B01882331F081FB992790F981E08927AF
:10140000089580E0089580919B01882319F08095CC
:101410008170089580E008951F93CF93DF93EC01CE
:1014200046E050E062E570E086EE91E00E940A0D31
:1014300010E086EE91E00E945C0C892B71F086EE44
:1014400091E00E94640CE12FF0E0EA56FE4F27E1A4
:101450008227479680831F5FECCFCE010E94D3097D
:1014600081E090919B01911101C080E0DF91CF91CB
:101470001F9108951F920F920FB60F9211242F9370
:101480008F939F93AF93BF9380919C0190919D0107
:10149000A0919E01B0919F018931954FA105B105A1
:1014A0008CF08091A0019091A10101969093A101EF
:1014B0008093A00110929C0110929D0110929E01B8
:1014C00010929F0180919C0190919D01A0919E019D
:1014D000B0919F010196A11DB11D80939C01909335
:1014E0009D01A0939E01B0939F01BF91AF919F91E9
:1014F0008F912F910F900FBE0F901F9018950E9403
:10150000D30F83EA91E00E94B1096FEF7FEF83EA86
:1015100091E00E94270484EE91E00E94080C62E3AF
:1015200071E084EE91E00E94190C82EA91E00E9441
:10153000B4091092B0001092B100809170008160E7
:101540008093700081E08093B1007894B12CD0E05A
:10155000812C912CCC24C394EE24EA94FE2C00E040
:1015600010E022E531E04AE050E060E070E083EA1C
:1015700091E00E940A072091A0013091A101AA24C4
:10158000A394CC24CA94DC2CE12CF12C0AE04AE090
:1015900050E06EE170E083EA91E00E94480782EA41
:1015A00091E00E940C0A8823A9F282EA91E00E944D
:1015B000E809782E82EA91E00E94EB09C82F00EF3B
:1015C00010E02BEE30E040E050E06BEE70E083EA9C
:1015D00091E00E946805CC24C394EE24EA94FE2C8A
:1015E00000E010E027E531E04AE050E060EF70E015
:1015F00083EA91E00E940A072CE531E044E150E0E3
:1016000060EF70E083EA91E00E940A07CC24CA945C
:10161000DC2CE12CF12C0AE0272D44E150E068E1BC
:1016200071E083EA91E00E94D807CC24C394EE24B1
:10163000EA94FE2C00E010E022E631E04EE150E0BA
:1016400060EF70E083EA91E00E940A07CC24CA941C
:10165000DC2CE12CF12C0AE02C2F4EE150E068E16B
:1016600071E083EA91E00E94D807CC24C394EE2471
:10167000EA94FE2C00E010E028E631E048E250E079
:1016800060EF70E083EA91E00E940A0782EA91E04D
:101690000E94EE09CC24CA94DC2CE12CF12C0AE047
:1016A000282F48E250E068E171E083EA91E00E946F
:1016B000D807CC24C394EE24EA94FE2C00E010E07A
:1016C0002EE631E042E350E060EF70E083EA91E023
:1016D0000E940A0782EA91E00E94F109CC24CA9490
:1016E000DC2CE12CF12C0AE0282F42E350E068E1E9
:1016F00071E083EA91E00E94D807CC24C394EE24E1
:10170000EA94FE2C00E010E024E731E04CE350E0E6
:1017100060EF70E083EA91E00E940A0782EA91E0BC
:101720000E94F409CC24CA94DC2CE12CF12C0AE0B0
:10173000282F4CE350E068E171E083EA91E00E94D9
:10174000D807CC24C394EE24EA94FE2C00E010E0E9
:101750002AE731E046E450E060EF70E083EA91E090
:101760000E940A0782EA91E00E94F709CC24CA94F9
:10177000DC2CE12CF12C0AE0282F46E450E068E153
:1017800071E083EA91E00E94D807CC24C394EE2450
:10179000EA94FE2C00E010E020E831E040E550E063
:1017A00060EF70E083EA91E00E940A0782EA91E02C
:1017B0000E94030ACC24CA94DC2CE12CF12C0AE010
:1017C000282F40E550E068E171E083EA91E00E9453
:1017D000D8070FEF1FEF24E030E04B2D5D2FB40151
:1017E00083EA91E00E947306D0E0E72CF12C00E040
:1017F00018EF24E030E0AE01B70183EA91E00E94E7
:1018000073064701BC2EA6CE83EA91E00C941A0819
:101810001092C50080E18093C400E0ECF0E080818C
:101820008260808388E18093C10086E08093C2005B
:101830000895FB018191BF0118163CF49091C000FE
:1018400095FFFCCF8093C600F4CF0895CF93CFB718
:10185000F8948091E501811127C0EFE2F4E08491D2
:10186000EBE1F4E09491E82FF0E0EE0FFF1FED5B69
:10187000FB4FA591B4918C91892321F461E08AE01A
:101880000E94CF1061E08AE00E9496108CB58061C2
:101890008CBD8CB580648CBD61E08DE00E9496109B
:1018A00061E08BE00E9496108091E5018F5F80934C
:1018B000E501CFBFCF9108958091160290E020916D
:1018C0001702821B91090895209117028091160238
:1018D000281750F4E22FF0E0E85EFD4F808190E0A1
:1018E0002F5F2093170208958FEF9FEF0895E091E7
:1018F000170280911602E81730F4F0E0E85EFD4F21
:10190000808190E008958FEF9FEF08950895CF9222
:10191000DF92EF92FF920F931F93CF93DF937C019F
:10192000CB018A012091F201222389F0EB016B01A6
:10193000C40ED51ECC15DD0569F06991D701ED9176
:10194000FC910190F081E02DC7010995F3CF642F40
:101950000E94E80DC801DF91CF911F910F91FF9078
:10196000EF90DF90CF900895CF93DF931F92CDB784
:10197000DEB769832091F2012223D1F02091F30197
:10198000203240F021E030E0FC013383228380E00C
:1019900090E015C08091F401E82FF0E0EB50FE4F8D
:1019A000998190838F5F8093F4018093F30105C048
:1019B00061E0CE0101960E94E80D81E090E00F9079
:1019C000DF91CF910895FC011382128248EE53E01B
:1019D00060E070E044835583668377838AE891E012
:1019E000918380830895109217021092160210922C
:1019F000F4011092F3010C94330D862F413208F05C
:101A000040E268E172E00E94510D1092170280934B
:101A10001602089521E00C94FD0C81E08093F20100
:101A2000609315021092F4011092F30108950C9442
:101A30000D0D0F93062F21E04091F30165EF71E04A
:101A4000809115020E94950D1092F4011092F301FD
:101A50001092F2010F91089561E00C94190D86EE39
:101A600091E00C94E30C1092A50281E08093A30214
:101A70001092A20261E082E10E94CF1061E083E156
:101A80000E94CF10E9EBF0E080818E7F808380811F
:101A90008D7F808388E48093B80085E48093BC00C8
:101AA0000895413208F03FC09091A5029111FCCFFA
:101AB00091E09093A5022093A3022FEF2093380288
:101AC00010927D02240F20937C029093A4029091A7
:101AD000A402880F892B8093A4028091A2028130F6
:101AE00041F41092A2028091A4028093BB0085EC85
:101AF00001C085EE8093BC008091A5028130E1F3A6
:101B000080917D02841710F440917D022EE732E02F
:101B1000FB01D9018A2F821B841718F48D918193C0
:101B2000F9CF842F089580E008950F93413208F093
:101B300046C09091A5029111FCCF92E09093A5022E
:101B40000093A3029FEF9093380210927D0240937E
:101B50007C02FB016EE772E0DB019A2F961B941763
:101B600018F491919D93F9CF1092A4029091A40240
:101B7000880F892B8093A4028091A202813041F4C6
:101B80001092A2028091A4028093BB0085EC01C058
:101B900085EE8093BC00222321F08091A502823043
:101BA000E1F3809138028F3F61F0809138028032FA
:101BB00051F080913802803341F483E007C081E026
:101BC00005C080E003C082E001C084E00F91089569
:101BD000613298F42091A502243089F460935A026E
:101BE000FC018CE592E0DC012A2F281B261718F453
:101BF00021912D93F9CF80E0089581E0089582E04E
:101C0000089585ED8093BC008091BC0084FDFCCFDD
:101C10001092A502089585EC8093BC001092A50255
:101C200008951F920F920FB60F9211242F933F9396
:101C30004F935F936F937F938F939F93AF93BF93D4
:101C4000EF93FF938091B900887F803609F49CC0A0
:101C500068F5883209F45BC090F4803109F454C00F
:101C600038F4882309F4F5C0883009F44DC0F5C074
:101C7000883109F44CC0803209F45DC0EEC0803474
:101C800009F468C048F4803309F455C0883309F07A
:101C9000E4C080933802A8C0803509F44FC088356D
:101CA00009F45DC0883409F0D8C0D5C0883909F47A
:101CB000C6C0A8F4883709F467C038F4883609F438
:101CC00063C0803709F460C0C8C0883809F4B7C061
:101CD000803909F45FC0803809F0BFC05BC0803B29
:101CE00009F485C038F4803A09F466C0883A09F4EA
:101CF0007EC0B3C0803C09F4A6C0883C09F4A3C0F0
:101D0000883B09F489C0A9C08091A40210C09091B9
:101D10007D0280917C02981770F5E0917D0281E050
:101D20008E0F80937D02F0E0E258FD4F808180931A
:101D3000BB0085EC85C0809338028DC0E0917D02A8
:101D400081E08E0F80937D028091BB00F0E0E2582D
:101D5000FD4F808390917D0280917C026DC0E09167
:101D60007D0281E08E0F80937D028091BB00F0E0C8
:101D7000E258FD4F80838091A30281116CC081E005
:101D80008093A20284EA60C083E08093A50210924F
:101D90003902CFCF80913902803208F050C0E091F3
:101DA000390281E08E0F809339028091BB00F0E010
:101DB000E65CFD4F8083BDCF80913902803230F4E4
:101DC000E0913902F0E0E65CFD4F10820E94010EC6
:101DD0006091390270E0E0919E02F0919F028AE3E7
:101DE00092E00995109239020E940B0E36C084E0F1
:101DF0008093A50210925B0210925A02E091A00219
:101E0000F091A102099580915A02811105C081E0EB
:101E100080935A0210925C02E0915B0281E08E0F87
:101E200080935B02F0E0E45AFD4F80818093BB0019
:101E300090915B0280915A02981708F47ACF85E856
:101E40008093BC000AC085EC8093BC001092A50270
:101E500004C0109238020E94010EFF91EF91BF91D1
:101E6000AF919F918F917F916F915F914F913F9132
:101E70002F910F900FBE0F901F9018951F920F92E9
:101E80000FB60F9211242F933F938F939F93AF938D
:101E9000BF938091A7029091A802A091A902B0914E
:101EA000AA023091A60223E0230F2D3720F40196D9
:101EB000A11DB11D05C026E8230F0296A11DB11D6D
:101EC0002093A6028093A7029093A802A093A90250
:101ED000B093AA028091AB029091AC02A091AD02A6
:101EE000B091AE020196A11DB11D8093AB029093FB
:101EF000AC02A093AD02B093AE02BF91AF919F919F
:101F00008F913F912F910F900FBE0F901F901895BA
:101F10003FB7F8948091AB029091AC02A091AD02D2
:101F2000B091AE0226B5A89B05C02F3F19F00196CF
:101F3000A11DB11D3FBF6627782F892F9A2F620FF1
:101F4000711D811D911D42E0660F771F881F991F2B
:101F50004A95D1F70895CF92DF92EF92FF92CF93F7
:101F6000DF936B017C010E94880FEB01C114D10447
:101F7000E104F10489F00E942F110E94880F6C1B6C
:101F80007D0B683E734090F381E0C81AD108E108E8
:101F9000F108C851DC4FEACFDF91CF91FF90EF906D
:101FA000DF90CF900895789484B5826084BD84B525
:101FB000816084BD85B5826085BD85B5816085BD44
:101FC000EEE6F0E0808181608083E1E8F0E010825D
:101FD000808182608083808181608083E0E8F0E09E
:101FE000808181608083E1EBF0E080818460808388
:101FF000E0EBF0E0808181608083EAE7F0E08081BF
:10200000846080838081826080838081816080831E
:102010008081806880831092C10008951F93CF93C0
:10202000DF93182FEB0161E00E949610209711F4C6
:1020300060E004C0CF3FD10539F461E0812FDF912A
:10204000CF911F910C94CF10E12FF0E0E350FC4FA3
:10205000E491E330F9F048F4E130B9F0E230A1F571
:1020600084B5806284BDC8BD34C0E730E9F0E83093
:1020700019F1E43049F580918000806280938000FE
:10208000D0938B00C0938A0024C084B5806884BD3F
:10209000C7BD1FC080918000806880938000D0936E
:1020A0008900C093880015C08091B000806880933B
:1020B000B000C093B3000DC08091B00080628093E7
:1020C000B000C093B40005C0C038D1050CF0B5CF46
:1020D000AFCFDF91CF911F910895833081F028F425
:1020E000813099F08230A1F008958730A9F08830CE
:1020F000B9F08430D1F4809180008F7D03C080914D
:1021000080008F7780938000089584B58F7702C018
:1021100084B58F7D84BD08958091B0008F7703C012
:102120008091B0008F7D8093B0000895CF93DF93AE
:1021300090E0FC01EF5EFB4F2491FC01EB5DFB4F57
:102140008491882349F190E0880F991FFC01ED5B91
:10215000FB4FA591B491875C9B4FFC01C591D49135
:102160009FB7611108C0F8948C91209582238C93BD
:10217000888182230AC0623051F4F8948C91322F06
:10218000309583238C938881822B888304C0F894B4
:102190008C91822B8C939FBFDF91CF9108950F93E9
:1021A0001F93CF93DF931F92CDB7DEB7282F30E078
:1021B000F901E350FC4F8491F901EF5EFB4F14915C
:1021C000F901EB5DFB4F04910023C9F0882321F056
:1021D00069830E946D106981E02FF0E0EE0FFF1F10
:1021E000E75CFB4FA591B4919FB7F8948C91611176
:1021F00003C01095812301C0812B8C939FBF0F904A
:10220000DF91CF911F910F9108950E945411CF92A9
:10221000DF92EF92FF920F931F93CF93DF936C01A6
:102220007A01EB01E60EF71E00E010E0CE15DF05A7
:1022300061F06991D601ED91FC910190F081E02D62
:10224000C6010995080F191FF1CFC801DF91CF9181
:102250001F910F91FF90EF90DF90CF900895089518
:102260000E943811332312F48A1B9B0B0C944911E2
:10227000A29FB001B39FC001A39F700D811D1124C7
:10228000911DB29F700D811D1124911D08950E9412
:102290003811B7FF0895821B930B0895EE0FFF1FAF
:1022A0000590F491E02D099481E090E0F8940C946D
:1022B000A4114532510520F4423010F00C94641101
:1022C000FB011082CB010895BB274A3031F49923DA
:1022D00022F4BDE2909581959F4F0C947B1145327D
:1022E000510520F4423010F00C947A11FB01108259
:1022F000CB010895BB27FB015527AA27880F991FFB
:10230000AA1FA41710F0A41B83955051B9F7A05D24
:10231000AA3308F0A95DA193009779F7B111B193A1
:102320001192CB010C949411DC01FC01672F719187
:102330007723E1F7329704C07C916D9370836291AB
:0C234000AE17BF07C8F30895F894FFCF54
:10234C000000AF028000000000008C030711051193
:10235C00051105110511051161027A030000000039
:10236C008C030711A10863083908EA07E807610222
:10237C007A0353756363657366756C6C7920696E4B
:10238C00697469616C6973656420555341525420BA
:10239C000A00534543200044415441004A6F795888
:1023AC003A004A6F79593A00416363583A004163E5
:1023BC0063593A004163635A3A00427574433A00D8
:1023CC004275745A3A0000000000B40C870C5C0C87
:0623DC00640C770C860C76
:00000001FF
