:100000000C9429020C9451020C9451020C9451024C
:100010000C9451020C9451020C9451020C94510214
:100020000C9451020C94490A0C9451020C94510204
:100030000C9451020C9451020C9451020C945102F4
:100040000C94FA0F0C9451020C9451020C9451022E
:100050000C9451020C9451020C9451020C945102D4
:100060000C94CD0E0C945102000000000000000022
:1000700030787830300030006C6C6C00000000008C
:100080006C6CFE6CFE6C6C00307CC0780CF8300040
:1000900000C6CC183066C600386C3876DCCC7600EA
:1000A0006060C00000000000183060606030180020
:1000B000603018181830600000663CFF3C66000095
:1000C000003030FC30300000000000000070306074
:1000D000000000FC000000000000000000303000C4
:1000E000060C183060C0800078CCDCFCECCC7800CA
:1000F00030F030303030FC0078CC0C3860CCFC0074
:1001000078CC0C380CCC78001C3C6CCCFE0C0C0071
:10011000FCC0F80C0CCC78003860C0F8CCCC78006F
:10012000FCCC0C183060600078CCCC78CCCC78005B
:1001300078CCCC7C0C1870000000303000303000DF
:100140000000303000703060183060C0603018003F
:100150000000FC00FC0000006030180C183060004B
:1001600078CC0C18300030007CC6DEDEDEC07800B3
:100170003078CCCCFCCCCC00FC66667C6666FC009F
:100180003C66C0C0C0663C00FC6C6666666CFC00E9
:10019000FE6268786862FE00FE6268786860F0005F
:1001A0003C66C0C0CE663E00CCCCCCFCCCCCCC00F7
:1001B00078303030303078001E0C0C0CCCCC78000D
:1001C000E6666C786C66E600F06060606266FE0071
:1001D000C6EEFED6C6C6C600C6E6F6DECEC6C6006B
:1001E000386CC6C6C66C3800FC66667C6060F00081
:1001F00078CCCCCCDC781C00FC66667C786CE600A5
:1002000078CCE0381CCC7800FCB43030303078004A
:10021000CCCCCCCCCCCCFC00CCCCCCCCCC78300076
:10022000C6C6C6D6FEEEC600C6C66C386CC6C600CC
:10023000CCCCCC7830307800FECC983062C6FE0052
:100240007860606060607800C06030180C06020062
:10025000781818181818780010386CC600000000BC
:1002600000000000000000FF303018000000000017
:100270000000780C7CCC7600E0607C666666BC0092
:10028000000078CCC0CC78001C0C0C7CCCCC760068
:10029000000078CCFCC07800386C60F06060F00042
:1002A000000076CCCC7C0CF8E0606C766666E600EC
:1002B0003000703030307800180078181818D87076
:1002C000E060666C786CE60070303030303078007A
:1002D0000000ECFED6C6C6000000F8CCCCCCCC00AA
:1002E000000078CCCCCC78000000DC66667C60F046
:1002F000000076CCCC7C0C1E0000D86C6C60F0004A
:1003000000007CC0780CF80010307C3030341800CD
:100310000000CCCCCCCC76000000CCCCCC7830002B
:100320000000C6C6D6FE6C000000C66C386CC60065
:100330000000CCCCCC7C0CF80000FC983064FC00B5
:100340001C3030E030301C00181818001818180045
:10035000E030301C3030E00076DC000000000000AF
:1003600010386CC6C6C6FE004128D441CF83008336
:100370003041ED846403128141E88385017941CBEA
:1003800085392C00340241F7812041EA8200004186
:10039000C0812641C1811141C582353E41C781BE20
:1003A00041B182001B41F281084126810141E08F69
:1003B0001F1A180A0F064587320A0702070500416F
:1003C000E18F0025270510093A784D05180D383AB8
:1003D0001F41B6840A82270041B78107413A8155FF
:1003E000413681E8412A82000082013F412B820090
:1003F000008200EF4111FCFC4129D4FFFF00000006
:1004000008000201000003040700000000000000D3
:10041000000102040810204080010204081020019D
:100420000204081020040404040404040402020268
:100430000202020303030303030000000025002857
:10044000002B0000000000240027002A00006A0C96
:10045000EB0D11241FBECFEFD8E0DEBFCDBF11E002
:10046000A0E0B1E0E8E9F8E202C005900D92A23BFD
:10047000B107D9F722E0A2EBB1E001C01D92AB3C7D
:10048000B207E1F714E0C2E5D4E004C02297FE0110
:100490000E94F613CE34D107C9F70E948E0A0C943D
:1004A0004A140C9400008EBD00000DB407FEFDCF71
:1004B0008EB50895DC01ED91FC910190F081E02D65
:1004C00009942F923F924F925F926F927F928F92F8
:1004D0009F92AF92BF92CF92DF92EF92FF920F93D3
:1004E0001F93CF93DF9300D01F92CDB7DEB79B83CE
:1004F0008A83380188E0280250011124D501A859C7
:10050000B0405D01BC2DBF77CB2EEA81FB81868197
:100510009781F1E0FB1708F462C06B0128E0C20E7E
:10052000D11C8C159D050CF46DC0AA81BB81189659
:100530002D913C911997FA0138962E173F070CF42C
:1005400061C0AA81BB81ED91FC9111978A01095F7D
:100550001F4F9B01295F3F4F0680F781E02DCD01A2
:100560000995AA81BB81ED91FC9111970084F185D9
:10057000E02DCD0109958501085F1F4FF5015490CD
:10058000FFEFAF1ABF0A98E0892E912C20E8422E87
:10059000AA81BB81ED91FC911197842D8521028464
:1005A000F385E02D882319F0B301CD0103C0B70115
:1005B0008A819B8109954694B1E08B1A910841F795
:1005C000A016B106D9F6AA81BB81ED91FC911197D5
:1005D0000484F585E02DCD010995C60175C0B8E00C
:1005E000CB9E800111244B01800E911E8815990528
:1005F0004CF0040F151FEA81FB81208531852017FF
:10060000310714F4019660C0AA81BB81ED91FC9181
:100610001197015011090680F781E02D94012150B6
:100620003109CD010995AA81BB81ED91FC9111970A
:100630000084F185E02DCD0109952501B8E04B0E30
:10064000511CF501D490FFEFAF1ABF0A2C2C08E023
:1006500010E080E8382E832D8D212C2DA1F0AA8169
:10066000BB81ED91FC9111970284F385E02DB301DC
:10067000CD01298309952981215089F736940150AC
:10068000110949F710C0AA81BB81ED91FC91119726
:100690000284F385E02DB701CD01298309952981D5
:1006A000215089F7EBCF2A9491F6A414B50409F0F0
:1006B000C8CFAA81BB81ED91FC9111970484F58587
:1006C000E02DCD010995C4010F900F900F90DF919F
:1006D000CF911F910F91FF90EF90DF90CF90BF903F
:1006E000AF909F908F907F906F905F904F903F90D2
:1006F0002F900895CF92EF92FF920F931F93DC01FA
:10070000ED91FC910684F785E02D09951F910F91DD
:10071000FF90EF90CF900895CF92EF92FF920F93BA
:100720001F93CF93DF93EC01262F6A3081F48EADB7
:100730009FAD9BAF8AAF2CA92F778CAD9DAD38E0D4
:10074000239F800D911D11249DAF8CAF47C0862F34
:100750008B7F893009F442C06AAD7BAD203219F439
:1007600061157105D9F1E881F981E8ACF9AC0EA900
:100770001FA94CAD5DAD0088F189E02DCCA8CE015C
:1007800009959BAF8AAF2DA9222341F14CA94F7740
:10079000642F70E028EF2403A00111242E813F81F3
:1007A000240F351F28173907CCF48EAD9FAD9BAFB2
:1007B0008AAFCB0133E0880F991F3A95E1F72CAD52
:1007C0003DAD820F931F9DAF8CAF28853985240FD7
:1007D000351F2817390714F41DAE1CAE81E090E0D8
:1007E000DF91CF911F910F91FF90EF90CF900895DF
:1007F000FC01138212828AE091E09183808315824A
:1008000014827783668351874087178616861586FC
:10081000148613861286178A168A158A148A138AF2
:10082000128A118A108A10AA11AA12AA13AA81E0A8
:1008300084AB85AB17AA16AA8FEF9FEF91AF80AF5D
:1008400017AE16AE15AE14AE13AE12AE0895AF923B
:10085000BF92CF92DF92EF92FF920F931F93CF93AD
:10086000DF93EC015B01E881F9810885198501506E
:1008700011092E813F81215031090680F781E02D39
:1008800040E050E060E070E00995E881F981008483
:10089000F185E02DCE010995AE81BF81288539858E
:1008A0000E94D6136B017C0143E0F694E794D79441
:1008B000C7944A95D1F7E881F981C114D104E104C4
:1008C000F10409F444C00284F385E02DB501CE01A2
:1008D0000995E881F9810284F385E02DB501CE0107
:1008E0000995E881F9810284F385E02DB501CE01F7
:1008F0000995E881F9810284F385E02DB501CE01E7
:100900000995E881F9810284F385E02DB501CE01D6
:100910000995E881F9810284F385E02DB501CE01C6
:100920000995E881F9810284F385E02DB501CE01B6
:100930000995E881F9810284F385E02DB501CE01A6
:10094000099581E0C81AD108E108F108B4CF048400
:10095000F585E02DCE01DF91CF911F910F91FF9092
:10096000EF90DF90CF90BF90AF900994EF92FF92FD
:100970000F931F93CF93DF93EC0179018E819F81B9
:100980006817790754F588859985481759072CF514
:10099000E881F9810680F781E02D8A019B01CE0173
:1009A0000995E881F9810084F185E02DCE01099552
:1009B000E881F9810284F385E02DB701CE01099524
:1009C000E881F9810484F585E02DCE01DF91CF9196
:1009D0001F910F91FF90EF900994DF91CF911F919C
:1009E0000F91FF90EF9008958F929F92AF92BF92D8
:1009F000CF92DF92EF92FF920F931F93CF93DF93EB
:100A0000EC016901480157012E813F81621773078C
:100A10001CF0B901615071098885998548175907FB
:100A20001CF0AC0141505109FB01EC0DFD1DE2171A
:100A3000F3071CF06901C61AD70A9A01280D391D5F
:100A4000281739071CF04C01841A950AE881F981AE
:100A50008A01080D191D015011099B012C0D3D1D26
:100A6000215031090680F781E02DCE010995E881FA
:100A7000F9810084F185E02DCE0109959401D6011C
:100A80000E94D6136B017C01E881F981C114D10465
:100A9000E104F10461F00284F385E02DB501CE019B
:100AA000099581E0C81AD108E108F108EDCF048466
:100AB000F585E02DCE01DF91CF911F910F91FF9031
:100AC000EF90DF90CF90BF90AF909F908F90099460
:100AD0002F923F924F925F926F927F928F929F924E
:100AE000AF92BF92CF92DF92EF92FF920F931F933C
:100AF000CF93DF93CDB7DEB728970FB6F894DEBF5C
:100B00000FBECDBF4C016B0158874F83590162174F
:100B10007307A1F40417150744F404271527402789
:100B2000512758874F83042715272F813885021BAB
:100B3000130B0F5F1F4F21E030E015C04F81588528
:100B400040175107B9F42617370734F4A626B726FD
:100B5000CA24DB24AC24BD2495012C193D092F5F48
:100B60003F4F01E010E04F815885B601C4010E945B
:100B7000F404A0C0FC01268137816217730724F0BA
:100B80006901F1E0CF1AD108F401808591854F8188
:100B900058854817590724F0FC013197F887EF83EF
:100BA000A216B30624F05901F1E0AF1AB1080817F4
:100BB00019071CF08C010150110935016C187D08D2
:100BC00028012F813885421A530A77FE08C0719494
:100BD000619471084FEF5FEF5A83498304C081E04D
:100BE00090E09A83898357FE08C05194419451083C
:100BF000EFEFFFEFFC83EB8304C021E030E03C83A8
:100C00002B83A301440F551F5E834D831201220CD9
:100C1000331C97014F815885B601C4010E94B60468
:100C2000461457041CF5810106191709CA14DB0480
:100C300009F440C017FD0CC08F819885EB81FC81C1
:100C40008E0F9F1F98878F832D813E81021B130B70
:100C500049815A81C40ED51E020D131D97014F8183
:100C60005885B601C4010E94B604E0CFAD80BE80B5
:100C7000A418B5088F81988580179107D9F0B7FC23
:100C800006C089819A81C80ED91EA218B308EF81C7
:100C9000F8852B813C81E20FF31FF887EF834D81AC
:100CA0005E81A40EB51E9701AF01B601C4010E947A
:100CB000B604E0CF28960FB6F894DEBF0FBECDBFC6
:100CC000DF91CF911F910F91FF90EF90DF90CF9028
:100CD000BF90AF909F908F907F906F905F904F905C
:100CE0003F902F9008952F923F924F925F926F9274
:100CF0007F928F929F92AF92BF92CF92DF92EF92AC
:100D0000FF920F931F93CF93DF9300D000D000D0BA
:100D1000CDB7DEB75C011B012A013E832D8348015C
:100D20006901D194C194D108612C712C2D813E812F
:100D3000261537050CF455C0A301440D551D74014B
:100D40008A012D813E81220D331D3A832983B10111
:100D50008D819E81681B790B7C836B83C5010E940A
:100D60006805A201461957098A0129813A816B81D8
:100D70007C81C5010E946805F301E20DF31DFC832F
:100D8000EB839101261937093A8329834D815E81CE
:100D9000440D551D8A019F0169817A81C5010E9418
:100DA0006805A2016D817E81461B570B8A012B814C
:100DB0003C8169817A81C5010E946805C301019661
:100DC000C60CD71CC80ED91ED7FC09C0ED81FE8108
:100DD0003197FE83ED83CE1ADF0ACE1ADF0A3C017B
:100DE000A5CF26960FB6F894DEBF0FBECDBFDF911C
:100DF000CF911F910F91FF90EF90DF90CF90BF9018
:100E0000AF909F908F907F906F905F904F903F90AA
:100E10002F9008954F925F926F927F928F929F9240
:100E2000AF92BF92CF92DF92EF92FF920F931F93F8
:100E3000CF93DF935C01CB014A0138012701DC2C01
:100E4000E9012991222399F0D501ED91FC910684C5
:100E5000F785E02DCD2C72018301A401BC01C501F1
:100E60000995F501268137812817390754F7DF9155
:100E7000CF911F910F91FF90EF90DF90CF90BF9097
:100E8000AF909F908F907F906F905F904F9008955C
:100E90002F923F924F925F926F927F928F929F928A
:100EA000AF92CF92DF92EF92FF920F931F93CF9367
:100EB000DF93CDB7DEB761970FB6F894DEBF0FBEF4
:100EC000CDBF4C013B012A01C90117017601CA2C93
:100ED000402F50E0BE016F5F7F4F0E94FF138101E2
:100EE0009E012F5F3F4FA201B301C4010E940A0778
:100EF00061960FB6F894DEBF0FBECDBFDF91CF91E4
:100F00001F910F91FF90EF90DF90CF90AF909F9047
:100F10008F907F906F905F904F903F902F900895AB
:100F20002F923F924F925F926F927F928F929F92F9
:100F3000AF92CF92DF92EF92FF920F931F93CF93D6
:100F4000DF93CDB7DEB761970FB6F894DEBF0FBE63
:100F5000CDBF4C013B012A01C90117017601CA2C02
:100F6000402F50E0BE016F5F7F4F0E94151481013A
:100F70009E012F5F3F4FA201B301C4010E940A07E7
:100F800061960FB6F894DEBF0FBECDBFDF91CF9153
:100F90001F910F91FF90EF90DF90CF90AF909F90B7
:100FA0008F907F906F905F904F903F902F9008951B
:100FB000AF92CF92DF92EF92FF920F9330E00E94B8
:100FC00090070F91FF90EF90DF90CF90AF90089532
:100FD0005F9A0895CF93DF931F92CDB7DEB7872F27
:100FE0002B9A2D989CB59F7B9CBD2D9A9CB59064A7
:100FF0009CBD69830E9453022B9A2D989CB59F7BC0
:101000009CBD2D9A9CB590649CBD6981862F0F90E4
:10101000DF91CF910C9453022CB5982F93702C7FB5
:10102000922B9CBD9DB582FB882780F99E7F982BD3
:101030009DBD0895CF93DF93EC0140EF50E060E455
:1010400071E00E94F80380E291E099838883DF9148
:10105000CF910895862F5F982B982D989CB59F7BF4
:101060009CBD2D9A9CB590649CBD0E9453025F9AD2
:1010700008956CE20E942A085F980895CF93DF9349
:101080001F92CDB7DEB7872F5F982B9A2D989CB50E
:101090009F7B9CBD2D9A9CB590649CBD69830E94EA
:1010A00053022B9A2D989CB59F7B9CBD2D9A9CB585
:1010B00090649CBD6981862F0E9453025F9A0F90B5
:1010C000DF91CF910895AF92BF92CF92DF92EF92CE
:1010D000FF920F931F93CF93DF93EC017B016A0183
:1010E00059016AE20E942A08B701CE010E943E0817
:1010F000B501CE010E943E086BE2CE010E942A0893
:10110000B601CE010E943E08B801CE01DF91CF9119
:101110001F910F91FF90EF90DF90CF90BF90AF9015
:101120000C943E08862F5F982B9A2D989CB59F7B38
:101130009CBD2D9A9CB590649CBD0E9453025F9A01
:1011400008950F931F93CF93DF93EC0169307105DE
:1011500019F06A35710571F48AE590E09D838C83FE
:1011600080EF90E09F838E8380E491E09987888769
:1011700018E434C06231710519F0643B710571F4F3
:1011800084EB90E09D838C8380E491E09F838E8349
:1011900080EF90E09987888718E320C06B31710554
:1011A00021F07E7F6E30710571F48EE091E09D83B9
:1011B0008C8380EF90E09F838E8380E491E0998719
:1011C000888718E80BC01D821C8280E491E09F8311
:1011D0008E8380EF90E09987888718EE66E3CE01D2
:1011E0000E942A08612FCE010E949208E881F981AD
:1011F00008851985015011092E813F81215031093F
:101200000680F781E02D40E050E060E070E0CE0124
:101210000995DF91CF911F910F910895CF92DF92A1
:10122000EF92FF920F931F93CF93DF938C015F9AFE
:10123000289862E370E080E090E00E946710289AAE
:1012400068E770E080E090E00E946710E8E6F3E075
:10125000EF01219684918F3FA9F1982F907C9038CF
:10126000B1F0903C39F1903411F0FE01F1CF8F7361
:10127000C82E7F01D82EFFEFEF1AFF0ADD20B9F04C
:10128000F7016491C8010E942A08DA94F4CF8F73A1
:10129000C82E7F01D82EFFEFEF1AFF0ADD2039F0AC
:1012A000F7016491C8010E949208DA94F4CFCC0D42
:1012B000D11DDBCF682F6F7370E080E090E00E945B
:1012C0006710D3CF60E070E0C801DF91CF911F912C
:1012D0000F91FF90EF90DF90CF900C9427041F9315
:1012E000CF93DF93EC01162F61E088E00E9452114A
:1012F000289861E089E00E94521161E087E00E9435
:10130000521161E08DE00E94521161E08BE00E9479
:10131000521160E08CE00E94521129985F9A61E0BE
:1013200086E00E9452115E9AFE01E05CFF4F10833E
:101330009CB5937F9CBD9CB59F7D9CBD0E94E20C9B
:1013400085E00E940C08CE010E940E09812F0E94A8
:101350000C086FE770E089E0DF91CF911F910C944A
:10136000CA1060E00C946F0982E092E00E94AF0D19
:1013700062E570E082E092E00E94D30D60E470E0EC
:1013800082E092E00E945A0260E070E082E092E027
:101390000E945A0282E092E00E94E80D91E08111E1
:1013A00090E0892F089562E570E082E092E00E946B
:1013B000D30D60E070E082E092E00E945A0282E089
:1013C00092E00E94E80D91E0811190E0892F08954C
:1013D0008091B20108958091B30108958091B40184
:1013E00008958091B50108958091B6010895809186
:1013F000B701882331F081FB992790F981E0892793
:10140000089580E008958091B701882319F08095B0
:101410008170089580E008958091B401882349F097
:1014200087FD05C08150893520F482E0089581E070
:10143000089580E008951F93CF93DF93EC0146E079
:1014400050E062E570E082E092E00E94C60D10E09C
:1014500082E092E00E94180D892B71F082E092E008
:101460000E94200DE12FF0E0EE54FE4F27E182278D
:10147000479680831F5FECCFCE010E94D30981E0A5
:101480009091B701911101C080E0DF91CF911F9140
:1014900008951F920F920FB60F9211242F938F93DE
:1014A0009F93AF93BF938091B8019091B901A091A0
:1014B000BA01B091BB018931954FA105B1058CF0FE
:1014C0008091BC019091BD0101969093BD018093E4
:1014D000BC011092B8011092B9011092BA01109299
:1014E000BB018091B8019091B901A091BA01B0916E
:1014F000BB010196A11DB11D8093B8019093B90164
:10150000A093BA01B093BB01BF91AF919F918F910E
:101510002F910F900FBE0F901F9018950E948F1063
:101520008FEB91E00E94B1096FEF7FEF8FEB91E0BD
:101530000E94270480E092E00E946E0C62E371E05A
:1015400080E092E00E94860C8EEB91E00E94B4094C
:101550001092B0001092B100809170008160809371
:10156000700081E08093B1007894B12CD0E0812CA0
:10157000912CCC24C394EE24EA94FE2C00E010E0DD
:1015800022E531E04AE050E060E070E08FEB91E06E
:101590000E940A072091BC013091BD01AA24A394A6
:1015A000CC24CA94DC2CE12CF12C0AE04AE050E077
:1015B0006EE170E08FEB91E00E9448078EEB91E0C6
:1015C0000E941B0A8823A9F28EEB91E00E94E80991
:1015D000782E8EEB91E00E94EB09C82F00EF10E00F
:1015E00027ED30E040E050E067ED70E08FEB91E0F8
:1015F0000E946805CC24C394EE24EA94FE2C00E0FB
:1016000010E027E531E04AE050E06CED70E08FEB50
:1016100091E00E940A072CE531E044E150E06CEDD6
:1016200070E08FEB91E00E940A07CC24CA94DC2C76
:10163000E12CF12C0AE0272D44E150E064E071E058
:101640008FEB91E00E94D807CC24C394EE24EA9457
:10165000FE2C00E010E022E631E04EE150E06CEDBF
:1016600070E08FEB91E00E940A07CC24CA94DC2C36
:10167000E12CF12C0AE02C2F4EE150E064E071E007
:101680008FEB91E00E94D807CC24C394EE24EA9417
:10169000FE2C00E010E028E631E048E250E06CED7E
:1016A00070E08FEB91E00E940A078EEB91E00E94C0
:1016B000EE09282F332727FD3095CC24CA94DC2C43
:1016C000E12CF12C0AE048E250E064E071E08FEB9D
:1016D00091E00E944807CC24C394EE24EA94FE2CA7
:1016E00000E010E02EE631E042E350E06CED70E007
:1016F0008FEB91E00E940A078EEB91E00E94F109C6
:10170000282F332727FD3095CC24CA94DC2CE12CDC
:10171000F12C0AE042E350E064E071E08FEB91E0ED
:101720000E944807CC24C394EE24EA94FE2C00E0E7
:1017300010E024E731E04CE350E06CED70E08FEB1B
:1017400091E00E940A078EEB91E00E94F409282F95
:10175000332727FD3095CC24CA94DC2CE12CF12CC6
:101760000AE04CE350E064E071E08FEB91E00E940E
:101770004807CC24C394EE24EA94FE2C00E010E049
:101780002AE731E046E450E06CED70E08FEB91E049
:101790000E940A078EEB91E00E94F709CC24CA94BC
:1017A000DC2CE12CF12C0AE0282F46E450E064E028
:1017B00071E08FEB91E00E94D807CC24C394EE2413
:1017C000EA94FE2C00E010E020E831E040E550E033
:1017D0006CED70E08FEB91E00E940A078EEB91E0D8
:1017E0000E94030ACC24CA94DC2CE12CF12C0AE0E0
:1017F000282F40E550E064E071E08FEB91E00E941B
:10180000D8078EEB91E00E940C0A8130A1F4CC2421
:10181000C394EE24EA94FE2C00E010E026E831E0C8
:101820004AE550E06CED70E08FEB91E00E940A0712
:101830002DE831E020C08EEB91E00E940C0ACC2410
:10184000C394EE24EA94FE2C00E010E026E831E098
:101850004AE550E06CED70E0823039F48FEB91E0B6
:101860000E940A0723E931E006C08FEB91E00E9455
:101870000A0728E931E04AE550E064E071E08FEBC7
:1018800091E00E940A070FEF1FEF24E030E04B2D9C
:101890005D2FB4018FEB91E00E947306D0E0E72C3E
:1018A000F12C00E018EF24E030E0AE01B7018FEB3F
:1018B00091E00E9473068EEB91E00E94EE09682F82
:1018C000772767FD709580E092E00E94930C4701B6
:1018D000BC2E4FCE8FEB91E00C941A081092C500ED
:1018E00080E18093C400E0ECF0E08081826080833E
:1018F00088E18093C10086E08093C20008958091C2
:10190000C00085FFFCCF6093C6000895FB01819164
:10191000BF0118163CF49091C00095FFFCCF809356
:10192000C600F4CF0895CF92DF92EF92FF920F930B
:101930001F93CF93DF93EC017B016CE971E00E9470
:10194000860CB70180E090E00E94E51220E030E0D4
:101950004AE754E40E9451126B017C0114E0C70174
:10196000B6010E94B912062F60E3600FCE010E94FB
:101970007F0C602F70E080E090E00E94E7129B01F6
:10198000AC01C701B6010E94EC1120E030E040E25A
:1019900051E40E94731327E137EB41ED58E30E94B5
:1019A000ED116B017C011150D1F660E571E0CE01C3
:1019B000DF91CF911F910F91FF90EF90DF90CF902B
:1019C0000C94860CCF93CFB7F894809101028111CB
:1019D00027C0EFE2F4E08491EBE1F4E09491E82F8A
:1019E000F0E0EE0FFF1FED5BFB4FA591B4918C91E2
:1019F000892321F461E08AE00E948B1161E08AE092
:101A00000E9452118CB580618CBD8CB580648CBDF8
:101A100061E08DE00E94521161E08BE00E94521162
:101A2000809101028F5F80930102CFBFCF91089513
:101A30008091320290E020913302821B9109089537
:101A40002091330280913202281750F4E22FF0E007
:101A5000EC5CFD4F808190E02F5F2093330208956E
:101A60008FEF9FEF0895E091330280913202E817E3
:101A700030F4F0E0EC5CFD4F808190E008958FEF52
:101A80009FEF08950895CF92DF92EF92FF920F9308
:101A90001F93CF93DF937C01CB018A0120910E022B
:101AA000222389F0EB016B01C40ED51ECC15DD0598
:101AB00069F06991D701ED91FC910190F081E02DE1
:101AC000C7010995F3CF642F0E94A40EC801DF91CE
:101AD000CF911F910F91FF90EF90DF90CF900895DD
:101AE000CF93DF931F92CDB7DEB7698320910E02AB
:101AF0002223D1F020910F02203240F021E030E08B
:101B0000FC013383228380E090E015C080911002B5
:101B1000E82FF0E0EF5EFD4F998190838F5F809317
:101B2000100280930F0205C061E0CE0101960E9471
:101B3000A40E81E090E00F90DF91CF910895FC0119
:101B40001382128248EE53E060E070E044835583D4
:101B50006683778386EA91E091838083089510926B
:101B60003302109232021092100210920F020C9463
:101B7000EF0D862F413208F040E264E372E00E94EC
:101B80000D0E1092330280933202089521E00C94DE
:101B9000B90D81E080930E02609331021092100221
:101BA00010920F0208950C94C90D0F93062F21E097
:101BB00040910F0261E172E0809131020E94510E6A
:101BC0001092100210920F0210920E020F910895BF
:101BD00061E00C94D50D82E092E00C949F0D109280
:101BE000C10281E08093BF021092BE0261E082E1F7
:101BF0000E948B1161E083E10E948B11E9EBF0E020
:101C000080818E7F808380818D7F808388E4809334
:101C1000B80085E48093BC000895413208F03FC0CD
:101C20009091C1029111FCCF91E09093C102209359
:101C3000BF022FEF2093540210929902240F209399
:101C400098029093C0029091C002880F892B8093D4
:101C5000C0028091BE02813041F41092BE02809198
:101C6000C0028093BB0085EC01C085EE8093BC0070
:101C70008091C1028130E1F380919902841710F4C0
:101C8000409199022AE932E0FB01D9018A2F821B97
:101C9000841718F48D918193F9CF842F089580E0F3
:101CA00008950F93413208F046C09091C1029111FE
:101CB000FCCF92E09093C1020093BF029FEF9093FC
:101CC00054021092990240939802FB016AE972E073
:101CD000DB019A2F961B941718F491919D93F9CFDD
:101CE0001092C0029091C002880F892B8093C0028D
:101CF0008091BE02813041F41092BE028091C002F8
:101D00008093BB0085EC01C085EE8093BC0022234C
:101D100021F08091C1028230E1F3809154028F3F23
:101D200061F080915402803251F0809154028033EE
:101D300041F483E007C081E005C080E003C082E099
:101D400001C084E00F910895613298F42091C1029E
:101D5000243089F460937602FC0188E792E0DC018C
:101D60002A2F281B261718F421912D93F9CF80E0F4
:101D7000089581E0089582E0089585ED8093BC0088
:101D80008091BC0084FDFCCF1092C102089585ECC7
:101D90008093BC001092C10208951F920F920FB65B
:101DA0000F9211242F933F934F935F936F937F93E1
:101DB0008F939F93AF93BF93EF93FF938091B9005D
:101DC000887F803609F49CC068F5883209F45BC0CE
:101DD00090F4803109F454C038F4882309F4F5C034
:101DE000883009F44DC0F5C0883109F44CC0803208
:101DF00009F45DC0EEC0803409F468C048F4803353
:101E000009F455C0883309F0E4C080935402A8C097
:101E1000803509F44FC0883509F45DC0883409F075
:101E2000D8C0D5C0883909F4C6C0A8F4883709F4E9
:101E300067C038F4883609F463C0803709F460C09D
:101E4000C8C0883809F4B7C0803909F45FC0803849
:101E500009F0BFC05BC0803B09F485C038F4803A0C
:101E600009F466C0883A09F47EC0B3C0803C09F426
:101E7000A6C0883C09F4A3C0883B09F489C0A9C066
:101E80008091C00210C09091990280919802981799
:101E900070F5E091990281E08E0F80939902F0E055
:101EA000E656FD4F80818093BB0085EC85C0809312
:101EB00054028DC0E091990281E08E0F80939902C7
:101EC0008091BB00F0E0E656FD4F8083909199022F
:101ED000809198026DC0E091990281E08E0F80930D
:101EE00099028091BB00F0E0E656FD4F808380911F
:101EF000BF0281116CC081E08093BE0284EA60C0A1
:101F000083E08093C10210925502CFCF8091550299
:101F1000803208F050C0E091550281E08E0F80932E
:101F200055028091BB00F0E0EA5AFD4F8083BDCF9F
:101F300080915502803230F4E0915502F0E0EA5A87
:101F4000FD4F10820E94BD0E6091550270E0E0913D
:101F5000BA02F091BB0286E592E009951092550213
:101F60000E94C70E36C084E08093C10210927702AF
:101F700010927602E091BC02F091BD020995809129
:101F80007602811105C081E080937602109278027A
:101F9000E091770281E08E0F80937702F0E0E858BD
:101FA000FD4F80818093BB009091770280917602F3
:101FB000981708F47ACF85E88093BC000AC085ECB6
:101FC0008093BC001092C10204C0109254020E947F
:101FD000BD0EFF91EF91BF91AF919F918F917F9136
:101FE0006F915F914F913F912F910F900FBE0F9086
:101FF0001F9018951F920F920FB60F9211242F93D6
:102000003F938F939F93AF93BF938091C30290911F
:10201000C402A091C502B091C6023091C20223E071
:10202000230F2D3720F40196A11DB11D05C026E810
:10203000230F0296A11DB11D2093C2028093C302FB
:102040009093C402A093C502B093C6028091C702C8
:102050009091C802A091C902B091CA020196A11D37
:10206000B11D8093C7029093C802A093C902B09398
:10207000CA02BF91AF919F918F913F912F910F9085
:102080000FBE0F901F9018953FB7F8948091C7022C
:102090009091C802A091C902B091CA0226B5A89B2E
:1020A00005C02F3F19F00196A11DB11D3FBF662746
:1020B000782F892F9A2F620F711D811D911D42E08B
:1020C000660F771F881F991F4A95D1F70895CF9201
:1020D000DF92EF92FF92CF93DF936B017C010E941E
:1020E0004410EB01C114D104E104F10489F00E9411
:1020F000EB110E9444106C1B7D0B683E734090F303
:1021000081E0C81AD108E108F108C851DC4FEACFD4
:10211000DF91CF91FF90EF90DF90CF90089578946A
:1021200084B5826084BD84B5816084BD85B58260DC
:1021300085BD85B5816085BDEEE6F0E0808181607A
:102140008083E1E8F0E0108280818260808380817A
:1021500081608083E0E8F0E0808181608083E1EB52
:10216000F0E0808184608083E0EBF0E0808181603A
:102170008083EAE7F0E080818460808380818260F0
:1021800080838081816080838081806880831092D9
:10219000C10008951F93CF93DF93182FEB0161E0E7
:1021A0000E945211209711F460E004C0CF3FD10586
:1021B00039F461E0812FDF91CF911F910C948B1145
:1021C000E12FF0E0E350FC4FE491E330F9F048F404
:1021D000E130B9F0E230A1F584B5806284BDC8BDBC
:1021E00034C0E730E9F0E83019F1E43049F5809186
:1021F0008000806280938000D0938B00C0938A001F
:1022000024C084B5806884BDC7BD1FC08091800094
:10221000806880938000D0938900C093880015C0A7
:102220008091B00080688093B000C093B3000DC06F
:102230008091B00080628093B000C093B40005C06C
:10224000C038D1050CF0B5CFAFCFDF91CF911F9142
:102250000895833081F028F4813099F08230A1F024
:1022600008958730A9F08830B9F08430D1F4809196
:1022700080008F7D03C0809180008F7780938000E5
:10228000089584B58F7702C084B58F7D84BD08958D
:102290008091B0008F7703C08091B0008F7D8093D4
:1022A000B0000895CF93DF9390E0FC01EF5EFB4F09
:1022B0002491FC01EB5DFB4F8491882349F190E070
:1022C000880F991FFC01ED5BFB4FA591B491875CD2
:1022D0009B4FFC01C591D4919FB7611108C0F89440
:1022E0008C91209582238C93888182230AC062304E
:1022F00051F4F8948C91322F309583238C938881FC
:10230000822B888304C0F8948C91822B8C939FBF7E
:10231000DF91CF9108950F931F93CF93DF931F9277
:10232000CDB7DEB7282F30E0F901E350FC4F8491A0
:10233000F901EF5EFB4F1491F901EB5DFB4F049146
:102340000023C9F0882321F069830E942911698143
:10235000E02FF0E0EE0FFF1FE75CFB4FA591B4917B
:102360009FB7F8948C91611103C01095812301C02F
:10237000812B8C939FBF0F90DF91CF911F910F9175
:1023800008950E94FA13CF92DF92EF92FF920F937B
:102390001F93CF93DF936C017A01EB01E60EF71EDA
:1023A00000E010E0CE15DF0561F06991D601ED91F6
:1023B000FC910190F081E02DC6010995080F191FCD
:1023C000F1CFC801DF91CF911F910F91FF90EF9056
:1023D000DF90CF90089508955058BB27AA270ED0BC
:1023E00048C139D130F03ED120F031F49F3F11F493
:1023F0001EF42EC10EF4E095E7FB24C1E92F4AD16B
:1024000080F3BA17620773078407950718F071F411
:102410009EF562C10EF4E0950B2EBA2FA02D0B0194
:10242000B90190010C01CA01A0011124FF27591B19
:1024300099F0593F50F4503E68F11A16F040A22F1F
:10244000232F342F4427585FF3CF46953795279590
:10245000A795F0405395C9F77EF41F16BA0B620B8F
:10246000730B840BBAF09150A1F0FF0FBB1F661FD6
:10247000771F881FC2F70EC0BA0F621F731F841F19
:1024800048F4879577956795B795F7959E3F08F03F
:10249000B3CF9395880F08F09927EE0F97958795FE
:1024A00008950CD0E6C0DED040F0D5D030F021F455
:1024B0005F3F19F0C7C0511110C1CAC0EBD098F3EB
:1024C0009923C9F35523B1F3951B550BBB27AA27B5
:1024D00062177307840738F09F5F5F4F220F331F27
:1024E000441FAA1FA9F333D00E2E3AF0E0E830D0F3
:1024F00091505040E695001CCAF729D0FE2F27D0F6
:10250000660F771F881FBB1F261737074807AB07C3
:10251000B0E809F0BB0B802DBF01FF2793585F4F38
:102520002AF09E3F510568F08DC0D7C05F3FECF3A5
:10253000983EDCF3869577956795B795F7959F5FFD
:10254000C9F7880F911D9695879597F90895E1E051
:10255000660F771F881FBB1F621773078407BA07B0
:1025600020F0621B730B840BBA0BEE1F88F7E0950B
:10257000089598D088F09F5790F0B92F9927B751B8
:10258000A0F0D1F0660F771F881F991F1AF0BA9537
:10259000C9F712C0B13081F09FD0B1E008959CC05E
:1025A000672F782F8827B85F39F0B93FCCF386952D
:1025B00077956795B395D9F73EF49095809570958A
:1025C00061957F4F8F4F9F4F0895E89409C097FB07
:1025D0003EF490958095709561957F4F8F4F9F4FFA
:1025E0009923A9F0F92F96E9BB279395F69587953E
:1025F00077956795B795F111F8CFFAF4BB0F11F401
:1026000060FF1BC06F5F7F4F8F4F9F4F16C08823A7
:1026100011F096E911C0772321F09EE8872F762FDD
:1026200005C0662371F096E8862F70E060E02AF01E
:102630009A95660F771F881FDAF7880F969587950A
:1026400097F9089597F99F6780E870E060E0089532
:102650009FEF80EC089500240A94161617061806BA
:102660000906089500240A94121613061406050696
:102670000895092E0394000C11F4882352F0BB0F27
:1026800040F4BF2B11F460FF04C06F5F7F4F8F4F8A
:102690009F4F089557FD9058440F551F59F05F3FC5
:1026A00071F04795880F97FB991F61F09F3F79F074
:1026B00087950895121613061406551FF2CF4695F6
:1026C000F1DF08C0161617061806991FF1CF869578
:1026D0007105610508940895E894BB27662777275C
:1026E000CB0197F908950BD0C4CFB5DF28F0BADF3E
:1026F00018F0952309F0A6CFABCF1124EECFCADF97
:10270000A0F3959FD1F3950F50E0551F629FF00104
:10271000729FBB27F00DB11D639FAA27F00DB11D5D
:10272000AA1F649F6627B00DA11D661F829F2227E6
:10273000B00DA11D621F739FB00DA11D621F839F6D
:10274000A00D611D221F749F3327A00D611D231F43
:10275000849F600D211D822F762F6A2F11249F5791
:1027600050408AF0E1F088234AF0EE0FFF1FBB1FB4
:10277000661F771F881F91505040A9F79E3F510553
:1027800070F060CFAACF5F3FECF3983EDCF3869504
:1027900077956795B795F795E7959F5FC1F7FE2BFE
:1027A000880F911D9695879597F908950E94DE13DD
:1027B000332312F48A1B9B0B0C94EF13A29FB001DE
:1027C000B39FC001A39F700D811D1124911DB29F65
:1027D000700D811D1124911D08950E94DE13B7FF15
:1027E0000895821B930B0895EE0FFF1F0590F4913F
:1027F000E02D099481E090E0F8940C944A1445325D
:10280000510520F4423010F00C940A14FB011082A0
:10281000CB010895BB274A3031F4992322F4BDE25D
:10282000909581959F4F0C9421144532510520F4C9
:10283000423010F00C942014FB011082CB0108955B
:10284000BB27FB015527AA27880F991FAA1FA4178A
:1028500010F0A41B83955051B9F7A05DAA3308F07E
:10286000A95DA193009779F7B111B1931192CB01B2
:102870000C943A14DC01FC01672F71917723E1F786
:10288000329704C07C916D9370836291AE17BF073D
:08289000C8F30895F894FFCF8E
:102898000000CB028000000000008C03C311C111AE
:1028A800C111C111C111C11161027A0300000000F8
:1028B8008C03C311A10863083908EA07E807610215
:1028C8007A0353756363657366756C6C7920696EFA
:1028D800697469616C697365642055534152542069
:1028E8000A00534543200044415441004A6F795837
:1028F8003A004A6F79593A00416363583A00416394
:1029080063593A004163635A3A00427574433A0086
:102918004275745A3A004C524D6F763A00526967C4
:102928006874004C656674004D494400494E543A39
:10293800200000000000700D430D180D200D330D10
:02294800420D3E
:00000001FF
