:100000000C9429020C9451020C9451020C9451024C
:100010000C9451020C9451020C9451020C94510214
:100020000C9451020C94450A0C9451020C94510208
:100030000C9451020C9451020C9451020C945102F4
:100040000C94F90E0C9451020C9451020C94510230
:100050000C9451020C9451020C9451020C945102D4
:100060000C94CC0D0C945102000000000000000024
:1000700030787830300030006C6C6C00000000008C
:100080006C6CFE6CFE6C6C00307CC0780CF8300040
:1000900000C6CC183066C600386C3876DCCC7600EA
:1000A0006060C00000000000183060606030180020
:1000B000603018181830600000663CFF3C66000095
:1000C000003030FC30300000000000000070306074
:1000D000000000FC000000000000000000303000C4
:1000E000060C183060C0800078CCDCFCECCC7800CA
:1000F00030F030303030FC0078CC0C3860CCFC0074
:1001000078CC0C380CCC78001C3C6CCCFE0C0C0071
:10011000FCC0F80C0CCC78003860C0F8CCCC78006F
:10012000FCCC0C183060600078CCCC78CCCC78005B
:1001300078CCCC7C0C1870000000303000303000DF
:100140000000303000703060183060C0603018003F
:100150000000FC00FC0000006030180C183060004B
:1001600078CC0C18300030007CC6DEDEDEC07800B3
:100170003078CCCCFCCCCC00FC66667C6666FC009F
:100180003C66C0C0C0663C00FC6C6666666CFC00E9
:10019000FE6268786862FE00FE6268786860F0005F
:1001A0003C66C0C0CE663E00CCCCCCFCCCCCCC00F7
:1001B00078303030303078001E0C0C0CCCCC78000D
:1001C000E6666C786C66E600F06060606266FE0071
:1001D000C6EEFED6C6C6C600C6E6F6DECEC6C6006B
:1001E000386CC6C6C66C3800FC66667C6060F00081
:1001F00078CCCCCCDC781C00FC66667C786CE600A5
:1002000078CCE0381CCC7800FCB43030303078004A
:10021000CCCCCCCCCCCCFC00CCCCCCCCCC78300076
:10022000C6C6C6D6FEEEC600C6C66C386CC6C600CC
:10023000CCCCCC7830307800FECC983062C6FE0052
:100240007860606060607800C06030180C06020062
:10025000781818181818780010386CC600000000BC
:1002600000000000000000FF303018000000000017
:100270000000780C7CCC7600E0607C666666BC0092
:10028000000078CCC0CC78001C0C0C7CCCCC760068
:10029000000078CCFCC07800386C60F06060F00042
:1002A000000076CCCC7C0CF8E0606C766666E600EC
:1002B0003000703030307800180078181818D87076
:1002C000E060666C786CE60070303030303078007A
:1002D0000000ECFED6C6C6000000F8CCCCCCCC00AA
:1002E000000078CCCCCC78000000DC66667C60F046
:1002F000000076CCCC7C0C1E0000D86C6C60F0004A
:1003000000007CC0780CF80010307C3030341800CD
:100310000000CCCCCCCC76000000CCCCCC7830002B
:100320000000C6C6D6FE6C000000C66C386CC60065
:100330000000CCCCCC7C0CF80000FC983064FC00B5
:100340001C3030E030301C00181818001818180045
:10035000E030301C3030E00076DC000000000000AF
:1003600010386CC6C6C6FE004128D441CF83008336
:100370003041ED846403128141E88385017941CBEA
:1003800085392C00340241F7812041EA8200004186
:10039000C0812641C1811141C582353E41C781BE20
:1003A00041B182001B41F281084126810141E08F69
:1003B0001F1A180A0F064587320A0702070500416F
:1003C000E18F0025270510093A784D05180D383AB8
:1003D0001F41B6840A82270041B78107413A8155FF
:1003E000413681E8412A82000082013F412B820090
:1003F000008200EF4111FCFC4129D4FFFF00000006
:1004000008000201000003040700000000000000D3
:10041000000102040810204080010204081020019D
:100420000204081020040404040404040402020268
:100430000202020303030303030000000025002857
:10044000002B0000000000240027002A0000690B98
:10045000EA0C11241FBECFEFD8E0DEBFCDBF11E004
:10046000A0E0B1E0E6EEF6E202C005900D92A439FC
:10047000B107D9F722E0A4E9B1E001C01D92AA3A80
:10048000B207E1F714E0C2E5D4E004C02297FE0110
:100490000E941D13CE34D107C9F70E94920A0C9412
:1004A00071130C9400008EBD00000DB407FEFDCF4B
:1004B0008EB50895DC01ED91FC910190F081E02D65
:1004C00009942F923F924F925F926F927F928F92F8
:1004D0009F92AF92BF92CF92DF92EF92FF920F93D3
:1004E0001F93CF93DF9300D01F92CDB7DEB79B83CE
:1004F0008A83380188E0280250011124D501A859C7
:10050000B0405D01BC2DBF77CB2EEA81FB81868197
:100510009781F1E0FB1708F462C06B0128E0C20E7E
:10052000D11C8C159D050CF46DC0AA81BB81189659
:100530002D913C911997FA0138962E173F070CF42C
:1005400061C0AA81BB81ED91FC9111978A01095F7D
:100550001F4F9B01295F3F4F0680F781E02DCD01A2
:100560000995AA81BB81ED91FC9111970084F185D9
:10057000E02DCD0109958501085F1F4FF5015490CD
:10058000FFEFAF1ABF0A98E0892E912C20E8422E87
:10059000AA81BB81ED91FC911197842D8521028464
:1005A000F385E02D882319F0B301CD0103C0B70115
:1005B0008A819B8109954694B1E08B1A910841F795
:1005C000A016B106D9F6AA81BB81ED91FC911197D5
:1005D0000484F585E02DCD010995C60175C0B8E00C
:1005E000CB9E800111244B01800E911E8815990528
:1005F0004CF0040F151FEA81FB81208531852017FF
:10060000310714F4019660C0AA81BB81ED91FC9181
:100610001197015011090680F781E02D94012150B6
:100620003109CD010995AA81BB81ED91FC9111970A
:100630000084F185E02DCD0109952501B8E04B0E30
:10064000511CF501D490FFEFAF1ABF0A2C2C08E023
:1006500010E080E8382E832D8D212C2DA1F0AA8169
:10066000BB81ED91FC9111970284F385E02DB301DC
:10067000CD01298309952981215089F736940150AC
:10068000110949F710C0AA81BB81ED91FC91119726
:100690000284F385E02DB701CD01298309952981D5
:1006A000215089F7EBCF2A9491F6A414B50409F0F0
:1006B000C8CFAA81BB81ED91FC9111970484F58587
:1006C000E02DCD010995C4010F900F900F90DF919F
:1006D000CF911F910F91FF90EF90DF90CF90BF903F
:1006E000AF909F908F907F906F905F904F903F90D2
:1006F0002F900895CF92EF92FF920F931F93DC01FA
:10070000ED91FC910684F785E02D09951F910F91DD
:10071000FF90EF90CF900895CF92EF92FF920F93BA
:100720001F93CF93DF93EC01262F6A3081F48EADB7
:100730009FAD9BAF8AAF2CA92F778CAD9DAD38E0D4
:10074000239F800D911D11249DAF8CAF47C0862F34
:100750008B7F893009F442C06AAD7BAD203219F439
:1007600061157105D9F1E881F981E8ACF9AC0EA900
:100770001FA94CAD5DAD0088F189E02DCCA8CE015C
:1007800009959BAF8AAF2DA9222341F14CA94F7740
:10079000642F70E028EF2403A00111242E813F81F3
:1007A000240F351F28173907CCF48EAD9FAD9BAFB2
:1007B0008AAFCB0133E0880F991F3A95E1F72CAD52
:1007C0003DAD820F931F9DAF8CAF28853985240FD7
:1007D000351F2817390714F41DAE1CAE81E090E0D8
:1007E000DF91CF911F910F91FF90EF90CF900895DF
:1007F000FC01138212828AE091E09183808315824A
:1008000014827783668351874087178616861586FC
:10081000148613861286178A168A158A148A138AF2
:10082000128A118A108A10AA11AA12AA13AA81E0A8
:1008300084AB85AB17AA16AA8FEF9FEF91AF80AF5D
:1008400017AE16AE15AE14AE13AE12AE0895AF923B
:10085000BF92CF92DF92EF92FF920F931F93CF93AD
:10086000DF93EC015B01E881F9810885198501506E
:1008700011092E813F81215031090680F781E02D39
:1008800040E050E060E070E00995E881F981008483
:10089000F185E02DCE010995AE81BF81288539858E
:1008A0000E94FD126B017C0143E0F694E794D7941B
:1008B000C7944A95D1F7E881F981C114D104E104C4
:1008C000F10409F444C00284F385E02DB501CE01A2
:1008D0000995E881F9810284F385E02DB501CE0107
:1008E0000995E881F9810284F385E02DB501CE01F7
:1008F0000995E881F9810284F385E02DB501CE01E7
:100900000995E881F9810284F385E02DB501CE01D6
:100910000995E881F9810284F385E02DB501CE01C6
:100920000995E881F9810284F385E02DB501CE01B6
:100930000995E881F9810284F385E02DB501CE01A6
:10094000099581E0C81AD108E108F108B4CF048400
:10095000F585E02DCE01DF91CF911F910F91FF9092
:10096000EF90DF90CF90BF90AF900994EF92FF92FD
:100970000F931F93CF93DF93EC0179018E819F81B9
:100980006817790754F588859985481759072CF514
:10099000E881F9810680F781E02D8A019B01CE0173
:1009A0000995E881F9810084F185E02DCE01099552
:1009B000E881F9810284F385E02DB701CE01099524
:1009C000E881F9810484F585E02DCE01DF91CF9196
:1009D0001F910F91FF90EF900994DF91CF911F919C
:1009E0000F91FF90EF9008958F929F92AF92BF92D8
:1009F000CF92DF92EF92FF920F931F93CF93DF93EB
:100A0000EC016901480157012E813F81621773078C
:100A10001CF0B901615071098885998548175907FB
:100A20001CF0AC0141505109FB01EC0DFD1DE2171A
:100A3000F3071CF06901C61AD70A9A01280D391D5F
:100A4000281739071CF04C01841A950AE881F981AE
:100A50008A01080D191D015011099B012C0D3D1D26
:100A6000215031090680F781E02DCE010995E881FA
:100A7000F9810084F185E02DCE0109959401D6011C
:100A80000E94FD126B017C01E881F981C114D1043F
:100A9000E104F10461F00284F385E02DB501CE019B
:100AA000099581E0C81AD108E108F108EDCF048466
:100AB000F585E02DCE01DF91CF911F910F91FF9031
:100AC000EF90DF90CF90BF90AF909F908F90099460
:100AD0002F923F924F925F926F927F928F929F924E
:100AE000AF92BF92CF92DF92EF92FF920F931F933C
:100AF000CF93DF93CDB7DEB728970FB6F894DEBF5C
:100B00000FBECDBF4C016B0158874F83590162174F
:100B10007307A1F40417150744F404271527402789
:100B2000512758874F83042715272F813885021BAB
:100B3000130B0F5F1F4F21E030E015C04F81588528
:100B400040175107B9F42617370734F4A626B726FD
:100B5000CA24DB24AC24BD2495012C193D092F5F48
:100B60003F4F01E010E04F815885B601C4010E945B
:100B7000F404A0C0FC01268137816217730724F0BA
:100B80006901F1E0CF1AD108F401808591854F8188
:100B900058854817590724F0FC013197F887EF83EF
:100BA000A216B30624F05901F1E0AF1AB1080817F4
:100BB00019071CF08C010150110935016C187D08D2
:100BC00028012F813885421A530A77FE08C0719494
:100BD000619471084FEF5FEF5A83498304C081E04D
:100BE00090E09A83898357FE08C05194419451083C
:100BF000EFEFFFEFFC83EB8304C021E030E03C83A8
:100C00002B83A301440F551F5E834D831201220CD9
:100C1000331C97014F815885B601C4010E94B60468
:100C2000461457041CF5810106191709CA14DB0480
:100C300009F440C017FD0CC08F819885EB81FC81C1
:100C40008E0F9F1F98878F832D813E81021B130B70
:100C500049815A81C40ED51E020D131D97014F8183
:100C60005885B601C4010E94B604E0CFAD80BE80B5
:100C7000A418B5088F81988580179107D9F0B7FC23
:100C800006C089819A81C80ED91EA218B308EF81C7
:100C9000F8852B813C81E20FF31FF887EF834D81AC
:100CA0005E81A40EB51E9701AF01B601C4010E947A
:100CB000B604E0CF28960FB6F894DEBF0FBECDBFC6
:100CC000DF91CF911F910F91FF90EF90DF90CF9028
:100CD000BF90AF909F908F907F906F905F904F905C
:100CE0003F902F9008952F923F924F925F926F9274
:100CF0007F928F929F92AF92BF92CF92DF92EF92AC
:100D0000FF920F931F93CF93DF9300D000D000D0BA
:100D1000CDB7DEB75C011B012A013E832D8348015C
:100D20006901D194C194D108612C712C2D813E812F
:100D3000261537050CF455C0A301440D551D74014B
:100D40008A012D813E81220D331D3A832983B10111
:100D50008D819E81681B790B7C836B83C5010E940A
:100D60006805A201461957098A0129813A816B81D8
:100D70007C81C5010E946805F301E20DF31DFC832F
:100D8000EB839101261937093A8329834D815E81CE
:100D9000440D551D8A019F0169817A81C5010E9418
:100DA0006805A2016D817E81461B570B8A012B814C
:100DB0003C8169817A81C5010E946805C301019661
:100DC000C60CD71CC80ED91ED7FC09C0ED81FE8108
:100DD0003197FE83ED83CE1ADF0ACE1ADF0A3C017B
:100DE000A5CF26960FB6F894DEBF0FBECDBFDF911C
:100DF000CF911F910F91FF90EF90DF90CF90BF9018
:100E0000AF909F908F907F906F905F904F903F90AA
:100E10002F9008954F925F926F927F928F929F9240
:100E2000AF92BF92CF92DF92EF92FF920F931F93F8
:100E3000CF93DF935C01CB014A0138012701DC2C01
:100E4000E9012991222399F0D501ED91FC910684C5
:100E5000F785E02DCD2C72018301A401BC01C501F1
:100E60000995F501268137812817390754F7DF9155
:100E7000CF911F910F91FF90EF90DF90CF90BF9097
:100E8000AF909F908F907F906F905F904F9008955C
:100E90002F923F924F925F926F927F928F929F928A
:100EA000AF92CF92DF92EF92FF920F931F93CF9367
:100EB000DF93CDB7DEB761970FB6F894DEBF0FBEF4
:100EC000CDBF4C013B012A01C90117017601CA2C93
:100ED000402F50E0BE016F5F7F4F0E9426138101BB
:100EE0009E012F5F3F4FA201B301C4010E940A0778
:100EF00061960FB6F894DEBF0FBECDBFDF91CF91E4
:100F00001F910F91FF90EF90DF90CF90AF909F9047
:100F10008F907F906F905F904F903F902F900895AB
:100F20002F923F924F925F926F927F928F929F92F9
:100F3000AF92CF92DF92EF92FF920F931F93CF93D6
:100F4000DF93CDB7DEB761970FB6F894DEBF0FBE63
:100F5000CDBF4C013B012A01C90117017601CA2C02
:100F6000402F50E0BE016F5F7F4F0E943C13810114
:100F70009E012F5F3F4FA201B301C4010E940A07E7
:100F800061960FB6F894DEBF0FBECDBFDF91CF9153
:100F90001F910F91FF90EF90DF90CF90AF909F90B7
:100FA0008F907F906F905F904F903F902F9008951B
:100FB000AF92CF92DF92EF92FF920F9330E00E94B8
:100FC00090070F91FF90EF90DF90CF90AF90089532
:100FD0005F9A0895CF93DF931F92CDB7DEB7872F27
:100FE0002B9A2D989CB59F7B9CBD2D9A9CB59064A7
:100FF0009CBD69830E9453022B9A2D989CB59F7BC0
:101000009CBD2D9A9CB590649CBD6981862F0F90E4
:10101000DF91CF910C9453022CB5982F93702C7FB5
:10102000922B9CBD9DB582FB882780F99E7F982BD3
:101030009DBD0895CF93DF93EC0140EF50E060E455
:1010400071E00E94F80380E291E099838883DF9148
:10105000CF910895862F5F982B982D989CB59F7BF4
:101060009CBD2D9A9CB590649CBD0E9453025F9AD2
:1010700008956CE20E942A085F980895CF93DF9349
:101080001F92CDB7DEB7872F5F982B9A2D989CB50E
:101090009F7B9CBD2D9A9CB590649CBD69830E94EA
:1010A00053022B9A2D989CB59F7B9CBD2D9A9CB585
:1010B00090649CBD6981862F0E9453025F9A0F90B5
:1010C000DF91CF910895AF92BF92CF92DF92EF92CE
:1010D000FF920F931F93CF93DF93EC017B016A0183
:1010E00059016AE20E942A08B701CE010E943E0817
:1010F000B501CE010E943E086BE2CE010E942A0893
:10110000B601CE010E943E08B801CE01DF91CF9119
:101110001F910F91FF90EF90DF90CF90BF90AF9015
:101120000C943E08862F5F982B9A2D989CB59F7B38
:101130009CBD2D9A9CB590649CBD0E9453025F9A01
:1011400008950F931F93CF93DF93EC0169307105DE
:1011500019F06A35710571F48AE590E09D838C83FE
:1011600080EF90E09F838E8380E491E09987888769
:1011700018E434C06231710519F0643B710571F4F3
:1011800084EB90E09D838C8380E491E09F838E8349
:1011900080EF90E09987888718E320C06B31710554
:1011A00021F07E7F6E30710571F48EE091E09D83B9
:1011B0008C8380EF90E09F838E8380E491E0998719
:1011C000888718E80BC01D821C8280E491E09F8311
:1011D0008E8380EF90E09987888718EE66E3CE01D2
:1011E0000E942A08612FCE010E949208E881F981AD
:1011F00008851985015011092E813F81215031093F
:101200000680F781E02D40E050E060E070E0CE0124
:101210000995DF91CF911F910F910895CF92DF92A1
:10122000EF92FF920F931F93CF93DF938C015F9AFE
:10123000289862E370E080E090E00E94660F289AB0
:1012400068E770E080E090E00E94660FE8E6F3E077
:10125000EF01219684918F3FA9F1982F907C9038CF
:10126000B1F0903C39F1903411F0FE01F1CF8F7361
:10127000C82E7F01D82EFFEFEF1AFF0ADD20B9F04C
:10128000F7016491C8010E942A08DA94F4CF8F73A1
:10129000C82E7F01D82EFFEFEF1AFF0ADD2039F0AC
:1012A000F7016491C8010E949208DA94F4CFCC0D42
:1012B000D11DDBCF682F6F7370E080E090E00E945B
:1012C000660FD3CF60E070E0C801DF91CF911F912E
:1012D0000F91FF90EF90DF90CF900C9427041F9315
:1012E000CF93DF93EC01162F61E088E00E9451104C
:1012F000289861E089E00E94511061E087E00E9437
:10130000511061E08DE00E94511061E08BE00E947D
:10131000511060E08CE00E94511029985F9A61E0C2
:1013200086E00E9451105E9AFE01E05CFF4F108340
:101330009CB5937F9CBD9CB59F7D9CBD0E94E10B9D
:1013400085E00E940C08CE010E940E09812F0E94A8
:101350000C086FE770E089E0DF91CF911F910C944A
:10136000C90F60E00C946F098091940108958091F9
:1013700095010895809196010895809197010895AF
:1013800080919801089580919501882339F090917A
:1013900099019695917081E08927089580E00895DC
:1013A00080919501882329F0809199018095817021
:1013B000089580E0089581EE91E00E94AE0C62E510
:1013C00070E081EE91E00E94D20C60E470E081EE6A
:1013D00091E00E945A0260E070E081EE91E00E948C
:1013E0005A0281EE91E00E94410C81EE91E00E9450
:1013F000E70C91E0811190E0892F089562E570E09B
:1014000081EE91E00E94D20C60E070E081EE91E00C
:101410000E945A0281EE91E00E94410C81EE91E01F
:101420000E94E70C91E0811190E0892F08951F93AD
:10143000CF93DF93EC0146E050E062E570E081EE8F
:1014400091E00E94C50C10E081EE91E00E94170C23
:10145000892B71F081EE91E00E941F0CE12FF0E0EA
:10146000EC56FE4F27E18227479680831F5FECCF23
:10147000CE010E94FE0981E090919801911101C076
:1014800080E0DF91CF911F9108951F920F920FB6C8
:101490000F9211242F933F934F935F936F937F93FA
:1014A0008F939F93AF93BF93EF93FF938091990195
:1014B00090919A01833A9E41DCF062E371E08FEDF6
:1014C00091E00E94850B60919B0170919C018FEDD2
:1014D00091E00E94920B80919B0190919C0101965A
:1014E00090939C0180939B0110929A011092990114
:1014F0008091990190919A01019690939A0180931D
:101500009901FF91EF91BF91AF919F918F917F9141
:101510006F915F914F913F912F910F900FBE0F9060
:101520001F9018950E948E0F8EE991E00E94B109DC
:101530006FEF7FEF8EE991E00E9427048FED91E03D
:101540000E946D0B64E471E08FED91E00E94850BC9
:1015500081EE91E00E94AE0C64E671E08FED91E0C7
:101560000E94850B8DE991E00E94DB0962E771E042
:101570008FED91E00E94850B1092B0001092B100A7
:101580008091700081608093700081E08093B10051
:101590007894612CC0E0B12C712C9AE0892E912CAA
:1015A00080919B0190919C01B4010E94E9129B01E2
:1015B000AA24A394CC24CA94DC2CE12CF12C0AE0BC
:1015C0004AE050E06AE070E08EE991E00E9448074E
:1015D0008DE991E00E94170A882311F30FEF1FEFA6
:1015E00024E030E0462D5C2F6B2D772D8EE991E0C5
:1015F0000E9473068DE991E00E94B409B82E8DE92E
:1016000091E00E94B709C82F0AE02B2D4AE050E074
:1016100068E171E08EE991E00E94D8072C2F44E147
:1016200050E068E171E08EE991E00E94D8078DE911
:1016300091E00E94BA09282F4EE150E068E171E084
:101640008EE991E00E94D8078DE991E00E94BD09E2
:10165000282F48E250E068E171E08EE991E00E94B5
:10166000D8078DE991E00E94C009282F42E350E09D
:1016700068E171E08EE991E00E94D8078DE991E080
:101680000E94C309282F42E350E068E171E08EE92F
:1016900091E00E94D8078DE991E00E94D009282F9F
:1016A00042E350E068E171E08EE991E00E94D807E2
:1016B000D0E0EB2CF12C00E018EF24E030E0AE019C
:1016C000B7018EE991E00E9473067F2C6C2ECD2F1E
:1016D00067CF8EE991E00C941A081092C50080E162
:1016E0008093C400E0ECF0E080818260808388E138
:1016F0008093C10086E08093C20008958091C0006D
:1017000085FFFCCF6093C6000895FB018191BF0166
:1017100018163CF49091C00095FFFCCF8093C60052
:10172000F4CF0895CF92DF92EF92FF920F931F9321
:10173000CF93DF93EC017B016EE771E00E94850B94
:10174000B70180E090E00E94E41120E030E04AE739
:1017500054E40E9450116B017C0114E0C701B601F2
:101760000E94B811062F60E3600FCE010E947E0B2D
:10177000602F70E080E090E00E94E6119B01AC01D8
:10178000C701B6010E94EB1020E030E040E251E4D6
:101790000E94721227E137EB41ED58E30E94EC10F2
:1017A0006B017C011150D1F662E471E0CE01DF9152
:1017B000CF911F910F91FF90EF90DF90CF900C94FD
:1017C000850BCF93CFB7F8948091E001811127C0AA
:1017D000EFE2F4E08491EBE1F4E09491E82FF0E0A3
:1017E000EE0FFF1FED5BFB4FA591B4918C91892308
:1017F00021F461E08AE00E948A1061E08AE00E94A0
:1018000051108CB580618CBD8CB580648CBD61E05D
:101810008DE00E94511061E08BE00E945110809198
:10182000E0018F5F8093E001CFBFCF910895809159
:10183000110290E020911202821B910908952091DB
:10184000120280911102281750F4E22FF0E0ED5EB1
:10185000FD4F808190E02F5F2093120208958FEF5B
:101860009FEF0895E091120280911102E81730F481
:10187000F0E0ED5EFD4F808190E008958FEF9FEFE7
:1018800008950895CF92DF92EF92FF920F931F93E6
:10189000CF93DF937C01CB018A012091ED012223BC
:1018A00089F0EB016B01C40ED51ECC15DD0569F086
:1018B0006991D701ED91FC910190F081E02DC70174
:1018C0000995F3CF642F0E94A30DC801DF91CF913A
:1018D0001F910F91FF90EF90DF90CF900895CF93DD
:1018E000DF931F92CDB7DEB769832091ED012223EC
:1018F000D1F02091EE01203240F021E030E0FC01F7
:101900003383228380E090E015C08091EF01E82FBF
:10191000F0E0E051FE4F998190838F5F8093EF015B
:101920008093EE0105C061E0CE0101960E94A30DF7
:1019300081E090E00F90DF91CF910895FC01138238
:10194000128248EE53E060E070E044835583668382
:10195000778388E891E09183808308951092120242
:10196000109211021092EF011092EE010C94EE0C05
:10197000862F413208F040E263E172E00E940C0DD4
:101980001092120280931102089521E00C94B80C79
:1019900081E08093ED01609310021092EF011092AC
:1019A000EE0108950C94C80C0F93062F21E040918E
:1019B000EE0160EF71E0809110020E94500D1092D4
:1019C000EF011092EE011092ED010F91089561E088
:1019D0000C94D40C81EE91E00C949E0C1092A00219
:1019E00081E080939E0210929D0261E082E10E945C
:1019F0008A1061E083E10E948A10E9EBF0E08081C7
:101A00008E7F808380818D7F808388E48093B8007F
:101A100085E48093BC000895413208F03FC0909166
:101A2000A0029111FCCF91E09093A00220939E021E
:101A30002FEF2093330210927802240F2093770225
:101A400090939F0290919F02880F892B80939F0211
:101A500080919D02813041F410929D0280919F02FD
:101A60008093BB0085EC01C085EE8093BC00809123
:101A7000A0028130E1F380917802841710F4409144
:101A8000780229E732E0FB01D9018A2F821B8417F3
:101A900018F48D918193F9CF842F089580E00895F3
:101AA0000F93413208F046C09091A0029111FCCFF3
:101AB00092E09093A00200939E029FEF90933302D6
:101AC0001092780240937702FB0169E772E0DB0134
:101AD0009A2F961B941718F491919D93F9CF109219
:101AE0009F0290919F02880F892B80939F02809183
:101AF0009D02813041F410929D0280919F0280935B
:101B0000BB0085EC01C085EE8093BC00222321F050
:101B10008091A0028230E1F3809133028F3F61F027
:101B200080913302803251F080913302803341F44E
:101B300083E007C081E005C080E003C082E001C00F
:101B400084E00F910895613298F42091A00224302E
:101B500089F460935502FC0187E592E0DC012A2FAD
:101B6000281B261718F421912D93F9CF80E00895B2
:101B700081E0089582E0089585ED8093BC00809116
:101B8000BC0084FDFCCF1092A002089585EC8093E8
:101B9000BC001092A00208951F920F920FB60F92F0
:101BA00011242F933F934F935F936F937F938F9362
:101BB0009F93AF93BF93EF93FF938091B900887F7A
:101BC000803609F49CC068F5883209F45BC090F453
:101BD000803109F454C038F4882309F4F5C0883002
:101BE00009F44DC0F5C0883109F44CC0803209F4C5
:101BF0005DC0EEC0803409F468C048F4803309F455
:101C000055C0883309F0E4C080933302A8C0803502
:101C100009F44FC0883509F45DC0883409F0D8C094
:101C2000D5C0883909F4C6C0A8F4883709F467C05C
:101C300038F4883609F463C0803709F460C0C8C03E
:101C4000883809F4B7C0803909F45FC0803809F0DA
:101C5000BFC05BC0803B09F485C038F4803A09F40A
:101C600066C0883A09F47EC0B3C0803C09F4A6C0BF
:101C7000883C09F4A3C0883B09F489C0A9C08091BD
:101C80009F0210C09091780280917702981770F5AA
:101C9000E091780281E08E0F80937802F0E0E758BF
:101CA000FD4F80818093BB0085EC85C0809333021B
:101CB0008DC0E091780281E08E0F80937802809150
:101CC000BB00F0E0E758FD4F80839091780280914F
:101CD00077026DC0E091780281E08E0F80937802E8
:101CE0008091BB00F0E0E758FD4F808380919E0219
:101CF00081116CC081E080939D0284EA60C083E022
:101D00008093A00210923402CFCF809134028032AF
:101D100008F050C0E091340281E08E0F80933402CD
:101D20008091BB00F0E0EB5CFD4F8083BDCF8091E4
:101D30003402803230F4E0913402F0E0EB5CFD4F8D
:101D400010820E94BC0D6091340270E0E091990213
:101D5000F0919A0285E392E00995109234020E9474
:101D6000C60D36C084E08093A002109256021092F5
:101D70005502E0919B02F0919C02099580915502D9
:101D8000811105C081E08093550210925702E091C5
:101D9000560281E08E0F80935602F0E0E95AFD4F23
:101DA00080818093BB0090915602809155029817D4
:101DB00008F47ACF85E88093BC000AC085EC809354
:101DC000BC001092A00204C0109233020E94BC0D0D
:101DD000FF91EF91BF91AF919F918F917F916F9103
:101DE0005F914F913F912F910F900FBE0F901F90D9
:101DF00018951F920F920FB60F9211242F933F93B5
:101E00008F939F93AF93BF938091A2029091A3026F
:101E1000A091A402B091A5023091A10223E0230F6A
:101E20002D3720F40196A11DB11D05C026E8230F12
:101E30000296A11DB11D2093A1028093A20290934E
:101E4000A302A093A402B093A5028091A602909150
:101E5000A702A091A802B091A9020196A11DB11DEF
:101E60008093A6029093A702A093A802B093A90220
:101E7000BF91AF919F918F913F912F910F900FBE86
:101E80000F901F9018953FB7F8948091A6029091FB
:101E9000A702A091A802B091A90226B5A89B05C0EF
:101EA0002F3F19F00196A11DB11D3FBF6627782F66
:101EB000892F9A2F620F711D811D911D42E0660FBF
:101EC000771F881F991F4A95D1F70895CF92DF9207
:101ED000EF92FF92CF93DF936B017C010E94430F3F
:101EE000EB01C114D104E104F10489F00E94EA106D
:101EF0000E94430F6C1B7D0B683E734090F381E0A2
:101F0000C81AD108E108F108C851DC4FEACFDF91C7
:101F1000CF91FF90EF90DF90CF900895789484B5A3
:101F2000826084BD84B5816084BD85B5826085BDD5
:101F300085B5816085BDEEE6F0E0808181608083BB
:101F4000E1E8F0E01082808182608083808181609E
:101F50008083E0E8F0E0808181608083E1EBF0E065
:101F6000808184608083E0EBF0E080818160808309
:101F7000EAE7F0E0808184608083808182608083F2
:101F80008081816080838081806880831092C1001D
:101F900008951F93CF93DF93182FEB0161E00E9408
:101FA0005110209711F460E004C0CF3FD10539F4FF
:101FB00061E0812FDF91CF911F910C948A10E12F66
:101FC000F0E0E350FC4FE491E330F9F048F4E13005
:101FD000B9F0E230A1F584B5806284BDC8BD34C0DB
:101FE000E730E9F0E83019F1E43049F580918000FC
:101FF000806280938000D0938B00C0938A0024C0BD
:1020000084B5806884BDC7BD1FC080918000806892
:1020100080938000D0938900C093880015C0809180
:10202000B00080688093B000C093B3000DC0809171
:10203000B00080628093B000C093B40005C0C03887
:10204000D1050CF0B5CFAFCFDF91CF911F9108959F
:10205000833081F028F4813099F08230A1F0089526
:102060008730A9F08830B9F08430D1F480918000B5
:102070008F7D03C0809180008F77809380000895CA
:1020800084B58F7702C084B58F7D84BD089580911B
:10209000B0008F7703C08091B0008F7D8093B00037
:1020A0000895CF93DF9390E0FC01EF5EFB4F249106
:1020B000FC01EB5DFB4F8491882349F190E0880F90
:1020C000991FFC01ED5BFB4FA591B491875C9B4F81
:1020D000FC01C591D4919FB7611108C0F8948C910F
:1020E000209582238C93888182230AC0623051F428
:1020F000F8948C91322F309583238C938881822B96
:10210000888304C0F8948C91822B8C939FBFDF91BD
:10211000CF9108950F931F93CF93DF931F92CDB765
:10212000DEB7282F30E0F901E350FC4F8491F9012C
:10213000EF5EFB4F1491F901EB5DFB4F049100231F
:10214000C9F0882321F069830E9428106981E02F5B
:10215000F0E0EE0FFF1FE75CFB4FA591B4919FB736
:10216000F8948C91611103C01095812301C0812BDB
:102170008C939FBF0F90DF91CF911F910F91089586
:102180000E942113CF92DF92EF92FF920F931F9341
:10219000CF93DF936C017A01EB01E60EF71E00E0AE
:1021A00010E0CE15DF0561F06991D601ED91FC914B
:1021B0000190F081E02DC6010995080F191FF1CF9C
:1021C000C801DF91CF911F910F91FF90EF90DF90A9
:1021D000CF90089508955058BB27AA270ED048C124
:1021E00039D130F03ED120F031F49F3F11F41EF48C
:1021F0002EC10EF4E095E7FB24C1E92F4AD180F30C
:10220000BA17620773078407950718F071F49EF5F3
:1022100062C10EF4E0950B2EBA2FA02D0B01B9016F
:1022200090010C01CA01A0011124FF27591B99F04C
:10223000593F50F4503E68F11A16F040A22F232F58
:10224000342F4427585FF3CF469537952795A795A8
:10225000F0405395C9F77EF41F16BA0B620B730B4F
:10226000840BBAF09150A1F0FF0FBB1F661F771FC0
:10227000881FC2F70EC0BA0F621F731F841F48F475
:10228000879577956795B795F7959E3F08F0B3CFFB
:102290009395880F08F09927EE0F979587950895E5
:1022A0000CD0E6C0DED040F0D5D030F021F45F3F56
:1022B00019F0C7C0511110C1CAC0EBD098F39923CF
:1022C000C9F35523B1F3951B550BBB27AA276217FA
:1022D0007307840738F09F5F5F4F220F331F441F3F
:1022E000AA1FA9F333D00E2E3AF0E0E830D0915077
:1022F0005040E695001CCAF729D0FE2F27D0660F64
:10230000771F881FBB1F261737074807AB07B0E8A2
:1023100009F0BB0B802DBF01FF2793585F4F2AF0B8
:102320009E3F510568F08DC0D7C05F3FECF3983EEB
:10233000DCF3869577956795B795F7959F5FC9F715
:10234000880F911D9695879597F90895E1E0660F9E
:10235000771F881FBB1F621773078407BA0720F017
:10236000621B730B840BBA0BEE1F88F7E095089580
:1023700098D088F09F5790F0B92F9927B751A0F0C7
:10238000D1F0660F771F881F991F1AF0BA95C9F709
:1023900012C0B13081F09FD0B1E008959CC0672F8A
:1023A000782F8827B85F39F0B93FCCF386957795B9
:1023B0006795B395D9F73EF49095809570956195A2
:1023C0007F4F8F4F9F4F0895E89409C097FB3EF4CD
:1023D00090958095709561957F4F8F4F9F4F992372
:1023E000A9F0F92F96E9BB279395F69587957795F0
:1023F0006795B795F111F8CFFAF4BB0F11F460FFB0
:102400001BC06F5F7F4F8F4F9F4F16C0882311F007
:1024100096E911C0772321F09EE8872F762F05C01B
:10242000662371F096E8862F70E060E02AF09A95B6
:10243000660F771F881FDAF7880F9695879597F9AB
:10244000089597F99F6780E870E060E008959FEF36
:1024500080EC089500240A9416161706180609063B
:10246000089500240A94121613061406050608950A
:10247000092E0394000C11F4882352F0BB0F40F492
:10248000BF2B11F460FF04C06F5F7F4F8F4F9F4FD2
:10249000089557FD9058440F551F59F05F3F71F054
:1024A0004795880F97FB991F61F09F3F79F08795BB
:1024B0000895121613061406551FF2CF4695F1DF44
:1024C00008C0161617061806991FF1CF86957105D4
:1024D000610508940895E894BB2766277727CB0108
:1024E00097F908950BD0C4CFB5DF28F0BADF18F004
:1024F000952309F0A6CFABCF1124EECFCADFA0F30E
:10250000959FD1F3950F50E0551F629FF001729F88
:10251000BB27F00DB11D639FAA27F00DB11DAA1FA7
:10252000649F6627B00DA11D661F829F2227B00DF4
:10253000A11D621F739FB00DA11D621F839FA00D7F
:10254000611D221F749F3327A00D611D231F849FCF
:10255000600D211D822F762F6A2F11249F57504026
:102560008AF0E1F088234AF0EE0FFF1FBB1F661FC1
:10257000771F881F91505040A9F79E3F510570F07A
:1025800060CFAACF5F3FECF3983EDCF3869577955A
:102590006795B795F795E7959F5FC1F7FE2B880F75
:1025A000911D9695879597F90895AA1BBB1B51E13C
:1025B00007C0AA1FBB1FA617B70710F0A61BB70BB3
:1025C000881F991F5A95A9F780959095BC01CD0158
:1025D000089597FB072E16F4009407D077FD09D0D5
:1025E0000E94D51207FC05D03EF4909581959F4F2F
:1025F0000895709561957F4F08950E9405133323C8
:1026000012F48A1B9B0B0C941613A29FB001B39F6C
:10261000C001A39F700D811D1124911DB29F700DEB
:10262000811D1124911D08950E940513B7FF08957F
:10263000821B930B0895EE0FFF1F0590F491E02D80
:10264000099481E090E0F8940C947113453251059F
:1026500020F4423010F00C943113FB011082CB01B6
:102660000895BB274A3031F4992322F4BDE29095B6
:1026700081959F4F0C9448134532510520F4423008
:1026800010F00C944713FB011082CB010895BB2777
:10269000FB015527AA27880F991FAA1FA41710F01E
:1026A000A41B83955051B9F7A05DAA3308F0A95D2A
:1026B000A193009779F7B111B1931192CB010C94CA
:1026C0006113DC01FC01672F71917723E1F73297E9
:1026D00004C07C916D9370836291AE17BF07C8F3FD
:0626E0000895F894FFCFFD
:1026E6000000AA028000000000008C03C210C01087
:1026F600C010C010C010C01061027A0300000000B4
:102706008C03C210A10863083908EA07E8076102CA
:102716007A035345434F4E4420434F554E5445523A
:102726003A200A0053756363657366756C6C79208D
:10273600696E697469616C697365642055534152A9
:1027460054200A007769726520626567696E732096
:102756000A006E756E20776F726B73200A00494E01
:10276600543A2000000000006F0C420C170C1F0C9E
:04277600320C410CD4
:00000001FF
