:100000000C9435020C945D020C945D020C945D021C
:100010000C945D020C945D020C945D020C945D02E4
:100020000C945D020C945D020C945D020C945D02D4
:100030000C945D020C945D020C945D020C945D02C4
:100040000C94B9180C945D020C945D020C945D0242
:100050000C945D020C945D020C945D020C945D02A4
:100060000C948C170C945D0200000000000000004E
:1000700030787830300030006C6C6C00000000008C
:100080006C6CFE6CFE6C6C00307CC0780CF8300040
:1000900000C6CC183066C600386C3876DCCC7600EA
:1000A0006060C00000000000183060606030180020
:1000B000603018181830600000663CFF3C66000095
:1000C000003030FC30300000000000000070306074
:1000D000000000FC000000000000000000303000C4
:1000E000060C183060C0800078CCDCFCECCC7800CA
:1000F00030F030303030FC0078CC0C3860CCFC0074
:1001000078CC0C380CCC78001C3C6CCCFE0C0C0071
:10011000FCC0F80C0CCC78003860C0F8CCCC78006F
:10012000FCCC0C183060600078CCCC78CCCC78005B
:1001300078CCCC7C0C1870000000303000303000DF
:100140000000303000703060183060C0603018003F
:100150000000FC00FC0000006030180C183060004B
:1001600078CC0C18300030007CC6DEDEDEC07800B3
:100170003078CCCCFCCCCC00FC66667C6666FC009F
:100180003C66C0C0C0663C00FC6C6666666CFC00E9
:10019000FE6268786862FE00FE6268786860F0005F
:1001A0003C66C0C0CE663E00CCCCCCFCCCCCCC00F7
:1001B00078303030303078001E0C0C0CCCCC78000D
:1001C000E6666C786C66E600F06060606266FE0071
:1001D000C6EEFED6C6C6C600C6E6F6DECEC6C6006B
:1001E000386CC6C6C66C3800FC66667C6060F00081
:1001F00078CCCCCCDC781C00FC66667C786CE600A5
:1002000078CCE0381CCC7800FCB43030303078004A
:10021000CCCCCCCCCCCCFC00CCCCCCCCCC78300076
:10022000C6C6C6D6FEEEC600C6C66C386CC6C600CC
:10023000CCCCCC7830307800FECC983062C6FE0052
:100240007860606060607800C06030180C06020062
:10025000781818181818780010386CC600000000BC
:1002600000000000000000FF303018000000000017
:100270000000780C7CCC7600E0607C666666BC0092
:10028000000078CCC0CC78001C0C0C7CCCCC760068
:10029000000078CCFCC07800386C60F06060F00042
:1002A000000076CCCC7C0CF8E0606C766666E600EC
:1002B0003000703030307800180078181818D87076
:1002C000E060666C786CE60070303030303078007A
:1002D0000000ECFED6C6C6000000F8CCCCCCCC00AA
:1002E000000078CCCCCC78000000DC66667C60F046
:1002F000000076CCCC7C0C1E0000D86C6C60F0004A
:1003000000007CC0780CF80010307C3030341800CD
:100310000000CCCCCCCC76000000CCCCCC7830002B
:100320000000C6C6D6FE6C000000C66C386CC60065
:100330000000CCCCCC7C0CF80000FC983064FC00B5
:100340001C3030E030301C00181818001818180045
:10035000E030301C3030E00076DC000000000000AF
:1003600010386CC6C6C6FE0043616C696272617467
:10037000696F6E0043616C6962726174696F6E00CF
:100380004128D441CF8300833041ED84640312813E
:1003900041E88385017941CB85392C00340241F74E
:1003A000812041EA82000041C0812641C181114182
:1003B000C582353E41C781BE41B182001B41F281F9
:1003C000084126810141E08F1F1A180A0F06458750
:1003D000320A070207050041E18F002527051009B1
:1003E0003A784D05180D383A1F41B6840A82270025
:1003F00041B78107413A8155413681E8412A82005F
:100400000082013F412B8200008200EF4111FCFC81
:100410004129D4FFFF00000008000201000003048E
:100420000700000000000000000102040810204046
:1004300080010204081020010204081020040404B2
:10044000040404040402020202020203030303037D
:100450000300000000250028002B000000000024FD
:100460000027002A0000160D5F1711241FBECFEFD2
:10047000D8E0DEBFCDBF12E0A0E0B1E0E6E3FAE3F2
:1004800002C005900D92A630B107D9F723E0A6E08F
:10049000B2E001C01D92A631B207E1F714E0CAE64E
:1004A000D4E004C02297FE010E94FA1CC636D10790
:1004B000C9F70E94560C0C94191D0C9400008EBDB7
:1004C00000000DB407FEFDCF8EB508952F923F9228
:1004D0004F925F926F927F928F929F92AF92BF9254
:1004E000CF92DF92EF92FF920F931F93CF93DF9300
:1004F00000D01F92CDB7DEB79B838A83380188E096
:10050000280250011124D501A859B0405D01BC2D2D
:10051000BF77CB2EEA81FB8186819781F1E0FB17C3
:1005200008F462C06B0128E0C20ED11C8C159D0539
:100530000CF46DC0AA81BB8118962D913C9119973E
:10054000FA0138962E173F070CF461C0AA81BB81CF
:10055000ED91FC9111978A01095F1F4F9B01295F63
:100560003F4F0680F781E02DCD010995AA81BB811F
:10057000ED91FC9111970084F185E02DCD01099555
:100580008501085F1F4FF5015490FFEFAF1ABF0AB6
:1005900098E0892E912C20E8422EAA81BB81ED9112
:1005A000FC911197842D85210284F385E02D882309
:1005B00019F0B301CD0103C0B7018A819B81099570
:1005C0004694B1E08B1A910841F7A016B106D9F60E
:1005D000AA81BB81ED91FC9111970484F585E02DF2
:1005E000CD010995C60175C0B8E0CB9E80011124EC
:1005F0004B01800E911E881599054CF0040F151FB4
:10060000EA81FB81208531852017310714F401969A
:1006100060C0AA81BB81ED91FC9111970150110935
:100620000680F781E02D940121503109CD01099513
:10063000AA81BB81ED91FC9111970084F185E02D99
:10064000CD0109952501B8E04B0E511CF501D49060
:10065000FFEFAF1ABF0A2C2C08E010E080E8382E1C
:10066000832D8D212C2DA1F0AA81BB81ED91FC91D0
:1006700011970284F385E02DB301CD0129830995FB
:100680002981215089F736940150110949F710C08A
:10069000AA81BB81ED91FC9111970284F385E02D35
:1006A000B701CD01298309952981215089F7EBCF25
:1006B0002A9491F6A414B50409F0C8CFAA81BB818D
:1006C000ED91FC9111970484F585E02DCD010995FC
:1006D000C4010F900F900F90DF91CF911F910F9158
:1006E000FF90EF90DF90CF90BF90AF909F908F9052
:1006F0007F906F905F904F903F902F900895CF9292
:10070000EF92FF920F931F93DC01ED91FC91068411
:10071000F785E02D09951F910F91FF90EF90CF90F5
:100720000895CF92EF92FF920F931F93CF93DF9391
:10073000EC01262F6A3081F48EAD9FAD9BAF8AAF5E
:100740002CA92F778CAD9DAD38E0239F800D911D96
:1007500011249DAF8CAF47C0862F8B7F893009F461
:1007600042C06AAD7BAD203219F461157105D9F133
:10077000E881F981E8ACF9AC0EA91FA94CAD5DADDB
:100780000088F189E02DCCA8CE0109959BAF8AAFF6
:100790002DA9222341F14CA94F77642F70E028EF57
:1007A0002403A00111242E813F81240F351F281717
:1007B0003907CCF48EAD9FAD9BAF8AAFCB0133E050
:1007C000880F991F3A95E1F72CAD3DAD820F931F2D
:1007D0009DAF8CAF28853985240F351F2817390721
:1007E00014F41DAE1CAE81E090E0DF91CF911F911B
:1007F0000F91FF90EF90CF900895FC011382128229
:1008000082E291E0918380831582148277836683EC
:10081000518740871786168615861486138612869A
:10082000178A168A158A148A138A128A118A108ADC
:1008300010AA11AA12AA13AA81E084AB85AB17AA49
:1008400016AA8FEF9FEF91AF80AF17AE16AE15AE21
:1008500014AE13AE12AE0895FC0184819581089503
:10086000AF92BF92CF92DF92EF92FF920F931F93BE
:10087000CF93DF93EC015B01E881F981088519854D
:10088000015011092E813F81215031090680F781E5
:10089000E02D40E050E060E070E00995E881F981EA
:1008A0000084F185E02DCE010995AE81BF812885B8
:1008B00039850E94C71C6B017C0143E0F694E794E4
:1008C000D794C7944A95D1F7E881F981C114D1042E
:1008D000E104F10409F444C00284F385E02DB5017C
:1008E000CE010995E881F9810284F385E02DB501F7
:1008F000CE010995E881F9810284F385E02DB501E7
:10090000CE010995E881F9810284F385E02DB501D6
:10091000CE010995E881F9810284F385E02DB501C6
:10092000CE010995E881F9810284F385E02DB501B6
:10093000CE010995E881F9810284F385E02DB501A6
:10094000CE010995E881F9810284F385E02DB50196
:10095000CE01099581E0C81AD108E108F108B4CFA9
:100960000484F585E02DCE01DF91CF911F910F9189
:10097000FF90EF90DF90CF90BF90AF900994EF92EF
:10098000FF920F931F93CF93DF93EC0179018E8138
:100990009F816817790754F5888599854817590705
:1009A0002CF5E881F9810680F781E02D8A019B0111
:1009B000CE010995E881F9810084F185E02DCE0111
:1009C0000995E881F9810284F385E02DB701CE0114
:1009D0000995E881F9810484F585E02DCE01DF9148
:1009E000CF911F910F91FF90EF900994DF91CF91DC
:1009F0001F910F91FF90EF9008958F929F92AF9269
:100A0000BF92CF92DF92EF92FF920F931F93CF93FB
:100A1000DF93EC016901480157012E813F81621784
:100A200073071CF0B90161507109888599854817D1
:100A300059071CF0AC0141505109FB01EC0DFD1DA3
:100A4000E217F3071CF06901C61AD70A9A01280DAC
:100A5000391D281739071CF04C01841A950AE881C2
:100A6000F9818A01080D191D015011099B012C0DF6
:100A70003D1D215031090680F781E02DCE010995F9
:100A8000E881F9810084F185E02DCE01099594017A
:100A9000D6010E94C71C6B017C01E881F981C11459
:100AA000D104E104F10461F00284F385E02DB50185
:100AB000CE01099581E0C81AD108E108F108EDCF0F
:100AC0000484F585E02DCE01DF91CF911F910F9128
:100AD000FF90EF90DF90CF90BF90AF909F908F905E
:100AE00009942F923F924F925F926F927F928F92D2
:100AF0009F92AF92BF92CF92DF92EF92FF920F93AD
:100B00001F93CF93DF93CDB7DEB728970FB6F89436
:100B1000DEBF0FBECDBF4C016B0158874F8359011B
:100B200062177307A1F40417150744F40427152767
:100B30004027512758874F83042715272F81388551
:100B4000021B130B0F5F1F4F21E030E015C04F81D8
:100B5000588540175107B9F42617370734F4A626ED
:100B6000B726CA24DB24AC24BD2495012C193D09E9
:100B70002F5F3F4F01E010E04F815885B601C4015F
:100B80000E94FD04A0C0FC01268137816217730713
:100B900024F06901F1E0CF1AD108F4018085918534
:100BA0004F8158854817590724F0FC013197F88781
:100BB000EF83A216B30624F05901F1E0AF1AB10891
:100BC000081719071CF08C010150110935016C1828
:100BD0007D0828012F813885421A530A77FE08C004
:100BE0007194619471084FEF5FEF5A83498304C099
:100BF00081E090E09A83898357FE08C05194419424
:100C00005108EFEFFFEFFC83EB8304C021E030E0FD
:100C10003C832B83A301440F551F5E834D83120138
:100C2000220C331C97014F815885B601C4010E94E4
:100C3000BF04461457041CF5810106191709CA148C
:100C4000DB0409F440C017FD0CC08F819885EB814F
:100C5000FC818E0F9F1F98878F832D813E81021B01
:100C6000130B49815A81C40ED51E020D131D970125
:100C70004F815885B601C4010E94BF04E0CFAD800A
:100C8000BE80A418B5088F81988580179107D9F088
:100C9000B7FC06C089819A81C80ED91EA218B30874
:100CA000EF81F8852B813C81E20FF31FF887EF83FA
:100CB0004D815E81A40EB51E9701AF01B601C4013E
:100CC0000E94BF04E0CF28960FB6F894DEBF0FBE97
:100CD000CDBFDF91CF911F910F91FF90EF90DF90EB
:100CE000CF90BF90AF909F908F907F906F905F90CC
:100CF0004F903F902F9008954F925F926F927F9206
:100D00008F929F92AF92BF92CF92DF92EF92FF921B
:100D10000F931F93CF93DF93EC016B015A012901CD
:100D2000380121E030E00E94FD04A501460D571D69
:100D30004150510901E010E09201B601CE010E943C
:100D4000FD04B601640D751D61507109830121E038
:100D500030E0A501CE010E94FD0401E010E0920107
:100D6000A501B601CE010E94FD04DF91CF911F9134
:100D70000F91FF90EF90DF90CF90BF90AF909F903A
:100D80008F907F906F905F904F9008952F923F9239
:100D90004F925F926F927F928F929F92AF92BF928B
:100DA000CF92DF92EF92FF920F931F93CF93DF9337
:100DB00000D000D0CDB7DEB76C012B013A013C83E7
:100DC0002B837901F194E194F108A12CB12C2B81B2
:100DD0003C812A153B050CF466C04501860C971C26
:100DE0009801A4012B803C80240C351CB101C60164
:100DF0000E94BF049801A401B2018B819C81681BF1
:100E0000790B7A836983C6010E94BF0443018A1863
:100E10009B089801A401B101C6010E94BF0498017A
:100E2000A40169817A81C6010E94BF041501240CC6
:100E3000351C98018B809C80860C971CA401B10105
:100E4000C6010E94BF04F201EA19FB09FA83E98393
:100E50009801A401BF01C6010E94BF04980143018B
:100E60006B817C81861A970AA401B101C6010E9498
:100E7000BF049801A40169817A81C6010E94BF0460
:100E8000C5010196EA0CFB1CE80EF91EF7FC09C02F
:100E9000EB81FC813197FC83EB83EE1AFF0AEE1A9B
:100EA000FF0A5C0194CF0F900F900F900F90DF918D
:100EB000CF911F910F91FF90EF90DF90CF90BF9057
:100EC000AF909F908F907F906F905F904F903F90EA
:100ED0002F9008952F923F924F925F926F927F9240
:100EE0008F929F92AF92BF92CF92DF92EF92FF923A
:100EF0000F931F93CF93DF9300D000D000D0CDB7D6
:100F0000DEB75C011B012A013E832D834801690184
:100F1000D194C194D108612C712C2D813E8126156C
:100F200037050CF455C0A301440D551D74018A0109
:100F30002D813E81220D331D3A832983B1018D819C
:100F40009E81681B790B7C836B83C5010E947105B0
:100F5000A201461957098A0129813A816B817C8156
:100F6000C5010E947105F301E20DF31DFC83EB83C3
:100F70009101261937093A8329834D815E81440DF9
:100F8000551D8A019F0169817A81C5010E94710501
:100F9000A2016D817E81461B570B8A012B813C810A
:100FA00069817A81C5010E947105C3010196C60C51
:100FB000D71CC80ED91ED7FC09C0ED81FE81319720
:100FC000FE83ED83CE1ADF0ACE1ADF0A3C01A5CFDD
:100FD00026960FB6F894DEBF0FBECDBFDF91CF913E
:100FE0001F910F91FF90EF90DF90CF90BF90AF9047
:100FF0009F908F907F906F905F904F903F902F9039
:1010000008954F925F926F927F928F929F92AF92CC
:10101000BF92CF92DF92EF92FF920F931F93CF93E5
:10102000DF935C01CB014A0138012701DC2CE90187
:101030002991222399F0D501ED91FC910684F78541
:10104000E02DCD2C72018301A401BC01C5010995DD
:10105000F501268137812817390754F7DF91CF91A1
:101060001F910F91FF90EF90DF90CF90BF90AF90C6
:101070009F908F907F906F905F904F9008954F92C8
:101080005F926F927F928F929F92AF92BF92CF9218
:10109000DF92EF92FF920F931F93CF93DF93EC01B8
:1010A000CB014A01F90138012701DC2C24915F01B1
:1010B0002223B9F0E881F9810684F785E02DCD2C53
:1010C00072018301A401BC01CE0109952FEFA21A80
:1010D000B20A2E813F81281739071CF0F5012491AF
:1010E000E7CFDF91CF911F910F91FF90EF90DF90AD
:1010F000CF90BF90AF909F908F907F906F905F90B8
:101100004F9008952F923F924F925F926F927F92ED
:101110008F929F92AF92BF92CF92DF92EF92FF9207
:101120000F931F93CF93DF93CDB7DEB7E4970FB63E
:10113000F894DEBF0FBECDBF8C011B01DA012D91EB
:101140003D914D915C9113972D873E874F87588B2A
:1011500050964D915D916D917C91539749875A8737
:101160006B877C876D857E858F85988929853A85F3
:101170004B855C85621B730B840B950B6D8F7E8F8B
:101180008F8F98A31C964D915D916D917C911F97C7
:1011900049A35AA36BA37CA354966D917D918D9125
:1011A0009C915797698F7A8F8B8F9C8F29A13AA139
:1011B0004BA15CA1261B370B480B590B2DA33EA35B
:1011C0004FA358A718964D915D916D917C911B97F7
:1011D000498B5A8B6B8B7C8BCB01BA0129853A8565
:1011E0004B855C85621B730B840B950B69A77AA7F3
:1011F0008BA79CA714964D915D916D917C9117974B
:101200004DA75EA76FA778AB898D9A8DAB8DBC8DEE
:10121000481B590B6A0B7B0B49AB5AAB6BAB7CABD6
:101220002DA13EA14FA158A56D8D7E8D8F8D98A1CA
:101230000E94951C6B017C0129A93AA94BA95CA9C4
:1012400069A57AA58BA59CA50E94951CC61AD70AEC
:10125000E80AF90AD801D096CD92DD92ED92FC927F
:10126000D397CD28CE28CF2809F49CC1D1012D9148
:101270003D914D915C91139729833A834B835C8315
:101280005096CD90DD90ED90FC90539729013A0156
:101290004C185D086E087F0818962D913D914D9170
:1012A0005C911B972D833E834F8358872C193D09F2
:1012B0004E095F092D8B3E8B4F8B588FA3019201F6
:1012C0006DA17EA18FA198A50E94951C4B015C0188
:1012D0002D893E894F89588D69A97AA98BA99CA926
:1012E0000E94951C861A970AA80AB90AF801808EEE
:1012F000918EA28EB38E6D8D7E8D8F8D98A10E9462
:10130000951C4B015C01A301920169A57AA58BA5EF
:101310009CA50E94951C861A970AA80AB90A848E71
:10132000958EA68EB78EA70196016D857E858F85D9
:1013300098890E94951C4B015C0129813A814B815F
:101340005C8169857A858B859C850E94951C861AAF
:10135000970AA80AB90AA501940169A17AA18BA1EB
:101360009CA10E94951C2B013C012D813E814F8147
:10137000588569857A858B859C850E94951C4B01D3
:101380005C01A701960169897A898B899C890E94F1
:10139000951C861A970AA80AB90AA50194016DA599
:1013A0007EA58FA598A90E94951C460E571E681E03
:1013B000791E29813A814B815C8169897A898B897F
:1013C0009C890E94951C6B017C012D813E814F817F
:1013D00058856D857E858F8598890E94951CC61AD3
:1013E000D70AE80AF90AA7019601698D7A8D8B8DD3
:1013F0009C8D0E94951C460E571E681E791E40A2A9
:1014000051A262A273A2D10114962D913D914D91EA
:101410005C91179729833A834B835C835496CD90D4
:10142000DD90ED90FC90579729013A014C185D082A
:101430006E087F081C962D913D914D915C911F97F0
:101440002D833E834F8358872C193D094E095F0930
:101450002D8B3E8B4F8B588FA30192016DA17EA1E6
:101460008FA198A50E94951C4B015C012D893E8996
:101470004F89588D69A97AA98BA99CA90E94951CAE
:10148000861A970AA80AB90A84A295A2A6A2B7A2A8
:101490006D8D7E8D8F8D98A10E94951C4B015C01F6
:1014A000A301920169A57AA58BA59CA50E94951C14
:1014B000861A970AA80AB90A80A691A6A2A6B3A678
:1014C000A70196016D857E858F8598890E94951C60
:1014D0004B015C0129813A814B815C8169857A8568
:1014E0008B859C850E94951C861A970AA80AB90AC2
:1014F000A501940169A17AA18BA19CA10E94951CD0
:101500004B015C012D813E814F81588569857A852B
:101510008B859C850E94951C2B013C01A70196019F
:1015200069897A898B899C890E94951C461A570A79
:10153000680A790AA30192016DA57EA58FA598A9D5
:101540000E94951C860E971EA81EB91E29813A81FD
:101550004B815C8169897A898B899C890E94951C61
:101560006B017C012D813E814F8158856D857E8583
:101570008F8598890E94951CC61AD70AE80AF90A2D
:10158000A7019601698D7A8D8B8D9C8D0E94951C8B
:10159000860E971EA81EB91E84A695A6A6A6B7A657
:1015A00080E001C081E0E4960FB6F894DEBF0FBE84
:1015B000CDBFDF91CF911F910F91FF90EF90DF9002
:1015C000CF90BF90AF909F908F907F906F905F90E3
:1015D0004F903F902F900895AF92BF92CF92DF929D
:1015E000EF92FF920F931F93CF93DF93EC01A888A4
:1015F000B9888C899D890A891B89A816B90609F4BE
:101600005FC0BD8AAC8A288D398D4A8D5B8DD5012E
:101610000E94F01C6B017C012C8D3D8D4E8D5F8DE9
:10162000D8010E94F01CC60ED71EE81EF91E88A124
:1016300099A1AAA1BBA1C80ED91EEA1EFB1E28A90A
:1016400039A94AA95BA9C701B6010E94A51CDA0104
:10165000C9016C817D816A35710571F018F4672BC1
:1016600041F02CC0643B710521F06E30714021F0D7
:1016700025C06E817F8102C0688579856B01CC0CA5
:10168000DD1CEE24D7FCE094FE2C2C153D054E0508
:101690005F0588F46B01EE24D7FCE094FE2C2C153A
:1016A0003D054E055F0550F0CB010197AA2797FD38
:1016B000A095BA2F03C080E090E0DC019B878A8769
:1016C0008E899F890817190709F45FC01F8B0E8B3D
:1016D0002CA13DA14EA15FA1D5010E94F01C6B0180
:1016E0007C0128A539A54AA55BA5D8010E94F01C5C
:1016F000C60ED71EE81EF91E8CA59DA5AEA5BFA5DA
:10170000C80ED91EEA1EFB1E28A939A94AA95BA941
:10171000C701B6010E94A51CDA01C9016C817D8157
:101720006A35710571F018F4672B41F02CC0643BE9
:10173000710521F06E30714021F025C068857985F2
:1017400002C06E817F816B01CC0CDD1CEE24D7FCC6
:10175000E094FE2C2C153D054E055F0588F46B01C9
:10176000EE24D7FCE094FE2C2C153D054E055F05BC
:1017700050F0CB010197AA2797FDA095BA2F03C07F
:1017800080E090E0DC019D878C87DF91CF911F91F5
:101790000F91FF90EF90DF90CF90BF90AF900895A2
:1017A000CF93DF93EC010E94EC0A2C813D8121153F
:1017B000310519F48A859B8512C02A35310519F443
:1017C0008C859D850CC08E819F81243B310519F449
:1017D0002A853B8502C02C853D85821B930BDF91BA
:1017E000CF910895CF93DF93EC010E94EC0A8C8196
:1017F0009D81009719F48C859D8514C08A359105CB
:1018000029F4888599852A853B8507C0843B910505
:1018100039F4888599852C853D85821B930B02C000
:101820008A859B85DF91CF910895FC0186859785F8
:1018300008950F931F93CF93DF936AEA80E090E0BF
:101840000E940B1D0EE112E0C1E0D0E0F8016191B1
:101850008F01CE010E940B1D2196CD31D105B1F72C
:10186000DF91CF911F910F9108950F931F93CF9305
:10187000DF9380E090E00E94031D8A3A79F40EE144
:1018800012E0C1E0D0E0CE010E94031DF801819377
:101890008F012196CD31D105B1F702C081E001C0A1
:1018A00080E0DF91CF911F910F910895CF93DF9347
:1018B000CDB7DEB7C154D1090FB6F894DEBF0FBE65
:1018C000CDBF0E944E1986E092E00E9401136AE5A6
:1018D00070E086E092E00E94F11187E492E00E94BD
:1018E0001E1664E371E087E492E00E94361686E0FB
:1018F00092E00E94B80F86E092E00E94150C892BBE
:1019000009F08DC00E94350C811189C060E070E043
:1019100086E092E00E9430048CE1F82E09E811E0A4
:1019200080910802909109029C838B8380910A0226
:1019300090910B029E838D8380910C0290910D02F9
:1019400098878F8380910E0290910F029A878987E2
:1019500080911002909111029C878B8780911202D6
:10196000909113029E878D878091140290911502A9
:10197000988B8F8780911602909117029A8B898B92
:1019800080911802909119029C8B8B8B80911A0286
:1019900090911B029E8B8D8B80911C0290911D0259
:1019A000988F8F8BEEE1F2E0DE0159968F2D01903A
:1019B0000D928A95E1F780913A028DAB80913B02BE
:1019C0008EAB80913C0290913D0298AF8FAB80919D
:1019D0003E0290913F029AAF89AF80914002909170
:1019E00041029CAF8BAF80914202909143029EAF27
:1019F0008DAF809144029091450221969FAF8EAFAA
:101A000021971A8309838091460222968FAF2297ED
:101A100040E060E0CE0101960E947C0D81CF86E01F
:101A200092E00E944C100E94190C70CF86E092E068
:101A30000C94A80FCF93DF93EC01FB01828193817B
:101A40009B838A8382E291E0998388838481958154
:101A50009D838C83868197819F838E8380859185EA
:101A600099878887828593859B878A8784859585D2
:101A70009D878C87868597859F878E8780899189AA
:101A8000998B888B828993899B8B8A8B8489958992
:101A90009D8B8C8B868997899F8B8E8B8CE178961A
:101AA000DE01589601900D928A95E1F7FB0184A919
:101AB0008CAB85A98DAB86A997A99FAB8EAB80AD6A
:101AC00091AD99AF88AF82AD93AD9BAF8AAF84AD36
:101AD00095AD9DAF8CAF86AD97AD9FAF8EAF89E8CA
:101AE00091E099838883E05CFF4F8081C05CDF4F89
:101AF0008883DF91CF910895CF93DF93CDB7DEB781
:101B0000CC54D1090FB6F894DEBF0FBECDBF5C0137
:101B10002C966FAF2C972D964FAF2D974E0182E4E8
:101B2000880E911C59E0752E6AE1662E70EF572ED3
:101B300060914B0270E0CE01845B9F4F0E94431680
:101B4000EAE6F1E0D401872D01900D928A95E1F744
:101B5000F40101900020E9F73197E819F909652DA2
:101B60006E9E6019112470E023E0C22EE12CF12C4E
:101B700000E018EF24E531E04FE050E0C5010E949D
:101B80000108B501CE0101960E941A0D38E2C32E5C
:101B9000D12C48ECE42EF12C0BE410E024E130E0F1
:101BA0004DE551E0BE016F5F7F4FCE01855B9F4FDA
:101BB0000E94140EB501CE0101960E941A0D07E88D
:101BC00010E024E130E04AE651E0BE016F5F7F4F54
:101BD000CE01855B9F4F0E94140E882359F0B501FA
:101BE000CE0101960E941A0D40E060E0CE01019600
:101BF0000E943315B501CE0101960E941A0D88E2AC
:101C0000C82ED12C98ECE92EF12C03EC10E024E145
:101C100030E043E751E0BE016F5F7F4FCE01855B4F
:101C20009F4F0E94140E84CF2F923F924F925F924B
:101C30006F927F928F929F92AF92BF92CF92DF92DC
:101C4000EF92FF920F931F93CF93DF9300D000D0BA
:101C500000D0CDB7DEB77E836D831A0159014801EC
:101C600027013601FA0101900020E9F79F01215078
:101C700031096901C41AD50A43E0CC0CDD1C4A9530
:101C8000E1F7CB010E94B80F8D819E810E94150C57
:101C9000F301F695E795FA83E98397013695279541
:101CA0003C832B83892B09F45AC08D819E810E942D
:101CB000D00B8A159B0508F452C08D819E810E942D
:101CC000D00B95012E0D3F1D2817390708F447C08A
:101CD0008D819E810E94F20B8017910708F43FC00E
:101CE0008D819E810E94F20B9801260D371D2817C9
:101CF0003907A8F1E12C28EFF22E83019201A4010B
:101D0000B5018D819E810E94FD0449815A81480D53
:101D1000591D485051096B817C816A0D7B1D6C19DE
:101D20007D0932E0C32E00E010E091018D819E819B
:101D30000E9401083FEF89E698E1315080409040D1
:101D4000E1F700C00000E12CF12C83019201A40115
:101D5000B5018D819E810E94FD0481E023C0E12CAC
:101D600088EFF82E83019201A401B5018D819E8137
:101D70000E947C0649815A81480D591D48505109DD
:101D80006B817C816A0D7B1D6C197D0992E0C92EE7
:101D9000E12CF12C00E018EF91018D819E810E94D1
:101DA000010880E026960FB6F894DEBF0FBECDBFC7
:101DB000DF91CF911F910F91FF90EF90DF90CF9027
:101DC000BF90AF909F908F907F906F905F904F905B
:101DD0003F902F9008954F925F926F927F928F92D3
:101DE0009F92AF92BF92CF92EF92FF920F931F9369
:101DF000CF93DF93EB014A01390158012701F70125
:101E00008081882321F0E12CF8EFFF2E02C0E12C25
:101E1000F12C85019501A301B401CE010E94FD04BE
:101E2000CE010E94B80FCE010E94150C892BF1F053
:101E3000CE010E94D00B88159905C0F0CE010E94FA
:101E4000D00B9501280D391D2817390778F0CE01E0
:101E50000E94F20B8615970548F0CE010E94F20B06
:101E60009501260D371D2817390758F4E12C78EF16
:101E7000F72E85019501A301B401CE010E947C06D5
:101E800025C0CC24C394E12CF12C00E018EF2DE701
:101E900031E04AEF50E060E070E0CE010E940108BE
:101EA000F2018081811107C081E0F2018083E12C81
:101EB000E8EFFE2E04C0F2011082E12CF12C850126
:101EC0009501A301B401CE010E94FD04DF91CF91E1
:101ED0001F910F91FF90EF90CF90BF90AF909F9088
:101EE0008F907F906F905F904F9008955F9A0895C4
:101EF000CF93DF931F92CDB7DEB7872F2B9A2D9804
:101F00009CB59F7B9CBD2D9A9CB590649CBD6983BC
:101F10000E945F022B9A2D989CB59F7B9CBD2D9AA9
:101F20009CB590649CBD6981862F0F90DF91CF9105
:101F30000C945F022CB5982F93702C7F922B9CBD34
:101F40009DB582FB882780F99E7F982B9DBD0895C3
:101F5000CF93DF93EC0140EF50E060E471E00E942A
:101F6000FD0389E891E099838883DF91CF910895FB
:101F7000BF92CF92DF92EF92FF920F931F93CF9376
:101F8000DF93EC01ECB4FDB485E00E949A0F5E98FB
:101F900088EB0E945F0280E00E945F02082F88ECBD
:101FA0000E945F0280E00E945F025E9A182F1095E7
:101FB0001F770F77100F163008F45AC05E9880E92B
:101FC0000E945F0280E00E945F02082F80E00E9472
:101FD0005F0280E90E945F0280E00E945F02D82ECB
:101FE00080E00E945F02C82E0D1140C080ED0E946B
:101FF0005F0280E00E945F02D82E80E00E945F02B4
:1020000080ED0E945F0280E00E945F02B82E80E0B7
:102010000E945F02DB102AC04C2D50E096E05595DF
:1020200047959A95E1F794E0099FB0011124462B5A
:10203000572B6FEF73E0641B750BA1F0282F30E076
:1020400086E0359527958A95E1F784E0D89EA00132
:102050001124242B352B2115310521F0798B688B28
:102060003B8B2A8B812F90E09F878E875E9A02C0E0
:102070001F861E86ECBCFDBC81E02E853F85232B90
:1020800009F480E0DF91CF911F910F91FF90EF90C5
:10209000DF90CF90BF9008953F924F925F926F92E2
:1020A0007F928F929F92AF92BF92CF92DF92EF92E8
:1020B000FF920F931F93CF93DF93CDB7DEB7E097D7
:1020C0000FB6F894DEBF0FBECDBF5C0188E1E6E03D
:1020D000F1E0DE01599601900D928A95E1F7C50174
:1020E0000E942C042C01D501ED91FC910480F58116
:1020F000E02D60E070E0C50109956FEF7FEFC5014D
:102100000E943004F5014085518557FF02C04F5FA2
:102110005F4F559547954A505109D50116966D91D7
:102120007C91179777FF02C06F5F7F4F759567951A
:1021300062537109CC24C394EE24EA94FE2C00E08F
:1021400010E024E733E0C5010E943F08C5010E946A
:10215000B80F8111FBCF4E01B9E18B0E911C612CA0
:10216000712C382CD92CF401448155816081718106
:1021700000E010E022E030E0C5010E94C606D40174
:1021800014964D915C9115976D917C9125E030E00E
:10219000C5010E94C606F4014481558160817181A8
:1021A00000E018EF2AE030E0C5010E94C606C50134
:1021B0000E94B80F8823B9F2730173E0EE0CFF1C84
:1021C0007A95E1F781E090E08C0F9D1FE80EF91EF3
:1021D000D7015C964D915C915D9758966D917C917D
:1021E000599722E030E0C5010E946A07F501808915
:1021F0009189AA2797FDA095BA2FF7018083918333
:10220000A283B383D50152968D919C915397AA27AF
:1022100097FDA095BA2F84839583A683B78364E640
:1022200070E080E090E00E9426196FEF7FEFC5011B
:102230000E943004F2E06F1621F1D50118964D91FD
:102240005C91199757FF02C04F5F5F4F55954795B7
:102250004A505109F5016681778177FF02C06F5FAF
:102260007F4F7595679562537109CC24C394EE2412
:10227000EA94FE2C00E010E028E633E0C5010E945D
:102280003F08FFEF6F1A7F0A88E0880E911C93E0E9
:102290006916710409F067CFAE014F5F5F4F632D80
:1022A0007D2DC5010E948208D501ED91FC9104802D
:1022B000F581E02DB201C5010995C5010E94B80F55
:1022C0008111FBCFE0960FB6F894DEBF0FBECDBFF5
:1022D000DF91CF911F910F91FF90EF90DF90CF9002
:1022E000BF90AF909F908F907F906F905F904F9036
:1022F0003F900895862F5F982B982D989CB59F7BD3
:102300009CBD2D9A9CB590649CBD0E945F025F9A13
:1023100008956CE20E947A115F980895CF93DF933D
:102320001F92CDB7DEB7872F5F982B9A2D989CB55B
:102330009F7B9CBD2D9A9CB590649CBD69830E9437
:102340005F022B9A2D989CB59F7B9CBD2D9A9CB5C6
:1023500090649CBD6981862F0E945F025F9A0F90F6
:10236000DF91CF910895AF92BF92CF92DF92EF921B
:10237000FF920F931F93CF93DF93EC017B016A01D0
:1023800059016AE20E947A11B701CE010E948E11B2
:10239000B501CE010E948E116BE2CE010E947A112E
:1023A000B601CE010E948E11B801CE01DF91CF910E
:1023B0001F910F91FF90EF90DF90CF90BF90AF9063
:1023C0000C948E11862F5F982B9A2D989CB59F7B2D
:1023D0009CBD2D9A9CB590649CBD0E945F025F9A43
:1023E00008950F931F93CF93DF93EC01693071052C
:1023F00019F06A35710571F48AE590E09D838C834C
:1024000080EF90E09F838E8380E491E099878887B6
:1024100018E434C06231710519F0643B710571F440
:1024200084EB90E09D838C8380E491E09F838E8396
:1024300080EF90E09987888718E320C06B317105A1
:1024400021F07E7F6E30710571F48EE091E09D8306
:102450008C8380EF90E09F838E8380E491E0998766
:10246000888718E80BC01D821C8280E491E09F835E
:102470008E8380EF90E09987888718EE66E3CE011F
:102480000E947A11612FCE010E94E211E881F98148
:1024900008851985015011092E813F81215031098C
:1024A0000680F781E02D40E050E060E070E0CE0172
:1024B0000995DF91CF911F910F910895CF92DF92EF
:1024C000EF92FF920F931F93CF93DF938C015F9A4C
:1024D000289862E370E080E090E00E942619289A34
:1024E00068E770E080E090E00E942619E0E8F3E001
:1024F000EF01219684918F3FA9F1982F907C90381D
:10250000B1F0903C39F1903411F0FE01F1CF8F73AE
:10251000C82E7F01D82EFFEFEF1AFF0ADD20B9F099
:10252000F7016491C8010E947A11DA94F4CF8F7395
:10253000C82E7F01D82EFFEFEF1AFF0ADD2039F0F9
:10254000F7016491C8010E94E211DA94F4CFCC0D36
:10255000D11DDBCF682F6F7370E080E090E00E94A8
:102560002619D3CF60E070E0C801DF91CF911F91B1
:102570000F91FF90EF90DF90CF900C9430041F9359
:10258000CF93DF93EC01162F61E088E00E94111ACF
:10259000289861E089E00E94111A61E087E00E94BA
:1025A000111A61E08DE00E94111A61E08BE00E9437
:1025B000111A60E08CE00E94111A29985F9A61E07C
:1025C00086E00E94111A5E9AFE01E05CFF4F1083C4
:1025D0009CB5937F9CBD9CB59F7D9CBD0E9492162F
:1025E00085E00E949A0FCE010E945E12812F0E9408
:1025F0009A0F6FE770E089E0DF91CF911F910C9403
:10260000891960E00C94BF127F928F929F92AF92D3
:10261000BF92CF92DF92EF92FF920F931F93CF93CF
:10262000DF93CDB7DEB7C254D1090FB6F894DEBF41
:102630000FBECDBF5C0123966FAF2397712C812C09
:10264000912C23E0C22EE12CF12C00E018EF2BE9B5
:1026500031E04FE050E060E070E0C5010E94010809
:1026600032E0C32E26EA31E040E550E06FE070E052
:10267000C5010E940108B501CE0101960E941A0D04
:102680004AE4E42E42E0F42E00E310E02FE330E0D1
:1026900041EB50E0BE016F5F7F4FCE018E5B9F4FDD
:1026A0000E94EB0EE12CF12C00E018EF2EEA31E055
:1026B00046E950E06FE070E0C5010E940108B501F5
:1026C000CE0101960E941A0D59E4E52E52E0F52E36
:1026D00000E310E025E830E041EB50E0BE016F5F21
:1026E0007F4FCE018E5B9F4F0E94EB0EE12CF12CB1
:1026F00000E018EF26EB31E04CED50E06FE070E0C9
:10270000C5010E940108B501CE0101960E941A0D73
:1027100068E4E62E62E0F62E00E310E02BEC30E0F9
:1027200041EB50E0BE016F5F7F4FCE018E5B9F4F4C
:102730000E94EB0E20914A0290914902809148023A
:10274000222311F07720A9F0992319F0772009F4BA
:1027500088C0882349F0772019F07724739404C047
:1027600077247394882483942223A9F0911003C0C2
:1027700011C077247394992329F010924A02812C76
:10278000912C02C099249394882329F010924A0234
:1027900088248394912C9923C9F0911012C0811040
:1027A00015C090914A02992321F01092490291E0BC
:1027B00001C090E0882341F010924902882483945C
:1027C00005C09924939402C0992E15C0882399F0CE
:1027D000882089F080914902882321F010924802D4
:1027E000812C912C80914A02882329F01092480272
:1027F000812C99249394B501CE0101960E941A0D63
:1028000088E2C82ED12C98ECE92EF12C0EE011E0D4
:1028100024E130E04EEB51E0BE016F5F7F4FCE010F
:102820008E5B9F4F0E94140E882309F40ACF60E04C
:1028300070E0C5010E943004CE5BDF4F0FB6F89404
:10284000DEBF0FBECDBFDF91CF911F910F91FF90E3
:10285000EF90DF90CF90BF90AF909F908F907F9040
:10286000089577247394812C95CF2F923F924F92A5
:102870005F926F927F928F929F92AF92BF92CF9210
:10288000DF92EF92FF920F931F93CF93DF93CDB719
:10289000DEB7CC54D1090FB6F894DEBF0FBECDBF62
:1028A0005C012D966FAF2D97512C712C612C4E0130
:1028B00082E4880E911C0AE0402E8AE1382E90EFC7
:1028C000292EE9EDF1E0D401842D01900D928A9535
:1028D000E1F7F40101900020E9F73197E819F909CF
:1028E000622D3E9E6019112470E0F3E0CF2EE12CA2
:1028F000F12C00E018EF94014FE050E0C5010E9478
:102900000108A2E0CA2E23EC31E04AE550E06FE076
:1029100070E0C5010E940108B501CE0101960E9438
:102920001A0DBCE4EB2EB2E0FB2E00E310E029E42C
:1029300030E041EB50E0BE016F5F7F4FCE01845B22
:102940009F4F0E94EB0EE12CF12C00E018EF2EECD3
:1029500031E044EB50E06FE070E0C5010E940108F7
:10296000B501CE0101960E941A0D1BE4E12E12E082
:10297000F12E00E310E023EA30E041EB50E0BE012D
:102980006F5F7F4FCE01845B9F4F0E94EB0E909153
:102990004B0280914C02992311F0552089F0882335
:1029A00021F0552039F055245394992389F0611072
:1029B0000AC004C05524539477247394612C08C032
:1029C00055245394712C882371F010924B02F4CF4C
:1029D000882371F0772061F080914B02882331F0D9
:1029E00010924C02712C6624639402C07724739475
:1029F000B501CE0101960E941A0D78E2C72ED12CA6
:102A0000E8ECEE2EF12C0EE011E024E130E04EEB8C
:102A100051E0BE016F5F7F4FCE01845B9F4F0E94EC
:102A2000140E882309F44DCF60E070E0C5010E94C8
:102A30003004C45BDF4F0FB6F894DEBF0FBECDBFCE
:102A4000DF91CF911F910F91FF90EF90DF90CF908A
:102A5000BF90AF909F908F907F906F905F904F90BE
:102A60003F902F9008955F926F927F928F929F92E6
:102A7000AF92BF92CF92DF92EF92FF920F931F938C
:102A8000CF93DF93CDB7DEB7CB54D1090FB6F8940F
:102A9000DEBF0FBECDBF5C012C966FAF2C9760E000
:102AA00070E00E9430044E0182E4880E911CB9E06F
:102AB0007B2E1AE1612E00EF502EEAE6F1E0D40100
:102AC000872D01900D928A95E1F7F4010190002085
:102AD000E9F73197E819F909652D6E9E60191124FF
:102AE00070E0E3E0CE2EE12CF12C00E018EF940131
:102AF0004FE050E0C5010E940108B501CE010196EA
:102B00000E941A0DF8E2CF2ED12CA8ECEA2EF12C5F
:102B10000BE410E024E130E04BE951E0BE016F5FCF
:102B20007F4FCE01855B9F4F0E94140E882381F05A
:102B300060E070E0C5010E943004B501CE0101964D
:102B40000E941A0D40E060E0CE0101960E9404133D
:102B5000B501CE0101960E941A0D48E2C42ED12C77
:102B600058ECE52EF12C07E810E024E130E049EDC7
:102B700051E0BE016F5F7F4FCE01855B9F4F0E948A
:102B8000140E882381F060E070E0C5010E943004DB
:102B9000B501CE0101960E941A0D40E060E0CE0121
:102BA00001960E943514B501CE0101960E941A0DBE
:102BB00028E2C22ED12C38ECE32EF12C03EC10E0ED
:102BC00024E130E043EE51E0BE016F5F7F4FCE0164
:102BD000855B9F4F0E94140EB501CE0101960E94A5
:102BE0001A0D0EE011E024E130E04EEB51E0BE01A1
:102BF0006F5F7F4FCE01855B9F4F0E94140E88232D
:102C000009F45BCF60E070E0C5010E943004C55B51
:102C1000DF4F0FB6F894DEBF0FBECDBFDF91CF916F
:102C20001F910F91FF90EF90DF90CF90BF90AF90EA
:102C30009F908F907F906F905F9008951092C50045
:102C400080E18093C400E0ECF0E0808182608083CA
:102C500088E18093C10086E08093C200089580914E
:102C6000C00085FFFCCF6093C6000895FB018191F1
:102C7000BF0118163CF49091C00095FFFCCF8093E3
:102C8000C600F4CF0895CF92DF92EF92FF920F9398
:102C90001F93CF93DF93EC017B016FEE71E00E94F5
:102CA0003616B70180E090E00E94A41B20E030E0DF
:102CB0004AE754E40E94101B6B017C0114E0C70139
:102CC000B6010E94781B062F60E3600FCE010E94C0
:102CD0002F16602F70E080E090E00E94A61B9B0101
:102CE000AC01C701B6010E94AB1A20E030E040E21F
:102CF00051E40E94321C27E137EB41ED58E30E947A
:102D0000AC1A6B017C011150D1F662E571E0CE0185
:102D1000DF91CF911F910F91FF90EF90DF90CF90B7
:102D20000C943616CF93CFB7F89480914D02811151
:102D300027C0E7E4F4E08491E3E3F4E09491E82F22
:102D4000F0E0EE0FFF1FE55AFB4FA591B4918C9177
:102D5000892321F461E08AE00E944A1A61E08AE056
:102D60000E94111A8CB580618CBD8CB580648CBDBD
:102D700061E08DE00E94111A61E08BE00E94111A5F
:102D800080914D028F5F80934D02CFBFCF91089508
:102D900080917D0290E020917E02821B910908952E
:102DA00020917E0280917D02281750F4E22FF0E0FE
:102DB000E158FD4F808190E02F5F20937E020895BF
:102DC0008FEF9FEF0895E0917E0280917D02E817DA
:102DD00030F4F0E0E158FD4F808190E008958FEFEE
:102DE0009FEF08950895CF92DF92EF92FF920F9395
:102DF0001F93CF93DF937C01CB018A0120915A026C
:102E0000222389F0EB016B01C40ED51ECC15DD0524
:102E100069F06991D701ED91FC910190F081E02D6D
:102E2000C7010995F3CF642F0E946317C801DF9192
:102E3000CF911F910F91FF90EF90DF90CF90089569
:102E4000CF93DF931F92CDB7DEB7698320915A02EB
:102E50002223D1F020915B02203240F021E030E0CB
:102E6000FC013383228380E090E015C080915C02F6
:102E7000E82FF0E0E35AFD4F998190838F5F8093B4
:102E80005C0280935B0205C061E0CE0101960E9466
:102E9000631781E090E00F90DF91CF910895FC01DE
:102EA0001382128248EE53E060E070E04483558361
:102EB0006683778389EF91E09183808308958EE420
:102EC00092E00C944F17613298F420910C03243057
:102ED00089F46093C102FC0183EC92E0DC012A2FAB
:102EE000281B261718F421912D93F9CF80E008951F
:102EF00081E0089582E0089585ED8093BC00809183
:102F0000BC0084FDFCCF10920C03089585EC8093E7
:102F1000BC0010920C0308951F920F920FB60F92EF
:102F200011242F933F934F935F936F937F938F93CE
:102F30009F93AF93BF93EF93FF938091B900887FE6
:102F4000803609F49CC068F5883209F45BC090F4BF
:102F5000803109F454C038F4882309F4F5C088306E
:102F600009F44DC0F5C0883109F44CC0803209F431
:102F70005DC0EEC0803409F468C048F4803309F4C1
:102F800055C0883309F0E4C080939F02A8C0803503
:102F900009F44FC0883509F45DC0883409F0D8C001
:102FA000D5C0883909F4C6C0A8F4883709F467C0C9
:102FB00038F4883609F463C0803709F460C0C8C0AB
:102FC000883809F4B7C0803909F45FC0803809F047
:102FD000BFC05BC0803B09F485C038F4803A09F477
:102FE00066C0883A09F47EC0B3C0803C09F4A6C02C
:102FF000883C09F4A3C0883B09F489C0A9C080912A
:103000000B0310C09091E4028091E302981770F5D1
:10301000E091E40281E08E0F8093E402F0E0EB5156
:10302000FD4F80818093BB0085EC85C080939F021B
:103030008DC0E091E40281E08E0F8093E4028091E4
:10304000BB00F0E0EB51FD4F80839091E402809152
:10305000E3026DC0E091E40281E08E0F8093E40210
:103060008091BB00F0E0EB51FD4F808380910A031B
:1030700081116CC081E08093090384EA60C083E021
:1030800080930C031092A002CFCF8091A0028032D7
:1030900008F050C0E091A00281E08E0F8093A00262
:1030A0008091BB00F0E0EF55FD4F8083BDCF809154
:1030B000A002803230F4E091A002F0E0EF55FD4F25
:1030C00010820E947C176091A00270E0E0910503DD
:1030D000F091060381EA92E009951092A0020E9405
:1030E000861736C084E080930C031092C2021092BF
:1030F000C102E0910703F091080309958091C10294
:10310000811105C081E08093C1021092C302E09159
:10311000C20281E08E0F8093C202F0E0ED53FD4FBA
:1031200080818093BB009091C2028091C102981768
:1031300008F47ACF85E88093BC000AC085EC8093C0
:10314000BC0010920C0304C010929F020E947C17D6
:10315000FF91EF91BF91AF919F918F917F916F916F
:103160005F914F913F912F910F900FBE0F901F9045
:1031700018951F920F920FB60F9211242F933F9321
:103180008F939F93AF93BF9380910E0390910F0302
:10319000A0911003B091110330910D0323E0230F90
:1031A0002D3720F40196A11DB11D05C026E8230F7F
:1031B0000296A11DB11D20930D0380930E039093E1
:1031C0000F03A0931003B093110380911203909109
:1031D0001303A0911403B09115030196A11DB11D15
:1031E0008093120390931303A0931403B0931503D9
:1031F000BF91AF919F918F913F912F910F900FBEF3
:103200000F901F9018953FB7F894809112039091FA
:103210001303A0911403B091150326B5A89B05C014
:103220002F3F19F00196A11DB11D3FBF6627782FD2
:10323000892F9A2F620F711D811D911D42E0660F2B
:10324000771F881F991F4A95D1F70895CF92DF9273
:10325000EF92FF92CF93DF936B017C010E940319E1
:10326000EB01C114D104E104F10489F00E94AA1A0F
:103270000E9403196C1B7D0B683E734090F381E044
:10328000C81AD108E108F108C851DC4FEACFDF9134
:10329000CF91FF90EF90DF90CF900895789484B510
:1032A000826084BD84B5816084BD85B5826085BD42
:1032B00085B5816085BDEEE6F0E080818160808328
:1032C000E1E8F0E01082808182608083808181600B
:1032D0008083E0E8F0E0808181608083E1EBF0E0D2
:1032E000808184608083E0EBF0E080818160808376
:1032F000EAE7F0E08081846080838081826080835F
:103300008081816080838081806880831092C10089
:1033100008951F93CF93DF93182FEB0161E00E9474
:10332000111A209711F460E004C0CF3FD10539F4A1
:1033300061E0812FDF91CF911F910C944A1AE12F08
:10334000F0E0EB5EFB4FE491E330F9F048F4E1305C
:10335000B9F0E230A1F584B5806284BDC8BD34C047
:10336000E730E9F0E83019F1E43049F58091800068
:10337000806280938000D0938B00C0938A0024C029
:1033800084B5806884BDC7BD1FC0809180008068FF
:1033900080938000D0938900C093880015C08091ED
:1033A000B00080688093B000C093B3000DC08091DE
:1033B000B00080628093B000C093B40005C0C038F4
:1033C000D1050CF0B5CFAFCFDF91CF911F9108950C
:1033D000833081F028F4813099F08230A1F0089593
:1033E0008730A9F08830B9F08430D1F48091800022
:1033F0008F7D03C0809180008F7780938000089537
:1034000084B58F7702C084B58F7D84BD0895809187
:10341000B0008F7703C08091B0008F7D8093B000A3
:103420000895CF93DF9390E0FC01E75DFB4F24917B
:10343000FC01E35CFB4F8491882349F190E0880F05
:10344000991FFC01E55AFB4FA591B4918F5A9B4FF0
:10345000FC01C591D4919FB7611108C0F8948C917B
:10346000209582238C93888182230AC0623051F494
:10347000F8948C91322F309583238C938881822B02
:10348000888304C0F8948C91822B8C939FBFDF912A
:10349000CF9108950F931F93CF93DF931F92CDB7D2
:1034A000DEB7282F30E0F901EB5EFB4F8491F90184
:1034B000E75DFB4F1491F901E35CFB4F049100239E
:1034C000C9F0882321F069830E94E8196981E02FFF
:1034D000F0E0EE0FFF1FEF5AFB4FA591B4919FB79D
:1034E000F8948C91611103C01095812301C0812B48
:1034F0008C939FBF0F90DF91CF911F910F910895F3
:103500000E94FE1CCF92DF92EF92FF920F931F93C7
:10351000CF93DF936C017A01EB01E60EF71E00E01A
:1035200010E0CE15DF0561F06991D601ED91FC91B7
:103530000190F081E02DC6010995080F191FF1CF08
:10354000C801DF91CF911F910F91FF90EF90DF9015
:10355000CF90089508955058BB27AA270ED048C190
:1035600039D130F03ED120F031F49F3F11F41EF4F8
:103570002EC10EF4E095E7FB24C1E92F4AD180F378
:10358000BA17620773078407950718F071F49EF560
:1035900062C10EF4E0950B2EBA2FA02D0B01B901DC
:1035A00090010C01CA01A0011124FF27591B99F0B9
:1035B000593F50F4503E68F11A16F040A22F232FC5
:1035C000342F4427585FF3CF469537952795A79515
:1035D000F0405395C9F77EF41F16BA0B620B730BBC
:1035E000840BBAF09150A1F0FF0FBB1F661F771F2D
:1035F000881FC2F70EC0BA0F621F731F841F48F4E2
:10360000879577956795B795F7959E3F08F0B3CF67
:103610009395880F08F09927EE0F97958795089551
:103620000CD0E6C0DED040F0D5D030F021F45F3FC2
:1036300019F0C7C0511110C1CAC0EBD098F399233B
:10364000C9F35523B1F3951B550BBB27AA27621766
:103650007307840738F09F5F5F4F220F331F441FAB
:10366000AA1FA9F333D00E2E3AF0E0E830D09150E3
:103670005040E695001CCAF729D0FE2F27D0660FD0
:10368000771F881FBB1F261737074807AB07B0E80F
:1036900009F0BB0B802DBF01FF2793585F4F2AF025
:1036A0009E3F510568F08DC0D7C05F3FECF3983E58
:1036B000DCF3869577956795B795F7959F5FC9F782
:1036C000880F911D9695879597F90895E1E0660F0B
:1036D000771F881FBB1F621773078407BA0720F084
:1036E000621B730B840BBA0BEE1F88F7E0950895ED
:1036F00098D088F09F5790F0B92F9927B751A0F034
:10370000D1F0660F771F881F991F1AF0BA95C9F775
:1037100012C0B13081F09FD0B1E008959CC0672FF6
:10372000782F8827B85F39F0B93FCCF38695779525
:103730006795B395D9F73EF490958095709561950E
:103740007F4F8F4F9F4F0895E89409C097FB3EF439
:1037500090958095709561957F4F8F4F9F4F9923DE
:10376000A9F0F92F96E9BB279395F695879577955C
:103770006795B795F111F8CFFAF4BB0F11F460FF1C
:103780001BC06F5F7F4F8F4F9F4F16C0882311F074
:1037900096E911C0772321F09EE8872F762F05C088
:1037A000662371F096E8862F70E060E02AF09A9523
:1037B000660F771F881FDAF7880F9695879597F918
:1037C000089597F99F6780E870E060E008959FEFA3
:1037D00080EC089500240A941616170618060906A8
:1037E000089500240A941216130614060506089577
:1037F000092E0394000C11F4882352F0BB0F40F4FF
:10380000BF2B11F460FF04C06F5F7F4F8F4F9F4F3E
:10381000089557FD9058440F551F59F05F3F71F0C0
:103820004795880F97FB991F61F09F3F79F0879527
:103830000895121613061406551FF2CF4695F1DFB0
:1038400008C0161617061806991FF1CF8695710540
:10385000610508940895E894BB2766277727CB0174
:1038600097F908950BD0C4CFB5DF28F0BADF18F070
:10387000952309F0A6CFABCF1124EECFCADFA0F37A
:10388000959FD1F3950F50E0551F629FF001729FF5
:10389000BB27F00DB11D639FAA27F00DB11DAA1F14
:1038A000649F6627B00DA11D661F829F2227B00D61
:1038B000A11D621F739FB00DA11D621F839FA00DEC
:1038C000611D221F749F3327A00D611D231F849F3C
:1038D000600D211D822F762F6A2F11249F57504093
:1038E0008AF0E1F088234AF0EE0FFF1FBB1F661F2E
:1038F000771F881F91505040A9F79E3F510570F0E7
:1039000060CFAACF5F3FECF3983EDCF386957795C6
:103910006795B795F795E7959F5FC1F7FE2B880FE1
:10392000911D9695879597F90895DB018F939F9345
:103930000E94E51CBF91AF91A29F800D911DA39F96
:10394000900DB29F900D11240895A1E21A2EAA1B8A
:10395000BB1BFD010DC0AA1FBB1FEE1FFF1FA2173F
:10396000B307E407F50720F0A21BB30BE40BF50B3C
:10397000661F771F881F991F1A9469F760957095C5
:10398000809590959B01AC01BD01CF0108950E94E7
:10399000CF1C332312F48A1B9B0B0C94E01CA29FB8
:1039A000B001B39FC001A39F700D811D1124911D13
:1039B000B29F700D811D1124911D08950E94CF1C8E
:1039C000B7FF0895821B930B08950E94CF1CA59FFB
:1039D000900DB49F900DA49F800D911D112408950A
:1039E000B7FF0C94E51C0E94E51C821B930B089505
:1039F000EE0FFF1F0590F491E02D099481E090E017
:103A0000F8940C94191DF999FECF92BD81BDF89AD6
:103A1000992780B50895262FF999FECF1FBA92BD38
:103A200081BD20BD0FB6F894FA9AF99A0FBE01969F
:063A30000895F894FFCF99
:103A360000001603800014000000140000002C0192
:103A4600000078000000A0000000DC00000000007C
:103A560000009103821A801A801A801A801A801A2E
:103A660066027F0353756363657366756C6C7920B4
:103A7600696E697469616C69736564205553415256
:103A860054200A005261636547616D650053696E93
:103A9600676C65706C617965720053657474696EE4
:103AA6006773004869676873636F72650070726553
:103AB6007373656400000000009103821AF111B36C
:103AC600118911780F760F66027F0344696666696D
:103AD60063756C7479004541535920203A004D4571
:103AE6004449554D3A004841524420203A0042612B
:103AF600636B005265616C2D54696D653A005072B6
:103B0600652D54696D65203A0047656E657261746E
:103B16006F720052657365742053636F7265004956
:103B26004E543A2000000000002017F316C816D0A5
:063B360016E316F2160072
:00000001FF
