:100000000C9435020C945D020C945D020C945D021C
:100010000C945D020C945D020C945D020C945D02E4
:100020000C945D020C945D020C945D020C945D02D4
:100030000C945D020C945D020C945D020C945D02C4
:100040000C9425260C945D020C945D020C945D02C8
:100050000C945D020C945D020C945D020C945D02A4
:100060000C94F8240C945D020000000000000000D5
:1000700030787830300030006C6C6C00000000008C
:100080006C6CFE6CFE6C6C00307CC0780CF8300040
:1000900000C6CC183066C600386C3876DCCC7600EA
:1000A0006060C00000000000183060606030180020
:1000B000603018181830600000663CFF3C66000095
:1000C000003030FC30300000000000000070306074
:1000D000000000FC000000000000000000303000C4
:1000E000060C183060C0800078CCDCFCECCC7800CA
:1000F00030F030303030FC0078CC0C3860CCFC0074
:1001000078CC0C380CCC78001C3C6CCCFE0C0C0071
:10011000FCC0F80C0CCC78003860C0F8CCCC78006F
:10012000FCCC0C183060600078CCCC78CCCC78005B
:1001300078CCCC7C0C1870000000303000303000DF
:100140000000303000703060183060C0603018003F
:100150000000FC00FC0000006030180C183060004B
:1001600078CC0C18300030007CC6DEDEDEC07800B3
:100170003078CCCCFCCCCC00FC66667C6666FC009F
:100180003C66C0C0C0663C00FC6C6666666CFC00E9
:10019000FE6268786862FE00FE6268786860F0005F
:1001A0003C66C0C0CE663E00CCCCCCFCCCCCCC00F7
:1001B00078303030303078001E0C0C0CCCCC78000D
:1001C000E6666C786C66E600F06060606266FE0071
:1001D000C6EEFED6C6C6C600C6E6F6DECEC6C6006B
:1001E000386CC6C6C66C3800FC66667C6060F00081
:1001F00078CCCCCCDC781C00FC66667C786CE600A5
:1002000078CCE0381CCC7800FCB43030303078004A
:10021000CCCCCCCCCCCCFC00CCCCCCCCCC78300076
:10022000C6C6C6D6FEEEC600C6C66C386CC6C600CC
:10023000CCCCCC7830307800FECC983062C6FE0052
:100240007860606060607800C06030180C06020062
:10025000781818181818780010386CC600000000BC
:1002600000000000000000FF303018000000000017
:100270000000780C7CCC7600E0607C666666BC0092
:10028000000078CCC0CC78001C0C0C7CCCCC760068
:10029000000078CCFCC07800386C60F06060F00042
:1002A000000076CCCC7C0CF8E0606C766666E600EC
:1002B0003000703030307800180078181818D87076
:1002C000E060666C786CE60070303030303078007A
:1002D0000000ECFED6C6C6000000F8CCCCCCCC00AA
:1002E000000078CCCCCC78000000DC66667C60F046
:1002F000000076CCCC7C0C1E0000D86C6C60F0004A
:1003000000007CC0780CF80010307C3030341800CD
:100310000000CCCCCCCC76000000CCCCCC7830002B
:100320000000C6C6D6FE6C000000C66C386CC60065
:100330000000CCCCCC7C0CF80000FC983064FC00B5
:100340001C3030E030301C00181818001818180045
:10035000E030301C3030E00076DC000000000000AF
:1003600010386CC6C6C6FE0043616C696272617467
:10037000696F6E0043616C6962726174696F6E00CF
:100380004128D441CF8300833041ED84640312813E
:1003900041E88385017941CB85392C00340241F74E
:1003A000812041EA82000041C0812641C181114182
:1003B000C582353E41C781BE41B182001B41F281F9
:1003C000084126810141E08F1F1A180A0F06458750
:1003D000320A070207050041E18F002527051009B1
:1003E0003A784D05180D383A1F41B6840A82270025
:1003F00041B78107413A8155413681E8412A82005F
:100400000082013F412B8200008200EF4111FCFC81
:100410004129D4FFFF00000008000201000003048E
:100420000700000000000000000102040810204046
:1004300080010204081020010204081020040404B2
:10044000040404040402020202020203030303037D
:100450000300000000250028002B000000000024FD
:100460000027002A0000E00D162411241FBECFEF44
:10047000D8E0DEBFCDBF12E0A0E0B1E0E8E5F6E5F0
:1004800002C005900D92A834B107D9F723E0A8E483
:10049000B2E001C01D92A537B207E1F714E0CAE649
:1004A000D4E004C02297FE010E948E2AC636D107EE
:1004B000C9F70E94200D0C942A2B0C940000EF9297
:1004C000FF920F931F93CF93DF93EC0160E070E0F6
:1004D0000E94AE0FEE24E39485E0F82E00E411E0D4
:1004E00024E130E040E050E060E070E0CE010E94A6
:1004F000FA1124E130E040E050E06CED70E0CE0114
:100500000E94FA11DF91CF911F910F91FF90EF9010
:100510000895DC01ED91FC910190F081E02D0994AA
:100520008EBD00000DB407FEFDCF8EB508958F92ED
:100530009F92AF92BF92CF92DF92EF92FF920F9372
:100540001F93CF93DF93982E0E94E02A6C010E94A4
:10055000E02A7C010E94E02A8C010E94E02A5C01D2
:10056000E92DF0E085E0882E8E9EE0018F9ED00D73
:100570001124CB5ADD4FC60165E070E00E94252AA8
:100580008983188229E630E0C701B9010E94252A33
:100590008A568B83C801B9010E94252A8A568C830A
:1005A000AF014F5F5F4F849EF001859EF00D1124D7
:1005B000EB5AFD4FC501B9010E94252A8A56808356
:1005C00080910A01882311F081E00BC08091A9027B
:1005D000882349F00E94E02A62E070E00E94252A08
:1005E0008F5F8A830FC08091A802882359F09110F1
:1005F00002C082E0F6CF81E0981619F082E09812EE
:1006000001C09A82DF91CF911F910F91FF90EF90DF
:10061000DF90CF90BF90AF909F908F90089580E033
:100620000E94970281E00E94970282E00C94970258
:10063000CF93DF93EC01FB01828193819B838A83BB
:1006400088E491E099838883848195819D838C835C
:10065000868197819F838E838085918599878887FE
:10066000828593859B878A87848595859D878C87DE
:10067000868597859F878E8780899189998B888BBE
:10068000828993899B8B8A8B848995899D8B8C8B9E
:10069000868997899F8B8E8B8CE17896DE015896A0
:1006A00001900D928A95E1F7FB0184A98CAB85A995
:1006B0008DAB86A997A99FAB8EAB80AD91AD99AF5D
:1006C00088AF82AD93AD9BAF8AAF84AD95AD9DAF42
:1006D0008CAF86AD97AD9FAF8EAF8EE991E09983D9
:1006E0008883E05CFF4F8081C05CDF4F8883DF91AF
:1006F000CF910895EF92FF920F931F93CF93DF93C3
:10070000CDB7DEB7C354D1090FB6F894DEBF0FBE24
:10071000CDBF7C0180914902811105C00E940F0369
:1007200081E0809349028091A802813009F05BC08A
:1007300090914802983009F056C01092480290916A
:100740005602943011F483E002C0911103C08093EB
:1007500056020FC00E94E02A62E070E00E94252A43
:1007600090915602811102C09F5F01C091509093F9
:10077000560280915B02843011F483E003C0811142
:1007800004C081E080935B020FC00E94E02A62E017
:1007900070E00E94252A90915B02811102C09F5F48
:1007A00001C0915090935B0280916002843011F4FB
:1007B00083E003C0811104C081E08093600213C014
:1007C00080915B02843079F00E94E02A62E070E060
:1007D0000E94252A90916002811102C09F5F01C092
:1007E00091509093600280915402863121F41092CE
:1007F000540280E015C080915302863141F410927A
:10080000530281E00E94970210924B020BC080912C
:100810005202863139F41092520210924A0282E05A
:100820000E949702809157022091510240914E02FE
:10083000B701813091F5CE01019623962FAF239712
:1008400024964FAF24970E94180323962FAD239729
:1008500024964FAD249760E0CE0101960E94A20835
:100860002091540240915602B701CE010196239681
:100870002FAF239724964FAF24970E94180308E5C3
:1008800012E023962FAD239724964FAD249760E076
:10089000CE0101960E94B90631C0CE010196239681
:1008A0002FAF239724964FAF24970E9418032396C7
:1008B0002FAD239724964FAD249760E0CE0101968B
:1008C0000E94B20B2091540240915602B701CE0112
:1008D000019623962FAF239724964FAF24970E941B
:1008E000180308E512E023962FAD239724964FAD09
:1008F000249760E0CE0101960E94FC09809153028A
:100900008093550290915C02809153029130C9F519
:1009100087FD73C02091500240914D02B701CE0176
:10092000019623962FAF239724964FAF24970E94CA
:10093000180323962FAD239724964FAD249760E09C
:10094000CE0101960E94A2082091530240915B02C1
:10095000B701CE01019623962FAF239724964FAF70
:1009600024970E9418030DE512E023962FAD2397DC
:1009700024964FAD249760E0CE0101960E94B906FF
:1009800038C087FD3AC02091500240914D02B70116
:10099000CE01019623962FAF239724964FAF24972D
:1009A0000E94180323962FAD239724964FAD2497CA
:1009B00060E0CE0101960E94B20B2091530240915B
:1009C0005B02B701CE01019623962FAF23972496A1
:1009D0004FAF24970E9418030DE512E023962FAD28
:1009E000239724964FAD249760E0CE0101960E9494
:1009F000FC098091530280935A0290916102809188
:100A000052029130C9F587FD73C020914F02409189
:100A10004C02B701CE01019623962FAF239724965F
:100A20004FAF24970E94180323962FAD2397249647
:100A30004FAD249760E0CE0101960E94A20820915C
:100A4000520240916002B701CE01019623962FAF6A
:100A5000239724964FAF24970E94180302E612E0D2
:100A600023962FAD239724964FAD249760E0CE01B7
:100A700001960E94B90638C087FD3AC020914F0206
:100A800040914C02B701CE01019623962FAF2397D8
:100A900024964FAF24970E94180323962FAD2397D7
:100AA00024964FAD249760E0CE0101960E94B20BD0
:100AB0002091520240916002B701CE010196239627
:100AC0002FAF239724964FAF24970E94180302E676
:100AD00012E023962FAD239724964FAD249760E024
:100AE000CE0101960E94FC098091530280935F021F
:100AF000809154028093510220915302209350021E
:100B00009091520290934F023091560230934E02D0
:100B100030915B0230934D023091600230934C0271
:100B20008F5F80935402873048F430914B0231112B
:100B300005C080914A02811109C00EC02F5F209329
:100B4000530221E020934B028D3098F39F5F9093E6
:100B5000520281E080934A02809148028F5F809325
:100B60004802CD5BDF4F0FB6F894DEBF0FBECDBF9E
:100B7000DF91CF911F910F91FF90EF900895CF9348
:100B8000DF93CDB7DEB7C554D1090FB6F894DEBFF9
:100B90000FBECDBF7C0126964FAF26978FEF2396D1
:100BA0008FAF239724968FAF249725968FAF2597E5
:100BB000B701CE0101960E94180360E0CE010196B4
:100BC0000E945F028FE592E00E944A1EC12C92E0D3
:100BD000D92EB701CE0101960E94180360E0CE0124
:100BE00001960E947A03B701CE0101960E94180374
:100BF0008E010E5B1F4F2CE04D2D60E0CE01019663
:100C00000E94B906809154028C3078F0809156028F
:100C10008D110BC0B701CE0101960E94180340E070
:100C200060E0CE0101960E94BB1E809153028C3081
:100C300078F080915B028D110BC0B701CE01019657
:100C40000E94180340E060E0CE0101960E94BB1EA6
:100C5000809152028C3078F0809160028D110BC02F
:100C6000B701CE0101960E94180340E060E0CE017A
:100C700001960E94BB1E8FE592E00E948D1E882384
:100C800009F46BC08FE592E00E94811E813059F417
:100C9000B701CE0101960E94180340E060E0CE014A
:100CA00001960E94BB1E8FE592E00E947E1E853950
:100CB00098F0C11030C0B701CE0101960E94180310
:100CC0002CE04D2D60E0CE0101960E94A20883E049
:100CD0008D15F0F0D3941CC08FE592E00E947E1E2B
:100CE000873470F18FE592E00E947E1E8C3640F5CD
:100CF000C11011C0B701CE0101960E9418032CE06B
:100D00004D2D60E0CE0101960E94A208D110DA9428
:100D1000CC24C39405C0C39484E08C1508F4C12C82
:100D2000B701CE0101960E9418038E010E5B1F4F82
:100D30002CE04D2D60E0CE0101960E94B9060DC059
:100D40008FE592E00E947E1E893738F08FE592E0B1
:100D50000E947E1E883808F4C12C8FE592E00E9424
:100D6000811E682F70E0CE018B5B9F4F0E94BE22D8
:100D700030CF6F927F928F929F92AF92BF92CF921D
:100D8000DF92EF92FF920F931F93CF93DF936C014B
:100D9000742E622EE8018881887F99819C7F28E0EB
:100DA000929F70011124F82A8A81869586958695EE
:100DB000E82A862D0E9497175C01872D0E949C17B8
:100DC00000E410E028E230E0A501BC01C6010E9469
:100DD000FA118881887F99819C7F28E0929F700119
:100DE0001124F82A8A81869586958695E82A862D8B
:100DF0000E9497178C01872D0E949C174C01862D0D
:100E00000E9497175C01872D0E949C17065E1F4F5A
:100E10009401265F3F4FA501405F5F4FBC016F5FAC
:100E20007F4FC6010E94EF108881887F99819C7F47
:100E300028E0929F70011124F82A8A818695869570
:100E40008695E82A862D0E9497178C01872D0E948F
:100E50009C174C01862D0E9497175C01872D0E94DC
:100E60009C17065E1F4F9401225E3F4FA501405F15
:100E70005F4FBC01695D7F4FC6010E94EF10888102
:100E8000887F99819C7F28E0929F70011124F82A25
:100E90008A81869586958695E82A862D0E949717E1
:100EA0008C01872D0E949C174C01862D0E9497175C
:100EB0005C01872D0E949C17065E1F4F9401225EE5
:100EC0003F4FA501465E5F4FBC01665F7F4FC60185
:100ED0000E94EF108881887F99819C7F28E0929FF3
:100EE00070011124F82A8A81869586958695E82ACC
:100EF000862D0E9497178C01872D0E949C174C010C
:100F0000862D0E9497175C01872D0E949C170A5D11
:100F10001F4F9401225E3F4FA5014A5D5F4FBC0108
:100F2000665F7F4FC6010E94EF108881887F99819C
:100F30009C7F28E0929F70011124F82A8A8186956F
:100F400086958695E82A862D0E9497178C01872D15
:100F50000E949C174C01862D0E9497175C01872DDB
:100F60000E949C170A5D1F4F9401265F3F4FA50109
:100F7000405D5F4FBC016F5F7F4FC6010E94EF1065
:100F80008881887F99819C7F28E0929F700111243D
:100F9000F82A8A81869586958695E82A862D0E946C
:100FA00097178C01872D0E949C174C01862D0E945B
:100FB00097175C01872D0E949C170A5D1F4F9401B3
:100FC000225E3F4FA501405D5F4FBC01695D7F4FD1
:100FD000C6010E94EF108881887F99819C7F28E05C
:100FE000929F70011124F82A8A81869586958695AC
:100FF000E82A862D0E9497178C01872D0E949C1746
:101000004C01862D0E9497175C01872D0E949C172A
:101010000A5D1F4F9401265F3F4FA501465E5F4F5B
:10102000BC01665F7F4FC6010E94EF108881887FF8
:1010300099819C7F28E0929F70011124F82A8A816F
:10104000869586958695E82A862D0E9497178C01AD
:10105000872D0E949C174C01862D0E9497175C01DA
:10106000872D0E949C170A5D1F4F9401225E3F4FFF
:10107000A501465E5F4FBC01625E7F4FC6010E94C4
:10108000EF108881887F99819C7F28E0929F700172
:101090001124F82A8A81869586958695E82A862DD8
:1010A0000E9497178C01872D0E949C174C01862D5A
:1010B0000E9497175C01872D0E949C17005F1F4FAD
:1010C00094012A5D3F4FA501405F5F4FBC01C601FF
:1010D0000E94EF108881887F99819C7F28E0929FF1
:1010E00070011124F82A8A81869586958695E82ACA
:1010F000862D0E9497178C01872D0E949C175C01FA
:10110000862D0E949717EC01872D0E949C17005D89
:101110001F4F95012A5D3F4FAE01405D5F4FBC01FF
:10112000C6010E94EF10DF91CF911F910F91FF90A8
:10113000EF90DF90CF90BF90AF909F908F907F9077
:101140006F900895AF92BF92CF92DF92EF92FF928D
:101150000F931F93CF93DF93EC01B42EA22E822F17
:101160000E9497178C018B2D0E949C176C018A2D71
:101170000E9497177C018B2D0E949C17065E1F4FC3
:101180009601265F3F4FA701405F5F4FBC016F5F35
:101190007F4FE12CF12CCE010E94EF108A2D0E948E
:1011A00097178C018B2D0E949C176C018A2D0E9431
:1011B00097177C018B2D0E949C17065E1F4F96018E
:1011C000225E3F4FA701405F5F4FBC01695D7F4FCB
:1011D000E12CF12CCE010E94EF108A2D0E9497176E
:1011E0008C018B2D0E949C176C018A2D0E949717F1
:1011F0007C018B2D0E949C17065E1F4F9601225E7C
:101200003F4FA701465E5F4FBC01665F7F4FE12CF9
:10121000F12CCE010E94EF108A2D0E9497178C01AD
:101220008B2D0E949C176C018A2D0E9497177C01C0
:101230008B2D0E949C170A5D1F4F9601225E3F4F27
:10124000A7014A5D5F4FBC01665F7F4FE12CF12C27
:10125000CE010E94EF108A2D0E9497178C018B2DD2
:101260000E949C176C018A2D0E9497177C018B2D80
:101270000E949C170A5D1F4F9601265F3F4FA701F2
:10128000405D5F4FBC016F5F7F4FE12CF12CCE01C1
:101290000E94EF108A2D0E9497178C018B2D0E94BF
:1012A0009C176C018A2D0E9497177C018B2D0E9440
:1012B0009C170A5D1F4F9601225E3F4FA701405DBC
:1012C0005F4FBC01695D7F4FE12CF12CCE010E9484
:1012D000EF108A2D0E9497178C018B2D0E949C176E
:1012E0006C018A2D0E9497177C018B2D0E949C1700
:1012F0000A5D1F4F9601265F3F4FA701465E5F4F75
:10130000BC01665F7F4FE12CF12CCE010E94EF10F3
:101310008A2D0E9497178C018B2D0E949C176C01BF
:101320008A2D0E9497177C018B2D0E949C170A5DC5
:101330001F4F9601225E3F4FA701465E5F4FBC01E3
:10134000625E7F4FE12CF12CCE010E94EF108A2DBE
:101350000E9497178C018B2D0E949C176C018A2D7F
:101360000E9497177C018B2D0E949C17005F1F4FD6
:101370009601285D3F4FA701405F5F4FE12CF12CA4
:10138000BC01CE010E94EF108A2D0E9497178C019C
:101390008B2D0E949C177C018A2D0E9497176C014F
:1013A0008B2D0E949C17005D1F4F9701285D3F4FBA
:1013B000A601405D5F4FE12CF12CBC01CE010E94E3
:1013C000EF108A2D0E9497176C018B2D0E949C179D
:1013D00000E410E028E230E0A601BC01CE010E944A
:1013E000FA11DF91CF911F910F91FF90EF90DF9055
:1013F000CF90BF90AF9008956F927F928F929F92FF
:10140000AF92BF92CF92DF92EF92FF920F931F9312
:10141000CF93DF936C01742E622EE8018881887F60
:1014200099819C7F28E0929F70011124F82A8A817B
:10143000869586958695E82A862D0E9497178C01B9
:10144000872D0E949C174C01862D0E9497175C01E6
:10145000872D0E949C170E5C1F4F9401295D3F4F02
:10146000A5014E5C5F4FBC01C6010E94EF10888150
:10147000887F99819C7F28E0929F70011124F82A2F
:101480008A81869586958695E82A862D0E949717EB
:101490008C01872D0E949C174C01862D0E94971766
:1014A0005C01872D0E949C17015C1F4F94012B5FEC
:1014B0003F4FA5014E5C5F4FBC016B5F7F4FC60184
:1014C0000E94EF108881887F99819C7F28E0929FFD
:1014D00070011124F82A8A81869586958695E82AD6
:1014E000862D0E9497178C01872D0E949C174C0116
:1014F000862D0E9497175C01872D0E949C17015C26
:101500001F4F94012D5D3F4FA5014E5C5F4FBC0105
:101510006D5D7F4FC6010E94EF108881887F9981A1
:101520009C7F28E0929F70011124F82A8A81869579
:1015300086958695E82A862D0E9497178C01872D1F
:101540000E949C174C01862D0E9497175C01872DE5
:101550000E949C170D5D1F4F9401225E3F4FA50115
:101560004D5D5F4FBC01665F7F4FC6010E94EF106B
:101570008881887F99819C7F28E0929F7001112447
:10158000F82A8A81869586958695E82A862D0E9476
:1015900097178C01872D0E949C174C01862D0E9465
:1015A00097175C01872D0E949C170E5C1F4F9401BA
:1015B0002B5F3F4FA5014D5D5F4FBC01665F7F4FC5
:1015C000C6010E94EF108881887F99819C7F28E066
:1015D000929F70011124F82A8A81869586958695B6
:1015E000E82A862D0E9497178C01872D0E949C1750
:1015F0004C01862D0E9497175C01872D0E949C1735
:101600000E5C1F4F94012D5D3F4FA5014D5D5F4F57
:10161000BC01625E7F4FC6010E94EF108881887F07
:1016200099819C7F28E0929F70011124F82A8A8179
:10163000869586958695E82A862D0E9497178C01B7
:10164000872D0E949C174C01862D0E9497175C01E4
:10165000872D0E949C170D5D1F4F9401265F3F4F01
:10166000A501475E5F4FBC01665F7F4FC6010E94C8
:10167000EF108881887F99819C7F28E0929F70017C
:101680001124F82A8A81869586958695E82A862DE2
:101690000E9497178C01872D0E949C174C01862D64
:1016A0000E9497175C01872D0E949C170D5D1F4FAC
:1016B0009401225E3F4FA501475E5F4FBC01625E11
:1016C0007F4FC6010E94EF108881887F99819C7F9F
:1016D00028E0929F70011124F82A8A8186958695C8
:1016E0008695E82A8DEF860D0E9497175C01872D5D
:1016F0000E949C170AE510E028E230E0A501BC0139
:10170000C6010E94FA118881887F99819C7F28E018
:10171000929F70011124F82A8A8186958695869574
:10172000E82A862D0E949717EC01872D0E949C17AE
:10173000AE01455E5F4F05E210E028E230E0BC01FB
:10174000C6010E94FA11DF91CF911F910F91FF9076
:10175000EF90DF90CF90BF90AF909F908F907F9051
:101760006F900895AF92BF92CF92DF92EF92FF9267
:101770000F931F93CF93DF93EC01B42EA22E822FF1
:101780000E9497178C018B2D0E949C176C018A2D4B
:101790000E9497177C018B2D0E949C170E5C1F4F97
:1017A0009601295D3F4FA7014E5C5F4FE12CF12C64
:1017B000BC01CE010E94EF108A2D0E9497178C0168
:1017C0008B2D0E949C176C018A2D0E9497177C011B
:1017D0008B2D0E949C17015C1F4F96012B5F3F4F82
:1017E000A7014E5C5F4FBC016B5F7F4FE12CF12C7A
:1017F000CE010E94EF108A2D0E9497178C018B2D2D
:101800000E949C176C018A2D0E9497177C018B2DDA
:101810000E949C17015C1F4F96012D5D3F4FA70151
:101820004E5C5F4FBC016D5D7F4FE12CF12CCE0112
:101830000E94EF108A2D0E9497178C018B2D0E9419
:101840009C176C018A2D0E9497177C018B2D0E949A
:101850009C170D5D1F4F9601225E3F4FA7014D5D06
:101860005F4FBC01665F7F4FE12CF12CCE010E94DF
:10187000EF108A2D0E9497178C018B2D0E949C17C8
:101880006C018A2D0E9497177C018B2D0E949C175A
:101890000E5C1F4F96012B5F3F4FA7014D5D5F4FC1
:1018A000BC01665F7F4FE12CF12CCE010E94EF104E
:1018B0008A2D0E9497178C018B2D0E949C176C011A
:1018C0008A2D0E9497177C018B2D0E949C170E5C1D
:1018D0001F4F96012D5D3F4FA7014D5D5F4FBC012E
:1018E000625E7F4FE12CF12CCE010E94EF108A2D19
:1018F0000E9497178C018B2D0E949C176C018A2DDA
:101900000E9497177C018B2D0E949C170D5D1F4F25
:101910009601265F3F4FA701475E5F4FBC01665FA0
:101920007F4FE12CF12CCE010E94EF108A2D0E94F6
:1019300097178C018B2D0E949C177C018A2D0E9489
:1019400097176C018B2D0E949C170D5D1F4F9701FF
:10195000225E3F4FA601475E5F4FBC01625E7F4F34
:10196000E12CF12CCE010E94EF108DEF8A0D0E9428
:1019700097176C018B2D0E949C170AE510E028E256
:1019800030E0A601BC01CE010E94FA118A2D0E940E
:1019900097176C018B2D0E949C17A601455E5F4F27
:1019A00005E210E028E230E0BC01CE010E94FA110D
:1019B000DF91CF911F910F91FF90EF90DF90CF902B
:1019C000BF90AF9008950F931F93CF93DF936AEA70
:1019D00080E090E00E94FD2A08E712E0C1E0D0E03C
:1019E000F80161918F01CE010E94FD2A2196CD312F
:1019F000D105B1F7DF91CF911F910F9108950F930A
:101A00001F93CF93DF9380E090E00E94F52A8A3AFB
:101A100079F408E712E0C1E0D0E0CE010E94F52A97
:101A2000F80181938F012196CD31D105B1F702C024
:101A300081E001C080E0DF91CF911F910F91089567
:101A4000CF93DF93CDB7DEB7C154D1090FB6F89469
:101A5000DEBF0FBECDBF0E94BA2680E692E00E9494
:101A6000471E6AE570E080E692E00E94371D81EA39
:101A700092E00E94992264E271E081EA92E00E9481
:101A8000B12280E692E00E94FE1A80E692E00E9477
:101A90009317892B09F08DC00E94FF0C811189C01A
:101AA00060E070E080E692E00E94AE0F8CE1F82EDC
:101AB0000EE911E080916202909163029C838B8316
:101AC00080916402909165029E838D83809166026D
:101AD0009091670298878F83809168029091690244
:101AE0009A87898780916A0290916B029C878B8785
:101AF00080916C0290916D029E878D8780916E021D
:101B000090916F02988B8F878091700290917102F3
:101B10009A8B898B80917202909173029C8B8B8B34
:101B200080917402909175029E8B8D8B80917602CC
:101B300090917702988F8F8BE8E7F2E0DE0159965B
:101B40008F2D01900D928A95E1F7809194028DABD3
:101B5000809195028EAB809196029091970298AFFA
:101B60008FAB80919802909199029AAF89AF809142
:101B70009A0290919B029CAF8BAF80919C029091B6
:101B80009D029EAF8DAF80919E0290919F02219603
:101B90009FAF8EAF21971A8309838091A00222966E
:101BA0008FAF229740E060E0CE0101960E94BF0512
:101BB00081CF80E692E00E94921B0E94E30C70CFDE
:101BC00080E692E00C94EE1A2F923F924F925F9231
:101BD0006F927F928F929F92AF92BF92CF92DF923D
:101BE000EF92FF920F931F93CF93DF9300D01F923A
:101BF000CDB7DEB79B838A83380188E02802500185
:101C00001124D501A859B0405D01BC2DBF77CB2E62
:101C1000EA81FB8186819781F1E0FB1708F462C0BD
:101C20006B0128E0C20ED11C8C159D050CF46DC013
:101C3000AA81BB8118962D913C911997FA0138968B
:101C40002E173F070CF461C0AA81BB81ED91FC9176
:101C500011978A01095F1F4F9B01295F3F4F068043
:101C6000F781E02DCD010995AA81BB81ED91FC9111
:101C700011970084F185E02DCD0109958501085F5C
:101C80001F4FF5015490FFEFAF1ABF0A98E0892E5D
:101C9000912C20E8422EAA81BB81ED91FC911197F5
:101CA000842D85210284F385E02D882319F0B3016A
:101CB000CD0103C0B7018A819B8109954694B1E0AB
:101CC0008B1A910841F7A016B106D9F6AA81BB81FB
:101CD000ED91FC9111970484F585E02DCD010995D6
:101CE000C60175C0B8E0CB9E800111244B01800E67
:101CF000911E881599054CF0040F151FEA81FB8190
:101D0000208531852017310714F4019660C0AA811F
:101D1000BB81ED91FC911197015011090680F7816B
:101D2000E02D940121503109CD010995AA81BB8193
:101D3000ED91FC9111970084F185E02DCD0109957D
:101D40002501B8E04B0E511CF501D490FFEFAF1AFE
:101D5000BF0A2C2C08E010E080E8382E832D8D215E
:101D60002C2DA1F0AA81BB81ED91FC9111970284E9
:101D7000F385E02DB301CD012983099529812150F7
:101D800089F736940150110949F710C0AA81BB8127
:101D9000ED91FC9111970284F385E02DB701CD01FF
:101DA000298309952981215089F7EBCF2A9491F64F
:101DB000A414B50409F0C8CFAA81BB81ED91FC91B0
:101DC00011970484F585E02DCD010995C4010F908C
:101DD0000F900F90DF91CF911F910F91FF90EF9097
:101DE000DF90CF90BF90AF909F908F907F906F903B
:101DF0005F904F903F902F900895CF92EF92FF9277
:101E00000F931F93DC01ED91FC910684F785E02D83
:101E100009951F910F91FF90EF90CF900895CF9269
:101E2000EF92FF920F931F93CF93DF93EC01262F36
:101E30006A3081F48EAD9FAD9BAF8AAF2CA92F770E
:101E40008CAD9DAD38E0239F800D911D11249DAF79
:101E50008CAF47C0862F8B7F893009F442C06AADB2
:101E60007BAD203219F461157105D9F1E881F98152
:101E7000E8ACF9AC0EA91FA94CAD5DAD0088F189A5
:101E8000E02DCCA8CE0109959BAF8AAF2DA92223C6
:101E900041F14CA94F77642F70E028EF2403A00193
:101EA00011242E813F81240F351F28173907CCF4C8
:101EB0008EAD9FAD9BAF8AAFCB0133E0880F991FEA
:101EC0003A95E1F72CAD3DAD820F931F9DAF8CAFDE
:101ED00028853985240F351F2817390714F41DAEBE
:101EE0001CAE81E090E0DF91CF911F910F91FF90A8
:101EF000EF90CF900895FC011382128288E491E064
:101F0000918380831582148277836683518740870B
:101F1000178616861586148613861286178A168AE1
:101F2000158A148A138A128A118A108A10AA11AA91
:101F300012AA13AA81E084AB85AB17AA16AA8FEF69
:101F40009FEF91AF80AF17AE16AE15AE14AE13AEC5
:101F500012AE0895FC01848195810895AF92BF92DD
:101F6000CF92DF92EF92FF920F931F93CF93DF9365
:101F7000EC015B01E881F98108851985015011099F
:101F80002E813F81215031090680F781E02D40E00C
:101F900050E060E070E00995E881F9810084F18506
:101FA000E02DCE010995AE81BF81288539850E943B
:101FB0005B2A6B017C0143E0F694E794D794C794C5
:101FC0004A95D1F7E881F981C114D104E104F10403
:101FD00009F444C00284F385E02DB501CE010995D2
:101FE000E881F9810284F385E02DB501CE010995E0
:101FF000E881F9810284F385E02DB501CE010995D0
:10200000E881F9810284F385E02DB501CE010995BF
:10201000E881F9810284F385E02DB501CE010995AF
:10202000E881F9810284F385E02DB501CE0109959F
:10203000E881F9810284F385E02DB501CE0109958F
:10204000E881F9810284F385E02DB501CE0109957F
:1020500081E0C81AD108E108F108B4CF0484F585FD
:10206000E02DCE01DF91CF911F910F91FF90EF9066
:10207000DF90CF90BF90AF900994EF92FF920F93B3
:102080001F93CF93DF93EC0179018E819F816817B5
:10209000790754F588859985481759072CF5E88103
:1020A000F9810680F781E02D8A019B01CE01099517
:1020B000E881F9810084F185E02DCE010995E88160
:1020C000F9810284F385E02DB701CE010995E881FD
:1020D000F9810484F585E02DCE01DF91CF911F9128
:1020E0000F91FF90EF900994DF91CF911F910F9185
:1020F000FF90EF9008958F929F92AF92BF92CF92F0
:10210000DF92EF92FF920F931F93CF93DF93EC0137
:102110006901480157012E813F81621773071CF046
:10212000B9016150710988859985481759071CF0D4
:10213000AC0141505109FB01EC0DFD1DE217F30705
:102140001CF06901C61AD70A9A01280D391D2817F3
:1021500039071CF04C01841A950AE881F9818A013B
:10216000080D191D015011099B012C0D3D1D215019
:1021700031090680F781E02DCE010995E881F981CA
:102180000084F185E02DCE0109959401D6010E94CD
:102190005B2A6B017C01E881F981C114D104E1045F
:1021A000F10461F00284F385E02DB501CE010995BB
:1021B00081E0C81AD108E108F108EDCF0484F58563
:1021C000E02DCE01DF91CF911F910F91FF90EF9005
:1021D000DF90CF90BF90AF909F908F9009942F92F7
:1021E0003F924F925F926F927F928F929F92AF92A7
:1021F000BF92CF92DF92EF92FF920F931F93CF93F4
:10220000DF93CDB7DEB728970FB6F894DEBF0FBEC9
:10221000CDBF4C016B0158874F835901621773077B
:10222000A1F40417150744F4042715274027512764
:1022300058874F83042715272F813885021B130BDE
:102240000F5F1F4F21E030E015C04F8158854017C8
:102250005107B9F42617370734F4A626B726CA243F
:10226000DB24AC24BD2495012C193D092F5F3F4F81
:1022700001E010E04F815885B601C4010E947B1037
:10228000A0C0FC01268137816217730724F0690121
:10229000F1E0CF1AD108F401808591854F815885EE
:1022A0004817590724F0FC013197F887EF83A216ED
:1022B000B30624F05901F1E0AF1AB1080817190765
:1022C0001CF08C010150110935016C187D082801A2
:1022D0002F813885421A530A77FE08C071946194A1
:1022E00071084FEF5FEF5A83498304C081E090E0AB
:1022F0009A83898357FE08C0519441945108EFEFA7
:10230000FFEFFC83EB8304C021E030E03C832B83B0
:10231000A301440F551F5E834D831201220C331C11
:1023200097014F815885B601C4010E943D104614A3
:1023300057041CF5810106191709CA14DB0409F4B6
:1023400040C017FD0CC08F819885EB81FC818E0FFA
:102350009F1F98878F832D813E81021B130B49811C
:102360005A81C40ED51E020D131D97014F81588549
:10237000B601C4010E943D10E0CFAD80BE80A4181C
:10238000B5088F81988580179107D9F0B7FC06C0F2
:1023900089819A81C80ED91EA218B308EF81F885E9
:1023A0002B813C81E20FF31FF887EF834D815E8123
:1023B000A40EB51E9701AF01B601C4010E943D10E5
:1023C000E0CF28960FB6F894DEBF0FBECDBFDF91E9
:1023D000CF911F910F91FF90EF90DF90CF90BF9022
:1023E000AF909F908F907F906F905F904F903F90B5
:1023F0002F9008954F925F926F927F928F929F924B
:10240000AF92BF92CF92DF92EF92FF920F931F9302
:10241000CF93DF93EC016B015A012901380121E0D0
:1024200030E00E947B10A501460D571D4150510917
:1024300001E010E09201B601CE010E947B10B601CE
:10244000640D751D61507109830121E030E0A50123
:10245000CE010E947B1001E010E09201A501B601BF
:10246000CE010E947B10DF91CF911F910F91FF90C1
:10247000EF90DF90CF90BF90AF909F908F907F9024
:102480006F905F904F9008952F923F924F925F927E
:102490006F927F928F929F92AF92BF92CF92DF9274
:1024A000EF92FF920F931F93CF93DF9300D000D052
:1024B000CDB7DEB76C012B013A013C832B83790148
:1024C000F194E194F108A12CB12C2B813C812A15C7
:1024D0003B050CF466C04501860C971C9801A401CD
:1024E0002B803C80240C351CB101C6010E943D109C
:1024F0009801A401B2018B819C81681B790B7A83BE
:102500006983C6010E943D1043018A189B08980107
:10251000A401B101C6010E943D109801A401698186
:102520007A81C6010E943D101501240C351C9801CA
:102530008B809C80860C971CA401B101C6010E946F
:102540003D10F201EA19FB09FA83E9839801A4011D
:10255000BF01C6010E943D10980143016B817C813F
:10256000861A970AA401B101C6010E943D10980184
:10257000A40169817A81C6010E943D10C5010196BE
:10258000EA0CFB1CE80EF91EF7FC09C0EB81FC818C
:102590003197FC83EB83EE1AFF0AEE1AFF0A5C0107
:1025A00094CF0F900F900F900F90DF91CF911F91CC
:1025B0000F91FF90EF90DF90CF90BF90AF909F90E2
:1025C0008F907F906F905F904F903F902F900895E5
:1025D0002F923F924F925F926F927F928F929F9233
:1025E000AF92BF92CF92DF92EF92FF920F931F9321
:1025F000CF93DF9300D000D000D0CDB7DEB75C0121
:102600001B012A013E832D8348016901D194C194A5
:10261000D108612C712C2D813E81261537050CF4D3
:1026200055C0A301440D551D74018A012D813E81C1
:10263000220D331D3A832983B1018D819E81681B50
:10264000790B7C836B83C5010E94EF10A2014619B0
:1026500057098A0129813A816B817C81C5010E94D9
:10266000EF10F301E20DF31DFC83EB8391012619BA
:1026700037093A8329834D815E81440D551D8A01B6
:102680009F0169817A81C5010E94EF10A2016D81CD
:102690007E81461B570B8A012B813C8169817A819F
:1026A000C5010E94EF10C3010196C60CD71CC80ECD
:1026B000D91ED7FC09C0ED81FE813197FE83ED83E1
:1026C000CE1ADF0ACE1ADF0A3C01A5CF26960FB636
:1026D000F894DEBF0FBECDBFDF91CF911F910F9158
:1026E000FF90EF90DF90CF90BF90AF909F908F9032
:1026F0007F906F905F904F903F902F9008954F92F2
:102700005F926F927F928F929F92AF92BF92CF9281
:10271000DF92EF92FF920F931F93CF93DF935C01B1
:10272000CB014A0138012701DC2CE9012991222340
:1027300099F0D501ED91FC910684F785E02DCD2C23
:1027400072018301A401BC01C5010995F50126812F
:1027500037812817390754F7DF91CF911F910F91D7
:10276000FF90EF90DF90CF90BF90AF909F908F90B1
:102770007F906F905F904F9008954F925F926F920D
:102780007F928F929F92AF92BF92CF92DF92EF9201
:10279000FF920F931F93CF93DF93EC01CB014A017C
:1027A000F90138012701DC2C24915F012223B9F0C3
:1027B000E881F9810684F785E02DCD2C7201830133
:1027C000A401BC01CE0109952FEFA21AB20A2E81F5
:1027D0003F81281739071CF0F5012491E7CFDF91DD
:1027E000CF911F910F91FF90EF90DF90CF90BF900E
:1027F000AF909F908F907F906F905F904F900895D3
:102800002F923F924F925F926F927F928F929F9200
:10281000AF92BF92CF92DF92EF92FF920F931F93EE
:10282000CF93DF93CDB7DEB7E4970FB6F894DEBF52
:102830000FBECDBF8C011B01DA012D913D914D9151
:102840005C9113972D873E874F87588B50964D91FB
:102850005D916D917C91539749875A876B877C87EF
:102860006D857E858F85988929853A854B855C8520
:10287000621B730B840B950B6D8F7E8F8F8F98A3CC
:102880001C964D915D916D917C911F9749A35AA320
:102890006BA37CA354966D917D918D919C915797DC
:1028A000698F7A8F8B8F9C8F29A13AA14BA15CA154
:1028B000261B370B480B590B2DA33EA34FA358A73C
:1028C00018964D915D916D917C911B97498B5A8B18
:1028D0006B8B7C8BCB01BA0129853A854B855C8556
:1028E000621B730B840B950B69A77AA78BA79CA718
:1028F00014964D915D916D917C9117974DA75EA7B0
:102900006FA778AB898D9A8DAB8DBC8D481B590B09
:102910006A0B7B0B49AB5AAB6BAB7CAB2DA13EA1D9
:102920004FA158A56D8D7E8D8F8D98A10E94012A93
:102930006B017C0129A93AA94BA95CA969A57AA5D3
:102940008BA59CA50E94012AC61AD70AE80AF90A93
:10295000D801D096CD92DD92ED92FC92D397CD28FE
:10296000CE28CF2809F49CC1D1012D913D914D91E4
:102970005C91139729833A834B835C835096CD9067
:10298000DD90ED90FC90539729013A014C185D08B9
:102990006E087F0818962D913D914D915C911B9783
:1029A0002D833E834F8358872C193D094E095F09BB
:1029B0002D8B3E8B4F8B588FA30192016DA17EA171
:1029C0008FA198A50E94012A4B015C012D893E89A7
:1029D0004F89588D69A97AA98BA99CA90E94012ABF
:1029E000861A970AA80AB90AF801808E918EA28EDB
:1029F000B38E6D8D7E8D8F8D98A10E94012A4B0123
:102A00005C01A301920169A57AA58BA59CA50E94F2
:102A1000012A861A970AA80AB90A848E958EA68E6C
:102A2000B78EA70196016D857E858F8598890E9456
:102A3000012A4B015C0129813A814B815C816985C6
:102A40007A858B859C850E94012A861A970AA80A96
:102A5000B90AA501940169A17AA18BA19CA10E9448
:102A6000012A2B013C012D813E814F8158856985CA
:102A70007A858B859C850E94012A4B015C01A70108
:102A8000960169897A898B899C890E94012A861A14
:102A9000970AA80AB90AA50194016DA57EA58FA57C
:102AA00098A90E94012A460E571E681E791E298188
:102AB0003A814B815C8169897A898B899C890E94E2
:102AC000012A6B017C012D813E814F8158856D85E6
:102AD0007E858F8598890E94012AC61AD70AE80A3E
:102AE000F90AA7019601698D7A8D8B8D9C8D0E94C4
:102AF000012A460E571E681E791E40A251A262A2EC
:102B000073A2D10114962D913D914D915C9117972F
:102B100029833A834B835C835496CD90DD90ED906E
:102B2000FC90579729013A014C185D086E087F0800
:102B30001C962D913D914D915C911F972D833E8365
:102B40004F8358872C193D094E095F092D8B3E8B09
:102B50004F8B588FA30192016DA17EA18FA198A5E3
:102B60000E94012A4B015C012D893E894F89588DB5
:102B700069A97AA98BA99CA90E94012A861A970A99
:102B8000A80AB90A84A295A2A6A2B7A26D8D7E8DCD
:102B90008F8D98A10E94012A4B015C01A301920133
:102BA00069A57AA58BA59CA50E94012A861A970A79
:102BB000A80AB90A80A691A6A2A6B3A6A701960163
:102BC0006D857E858F8598890E94012A4B015C0165
:102BD00029813A814B815C8169857A858B859C85C9
:102BE0000E94012A861A970AA80AB90AA501940127
:102BF00069A17AA18BA19CA10E94012A4B015C01D1
:102C00002D813E814F81588569857A858B859C858C
:102C10000E94012A2B013C01A701960169897A894A
:102C20008B899C890E94012A461A570A680A790AE8
:102C3000A30192016DA57EA58FA598A90E94012AE6
:102C4000860E971EA81EB91E29813A814B815C8190
:102C500069897A898B899C890E94012A6B017C0190
:102C60002D813E814F8158856D857E858F85988920
:102C70000E94012AC61AD70AE80AF90AA701960192
:102C8000698D7A8D8B8D9C8D0E94012A860E971EF0
:102C9000A81EB91E84A695A6A6A6B7A680E001C068
:102CA00081E0E4960FB6F894DEBF0FBECDBFDF9192
:102CB000CF911F910F91FF90EF90DF90CF90BF9039
:102CC000AF909F908F907F906F905F904F903F90CC
:102CD0002F900895AF92BF92CF92DF92EF92FF9222
:102CE0000F931F93CF93DF93EC01A888B9888C8949
:102CF0009D890A891B89A816B90609F45FC0BD8A97
:102D0000AC8A288D398D4A8D5B8DD5010E94842A2D
:102D10006B017C012C8D3D8D4E8D5F8DD8010E9405
:102D2000842AC60ED71EE81EF91E88A199A1AAA161
:102D3000BBA1C80ED91EEA1EFB1E28A939A94AA9A3
:102D40005BA9C701B6010E94392ADA01C9016C8169
:102D50007D816A35710571F018F4672B41F02CC044
:102D6000643B710521F06E30714021F025C06E8109
:102D70007F8102C0688579856B01CC0CDD1CEE2457
:102D8000D7FCE094FE2C2C153D054E055F0588F41C
:102D90006B01EE24D7FCE094FE2C2C153D054E056E
:102DA0005F0550F0CB010197AA2797FDA095BA2F98
:102DB00003C080E090E0DC019B878A878E899F8931
:102DC0000817190709F45FC01F8B0E8B2CA13DA1BA
:102DD0004EA15FA1D5010E94842A6B017C0128A528
:102DE00039A54AA55BA5D8010E94842AC60ED71E24
:102DF000E81EF91E8CA59DA5AEA5BFA5C80ED91EBF
:102E0000EA1EFB1E28A939A94AA95BA9C701B60178
:102E10000E94392ADA01C9016C817D816A35710508
:102E200071F018F4672B41F02CC0643B710521F060
:102E30006E30714021F025C06885798502C06E81B1
:102E40007F816B01CC0CDD1CEE24D7FCE094FE2CC2
:102E50002C153D054E055F0588F46B01EE24D7FC6B
:102E6000E094FE2C2C153D054E055F0550F0CB017E
:102E70000197AA2797FDA095BA2F03C080E090E0A4
:102E8000DC019D878C87DF91CF911F910F91FF907F
:102E9000EF90DF90CF90BF90AF900895CF93DF93E6
:102EA000EC010E946A162C813D812115310519F42F
:102EB0008A859B8512C02A35310519F48C859D853C
:102EC0000CC08E819F81243B310519F42A853B85F6
:102ED00002C02C853D85821B930BDF91CF91089515
:102EE000CF93DF93EC010E946A168C819D8100973D
:102EF00019F48C859D8514C08A35910529F488853F
:102F000099852A853B8507C0843B910539F48885DE
:102F100099852C853D85821B930B02C08A859B85F4
:102F2000DF91CF910895FC0186859785089525E16D
:102F3000829FC0011124089528E2829FC0011124BC
:102F4000449608952F923F924F925F926F927F9294
:102F50008F929F92AF92BF92CF92DF92EF92FF92A9
:102F60000F931F93CF93DF93CDB7DEB7CC54D10926
:102F70000FB6F894DEBF0FBECDBF5C012D966FAFCC
:102F80002D9760E070E00E94AE0F4E0182E4880E43
:102F9000911CF50178963F014EE9442E41E0542EF4
:102FA0001501F0E42F0E311CE1E7F1E0D4018AE0D5
:102FB00001900D928A95E1F7F40101900020E9F764
:102FC0003197E819F90960EF8AE18E9F60191124A1
:102FD00070E083E0C82EE12CF12C00E018EF9401A2
:102FE0004FE050E0C5010E947F1392E0C92E2AE510
:102FF00031E04BE450E064E170E0C5010E947F13D2
:103000002CE531E04BE450E066E470E0C5010E943D
:103010007F1320E631E047E850E064E170E0C5014D
:103020000E947F1322E631E047E850E066E470E05A
:10303000C5010E947F1326E631E043EC50E064E1D5
:1030400070E0C5010E947F1328E631E043EC50E0B8
:1030500066E470E0C5010E947F13F50182819381CF
:103060009C838B83848195819E838D8386819781C8
:1030700098878F83808591859A87898782859385B4
:103080009C878B87848595859E878D878685978588
:10309000988B8F87808991899A8B898B8289938974
:1030A0009C8B8B8B848995899E8B8D8B8689978948
:1030B000988F8F8BF301DE0159968CE101900D9270
:1030C0008A95E1F7F50184A98DAB85A98EAB86A918
:1030D00097A998AF8FAB80AD91AD9AAF89AF82AD14
:1030E00093AD9CAF8BAF84AD95AD9EAF8DAF86ADEC
:1030F00097AD21969FAF8EAF21975A824982F101F9
:10310000808122968FAF229728E2C22ED12C38ECF4
:10311000E32EF12C0FEF10E024E130E04CE651E01B
:10312000BE016F5F7F4FCE01845B9F4F0E946B1982
:10313000882309F439CF60E070E0C5010E94AE0F2A
:10314000C45BDF4F0FB6F894DEBF0FBECDBFDF917B
:10315000CF911F910F91FF90EF90DF90CF90BF9094
:10316000AF909F908F907F906F905F904F903F9027
:103170002F900895CF93DF93CDB7DEB7CB54D1090D
:103180000FB6F894DEBF0FBECDBF5C012C966FAFBB
:103190002C9760E070E00E94AE0F4E0182E4880E32
:1031A000911C79E0772EEAE16E2EF0EF5F2EE1E9D7
:1031B000F1E0D401872D01900D928A95E1F7F40199
:1031C00001900020E9F73197E819F909652D6E9E05
:1031D0006019112470E043E0C42EE12CF12C00E0D2
:1031E00018EF94014FE050E0C5010E947F13B50134
:1031F000CE0101960E94180358E2C52ED12C68EC2E
:10320000E62EF12C0BE410E024E130E04BE751E036
:10321000BE016F5F7F4FCE01855B9F4F0E946B1990
:10322000882359F0B501CE0101960E94180340E0B1
:1032300060E0CE0101960E94BF05B501CE01019666
:103240000E94180328E2C22ED12C38ECE32EF12C78
:1032500007E810E024E130E048E851E0BE016F5F8C
:103260007F4FCE01855B9F4F0E946B19882359F0D9
:10327000B501CE0101960E94180340E060E0CE0146
:1032800001960E94AE21B501CE0101960E9418035D
:1032900088E2C82ED12C98ECE92EF12C03EC10E03A
:1032A00024E130E041E751E0BE016F5F7F4FCE0186
:1032B000855B9F4F0E946B19882309F478CFB50175
:1032C000CE0101960E94180340E060E0CE01019615
:1032D0000E94A2176CCF2F923F924F925F926F92F3
:1032E0007F928F929F92AF92BF92CF92DF92EF9296
:1032F000FF920F931F93CF93DF9300D000D000D0A5
:10330000CDB7DEB77E836D831A01590148012701CD
:103310003601FA0101900020E9F79F01215031099F
:103320006901C41AD50A43E0CC0CDD1C4A95E1F7CB
:10333000CB010E94FE1A8D819E810E949317F3019A
:10334000F695E795FA83E9839701369527953C83AF
:103350002B83892B09F45AC08D819E810E944E17C0
:103360008A159B0508F452C08D819E810E944E17DC
:1033700095012E0D3F1D2817390708F447C08D8190
:103380009E810E9470178017910708F43FC08D81BD
:103390009E810E9470179801260D371D2817390746
:1033A000A8F1E12C28EFF22E83019201A401B501CE
:1033B0008D819E810E947B1049815A81480D591D43
:1033C000485051096B817C816A0D7B1D6C197D0908
:1033D00032E0C32E00E010E091018D819E810E94B9
:1033E0007F133FEF89E698E1315080409040E1F74C
:1033F00000C00000E12CF12C83019201A401B50171
:103400008D819E810E947B1081E023C0E12C88EF9A
:10341000F82E83019201A401B5018D819E810E9445
:10342000FA1149815A81480D591D485051096B8143
:103430007C816A0D7B1D6C197D0992E0C92EE12CFF
:10344000F12C00E018EF91018D819E810E947F1385
:1034500080E026960FB6F894DEBF0FBECDBFDF9199
:10346000CF911F910F91FF90EF90DF90CF90BF9081
:10347000AF909F908F907F906F905F904F903F9014
:103480002F9008956F927F928F929F92AF92BF92EA
:10349000CF92DF92EF92FF920F931F93CF93DF9320
:1034A0006B015A014901E8013701F7018081882346
:1034B00021F0E12CF8EFFF2E02C0E12CF12C8E015F
:1034C0009E01A401B501C6010E947B10C6010E94A5
:1034D000FE1AC6010E949317892BF1F0C6010E94C3
:1034E0004E178A159B05C0F0C6010E944E179E011B
:1034F0002A0D3B1D2817390778F0C6010E94701766
:103500008815990548F0C6010E9470179E01280D84
:10351000391D2817390758F4E12C78EFF72E8E0162
:103520009E01A401B501C6010E94FA1116C0F30163
:103530008081811107C081E0F3018083E12CE8EFF5
:10354000FE2E04C0F3011082E12CF12C8E019E01AD
:10355000A401B501C6010E947B10DF91CF911F919C
:103560000F91FF90EF90DF90CF90BF90AF909F9022
:103570008F907F906F9008955F9A0895CF93DF9317
:103580001F92CDB7DEB7872F2B9A2D989CB59F7BC6
:103590009CBD2D9A9CB590649CBD69830E9490024D
:1035A0002B9A2D989CB59F7B9CBD2D9A9CB59064C1
:1035B0009CBD6981862F0F90DF91CF910C94900272
:1035C0002CB5982F93702C7F922B9CBD9DB582FBC0
:1035D000882780F99E7F982B9DBD0895CF93DF9318
:1035E000EC0140EF50E060E471E00E947B0F8EE957
:1035F00091E099838883DF91CF910895BF92CF9214
:10360000DF92EF92FF920F931F93CF93DF93EC0122
:10361000ECB4FDB485E00E94E01A5E9888EB0E944D
:10362000900280E00E949002082F88EC0E94900295
:1036300080E00E9490025E9A182F10951F770F77F6
:10364000100F163008F45AC05E9880E90E9490026C
:1036500080E00E949002082F80E00E94900280E9A2
:103660000E94900280E00E949002D82E80E00E948A
:103670009002C82E0D1140C080ED0E94900280E0A3
:103680000E949002D82E80E00E94900280ED0E945D
:10369000900280E00E949002B82E80E00E9490028A
:1036A000DB102AC04C2D50E096E0559547959A9531
:1036B000E1F794E0099FB0011124462B572B6FEFDF
:1036C00073E0641B750BA1F0282F30E086E0359580
:1036D00027958A95E1F784E0D89EA0011124242B38
:1036E000352B2115310521F0798B688B3B8B2A8B8B
:1036F000812F90E09F878E875E9A02C01F861E866C
:10370000ECBCFDBC81E02E853F85232B09F480E0D5
:10371000DF91CF911F910F91FF90EF90DF90CF90AD
:10372000BF9008953F924F925F926F927F928F92D7
:103730009F92AF92BF92CF92DF92EF92FF920F9340
:103740001F93CF93DF93CDB7DEB7E0970FB6F89412
:10375000DEBF0FBECDBF5C0188E1ECE0F1E0DE0131
:10376000599601900D928A95E1F7C5010E94AA0F22
:103770002C01D501ED91FC910480F581E02D60E0F4
:1037800070E0C50109956FEF7FEFC5010E94AE0F94
:10379000F5014085518557FF02C04F5F5F4F55953A
:1037A00047954A505109D50116966D917C9117970E
:1037B00077FF02C06F5F7F4F759567956253710900
:1037C000CC24C394EE24EA94FE2C00E010E024E71D
:1037D00033E0C5010E94BD13C5010E94FE1A81118C
:1037E000FBCF4E01B9E18B0E911C612C712C382C52
:1037F000D92CF401448155816081718100E010E091
:1038000022E030E0C5010E944412D40114964D918B
:103810005C9115976D917C9125E030E0C5010E9487
:103820004412F401448155816081718100E018EFF8
:103830002AE030E0C5010E944412C5010E94FE1A30
:103840008823B9F2730173E0EE0CFF1C7A95E1F75F
:1038500081E090E08C0F9D1FE80EF91ED7015C9669
:103860004D915C915D9758966D917C91599722E0AE
:1038700030E0C5010E94E812F50180899189AA27EC
:1038800097FDA095BA2FF70180839183A283B3831C
:10389000D50152968D919C915397AA2797FDA0959B
:1038A000BA2F84839583A683B78364E670E080E0B3
:1038B00090E00E9492266FEF7FEFC5010E94AE0F4D
:1038C000F2E06F1621F1D50118964D915C91199790
:1038D00057FF02C04F5F5F4F559547954A505109BA
:1038E000F5016681778177FF02C06F5F7F4F759525
:1038F000679562537109CC24C394EE24EA94FE2C9C
:1039000000E010E028E633E0C5010E94BD13FFEFA0
:103910006F1A7F0A88E0880E911C93E06916710483
:1039200009F067CFAE014F5F5F4F632D7D2DC5015D
:103930000E940014D501ED91FC910480F581E02DE9
:10394000B201C5010995C5010E94FE1A8111FBCF84
:10395000E0960FB6F894DEBF0FBECDBFDF91CF91DA
:103960001F910F91FF90EF90DF90CF90BF90AF909D
:103970009F908F907F906F905F904F903F900895B1
:10398000862F5F982B982D989CB59F7B9CBD2D9A78
:103990009CB590649CBD0E9490025F9A08956CE271
:1039A0000E94C01C5F980895CF93DF931F92CDB7FC
:1039B000DEB7872F5F982B9A2D989CB59F7B9CBD77
:1039C0002D9A9CB590649CBD69830E9490022B9AAD
:1039D0002D989CB59F7B9CBD2D9A9CB590649CBDF9
:1039E0006981862F0E9490025F9A0F90DF91CF919C
:1039F0000895AF92BF92CF92DF92EF92FF920F9312
:103A00001F93CF93DF93EC017B016A0159016AE2B6
:103A10000E94C01CB701CE010E94D41CB501CE018A
:103A20000E94D41C6BE2CE010E94C01CB601CE01E4
:103A30000E94D41CB801CE01DF91CF911F910F914C
:103A4000FF90EF90DF90CF90BF90AF900C94D41C7C
:103A5000862F5F982B9A2D989CB59F7B9CBD2D9AA5
:103A60009CB590649CBD0E9490025F9A08950F934C
:103A70001F93CF93DF93EC016930710519F06A351C
:103A8000710571F48AE590E09D838C8380EF90E06E
:103A90009F838E8380E491E09987888718E434C0FF
:103AA0006231710519F0643B710571F484EB90E0AB
:103AB0009D838C8380E491E09F838E8380EF90E0F0
:103AC0009987888718E320C06B31710521F07E7FCC
:103AD0006E30710571F48EE091E09D838C8380EFF0
:103AE00090E09F838E8380E491E09987888718E82F
:103AF0000BC01D821C8280E491E09F838E8380EF47
:103B000090E09987888718EE66E3CE010E94C01C7A
:103B1000612FCE010E94281DE881F9810885198551
:103B2000015011092E813F81215031090680F78112
:103B3000E02D40E050E060E070E0CE010995DF91BB
:103B4000CF911F910F910895CF92DF92EF92FF9244
:103B50000F931F93CF93DF938C015F9A289862E3B2
:103B600070E080E090E00E949226289A68E770E07A
:103B700080E090E00E949226E0E8F3E0EF012196D9
:103B800084918F3FA9F1982F907C9038B1F0903CB0
:103B900039F1903411F0FE01F1CF8F73C82E7F01FF
:103BA000D82EFFEFEF1AFF0ADD20B9F0F70164917C
:103BB000C8010E94C01CDA94F4CF8F73C82E7F0115
:103BC000D82EFFEFEF1AFF0ADD2039F0F7016491DC
:103BD000C8010E94281DDA94F4CFCC0DD11DDBCF93
:103BE000682F6F7370E080E090E00E949226D3CF40
:103BF00060E070E0C801DF91CF911F910F91FF90BD
:103C0000EF90DF90CF900C94AE0F1F93CF93DF9384
:103C1000EC01162F61E088E00E947D27289861E082
:103C200089E00E947D2761E087E00E947D2761E0B6
:103C30008DE00E947D2761E08BE00E947D2760E09F
:103C40008CE00E947D2729985F9A61E086E00E94BF
:103C50007D275E9AFE01E05CFF4F10839CB5937F49
:103C60009CBD9CB59F7D9CBD0E940D2385E00E945C
:103C7000E01ACE010E94A41D812F0E94E01A6FE776
:103C800070E089E0DF91CF911F910C94F52660E000
:103C90000C94051E8CEA92E00E94DA2362E570E043
:103CA0008CEA92E00E94FE2360E470E08CEA92E0ED
:103CB0000E94890260E070E08CEA92E00E94890232
:103CC0008CEA92E00E94132491E0811190E0892F08
:103CD000089562E570E08CEA92E00E94FE2360E0C5
:103CE00070E08CEA92E00E9489028CEA92E00E94E5
:103CF000132491E0811190E0892F08958091A4020E
:103D000008958091A702882331F081FB992790F9CB
:103D100081E08927089580E008951F93CF93DF9372
:103D2000EC0146E050E062E570E08CEA92E00E942F
:103D3000F12310E08CEA92E00E944323892B71F07A
:103D40008CEA92E00E944B23E12FF0E0EE55FD4F0C
:103D500027E18227479680831F5FECCFCE010E9428
:103D6000691E81E09091A702911101C080E0DF916E
:103D7000CF911F910895CF93DF93CDB7DEB7CC5489
:103D8000D1090FB6F894DEBF0FBECDBF5C012D96F2
:103D90006FAF2D9760E070E00E94AE0F4E0182E49D
:103DA000880E911C7AE0772EEAE16E2EF0EF5F2EFE
:103DB000E9EDF1E0D401872D01900D928A95E1F7AC
:103DC000F40101900020E9F73197E819F909652D10
:103DD0006E9E6019112470E043E0C42EE12CF12C9A
:103DE00000E018EF20EB31E04FE050E0C5010E9409
:103DF0007F13B501CE0101960E94180358E2C52E2B
:103E0000D12C68ECE62EF12C0BE410E024E130E03C
:103E100046EB51E0BE016F5F7F4FCE01845B9F4F49
:103E20000E946B19B501CE0101960E94180307E8A4
:103E300010E024E130E042EC51E0BE016F5F7F4FC3
:103E4000CE01845B9F4F0E946B19B501882351F00E
:103E5000CE0101960E94180340E060E0CE01019679
:103E60000E94BB1ECE0101960E94180328E2C22EBA
:103E7000D12C38ECE32EF12C03EC10E024E130E0FF
:103E800048E851E0BE016F5F7F4FCE01845B9F4FDA
:103E90000E946B19882359F0B501CE0101960E944A
:103EA000180340E060E0CE0101960E94AE21B5010A
:103EB000CE0101960E94180388E2C82ED12C98ECFE
:103EC000E92EF12C0FEF10E024E130E04FEC51E04F
:103ED000BE016F5F7F4FCE01845B9F4F0E946B19C5
:103EE000882309F465CFB501CE0101960E9418031D
:103EF00040E060E0CE0101960E94BA1859CF7F924F
:103F00008F929F92AF92BF92CF92DF92EF92FF92E9
:103F10000F931F93CF93DF93CDB7DEB7C254D10970
:103F20000FB6F894DEBF0FBECDBF5C0123966FAF16
:103F30002397712C812C912C23E0C22EE12CF12CA3
:103F400000E018EF23EE31E04FE050E060E070E079
:103F5000C5010E947F1332E0C32E2EEE31E040E512
:103F600050E06FE070E0C5010E947F13B501CE0103
:103F700001960E9418034AE0E42E41E0F42E00E38B
:103F800010E02FE330E041EB50E0BE016F5F7F4F68
:103F9000CE018E5B9F4F0E94421AE12CF12C00E073
:103FA00018EF26EF31E046E950E06FE070E0C50120
:103FB0000E947F13B501CE0101960E94180359EAB1
:103FC000E52E52E0F52E00E310E025E830E041EB6D
:103FD00050E0BE016F5F7F4FCE018E5B9F4F0E940E
:103FE000421AE12CF12C00E018EF2EEF31E04CEDFD
:103FF00050E06FE070E0C5010E947F13B501CE0173
:1040000001960E94180368EAE62E62E0F62E00E3AD
:1040100010E02BEC30E041EB50E0BE016F5F7F4FD2
:10402000CE018E5B9F4F0E94421A20910A0190910F
:10403000A9028091A802222311F07720A9F09923E8
:1040400019F0772009F488C0882349F0772019F007
:104050007724739404C07724739488248394222350
:10406000A9F0911003C011C077247394992329F00B
:1040700010920A01812C912C02C0992493948823D8
:1040800029F010920A0188248394912C9923C9F075
:10409000911012C0811015C090910A01992321F04E
:1040A0001092A90291E001C090E0882341F01092A3
:1040B000A9028824839405C09924939402C0992E60
:1040C00015C0882399F0882089F08091A90288235F
:1040D00021F01092A802812C912C80910A01882352
:1040E00029F01092A802812C99249394B501CE0155
:1040F00001960E94180388E2C82ED12C98ECE92E74
:10410000F12C0EE011E024E130E04CE651E0BE017C
:104110006F5F7F4FCE018E5B9F4F0E946B1988238C
:1041200009F40ACF60E070E0C5010E94AE0FCE5BDB
:10413000DF4F0FB6F894DEBF0FBECDBFDF91CF913A
:104140001F910F91FF90EF90DF90CF90BF90AF90B5
:104150009F908F907F90089577247394812C95CFB2
:104160002F923F924F925F926F927F928F929F9287
:10417000AF92BF92CF92DF92EF92FF920F931F9375
:10418000CF93DF93CDB7DEB7CC54D1090FB6F894F7
:10419000DEBF0FBECDBF5C012D966FAF2D97512CAA
:1041A000712C612C4E0182E4880E911C0AE0402E95
:1041B0008AE1382E90EF292EECE1F2E0D401842D33
:1041C00001900D928A95E1F7F40101900020E9F742
:1041D0003197E819F909622D3E9E6019112470E0AB
:1041E000F3E0CF2EE12CF12C00E018EF94014FE02A
:1041F00050E0C5010E947F13A2E0CA2E26E032E003
:104200004AE550E06FE070E0C5010E947F13B50100
:10421000CE0101960E941803BBE0EB2EB1E0FB2E0D
:1042200000E310E029E430E041EB50E0BE016F5FB5
:104230007F4FCE01845B9F4F0E94421AE12CF12CEC
:1042400000E018EF21E132E044EB50E06FE070E075
:10425000C5010E947F13B501CE0101960E9418038B
:104260001AEAE12E12E0F12E00E310E023EA30E03A
:1042700041EB50E0BE016F5F7F4FCE01845B9F4FEB
:104280000E94421A9091AA0280910B01992311F089
:10429000552089F0882321F0552039F05524539476
:1042A000992389F061100AC004C0552453947724DF
:1042B0007394612C08C055245394712C882371F099
:1042C0001092AA02F4CF882371F0772061F08091D8
:1042D000AA02882331F010920B01712C662463949A
:1042E00002C077247394B501CE0101960E94180391
:1042F00078E2C72ED12CE8ECEE2EF12C0EE011E086
:1043000024E130E04CE651E0BE016F5F7F4FCE010B
:10431000845B9F4F0E946B19882309F44DCF60E0A6
:1043200070E0C5010E94AE0FC45BDF4F0FB6F8947A
:10433000DEBF0FBECDBFDF91CF911F910F91FF90D8
:10434000EF90DF90CF90BF90AF909F908F907F9035
:104350006F905F904F903F902F9008955F926F9273
:104360007F928F929F92AF92BF92CF92DF92EF9205
:10437000FF920F931F93CF93DF93CDB7DEB7CB544C
:10438000D1090FB6F894DEBF0FBECDBF5C012C96ED
:104390006FAF2C9760E070E00E94AE0F4E0182E498
:1043A000880E911CB9E07B2E1AE1612E00EF502E91
:1043B000E8E8F1E0D401872D01900D928A95E1F7AC
:1043C000F40101900020E9F73197E819F909652D0A
:1043D0006E9E6019112470E0E3E0CE2EE12CF12CEA
:1043E00000E018EF94014FE050E0C5010E947F13F8
:1043F000B501CE0101960E941803F8E2CF2ED12C10
:10440000A8ECEA2EF12C0BE410E024E130E043EEBE
:1044100051E0BE016F5F7F4FCE01855B9F4F0E94D1
:104420006B19882381F060E070E0C5010E94AE0F37
:10443000B501CE0101960E94180340E060E0CE0174
:1044400001960E947F1FB501CE0101960E941803BC
:1044500048E2C42ED12C58ECE52EF12C07E810E0F0
:1044600024E130E04CE152E0BE016F5F7F4FCE01AE
:10447000855B9F4F0E946B19882381F060E070E09C
:10448000C5010E94AE0FB501CE0101960E9418032E
:1044900040E060E0CE0101960E94B020B501CE015F
:1044A00001960E94180328E2C22ED12C38ECE32E8C
:1044B000F12C03EC10E024E130E046E252E0BE01D2
:1044C0006F5F7F4FCE01855B9F4F0E946B19B501D7
:1044D000CE0101960E9418030EE011E024E130E0C5
:1044E0004CE651E0BE016F5F7F4FCE01855B9F4F71
:1044F0000E946B19882309F45BCF60E070E0C5016E
:104500000E94AE0FC55BDF4F0FB6F894DEBF0FBE43
:10451000CDBFDF91CF911F910F91FF90EF90DF9072
:10452000CF90BF90AF909F908F907F906F905F9053
:1045300008951092C50080E18093C400E0ECF0E0A3
:1045400080818260808388E18093C10086E08093CF
:10455000C20008958091C00085FFFCCF6093C60023
:104560000895FB018191BF0118163CF49091C000A1
:1045700095FFFCCF8093C600F4CF0895CF92DF92D1
:10458000EF92FF920F931F93CF93DF93EC017B0188
:1045900062E372E00E94B122B70180E090E00E94E5
:1045A000102920E030E04AE754E40E947C286B01A7
:1045B0007C0114E0C701B6010E94E428062F60E3E5
:1045C000600FCE010E94AA22602F70E080E090E090
:1045D0000E9412299B01AC01C701B6010E94172855
:1045E00020E030E040E251E40E949E2927E137EBD1
:1045F00041ED58E30E9418286B017C011150D1F65F
:1046000062E471E0CE01DF91CF911F910F91FF9095
:10461000EF90DF90CF900C94B122CF93CFB7F89466
:104620008091AB02811127C0E7E4F4E08491E3E3D9
:10463000F4E09491E82FF0E0EE0FFF1FE55AFB4FF6
:10464000A591B4918C91892321F461E08AE00E94C4
:10465000B62761E08AE00E947D278CB580618CBD21
:104660008CB580648CBD61E08DE00E947D2761E0A7
:104670008BE00E947D278091AB028F5F8093AB021D
:10468000CFBFCF9108958091DC0290E02091DD02B0
:10469000821B910908952091DD028091DC02281788
:1046A00050F4E22FF0E0E252FD4F808190E02F5F66
:1046B0002093DD0208958FEF9FEF0895E091DD02D2
:1046C0008091DC02E81730F4F0E0E252FD4F808187
:1046D00090E008958FEF9FEF08950895CF92DF92B5
:1046E000EF92FF920F931F93CF93DF937C01CB0147
:1046F0008A012091B802222389F0EB016B01C40EDC
:10470000D51ECC15DD0569F06991D701ED91FC91BD
:104710000190F081E02DC7010995F3CF642F0E942D
:10472000CF24C801DF91CF911F910F91FF90EF909F
:10473000DF90CF900895CF93DF931F92CDB7DEB770
:1047400069832091B8022223D1F02091B90220324E
:1047500040F021E030E0FC013383228380E090E0F0
:1047600015C08091BA02E82FF0E0E554FD4F998121
:1047700090838F5F8093BA028093B90205C061E095
:10478000CE0101960E94CF2481E090E00F90DF914E
:10479000CF910895FC011382128248EE53E060E04D
:1047A00070E044835583668377838CE392E0918342
:1047B000808308951092DD021092DC021092BA02FA
:1047C0001092B9020C941A24862F413208F040E26C
:1047D0006EED72E00E9438241092DD028093DC02BC
:1047E000089521E00C94E42381E08093B802609363
:1047F000DB021092BA021092B90208950C94F423CD
:104800000F93062F21E04091B9026BEB72E080918B
:10481000DB020E947C241092BA021092B90210921C
:10482000B8020F91089561E00C9400248CEA92E0A4
:104830000C94CA2310926B0381E080936903109259
:10484000680361E082E10E94B62761E083E10E9493
:10485000B627E9EBF0E080818E7F808380818D7FB9
:10486000808388E48093B80085E48093BC00089539
:10487000413208F03FC090916B039111FCCF91E061
:1048800090936B03209369032FEF2093FE02109205
:104890004303240F2093420390936A0390916A0389
:1048A000880F892B80936A0380916803813041F4DB
:1048B0001092680380916A038093BB0085EC01C06D
:1048C00085EE8093BC0080916B038130E1F3809191
:1048D0004303841710F44091430324E433E0FB01C5
:1048E000D9018A2F821B841718F48D918193F9CFF7
:1048F000842F089580E008950F93413208F046C058
:1049000090916B039111FCCF92E090936B03009315
:1049100069039FEF9093FE0210924303409342037A
:10492000FB0164E473E0DB019A2F961B941718F4E3
:1049300091919D93F9CF10926A0390916A03880F29
:10494000892B80936A0380916803813041F410922F
:10495000680380916A038093BB0085EC01C085EEFB
:104960008093BC00222321F080916B038230E1F31D
:104970008091FE028F3F61F08091FE02803251F003
:104980008091FE02803341F483E007C081E005C0DE
:1049900080E003C082E001C084E00F91089561329D
:1049A00098F420916B03243089F460932003FC0178
:1049B00082E293E0DC012A2F281B261718F42191AC
:1049C0002D93F9CF80E0089581E0089582E0089565
:1049D00085ED8093BC008091BC0084FDFCCF1092DB
:1049E0006B03089585EC8093BC0010926B030895CF
:1049F0001F920F920FB60F9211242F933F934F9354
:104A00005F936F937F938F939F93AF93BF93EF9336
:104A1000FF938091B900887F803609F49CC068F5C7
:104A2000883209F45BC090F4803109F454C038F442
:104A3000882309F4F5C0883009F44DC0F5C08831E9
:104A400009F44CC0803209F45DC0EEC0803409F432
:104A500068C048F4803309F455C0883309F0E4C0D5
:104A60008093FE02A8C0803509F44FC0883509F450
:104A70005DC0883409F0D8C0D5C0883909F4C6C0F3
:104A8000A8F4883709F467C038F4883609F463C09D
:104A9000803709F460C0C8C0883809F4B7C08039CD
:104AA00009F45FC0803809F0BFC05BC0803B09F4E7
:104AB00085C038F4803A09F466C0883A09F47EC0AB
:104AC000B3C0803C09F4A6C0883C09F4A3C0883B6D
:104AD00009F489C0A9C080916A0310C09091430372
:104AE00080914203981770F5E091430381E08E0FA7
:104AF00080934303F0E0EC5BFC4F80818093BB002C
:104B000085EC85C08093FE028DC0E091430381E077
:104B10008E0F809343038091BB00F0E0EC5BFC4F71
:104B2000808390914303809142036DC0E0914303E1
:104B300081E08E0F809343038091BB00F0E0EC5B3B
:104B4000FC4F80838091690381116CC081E0809368
:104B5000680384EA60C083E080936B031092FF02D5
:104B6000CFCF8091FF02803208F050C0E091FF0269
:104B700081E08E0F8093FF028091BB00F0E0E05057
:104B8000FD4F8083BDCF8091FF02803230F4E091F1
:104B9000FF02F0E0E050FD4F10820E94E824609197
:104BA000FF0270E0E0916403F091650380E093E020
:104BB00009951092FF020E94F22436C084E080938F
:104BC0006B031092210310922003E0916603F09191
:104BD0006703099580912003811105C081E08093CE
:104BE000200310922203E091210381E08E0F809335
:104BF0002103F0E0EE5DFC4F80818093BB0090913B
:104C0000210380912003981708F47ACF85E88093D8
:104C1000BC000AC085EC8093BC0010926B0304C0FA
:104C20001092FE020E94E824FF91EF91BF91AF9194
:104C30009F918F917F916F915F914F913F912F91B4
:104C40000F900FBE0F901F9018951F920F920FB6E6
:104C50000F9211242F933F938F939F93AF93BF9302
:104C600080916D0390916E03A0916F03B0917003DA
:104C700030916C0323E0230F2D3720F40196A11D02
:104C8000B11D05C026E8230F0296A11DB11D20937A
:104C90006C0380936D0390936E03A0936F03B093A6
:104CA00070038091710390917203A0917303B0918E
:104CB00074030196A11DB11D80937103909372033B
:104CC000A0937303B0937403BF91AF919F918F91A1
:104CD0003F912F910F900FBE0F901F9018953FB7E7
:104CE000F8948091710390917203A0917303B09135
:104CF000740326B5A89B05C02F3F19F00196A11D8E
:104D0000B11D3FBF6627782F892F9A2F620F711D23
:104D1000811D911D42E0660F771F881F991F4A95DC
:104D2000D1F70895CF92DF92EF92FF92CF93DF9366
:104D30006B017C010E946F26EB01C114D104E104D8
:104D4000F10489F00E9416280E946F266C1B7D0BCF
:104D5000683E734090F381E0C81AD108E108F10879
:104D6000C851DC4FEACFDF91CF91FF90EF90DF90F9
:104D7000CF900895789484B5826084BD84B58160B5
:104D800084BD85B5826085BD85B5816085BDEEE653
:104D9000F0E0808181608083E1E8F0E01082808132
:104DA00082608083808181608083E0E8F0E08081A0
:104DB00081608083E1EBF0E0808184608083E0EBC0
:104DC000F0E0808181608083EAE7F0E080818460A8
:104DD0008083808182608083808181608083808104
:104DE000806880831092C10008951F93CF93DF9352
:104DF000182FEB0161E00E947D27209711F460E0FD
:104E000004C0CF3FD10539F461E0812FDF91CF910C
:104E10001F910C94B627E12FF0E0EB5EFB4FE4917D
:104E2000E330F9F048F4E130B9F0E230A1F584B5AF
:104E3000806284BDC8BD34C0E730E9F0E83019F1C4
:104E4000E43049F580918000806280938000D093A7
:104E50008B00C0938A0024C084B5806884BDC7BD20
:104E60001FC080918000806880938000D09389006B
:104E7000C093880015C08091B00080688093B00016
:104E8000C093B3000DC08091B00080628093B000E9
:104E9000C093B40005C0C038D1050CF0B5CFAFCF7A
:104EA000DF91CF911F910895833081F028F48130F4
:104EB00099F08230A1F008958730A9F08830B9F0D8
:104EC0008430D1F4809180008F7D03C08091800078
:104ED0008F7780938000089584B58F7702C084B562
:104EE0008F7D84BD08958091B0008F7703C080913D
:104EF000B0008F7D8093B0000895CF93DF9390E052
:104F0000FC01E75DFB4F2491FC01E35CFB4F8491C6
:104F1000882349F190E0880F991FFC01E55AFB4F67
:104F2000A591B4918F5A9B4FFC01C591D4919FB725
:104F3000611108C0F8948C91209582238C9388810C
:104F400082230AC0623051F4F8948C91322F30954C
:104F500083238C938881822B888304C0F8948C915E
:104F6000822B8C939FBFDF91CF9108950F931F9356
:104F7000CF93DF931F92CDB7DEB7282F30E0F90132
:104F8000EB5EFB4F8491F901E75DFB4F1491F90152
:104F9000E35CFB4F04910023C9F0882321F069836F
:104FA0000E9454276981E02FF0E0EE0FFF1FEF5AB7
:104FB000FB4FA591B4919FB7F8948C91611103C0F8
:104FC0001095812301C0812B8C939FBF0F90DF919F
:104FD000CF911F910F9108950E94F02ACF92DF92F6
:104FE000EF92FF920F931F93CF93DF936C017A019F
:104FF000EB01E60EF71E00E010E0CE15DF0561F0D4
:105000006991D601ED91FC910190F081E02DC601EE
:105010000995080F191FF1CFC801DF91CF911F919A
:105020000F91FF90EF90DF90CF9008950895505822
:10503000BB27AA270ED048C139D130F03ED120F08D
:1050400031F49F3F11F41EF42EC10EF4E095E7FBFE
:1050500024C1E92F4AD180F3BA1762077307840786
:10506000950718F071F49EF562C10EF4E0950B2ED1
:10507000BA2FA02D0B01B90190010C01CA01A001AA
:105080001124FF27591B99F0593F50F4503E68F105
:105090001A16F040A22F232F342F4427585FF3CF46
:1050A000469537952795A795F0405395C9F77EF417
:1050B0001F16BA0B620B730B840BBAF09150A1F060
:1050C000FF0FBB1F661F771F881FC2F70EC0BA0FE6
:1050D000621F731F841F48F4879577956795B7956E
:1050E000F7959E3F08F0B3CF9395880F08F0992766
:1050F000EE0F9795879508950CD0E6C0DED040F06E
:10510000D5D030F021F45F3F19F0C7C0511110C164
:10511000CAC0EBD098F39923C9F35523B1F3951B7B
:10512000550BBB27AA2762177307840738F09F5FC8
:105130005F4F220F331F441FAA1FA9F333D00E2E37
:105140003AF0E0E830D091505040E695001CCAF7A4
:1051500029D0FE2F27D0660F771F881FBB1F261769
:1051600037074807AB07B0E809F0BB0B802DBF013C
:10517000FF2793585F4F2AF09E3F510568F08DC07E
:10518000D7C05F3FECF3983EDCF386957795679543
:10519000B795F7959F5FC9F7880F911D96958795ED
:1051A00097F90895E1E0660F771F881FBB1F62170C
:1051B00073078407BA0720F0621B730B840BBA0BCA
:1051C000EE1F88F7E095089598D088F09F5790F0EB
:1051D000B92F9927B751A0F0D1F0660F771F881F1C
:1051E000991F1AF0BA95C9F712C0B13081F09FD05B
:1051F000B1E008959CC0672F782F8827B85F39F0F9
:10520000B93FCCF3869577956795B395D9F73EF47A
:1052100090958095709561957F4F8F4F9F4F089522
:10522000E89409C097FB3EF4909580957095619540
:105230007F4F8F4F9F4F9923A9F0F92F96E9BB27F6
:105240009395F695879577956795B795F111F8CF72
:10525000FAF4BB0F11F460FF1BC06F5F7F4F8F4FDD
:105260009F4F16C0882311F096E911C0772321F0D3
:105270009EE8872F762F05C0662371F096E8862F6B
:1052800070E060E02AF09A95660F771F881FDAF7C2
:10529000880F9695879597F9089597F99F6780E805
:1052A00070E060E008959FEF80EC089500240A9478
:1052B0001616170618060906089500240A941216F1
:1052C0001306140605060895092E0394000C11F424
:1052D000882352F0BB0F40F4BF2B11F460FF04C0D1
:1052E0006F5F7F4F8F4F9F4F089557FD9058440F2A
:1052F000551F59F05F3F71F04795880F97FB991F35
:1053000061F09F3F79F087950895121613061406F1
:10531000551FF2CF4695F1DF08C01616170618067E
:10532000991FF1CF86957105610508940895E89459
:10533000BB2766277727CB0197F908950BD0C4CFF9
:10534000B5DF28F0BADF18F0952309F0A6CFABCF70
:105350001124EECFCADFA0F3959FD1F3950F50E053
:10536000551F629FF001729FBB27F00DB11D639F17
:10537000AA27F00DB11DAA1F649F6627B00DA11DBD
:10538000661F829F2227B00DA11D621F739FB00D63
:10539000A11D621F839FA00D611D221F749F3327D3
:1053A000A00D611D231F849F600D211D822F762F6C
:1053B0006A2F11249F5750408AF0E1F088234AF069
:1053C000EE0FFF1FBB1F661F771F881F91505040B5
:1053D000A9F79E3F510570F060CFAACF5F3FECF375
:1053E000983EDCF3869577956795B795F795E795A1
:1053F0009F5FC1F7FE2B880F911D9695879597F9B2
:105400000895DB018F939F930E94792ABF91AF91FA
:10541000A29F800D911DA39F900DB29F900D11240E
:105420000895AA1BBB1B51E107C0AA1FBB1FA617EB
:10543000B70710F0A61BB70B881F991F5A95A9F73D
:1054400080959095BC01CD01089597FB072E16F429
:10545000009407D077FD09D00E94112A07FC05D0DF
:105460003EF4909581959F4F0895709561957F4F7B
:105470000895A1E21A2EAA1BBB1BFD010DC0AA1F95
:10548000BB1FEE1FFF1FA217B307E407F50720F0AD
:10549000A21BB30BE40BF50B661F771F881F991F28
:1054A0001A9469F760957095809590959B01AC0171
:1054B000BD01CF0108950E94632A332312F48A1B91
:1054C0009B0B0C94742AA29FB001B39FC001A39FB1
:1054D000700D811D1124911DB29F700D811D11242D
:1054E000911D08950E94632AB7FF0895821B930BB4
:1054F00008950E94632AA59F900DB49F900DA49FCC
:10550000800D911D11240895B7FF0C94792A0E94F3
:10551000792A821B930B0895EE0FFF1F0590F491DB
:10552000E02D09948F929F92AF92BF92CF92DF921B
:10553000EF92FF92CF93DF93EC01688179818A81AA
:105540009B81611571058105910521F464E279ED76
:105550008BE597E02DE133EF41E050E00E940B2B0B
:1055600049015A019B01AC01A7EAB1E40E94792AE2
:105570006B017C01ACEEB4EFA50194010E94872A77
:10558000C60ED71EE81EF91EF7FE06C081E0C81A37
:10559000D108E10880E8F80AC882D982EA82FB8251
:1055A000C6019F77DF91CF91FF90EF90DF90CF9072
:1055B000BF90AF909F908F9008950E94922A089577
:1055C00086E091E00E94922A0895A0E0B0E08093E6
:1055D000060190930701A0930801B0930901089573
:1055E00081E090E0F8940C942A2BF999FECF92BDBB
:1055F00081BDF89A992780B50895262FF999FECF95
:105600001FBA92BD81BD20BD0FB6F894FA9AF99ADF
:105610000FBE01960895052E97FB1EF400940E947C
:10562000222B57FD07D00E94392A07FC03D04EF4E5
:105630000C94222B50954095309521953F4F4F4F1C
:105640005F4F089590958095709561957F4F8F4F2E
:085650009F4F0895F894FFCF6D
:105658000000750380000100000001011400000033
:10566800140000002C01000078000000A0000000D9
:10567800DC00000053756363657366756C6C792094
:10568800696E697469616C69736564205553415228
:1056980054200A00000000000F0FEE27EC27EC272B
:1056A800EC27EC27EC27E40DFD0E3100456C640077
:1056B800320057696C0033004D6963004261636BC7
:1056C800004869676873636F72650053696E676C39
:1056D80065706C617965720053657474696E67737F
:1056E800005261636547616D6500000000000F0F9F
:1056F800EE27371DF91CCF1CBE1ABC1AE40DFD0E8F
:10570800506175736500526573756D652047616DED
:105718006500526573746172742047616D65004D50
:1057280061696E204D656E750050617573654D65D4
:105738006E7500446966666963756C7479004541E5
:10574800535920203A004D454449554D3A004841A7
:10575800524420203A005265616C2D54696D653AB7
:10576800005072652D54696D65203A0047656E6575
:105778007261746F720052657365742053636F723F
:105788006500494E543A2000000000009B236E2318
:0857980043234B235E236D2324
:00000001FF
