:100000000C9435020C945D020C945D020C945D021C
:100010000C945D020C945D020C945D020C945D02E4
:100020000C945D020C945D020C945D020C945D02D4
:100030000C945D020C945D020C945D020C945D02C4
:100040000C9475330C945D020C945D020C945D026B
:100050000C945D020C945D020C945D020C945D02A4
:100060000C9448320C945D02000000000000000077
:1000700030787830300030006C6C6C00000000008C
:100080006C6CFE6CFE6C6C00307CC0780CF8300040
:1000900000C6CC183066C600386C3876DCCC7600EA
:1000A0006060C00000000000183060606030180020
:1000B000603018181830600000663CFF3C66000095
:1000C000003030FC30300000000000000070306074
:1000D000000000FC000000000000000000303000C4
:1000E000060C183060C0800078CCDCFCECCC7800CA
:1000F00030F030303030FC0078CC0C3860CCFC0074
:1001000078CC0C380CCC78001C3C6CCCFE0C0C0071
:10011000FCC0F80C0CCC78003860C0F8CCCC78006F
:10012000FCCC0C183060600078CCCC78CCCC78005B
:1001300078CCCC7C0C1870000000303000303000DF
:100140000000303000703060183060C0603018003F
:100150000000FC00FC0000006030180C183060004B
:1001600078CC0C18300030007CC6DEDEDEC07800B3
:100170003078CCCCFCCCCC00FC66667C6666FC009F
:100180003C66C0C0C0663C00FC6C6666666CFC00E9
:10019000FE6268786862FE00FE6268786860F0005F
:1001A0003C66C0C0CE663E00CCCCCCFCCCCCCC00F7
:1001B00078303030303078001E0C0C0CCCCC78000D
:1001C000E6666C786C66E600F06060606266FE0071
:1001D000C6EEFED6C6C6C600C6E6F6DECEC6C6006B
:1001E000386CC6C6C66C3800FC66667C6060F00081
:1001F00078CCCCCCDC781C00FC66667C786CE600A5
:1002000078CCE0381CCC7800FCB43030303078004A
:10021000CCCCCCCCCCCCFC00CCCCCCCCCC78300076
:10022000C6C6C6D6FEEEC600C6C66C386CC6C600CC
:10023000CCCCCC7830307800FECC983062C6FE0052
:100240007860606060607800C06030180C06020062
:10025000781818181818780010386CC600000000BC
:1002600000000000000000FF303018000000000017
:100270000000780C7CCC7600E0607C666666BC0092
:10028000000078CCC0CC78001C0C0C7CCCCC760068
:10029000000078CCFCC07800386C60F06060F00042
:1002A000000076CCCC7C0CF8E0606C766666E600EC
:1002B0003000703030307800180078181818D87076
:1002C000E060666C786CE60070303030303078007A
:1002D0000000ECFED6C6C6000000F8CCCCCCCC00AA
:1002E000000078CCCCCC78000000DC66667C60F046
:1002F000000076CCCC7C0C1E0000D86C6C60F0004A
:1003000000007CC0780CF80010307C3030341800CD
:100310000000CCCCCCCC76000000CCCCCC7830002B
:100320000000C6C6D6FE6C000000C66C386CC60065
:100330000000CCCCCC7C0CF80000FC983064FC00B5
:100340001C3030E030301C00181818001818180045
:10035000E030301C3030E00076DC000000000000AF
:1003600010386CC6C6C6FE0043616C696272617467
:10037000696F6E0043616C6962726174696F6E00CF
:100380004128D441CF8300833041ED84640312813E
:1003900041E88385017941CB85392C00340241F74E
:1003A000812041EA82000041C0812641C181114182
:1003B000C582353E41C781BE41B182001B41F281F9
:1003C000084126810141E08F1F1A180A0F06458750
:1003D000320A070207050041E18F002527051009B1
:1003E0003A784D05180D383A1F41B6840A82270025
:1003F00041B78107413A8155413681E8412A82005F
:100400000082013F412B8200008200EF4111FCFC81
:100410004129D4FFFF00000008000201000003048E
:100420000700000000000000000102040810204046
:1004300080010204081020010204081020040404B2
:10044000040404040402020202020203030303037D
:100450000300000000250028002B000000000024FD
:100460000027002A00004C14663111241FBECFEF74
:10047000D8E0DEBFCDBF13E0A0E0B1E0ECE6F1E7ED
:1004800002C005900D92AA32B107D9F726E0AAE280
:10049000B3E001C01D92AF3DB207E1F714E0CAE638
:1004A000D4E004C02297FE010E94E337C636D1078C
:1004B000C9F70E948C130C94B4380C940000EF928E
:1004C000FF920F931F93CF93DF93EC0160E070E0F6
:1004D0000E941A16EE24E39485E0F82E00E411E061
:1004E00024E130E040E050E060E070E0CE010E94A6
:1004F000661824E130E040E050E06CED70E0CE01A1
:100500000E946618DF91CF911F910F91FF90EF909D
:100510000895DC01ED91FC910190F081E02D0994AA
:100520008EBD00000DB407FEFDCF8EB508958F92ED
:100530009F92AF92BF92CF92DF92EF92FF920F9372
:100540001F93CF93DF93982E0E9435386C010E9441
:1005500035387C010E9435388C010E9435385C01A9
:10056000E92DF0E085E0882E8E9EE0018F9ED00D73
:100570001124C554DA4FC60165E070E00E947A3755
:100580008983188229E630E0C701B9010E947A37D1
:100590008A568B83C801B9010E947A378A568C83A8
:1005A000AF014F5F5F4F849EF001859EF00D1124D7
:1005B000E554FA4FC501B9010E947A378A56808303
:1005C00080911001882311F081E00BC08091110609
:1005D000882349F00E94353862E070E00E947A3743
:1005E0008F5F8A830FC080911006882359F0911085
:1005F00002C082E0F6CF81E0981619F082E09812EE
:1006000001C09A82DF91CF911F910F91FF90EF90DF
:10061000DF90CF90BF90AF909F908F90089580E033
:100620000E94970281E00E94970282E00C94970258
:100630002F923F924F925F926F927F928F929F92F2
:10064000AF92BF92CF92DF92EF92FF920F931F93E0
:10065000CF93DF9300D01F92CDB7DEB70CE313E04A
:100660008DE393E09B838A8390E4E92E93E0F92E57
:1006700041E06624639429E6C22ED12C32E0232E79
:10068000312C443009F441E049830E9435384C0153
:100690000E9435385C01C40165E070E00E947A3741
:1006A000782EF8018083EA81FB81329710820E94C4
:1006B00035382C010E9435384C010E9435389C0198
:1006C000F7013297C201B6010E947A378A568083B9
:1006D0003196C401B6010E947A378A568083C901D7
:1006E000B6010E947A378A56F70180838091100103
:1006F0004981882331F0F8017082EA81FB816082B0
:1007000024C080911106882359F0F8017082C50138
:10071000B1010E947A370196EA81FB81808315C07E
:1007200080911006882389F0F8017082413041F0F1
:10073000423021F4EA81FB81608206C0433021F41B
:1007400022E0EA81FB8120834F5F0B5F1F4F8A818C
:100750009B8105969B838A8395E0E90EF11CEA81D3
:10076000FB81ED5BF54009F08CCF85E0EBE3F3E036
:10077000ABEBB5E001900D928A95E1F785E0E0E4FE
:10078000F3E0A0ECB5E001900D928A95E1F785E0E9
:10079000E5E4F3E0A5ECB5E001900D928A95E1F770
:1007A0000F900F900F90DF91CF911F910F91FF90BD
:1007B000EF90DF90CF90BF90AF909F908F907F9001
:1007C0006F905F904F903F902F9008950F931F93DD
:1007D000CF93DF931F92CDB7DEB76983082F10E068
:1007E00020912E03829F90011124253731051CF0A2
:1007F0000E94180313C1811156C06AE271E0CE0154
:1008000001960E94013067E371E0CE0101960E94DB
:1008100001306091BC0570E0CE0101960E940E305F
:1008200064E471E0CE0101960E9401306091BB0545
:1008300070E0CE0101960E940E3080912E038F5FF2
:1008400080932E0325E0209FD001219FB00D11241D
:10085000A554BA4F90E00396289FF001299FF00D10
:100860001124E55CFC4F01900D922A95E1F761E5BA
:1008700071E0CE0101960E94013067E371E0CE0184
:1008800001960E9401306091BC0570E0CE01019696
:100890000E940E3064E471E0CE0101960E940130A6
:1008A0006091BB05B6C0813009F058C06EE571E0BB
:1008B000CE0101960E9401306BE671E0CE010196F7
:1008C0000E9401306091C10570E0CE0101960E9446
:1008D0000E3068E771E0CE0101960E940130609110
:1008E000C00570E0CE0101960E940E3080912D036C
:1008F0008F5F80932D0325E0209FD001219FB00DB5
:100900001124A554BA4F90E00196880F991F289F93
:10091000F001299FF00D1124E55CFC4F01900D9230
:100920002A95E1F765E871E0CE0101960E94013059
:100930006BE671E0CE0101960E9401306091C10525
:1009400070E0CE0101960E940E3068E771E0CE01A2
:1009500001960E9401306091C0055BC0823009F0B1
:100960005DC062E971E0CE0101960E9401306FE93D
:1009700071E0CE0101960E9401306091C60570E0E1
:10098000CE0101960E940E306CEA71E0CE01019614
:100990000E9401306091C50570E0CE0101960E9471
:1009A0000E3080912C038F5F80932C0325E0209FD5
:1009B000D001219FB00D1124A554BA4F33E0839F7D
:1009C000C00111240596289FF001299FF00D1124E4
:1009D000E55CFC4F01900D922A95E1F769EB71E01F
:1009E000CE0101960E9401306FE971E0CE010196BF
:1009F0000E9401306091C60570E0CE0101960E9410
:100A00000E306CEA71E0CE0101960E9401306091D7
:100A1000C50570E0CE0101960E940E300F90DF9167
:100A2000CF911F910F910895CF93DF93EC01FB01BC
:100A3000828193819B838A8382E292E09983888377
:100A4000848195819D838C83868197819F838E830A
:100A50008085918599878887828593859B878A87FA
:100A6000848595859D878C87868597859F878E87CA
:100A700080899189998B888B828993899B8B8A8BBA
:100A8000848995899D8B8C8B868997899F8B8E8B8A
:100A90008CE17896DE01589601900D928A95E1F7E7
:100AA000FB0184A98CAB85A98DAB86A997A99FABC7
:100AB0008EAB80AD91AD99AF88AF82AD93AD9BAF5A
:100AC0008AAF84AD95AD9DAF8CAF86AD97AD9FAF2E
:100AD0008EAF82E692E099838883E05CFF4F80814D
:100AE000C05CDF4F8883DF91CF910895EF92FF9232
:100AF0000F931F93CF93DF93CDB7DEB7C654D109C1
:100B00000FB6F894DEBF0FBECDBF7C0180912B03E2
:100B100081110DC080911206811109C080911101CF
:100B2000882329F00E940F0381E080932B0380919A
:100B30001006813009F05BC090912A03983009F0CB
:100B400056C010922A039091BC05943011F483E0B2
:100B500002C0911103C08093BC050FC00E943538BC
:100B600062E070E00E947A379091BC05811102C06A
:100B70009F5F01C091509093BC058091C105843066
:100B800011F483E003C0811104C081E08093C105AA
:100B90000FC00E94353862E070E00E947A37909171
:100BA000C105811102C09F5F01C091509093C105A2
:100BB0008091C605843011F483E003C0811104C024
:100BC00081E08093C60513C08091C105843079F01F
:100BD0000E94353862E070E00E947A379091C60535
:100BE000811102C09F5F01C091509093C6058FEFA5
:100BF00023968FAF239724968FAF249725968FAF98
:100C0000259780913A03863159F410923A038091E6
:100C10001206882319F060E080E010C080E023C055
:100C200080913903863179F41092390310923003A0
:100C300080911206882329F060E081E00E94E6039B
:100C400014C081E010C080913803863171F4109295
:100C5000380310922F0380911206882319F060E068
:100C600082E0ECCF82E00E9497028091BD05209146
:100C7000370340913403B701813091F5CE010196DD
:100C800026962FAF269727964FAF27970E941405D9
:100C900026962FAD269727964FAD279760E0CE0179
:100CA00001960E94350C20913A034091BC05B70192
:100CB000CE01019626962FAF269727964FAF2797FE
:100CC0000E9414050EEB15E026962FAD2697279669
:100CD0004FAD279760E0CE0101960E944C0A31C0CB
:100CE000CE01019626962FAF269727964FAF2797CE
:100CF0000E94140526962FAD269727964FAD27976D
:100D000060E0CE0101960E94450F20913A03409188
:100D1000BC05B701CE01019626962FAF26972796E0
:100D20004FAF27970E9414050EEB15E026962FADC6
:100D3000269727964FAD279760E0CE0101960E9437
:100D40008F0D809139038093BB059091C2058091EE
:100D500039039130C9F587FD74C020913603409165
:100D60003303B701CE01019626962FAF269727961B
:100D70004FAF27970E94140526962FAD26972796EA
:100D80004FAD279760E0CE0101960E94350C20916F
:100D900039034091C105B701CE01019626962FAFC8
:100DA000269727964FAF27970E94140503EC15E06E
:100DB00026962FAD269727964FAD279760E0CE0158
:100DC00001960E944C0A39C087FD3BC02091360332
:100DD00040913303B701CE01019626962FAF269797
:100DE00027964FAF27970E94140526962FAD26977A
:100DF00027964FAD279760E0CE0101960E94450FE0
:100E0000209139034091C105B701CE010196269684
:100E10002FAF269727964FAF27970E9414058E0174
:100E20000E5B1F4F26962FAD269727964FAD27971F
:100E300060E0CE0101960E948F0D8091390380936E
:100E4000C0059091C705809138039130C9F587FDA1
:100E500073C02091350340913203B701CE01019652
:100E600026962FAF269727964FAF27970E941405F7
:100E700026962FAD269727964FAD279760E0CE0197
:100E800001960E94350C209138034091C605B701A8
:100E9000CE01019626962FAF269727964FAF27971C
:100EA0000E94140508EC15E026962FAD269727968C
:100EB0004FAD279760E0CE0101960E944C0A38C0E2
:100EC00087FD3AC02091350340913203B701CE012E
:100ED000019626962FAF269727964FAF27970E9409
:100EE000140526962FAD269727964FAD279760E0DD
:100EF000CE0101960E94450F209138034091C6050E
:100F0000B701CE01019626962FAF269727964FAFB1
:100F100027970E94140508EC15E026962FAD26971A
:100F200027964FAD279760E0CE0101960E948F0D66
:100F3000809139038093C50580913A0380933703EC
:100F40002091390320933603909138039093350311
:100F50003091BC05309334033091C1053093330395
:100F60003091C605309332038F5F80933A03873008
:100F700048F430913003311105C080912F03811165
:100F800009C00EC02F5F2093390321E02093300366
:100F90008D3098F39F5F9093380381E080932F0307
:100FA00080912A038F5F80932A03CA5BDF4F0FB6BD
:100FB000F894DEBF0FBECDBFDF91CF911F910F918F
:100FC000FF90EF9008952F923F924F925F926F9211
:100FD0007F928F929F92AF92BF92CF92DF92EF92C9
:100FE000FF920F931F93CF93DF93CDB7DEB7C85413
:100FF000D1090FB6F894DEBF0FBECDBF3C01809182
:101000000E0123968FAF239780910C0124968FAF0A
:10101000249780910D0125968FAF259780910F0120
:10102000813051F080910F06813049F080910E0699
:10103000813041F0212C08C085E0282E05C004E055
:10104000202E02C013E0212EB301CE0101960E9492
:10105000140560E0CE0101960E945F0285EC95E0E8
:101060000E94542710923A031092390310923803C9
:101070001092370310923603109235031092340306
:101080001092330310923203109231031092300306
:1010900010922F038091120681110E941803412C97
:1010A000512C29961FAE1EAE299727961FAE1EAE55
:1010B0002797812C912C312CB2E0BB2E8091140605
:1010C000882309F11092140660E070E0C3010E94C9
:1010D0001A16C85BDF4F0FB6F894DEBF0FBECDBF48
:1010E000DF91CF911F910F91FF90EF90DF90CF9004
:1010F000BF90AF909F908F907F906F905F904F9038
:101100003F902F90089580911306882309F458C0CA
:1011100010923A0310923903109238031092370359
:101120001092360310923503109234031092330359
:1011300010923203109231031092300310922F0359
:1011400080910E0123968FAF239780910C012496F6
:101150008FAF249780910D0125968FAF25978091B1
:101160000F01813051F080910F06813049F080915C
:101170000E06813041F0212C08C0A5E02A2E05C0C2
:10118000F4E02F2E02C0E3E02E2EB301CE01019633
:101190000E94140560E0CE0101960E945F02109249
:1011A0001306412C512C29961FAE1EAE2997279667
:1011B0001FAE1EAE2797812C912C312C72E0B72EDA
:1011C000B301CE0101960E94140560E0CE010196A4
:1011D0000E947605B301CE0101960E9414058E018E
:1011E0000E5B1F4F2CE04B2D60E0CE0101960E945C
:1011F0004C0A8091BD05813031F490913A039C50A6
:10120000953040F035C0823099F590913A039C506A
:101210009B3070F59091BC059B110DC0B301CE01C0
:1012200001960E941405940140E060E0CE01019611
:101230000E941F111DC0813051F427968EAD9FADC5
:101240002797892BA9F49FEF891A990A0BC082303E
:1012500079F427968EAD9FAD2797892B49F492E0BC
:10126000890E911C81E090E027969FAF8EAF279763
:101270008091C205813031F4809139038C508530E2
:1012800040F037C08230A9F5809139038C508B3003
:1012900080F58091C1058B110DC0B301CE0101967F
:1012A0000E941405940140E060E0CE0101960E9486
:1012B0001F111FC08091BD05813051F429968EAD5C
:1012C0009FAD2997892BA9F49FEF891A990A0BC022
:1012D000823079F429968EAD9FAD2997892B49F4F8
:1012E00092E0890E911C81E090E029969FAF8EAF2D
:1012F00029978091C705813031F4809138038C5053
:10130000853040F02EC0823061F5809138038C50DA
:101310008B3038F58091C6058B110DC0B301CE011D
:1013200001960E941405940140E060E0CE01019610
:101330000E941F1116C08091BD05813039F44114FF
:10134000510479F49FEF891A990A08C0823049F450
:101350004114510431F482E0880E911C44244394DA
:10136000512C80913A03813059F0809139038130BA
:1013700061F080913803813061F4412C512C09C017
:1013800027961FAE1EAE279704C029961FAE1EAE2D
:10139000299785EC95E00E949727882309F48ECE43
:1013A00085EC95E00E948B27813059F4B301CE0182
:1013B00001960E94140540E060E0CE0101960E9473
:1013C000C52785EC95E00E948827853998F0311073
:1013D00030C0B301CE0101960E9414052CE04B2DC4
:1013E00060E0CE0101960E94350C93E09B15F0F071
:1013F000B3941CC085EC95E00E948827873468F17F
:1014000085EC95E00E9488278C3638F5311011C0A4
:10141000B301CE0101960E9414052CE04B2D60E033
:10142000CE0101960E94350CB110BA943324339446
:1014300004C03394321408F0312CB301CE0101966C
:101440000E9414058E010E5B1F4F2CE04B2D60E0B7
:10145000CE0101960E944C0A0DC085EC95E00E94D9
:101460008827893738F085EC95E00E9488278838EE
:1014700008F4312CAA24A394C12CD12CEE24E3949B
:1014800055E0F52E0AE0940142E050E066E170E09C
:10149000C3010E946C1A12CE6F927F928F929F921C
:1014A000AF92BF92CF92DF92EF92FF920F931F9372
:1014B000CF93DF936C01742E622EE8018881887FC0
:1014C00099819C7F28E0929F70011124F82A8A81DB
:1014D000869586958695E82A862D0E945B1E5C017E
:1014E000872D0E94601E00E410E028E230E0A50194
:1014F000BC01C6010E9466188881887F99819C7F03
:1015000028E0929F70011124F82A8A818695869599
:101510008695E82A862D0E945B1E8C01872D0E94ED
:10152000601E4C01862D0E945B1E5C01872D0E946F
:10153000601E065E1F4F9401265F3F4FA501405F6E
:101540005F4FBC016F5F7F4FC6010E945B178881B0
:10155000887F99819C7F28E0929F70011124F82A4E
:101560008A81869586958695E82A862D0E945B1E3F
:101570008C01872D0E94601E4C01862D0E945B1EEF
:101580005C01872D0E94601E065E1F4F9401225E43
:101590003F4FA501405F5F4FBC01695D7F4FC601B2
:1015A0000E945B178881887F99819C7F28E0929FA9
:1015B00070011124F82A8A81869586958695E82AF5
:1015C000862D0E945B1E8C01872D0E94601E4C019F
:1015D000862D0E945B1E5C01872D0E94601E065EA8
:1015E0001F4F9401225E3F4FA501465E5F4FBC0135
:1015F000665F7F4FC6010E945B178881887F998153
:101600009C7F28E0929F70011124F82A8A81869598
:1016100086958695E82A862D0E945B1E8C01872D73
:101620000E94601E4C01862D0E945B1E5C01872D6E
:101630000E94601E0A5D1F4F9401225E3F4FA5016C
:101640004A5D5F4FBC01665F7F4FC6010E945B171A
:101650008881887F99819C7F28E0929F7001112466
:10166000F82A8A81869586958695E82A862D0E9495
:101670005B1E8C01872D0E94601E4C01862D0E94EE
:101680005B1E5C01872D0E94601E0A5D1F4F940146
:10169000265F3F4FA501405D5F4FBC016F5F7F4FED
:1016A000C6010E945B178881887F99819C7F28E012
:1016B000929F70011124F82A8A81869586958695D5
:1016C000E82A862D0E945B1E8C01872D0E94601ED9
:1016D0004C01862D0E945B1E5C01872D0E94601EBE
:1016E0000A5D1F4F9401225E3F4FA501405D5F4F91
:1016F000BC01695D7F4FC6010E945B178881887FAE
:1017000099819C7F28E0929F70011124F82A8A8198
:10171000869586958695E82A862D0E945B1E8C010B
:10172000872D0E94601E4C01862D0E945B1E5C016D
:10173000872D0E94601E0A5D1F4F9401265F3F4F58
:10174000A501465E5F4FBC01665F7F4FC6010E94E8
:101750005B178881887F99819C7F28E0929F700128
:101760001124F82A8A81869586958695E82A862D01
:101770000E945B1E8C01872D0E94601E4C01862DED
:101780000E945B1E5C01872D0E94601E0A5D1F4F38
:101790009401225E3F4FA501465E5F4FBC01625E31
:1017A0007F4FC6010E945B178881887F99819C7F4B
:1017B00028E0929F70011124F82A8A8186958695E7
:1017C0008695E82A862D0E945B1E8C01872D0E943B
:1017D000601E4C01862D0E945B1E5C01872D0E94BD
:1017E000601E005F1F4F94012A5D3F4FA501405FBF
:1017F0005F4FBC01C6010E945B178881887F998179
:101800009C7F28E0929F70011124F82A8A81869596
:1018100086958695E82A862D0E945B1E8C01872D71
:101820000E94601E5C01862D0E945B1EEC01872DCC
:101830000E94601E005D1F4F95012A5D3F4FAE0163
:10184000405D5F4FBC01C6010E945B17DF91CF91E5
:101850001F910F91FF90EF90DF90CF90BF90AF90CE
:101860009F908F907F906F900895AF92BF92CF928C
:10187000DF92EF92FF920F931F93CF93DF93EC01D0
:10188000B42EA22E822F0E945B1E8C018B2D0E94F3
:10189000601E6C018A2D0E945B1E7C018B2D0E94B4
:1018A000601E065E1F4F9601265F3F4FA701405FF7
:1018B0005F4FBC016F5F7F4FE12CF12CCE010E9486
:1018C0005B178A2D0E945B1E8C018B2D0E94601E6F
:1018D0006C018A2D0E945B1E7C018B2D0E94601E74
:1018E000065E1F4F9601225E3F4FA701405F5F4F8C
:1018F000BC01695D7F4FE12CF12CCE010E945B178A
:101900008A2D0E945B1E8C018B2D0E94601E6C0133
:101910008A2D0E945B1E7C018B2D0E94601E065E3C
:101920001F4F9601225E3F4FA701465E5F4FBC01ED
:10193000665F7F4FE12CF12CCE010E945B178A2D50
:101940000E945B1E8C018B2D0E94601E6C018A2DF3
:101950000E945B1E7C018B2D0E94601E0A5D1F4F42
:101960009601225E3F4FA7014A5D5F4FBC01665F53
:101970007F4FE12CF12CCE010E945B178A2D0E9433
:101980005B1E8C018B2D0E94601E6C018A2D0E94B3
:101990005B1E7C018B2D0E94601E0A5D1F4F96010D
:1019A000265F3F4FA701405D5F4FBC016F5F7F4FD8
:1019B000E12CF12CCE010E945B178A2D0E945B1E48
:1019C0008C018B2D0E94601E6C018A2D0E945B1E73
:1019D0007C018B2D0E94601E0A5D1F4F9601225EC6
:1019E0003F4FA701405D5F4FBC01695D7F4FE12C18
:1019F000F12CCE010E945B178A2D0E945B1E8C0188
:101A00008B2D0E94601E6C018A2D0E945B1E7C0142
:101A10008B2D0E94601E0A5D1F4F9601265F3F4F6F
:101A2000A701465E5F4FBC01665F7F4FE12CF12C42
:101A3000CE010E945B178A2D0E945B1E8C018B2DAC
:101A40000E94601E6C018A2D0E945B1E7C018B2D02
:101A50000E94601E0A5D1F4F9601225E3F4FA70144
:101A6000465E5F4FBC01625E7F4FE12CF12CCE01E0
:101A70000E945B178A2D0E945B1E8C018B2D0E9499
:101A8000601E6C018A2D0E945B1E7C018B2D0E94C2
:101A9000601E005F1F4F9601285D3F4FA701405F0A
:101AA0005F4FE12CF12CBC01CE010E945B178A2D07
:101AB0000E945B1E8C018B2D0E94601E7C018A2D72
:101AC0000E945B1E6C018B2D0E94601E005D1F4FEB
:101AD0009701285D3F4FA601405D5F4FE12CF12C3F
:101AE000BC01CE010E945B178A2D0E945B1E6C0117
:101AF0008B2D0E94601E00E410E028E230E0A60179
:101B0000BC01CE010E946618DF91CF911F910F9109
:101B1000FF90EF90DF90CF90BF90AF9008956F92BD
:101B20007F928F929F92AF92BF92CF92DF92EF926D
:101B3000FF920F931F93CF93DF936C01742E622E4D
:101B4000E8018881887F99819C7F28E0929F7001BD
:101B50001124F82A8A81869586958695E82A862D0D
:101B60000E945B1E8C01872D0E94601E4C01862DF9
:101B70000E945B1E5C01872D0E94601E0E5C1F4F41
:101B80009401295D3F4FA5014E5C5F4FBC01C6012A
:101B90000E945B178881887F99819C7F28E0929FB3
:101BA00070011124F82A8A81869586958695E82AFF
:101BB000862D0E945B1E8C01872D0E94601E4C01A9
:101BC000862D0E945B1E5C01872D0E94601E015CB9
:101BD0001F4F94012B5F3F4FA5014E5C5F4FBC012F
:101BE0006B5F7F4FC6010E945B178881887F998158
:101BF0009C7F28E0929F70011124F82A8A818695A3
:101C000086958695E82A862D0E945B1E8C01872D7D
:101C10000E94601E4C01862D0E945B1E5C01872D78
:101C20000E94601E015C1F4F94012D5D3F4FA50176
:101C30004E5C5F4FBC016D5D7F4FC6010E945B171C
:101C40008881887F99819C7F28E0929F7001112470
:101C5000F82A8A81869586958695E82A862D0E949F
:101C60005B1E8C01872D0E94601E4C01862D0E94F8
:101C70005B1E5C01872D0E94601E0D5D1F4F94014D
:101C8000225E3F4FA5014D5D5F4FBC01665F7F4FF8
:101C9000C6010E945B178881887F99819C7F28E01C
:101CA000929F70011124F82A8A81869586958695DF
:101CB000E82A862D0E945B1E8C01872D0E94601EE3
:101CC0004C01862D0E945B1E5C01872D0E94601EC8
:101CD0000E5C1F4F94012B5F3F4FA5014D5D5F4F81
:101CE000BC01665F7F4FC6010E945B178881887FB9
:101CF00099819C7F28E0929F70011124F82A8A81A3
:101D0000869586958695E82A862D0E945B1E8C0115
:101D1000872D0E94601E4C01862D0E945B1E5C0177
:101D2000872D0E94601E0E5C1F4F94012D5D3F4F5A
:101D3000A5014D5D5F4FBC01625E7F4FC6010E94F1
:101D40005B178881887F99819C7F28E0929F700132
:101D50001124F82A8A81869586958695E82A862D0B
:101D60000E945B1E8C01872D0E94601E4C01862DF7
:101D70000E945B1E5C01872D0E94601E0D5D1F4F3F
:101D80009401265F3F4FA501475E5F4FBC01665F30
:101D90007F4FC6010E945B178881887F99819C7F55
:101DA00028E0929F70011124F82A8A8186958695F1
:101DB0008695E82A862D0E945B1E8C01872D0E9445
:101DC000601E4C01862D0E945B1E5C01872D0E94C7
:101DD000601E0D5D1F4F9401225E3F4FA501475EBF
:101DE0005F4FBC01625E7F4FC6010E945B17888116
:101DF000887F99819C7F28E0929F70011124F82AA6
:101E00008A81869586958695E82A8DEF860D0E94B3
:101E10005B1E5C01872D0E94601E0AE510E028E22F
:101E200030E0A501BC01C6010E9466188881887F48
:101E300099819C7F28E0929F70011124F82A8A8161
:101E4000869586958695E82A862D0E945B1EEC0174
:101E5000872D0E94601EAE01455E5F4F05E210E0D7
:101E600028E230E0BC01C6010E946618DF91CF91E4
:101E70001F910F91FF90EF90DF90CF90BF90AF90A8
:101E80009F908F907F906F900895AF92BF92CF9266
:101E9000DF92EF92FF920F931F93CF93DF93EC01AA
:101EA000B42EA22E822F0E945B1E8C018B2D0E94CD
:101EB000601E6C018A2D0E945B1E7C018B2D0E948E
:101EC000601E0E5C1F4F9601295D3F4FA7014E5CBF
:101ED0005F4FE12CF12CBC01CE010E945B178A2DD3
:101EE0000E945B1E8C018B2D0E94601E6C018A2D4E
:101EF0000E945B1E7C018B2D0E94601E015C1F4FA7
:101F000096012B5F3F4FA7014E5C5F4FBC016B5F9B
:101F10007F4FE12CF12CCE010E945B178A2D0E948D
:101F20005B1E8C018B2D0E94601E6C018A2D0E940D
:101F30005B1E7C018B2D0E94601E015C1F4F960171
:101F40002D5D3F4FA7014E5C5F4FBC016D5D7F4F24
:101F5000E12CF12CCE010E945B178A2D0E945B1EA2
:101F60008C018B2D0E94601E6C018A2D0E945B1ECD
:101F70007C018B2D0E94601E0D5D1F4F9601225E1D
:101F80003F4FA7014D5D5F4FBC01665F7F4FE12C66
:101F9000F12CCE010E945B178A2D0E945B1E8C01E2
:101FA0008B2D0E94601E6C018A2D0E945B1E7C019D
:101FB0008B2D0E94601E0E5C1F4F96012B5F3F4FC2
:101FC000A7014D5D5F4FBC01665F7F4FE12CF12C97
:101FD000CE010E945B178A2D0E945B1E8C018B2D07
:101FE0000E94601E6C018A2D0E945B1E7C018B2D5D
:101FF0000E94601E0E5C1F4F96012D5D3F4FA70192
:102000004D5D5F4FBC01625E7F4FE12CF12CCE0134
:102010000E945B178A2D0E945B1E8C018B2D0E94F3
:10202000601E6C018A2D0E945B1E7C018B2D0E941C
:10203000601E0D5D1F4F9601265F3F4FA701475E53
:102040005F4FBC01665F7F4FE12CF12CCE010E94F7
:102050005B178A2D0E945B1E8C018B2D0E94601ED7
:102060007C018A2D0E945B1E6C018B2D0E94601EDC
:102070000D5D1F4F9701225E3F4FA601475E5F4FE8
:10208000BC01625E7F4FE12CF12CCE010E945B17F8
:102090008DEF8A0D0E945B1E6C018B2D0E94601ECD
:1020A0000AE510E028E230E0A601BC01CE010E9462
:1020B00066188A2D0E945B1E6C018B2D0E94601E8B
:1020C000A601455E5F4F05E210E028E230E0BC016A
:1020D000CE010E946618DF91CF911F910F91FF9062
:1020E000EF90DF90CF90BF90AF9008950C946F3831
:1020F0000C9477385F926F927F928F929F92AF92FB
:10210000BF92CF92DF92EF92FF920F931F93CF93E4
:10211000DF93CDB7DEB7CC54D1090FB6F894DEBF4C
:102120000FBECDBF5C012D966FAF2D974E0182E49F
:10213000880E911C5AE0752E6AE1662E70EF572EBC
:10214000E8EDF1E0D401872D01900D928A95E1F739
:10215000F40101900020E9F73197E819F909652D9C
:102160006E9E6019112470E023E0C22EE12CF12C48
:1021700000E018EF94014FE050E0C5010E94EB1918
:10218000B501CE0101960E94140538E2C32ED12C70
:1021900048ECE42EF12C0BE410E024E130E046ECB6
:1021A00051E0BE016F5F7F4FCE01845B9F4F0E9465
:1021B000D720882349F060E070E0C5010E941A161C
:1021C00081E08093130624C0B501CE0101960E94E0
:1021D000140588E2C82ED12C98ECE92EF12C07E8E2
:1021E00010E024E130E04EEC51E0BE016F5F7F4F24
:1021F000CE01845B9F4F0E94D720882309F4A0CF93
:1022000060E070E0C5010E941A1681E08093140618
:10221000C45BDF4F0FB6F894DEBF0FBECDBFDF91BA
:10222000CF911F910F91FF90EF90DF90CF90BF90D3
:10223000AF909F908F907F906F905F9008952F92B6
:102240003F924F925F926F927F928F929F92AF9246
:10225000BF92CF92DF92EF92FF920F931F93CF9393
:10226000DF93CDB7DEB7CA55D1090FB6F894DEBFFC
:102270000FBECDBF4C0168966FAF689739018BEAEE
:1022800090E00E947610182F60E070E0C4010E9478
:102290001A1611113CC060E08BEA90E00E947810A1
:1022A00061E48EEA90E00E94781061E48FEA90E0A9
:1022B0000E94781061E480EB90E00E94781060E06A
:1022C0008CEA90E00E94781061E481EB90E00E943B
:1022D000781061E482EB90E00E94781061E483EB77
:1022E00090E00E94781060E08DEA90E00E94781003
:1022F00061E484EB90E00E94781061E485EB90E06B
:102300000E94781061E486EB90E00E94781081E4EE
:10231000B82E81E46A968FAF6A9769968FAF6997F6
:102320001E018DE4280E311C2E0182E4480E511C42
:1023300080911306882321F081E08093130695C1D4
:1023400080911406882321F081E0809314068DC1CA
:102350008DEA90E00E94761090E08615970508F0CF
:1023600073C1E9EEF1E0D1018AE001900D928A9506
:10237000E1F7F10101900020E9F73197E219F30943
:1023800060EF8AE18E9F6019112470E0E3E0CE2EA9
:10239000E12CF12C00E018EF91014FE050E0C40176
:1023A0000E94EB19F3E0AF2EC12CD12CE12CA8EF49
:1023B000FA2E0AE0930140E550E066E470E0C401C3
:1023C0000E946C1AE3EFF1E0D2018BE001900D92D4
:1023D0008A95E1F7F20101900020E9F73197E419BD
:1023E000F50960EF84E18E9F6019112470E0B2E07E
:1023F000CB2EE12CF12C00E018EF92014CE850E0DC
:10240000C4010E94EB19B401CE0101960E9414058B
:1024100069960FAD699720EA30E043E250E0BE01D3
:102420006F5F7F4FCE01895A9F4F0E943D2369966F
:102430008FAF6997B401CE0101960E9414056A9688
:102440000FAD6A9720EA30E04FE550E0BE016F5FC4
:102450007F4FCE01895A9F4F0E943D236A968FAFCE
:102460006A97B401CE0101960E9414050B2D20EA53
:1024700030E04BE950E0BE016F5F7F4FCE01895ADB
:102480009F4F0E943D23B82EB401CE0101960E94B9
:10249000140518E2C12ED12C08ECE02EF12C00EF2F
:1024A00010E024E130E042EE51E0BE016F5F7F4F6B
:1024B000CE01895A9F4F0E94D720882309F438CF34
:1024C0008BEA90E00E947610182F282F30E0261516
:1024D000370508F057C08EEA90E00E947610282F4A
:1024E0008FEA90E06B962FAF6B970E947610A82E24
:1024F00080EB90E00E947610C82E8CEA90E00E945B
:102500007610D82E81EB90E00E947610E82E82EBB8
:1025100090E00E947610F82E83EB90E00E947610F7
:10252000082F662D8BEA90E00E94781069966FADB7
:1025300069978EEA90E00E9478106A966FAD6A976C
:102540008FEA90E00E9478106B2D80EB90E00E9463
:102550007810612F8CEA90E00E9478106B962FAD76
:102560006B97622F81EB90E00E9478106A2D82EBCE
:1025700090E00E9478106C2D83EB90E00E94781020
:102580006D2D32C08CEA90E00E947610182F282F13
:1025900030E026153705C0F581EB90E00E947610FB
:1025A000E82E82EB90E00E947610F82E83EB90E00C
:1025B0000E947610082F662D8CEA90E00E94781019
:1025C00069966FAD699781EB90E00E9478106A96EA
:1025D0006FAD6A9782EB90E00E9478106B2D83EBD1
:1025E00090E00E947810612F8DEA90E00E947810B0
:1025F0006E2D84EB90E00E9478106F2D85EB90E0BB
:102600000E947810602F1CC08DEA90E00E94761026
:1026100090E086159705C0F4662D8DEA90E00E9443
:10262000781069966FAD699784EB90E00E947810FE
:102630006A966FAD6A9785EB90E00E9478106B2DDB
:1026400086EB90E00E94781060E070E0C4010E9488
:102650001A16B401CE0101960E94140540E060E014
:10266000CE0101960E947A1063CEC65ADF4F0FB694
:10267000F894DEBF0FBECDBFDF91CF911F910F91B8
:10268000FF90EF90DF90CF90BF90AF909F908F9092
:102690007F906F905F904F903F902F9008950F9391
:1026A0001F93CF93DF936AEA80E090E00E9477382F
:1026B0000EED15E0C1E0D0E0F80161918F01CE018F
:1026C0000E9477382196CD31D105B1F7DF91CF91B6
:1026D0001F910F9108950F931F93CF93DF9380E085
:1026E00090E00E946F388A3A79F40EED15E0C1E06F
:1026F000D0E0CE010E946F38F80181938F012196BE
:10270000CD31D105B1F702C081E001C080E0DF9199
:10271000CF911F910F910895CF93DF93CDB7DEB77F
:10272000C154D1090FB6F894DEBF0FBECDBF0E94D1
:102730000A3486EC95E00E9451276AE570E086EC49
:1027400095E00E94412687E096E00E94E92F6EEF17
:1027500071E087E096E00E94013086EC95E00E94EF
:10276000082486EC95E00E94571E892B09F08DC045
:102770000E946B13811189C060E070E086EC95E0E7
:102780000E941A168CE1F82E02E612E08091C8052C
:102790009091C9059C838B838091CA059091CB054C
:1027A0009E838D838091CC059091CD0598878F83F2
:1027B0008091CE059091CF059A8789878091D00529
:1027C0009091D1059C878B878091D2059091D305FC
:1027D0009E878D878091D4059091D505988B8F87A2
:1027E0008091D6059091D7059A8B898B8091D805D9
:1027F0009091D9059C8B8B8B8091DA059091DB05AC
:102800009E8B8D8B8091DC059091DD05988F8F8B51
:10281000EEEDF5E0DE0159968F2D01900D928A952F
:10282000E1F78091FA058DAB8091FB058EAB80912D
:10283000FC059091FD0598AF8FAB8091FE059091BE
:10284000FF059AAF89AF80910006909101069CAF79
:102850008BAF80910206909103069EAF8DAF809161
:1028600004069091050621969FAF8EAF21971A839B
:1028700009838091060622968FAF229740E060E0A0
:10288000CE0101960E94262081CF86EC95E00E9421
:102890009C240E944F1370CF86EC95E00C94F82393
:1028A0002F923F924F925F926F927F928F929F9260
:1028B000AF92BF92CF92DF92EF92FF920F931F934E
:1028C000CF93DF9300D01F92CDB7DEB79B838A836F
:1028D000380188E0280250011124D501A859B040E0
:1028E0005D01BC2DBF77CB2EEA81FB81868197816C
:1028F000F1E0FB1708F462C06B0128E0C20ED11CA6
:102900008C159D050CF46DC0AA81BB8118962D9184
:102910003C911997FA0138962E173F070CF461C0C5
:10292000AA81BB81ED91FC9111978A01095F1F4F2C
:102930009B01295F3F4F0680F781E02DCD0109956E
:10294000AA81BB81ED91FC9111970084F185E02D66
:10295000CD0109958501085F1F4FF5015490FFEFE8
:10296000AF1ABF0A98E0892E912C20E8422EAA8146
:10297000BB81ED91FC911197842D85210284F38513
:10298000E02D882319F0B301CD0103C0B7018A817E
:102990009B8109954694B1E08B1A910841F7A016E6
:1029A000B106D9F6AA81BB81ED91FC9111970484FF
:1029B000F585E02DCD010995C60175C0B8E0CB9E27
:1029C000800111244B01800E911E881599054CF051
:1029D000040F151FEA81FB812085318520173107FF
:1029E00014F4019660C0AA81BB81ED91FC9111970E
:1029F000015011090680F781E02D94012150310921
:102A0000CD010995AA81BB81ED91FC9111970084BC
:102A1000F185E02DCD0109952501B8E04B0E511C43
:102A2000F501D490FFEFAF1ABF0A2C2C08E010E09C
:102A300080E8382E832D8D212C2DA1F0AA81BB8119
:102A4000ED91FC9111970284F385E02DB301CD0146
:102A5000298309952981215089F73694015011095C
:102A600049F710C0AA81BB81ED91FC9111970284B6
:102A7000F385E02DB701CD012983099529812150E6
:102A800089F7EBCF2A9491F6A414B50409F0C8CFC6
:102A9000AA81BB81ED91FC9111970484F585E02D0D
:102AA000CD010995C4010F900F900F90DF91CF9148
:102AB0001F910F91FF90EF90DF90CF90BF90AF905C
:102AC0009F908F907F906F905F904F903F902F904E
:102AD0000895CF92EF92FF920F931F93DC01ED9137
:102AE000FC910684F785E02D09951F910F91FF90C9
:102AF000EF90CF900895CF92EF92FF920F931F9394
:102B0000CF93DF93EC01262F6A3081F48EAD9FAD19
:102B10009BAF8AAF2CA92F778CAD9DAD38E0239F5A
:102B2000800D911D11249DAF8CAF47C0862F8B7FE8
:102B3000893009F442C06AAD7BAD203219F46115C9
:102B40007105D9F1E881F981E8ACF9AC0EA91FA9AA
:102B50004CAD5DAD0088F189E02DCCA8CE01099582
:102B60009BAF8AAF2DA9222341F14CA94F77642F47
:102B700070E028EF2403A00111242E813F81240F4F
:102B8000351F28173907CCF48EAD9FAD9BAF8AAFA8
:102B9000CB0133E0880F991F3A95E1F72CAD3DAD9D
:102BA000820F931F9DAF8CAF28853985240F351F69
:102BB0002817390714F41DAE1CAE81E090E0DF91B8
:102BC000CF911F910F91FF90EF90CF900895FC014E
:102BD0001382128282E292E09183808315821482B2
:102BE00077836683518740871786168615861486F5
:102BF00013861286178A168A158A148A138A128AED
:102C0000118A108A10AA11AA12AA13AA81E084AB11
:102C100085AB17AA16AA8FEF9FEF91AF80AF17AEC3
:102C200016AE15AE14AE13AE12AE0895FC0184813B
:102C300095810895AF92BF92CF92DF92EF92FF926B
:102C40000F931F93CF93DF93EC015B01E881F98130
:102C500008851985015011092E813F8121503109C4
:102C60000680F781E02D40E050E060E070E00995DB
:102C7000E881F9810084F185E02DCE010995AE81CE
:102C8000BF81288539850E94B0376B017C0143E004
:102C9000F694E794D794C7944A95D1F7E881F981DF
:102CA000C114D104E104F10409F444C00284F385A1
:102CB000E02DB501CE010995E881F9810284F38503
:102CC000E02DB501CE010995E881F9810284F385F3
:102CD000E02DB501CE010995E881F9810284F385E3
:102CE000E02DB501CE010995E881F9810284F385D3
:102CF000E02DB501CE010995E881F9810284F385C3
:102D0000E02DB501CE010995E881F9810284F385B2
:102D1000E02DB501CE010995E881F9810284F385A2
:102D2000E02DB501CE01099581E0C81AD108E1086E
:102D3000F108B4CF0484F585E02DCE01DF91CF9169
:102D40001F910F91FF90EF90DF90CF90BF90AF90C9
:102D50000994EF92FF920F931F93CF93DF93EC01AF
:102D600079018E819F816817790754F58885998547
:102D7000481759072CF5E881F9810680F781E02D85
:102D80008A019B01CE010995E881F9810084F185D2
:102D9000E02DCE010995E881F9810284F385E02DCB
:102DA000B701CE010995E881F9810484F585E02D0C
:102DB000CE01DF91CF911F910F91FF90EF90099479
:102DC000DF91CF911F910F91FF90EF9008958F9217
:102DD0009F92AF92BF92CF92DF92EF92FF920F93AA
:102DE0001F93CF93DF93EC016901480157012E81B6
:102DF0003F81621773071CF0B90161507109888522
:102E00009985481759071CF0AC0141505109FB0145
:102E1000EC0DFD1DE217F3071CF06901C61AD70A75
:102E20009A01280D391D281739071CF04C01841A06
:102E3000950AE881F9818A01080D191D01501109CF
:102E40009B012C0D3D1D215031090680F781E02D9D
:102E5000CE010995E881F9810084F185E02DCE014C
:102E600009959401D6010E94B0376B017C01E8817D
:102E7000F981C114D104E104F10461F00284F38505
:102E8000E02DB501CE01099581E0C81AD108E1080D
:102E9000F108EDCF0484F585E02DCE01DF91CF91CF
:102EA0001F910F91FF90EF90DF90CF90BF90AF9068
:102EB0009F908F9009942F923F924F925F926F92C2
:102EC0007F928F929F92AF92BF92CF92DF92EF92BA
:102ED000FF920F931F93CF93DF93CDB7DEB7289761
:102EE0000FB6F894DEBF0FBECDBF4C016B01588703
:102EF0004F83590162177307A1F40417150744F4AF
:102F0000042715274027512758874F830427152763
:102F10002F813885021B130B0F5F1F4F21E030E01C
:102F200015C04F81588540175107B9F42617370748
:102F300034F4A626B726CA24DB24AC24BD2495018C
:102F40002C193D092F5F3F4F01E010E04F8158855C
:102F5000B601C4010E94E716A0C0FC01268137819A
:102F60006217730724F06901F1E0CF1AD108F40168
:102F7000808591854F8158854817590724F0FC01B9
:102F80003197F887EF83A216B30624F05901F1E0D8
:102F9000AF1AB108081719071CF08C01015011096C
:102FA00035016C187D0828012F813885421A530A93
:102FB00077FE08C07194619471084FEF5FEF5A83F8
:102FC000498304C081E090E09A83898357FE08C05A
:102FD000519441945108EFEFFFEFFC83EB8304C061
:102FE00021E030E03C832B83A301440F551F5E8317
:102FF0004D831201220C331C97014F815885B60175
:10300000C4010E94A916461457041CF58101061933
:103010001709CA14DB0409F440C017FD0CC08F81E6
:103020009885EB81FC818E0F9F1F98878F832D8160
:103030003E81021B130B49815A81C40ED51E020D1D
:10304000131D97014F815885B601C4010E94A9162E
:10305000E0CFAD80BE80A418B5088F819885801719
:103060009107D9F0B7FC06C089819A81C80ED91E94
:10307000A218B308EF81F8852B813C81E20FF31F82
:10308000F887EF834D815E81A40EB51E9701AF01D5
:10309000B601C4010E94A916E0CF28960FB6F89495
:1030A000DEBF0FBECDBFDF91CF911F910F91FF907B
:1030B000EF90DF90CF90BF90AF909F908F907F90D8
:1030C0006F905F904F903F902F9008954F925F9236
:1030D0006F927F928F929F92AF92BF92CF92DF9228
:1030E000EF92FF920F931F93CF93DF93EC016B014D
:1030F0005A012901380121E030E00E94E716A501BC
:10310000460D571D4150510901E010E09201B601F2
:10311000CE010E94E716B601640D751D615071095C
:10312000830121E030E0A501CE010E94E71601E015
:1031300010E09201A501B601CE010E94E716DF91D1
:10314000CF911F910F91FF90EF90DF90CF90BF90A4
:10315000AF909F908F907F906F905F904F90089569
:103160002F923F924F925F926F927F928F929F9297
:10317000AF92BF92CF92DF92EF92FF920F931F9385
:10318000CF93DF9300D000D0CDB7DEB76C012B0119
:103190003A013C832B837901F194E194F108A12C4D
:1031A000B12C2B813C812A153B050CF466C04501EE
:1031B000860C971C9801A4012B803C80240C351CA4
:1031C000B101C6010E94A9169801A401B2018B8128
:1031D0009C81681B790B7A836983C6010E94A916BA
:1031E00043018A189B089801A401B101C6010E94FD
:1031F000A9169801A40169817A81C6010E94A916C5
:103200001501240C351C98018B809C80860C971C22
:10321000A401B101C6010E94A916F201EA19FB0935
:10322000FA83E9839801A401BF01C6010E94A9168F
:10323000980143016B817C81861A970AA401B10130
:10324000C6010E94A9169801A40169817A81C6016C
:103250000E94A916C5010196EA0CFB1CE80EF91E96
:10326000F7FC09C0EB81FC813197FC83EB83EE1AFC
:10327000FF0AEE1AFF0A5C0194CF0F900F900F9097
:103280000F90DF91CF911F910F91FF90EF90DF9002
:10329000CF90BF90AF909F908F907F906F905F90F6
:1032A0004F903F902F9008952F923F924F925F92B0
:1032B0006F927F928F929F92AF92BF92CF92DF9246
:1032C000EF92FF920F931F93CF93DF9300D000D024
:1032D00000D0CDB7DEB75C011B012A013E832D83F0
:1032E00048016901D194C194D108612C712C2D81C0
:1032F0003E81261537050CF455C0A301440D551D1C
:1033000074018A012D813E81220D331D3A83298368
:10331000B1018D819E81681B790B7C836B83C50114
:103320000E945B17A201461957098A0129813A8137
:103330006B817C81C5010E945B17F301E20DF31DD7
:10334000FC83EB839101261937093A8329834D8148
:103350005E81440D551D8A019F0169817A81C501F5
:103360000E945B17A2016D817E81461B570B8A016B
:103370002B813C8169817A81C5010E945B17C30161
:103380000196C60CD71CC80ED91ED7FC09C0ED810A
:10339000FE813197FE83ED83CE1ADF0ACE1ADF0A53
:1033A0003C01A5CF26960FB6F894DEBF0FBECDBF69
:1033B000DF91CF911F910F91FF90EF90DF90CF9011
:1033C000BF90AF909F908F907F906F905F904F9045
:1033D0003F902F9008954F925F926F927F928F92BD
:1033E0009F92AF92BF92CF92DF92EF92FF920F9394
:1033F0001F93CF93DF935C01CB014A013801270172
:10340000DC2CE9012991222399F0D501ED91FC9161
:103410000684F785E02DCD2C72018301A401BC0147
:10342000C5010995F501268137812817390754F719
:10343000DF91CF911F910F91FF90EF90DF90CF9090
:10344000BF90AF909F908F907F906F905F904F90C4
:1034500008954F925F926F927F928F929F92AF9258
:10346000BF92CF92DF92EF92FF920F931F93CF9371
:10347000DF93EC01CB014A01F90138012701DC2C73
:1034800024915F012223B9F0E881F9810684F78550
:10349000E02DCD2C72018301A401BC01CE01099560
:1034A0002FEFA21AB20A2E813F81281739071CF08C
:1034B000F5012491E7CFDF91CF911F910F91FF90FC
:1034C000EF90DF90CF90BF90AF909F908F907F90C4
:1034D0006F905F904F9008952F923F924F925F921E
:1034E0006F927F928F929F92AF92CF92DF92EF92E4
:1034F000FF920F931F93CF93DF93CDB7DEB7619702
:103500000FB6F894DEBF0FBECDBF4C013B012A01C0
:10351000C90117017601CA2C402F50E0BE016F5F30
:103520007F4F0E944A3881019E012F5F3F4FA201C9
:10353000B301C4010E94EB1961960FB6F894DEBF87
:103540000FBECDBFDF91CF911F910F91FF90EF90F4
:10355000DF90CF90AF909F908F907F906F905F9013
:103560004F903F902F900895AF92CF92DF92EF92BD
:10357000FF920F9330E00E946C1A0F91FF90EF9032
:10358000DF90CF90AF9008952F923F924F925F922D
:103590006F927F928F929F92AF92BF92CF92DF9263
:1035A000EF92FF920F931F93CF93DF93CDB7DEB7C8
:1035B000E4970FB6F894DEBF0FBECDBF8C011B01A0
:1035C000DA012D913D914D915C9113972D873E87A6
:1035D0004F87588B50964D915D916D917C9153978B
:1035E00049875A876B877C876D857E858F8598890B
:1035F00029853A854B855C85621B730B840B950B83
:103600006D8F7E8F8F8F98A31C964D915D916D91DC
:103610007C911F9749A35AA36BA37CA354966D91E9
:103620007D918D919C915797698F7A8F8B8F9C8F0D
:1036300029A13AA14BA15CA1261B370B480B590BC2
:103640002DA33EA34FA358A718964D915D916D9160
:103650007C911B97498B5A8B6B8B7C8BCB01BA016E
:1036600029853A854B855C85621B730B840B950B12
:1036700069A77AA78BA79CA714964D915D916D9130
:103680007C9117974DA75EA76FA778AB898D9A8D10
:10369000AB8DBC8D481B590B6A0B7B0B49AB5AABEE
:1036A0006BAB7CAB2DA13EA14FA158A56D8D7E8D3E
:1036B0008F8D98A10E9456376B017C0129A93AA9E8
:1036C0004BA95CA969A57AA58BA59CA50E94563734
:1036D000C61AD70AE80AF90AD801D096CD92DD9227
:1036E000ED92FC92D397CD28CE28CF2809F49CC127
:1036F000D1012D913D914D915C91139729833A838E
:103700004B835C835096CD90DD90ED90FC90539769
:1037100029013A014C185D086E087F0818962D9112
:103720003D914D915C911B972D833E834F8358872C
:103730002C193D094E095F092D8B3E8B4F8B588FFD
:10374000A30192016DA17EA18FA198A50E94563779
:103750004B015C012D893E894F89588D69A97AA951
:103760008BA99CA90E945637861A970AA80AB90AFB
:10377000F801808E918EA28EB38E6D8D7E8D8F8D91
:1037800098A10E9456374B015C01A301920169A5E3
:103790007AA58BA59CA50E945637861A970AA80A77
:1037A000B90A848E958EA68EB78EA70196016D8577
:1037B0007E858F8598890E9456374B015C0129814F
:1037C0003A814B815C8169857A858B859C850E94D5
:1037D0005637861A970AA80AB90AA501940169A161
:1037E0007AA18BA19CA10E9456372B013C012D810F
:1037F0003E814F81588569857A858B859C850E949D
:1038000056374B015C01A701960169897A898B893A
:103810009C890E945637861A970AA80AB90AA501F8
:1038200094016DA57EA58FA598A90E945637460ED6
:10383000571E681E791E29813A814B815C816989F6
:103840007A898B899C890E9456376B017C012D8176
:103850003E814F8158856D857E858F8598890E9430
:103860005637C61AD70AE80AF90AA7019601698DE0
:103870007A8D8B8D9C8D0E945637460E571E681E82
:10388000791E40A251A262A273A2D10114962D9179
:103890003D914D915C91179729833A834B835C83CB
:1038A0005496CD90DD90ED90FC90579729013A0108
:1038B0004C185D086E087F081C962D913D914D9126
:1038C0005C911F972D833E834F8358872C193D09A8
:1038D0004E095F092D8B3E8B4F8B588FA3019201B0
:1038E0006DA17EA18FA198A50E9456374B015C0166
:1038F0002D893E894F89588D69A97AA98BA99CA9E0
:103900000E945637861A970AA80AB90A84A295A275
:10391000A6A2B7A26D8D7E8D8F8D98A10E9456377D
:103920004B015C01A301920169A57AA58BA59CA519
:103930000E945637861A970AA80AB90A80A691A645
:10394000A2A6B3A6A70196016D857E858F8598896D
:103950000E9456374B015C0129813A814B815C8181
:1039600069857A858B859C850E945637861A970AC9
:10397000A80AB90AA501940169A17AA18BA19CA109
:103980000E9456374B015C012D813E814F81588545
:1039900069857A858B859C850E9456372B013C0171
:1039A000A701960169897A898B899C890E9456377B
:1039B000461A570A680A790AA30192016DA57EA5E5
:1039C0008FA598A90E945637860E971EA81EB91E6D
:1039D00029813A814B815C8169897A898B899C89AB
:1039E0000E9456376B017C012D813E814F815885A5
:1039F0006D857E858F8598890E945637C61AD70AAD
:103A0000E80AF90AA7019601698D7A8D8B8D9C8D44
:103A10000E945637860E971EA81EB91E84A695A62C
:103A2000A6A6B7A680E001C081E0E4960FB6F894A0
:103A3000DEBF0FBECDBFDF91CF911F910F91FF90E1
:103A4000EF90DF90CF90BF90AF909F908F907F903E
:103A50006F905F904F903F902F900895AF92BF92DC
:103A6000CF92DF92EF92FF920F931F93CF93DF934A
:103A7000EC01A888B9888C899D890A891B89A816B8
:103A8000B90609F45FC0BD8AAC8A288D398D4A8D8C
:103A90005B8DD5010E94D9376B017C012C8D3D8D4A
:103AA0004E8D5F8DD8010E94D937C60ED71EE81EF5
:103AB000F91E88A199A1AAA1BBA1C80ED91EEA1E10
:103AC000FB1E28A939A94AA95BA9C701B6010E9412
:103AD0008E37DA01C9016C817D816A35710571F01B
:103AE00018F4672B41F02CC0643B710521F06E3057
:103AF000714021F025C06E817F8102C06885798583
:103B00006B01CC0CDD1CEE24D7FCE094FE2C2C15B4
:103B10003D054E055F0588F46B01EE24D7FCE0946B
:103B2000FE2C2C153D054E055F0550F0CB0101978D
:103B3000AA2797FDA095BA2F03C080E090E0DC0192
:103B40009B878A878E899F890817190709F45FC0A8
:103B50001F8B0E8B2CA13DA14EA15FA1D5010E9410
:103B6000D9376B017C0128A539A54AA55BA5D801E9
:103B70000E94D937C60ED71EE81EF91E8CA59DA53A
:103B8000AEA5BFA5C80ED91EEA1EFB1E28A939A9DD
:103B90004AA95BA9C701B6010E948E37DA01C901A3
:103BA0006C817D816A35710571F018F4672B41F0E5
:103BB0002CC0643B710521F06E30714021F025C0AE
:103BC0006885798502C06E817F816B01CC0CDD1C1C
:103BD000EE24D7FCE094FE2C2C153D054E055F0528
:103BE00088F46B01EE24D7FCE094FE2C2C153D05E7
:103BF0004E055F0550F0CB010197AA2797FDA095D0
:103C0000BA2F03C080E090E0DC019D878C87DF91B4
:103C1000CF911F910F91FF90EF90DF90CF90BF90C9
:103C2000AF900895CF93DF93EC010E942E1D2C815D
:103C30003D812115310519F48A859B8512C02A35ED
:103C4000310519F48C859D850CC08E819F81243BA4
:103C5000310519F42A853B8502C02C853D85821BE0
:103C6000930BDF91CF910895CF93DF93EC010E94E6
:103C70002E1D8C819D81009719F48C859D8514C023
:103C80008A35910529F4888599852A853B8507C061
:103C9000843B910539F4888599852C853D85821B67
:103CA000930B02C08A859B85DF91CF910895FC011B
:103CB00086859785089525E1829FC0011124089586
:103CC00028E2829FC0011124449608950C946F3815
:103CD0002F923F924F925F926F927F928F929F921C
:103CE000AF92BF92CF92DF92EF92FF920F931F930A
:103CF000CF93DF93CDB7DEB7CA55D1090FB6F8948D
:103D0000DEBF0FBECDBF4C0169966FAF699760E013
:103D100070E00E941A168EEA90E00E94661E782ECD
:103D20008FEA90E00E94661EB82E80EB90E00E9421
:103D3000661E68961CAE1DAE1EAE1FAE68976596D9
:103D40007FAE65976696BFAE669767968FAF6797AB
:103D500081EB90E00E94661E782E82EB90E00E943C
:103D6000661EB82E83EB90E00E94661E64961CAE21
:103D70001DAE1EAE1FAE649761967FAE61976296D0
:103D8000BFAE629763968FAF639784EB90E00E941B
:103D9000661E782E85EB90E00E94661EB82E86EB9C
:103DA00090E00E94661E60961CAE1DAE1EAE1FAE59
:103DB00060972D967FAE2D972E96BFAE2E972F969D
:103DC0008FAF2F973E0182E4680E711CAAE0BA2ED5
:103DD000F40178962F01B2E62B2EB2E03B2EC401FF
:103DE000805C9F4F6B969FAF8EAF6B97E9EEF1E0D3
:103DF000D3018B2D01900D928A95E1F7F30101908B
:103E00000020E9F73197E619F70960EF9AE19E9FE4
:103E10006019112470E083E0C82EE12CF12C00E041
:103E200018EF93014FE050E0C4010E94EB1992E0BB
:103E3000C92E24E332E04BE450E064E170E0C401B9
:103E40000E94EB199E012C5A3F4F4BE450E066E470
:103E500070E0C4010E94EB198BEA90E00E94661E9C
:103E600022E0A22EC12CD12CE12C38EFF32E0AE057
:103E7000282F4BE450E062E870E0C4010E94B41ABD
:103E800042E0C42EE12CF12C00E018EF26E332E0F2
:103E900047E850E064E170E0C4010E94EB199E0124
:103EA000205B3F4F47E850E066E470E0C4010E94A9
:103EB000EB198CEA90E00E94661EC12CD12CE12CFB
:103EC00058EFF52E0AE0282F47E850E062E870E04E
:103ED000C4010E94B41A62E0C62EE12CF12C00E06D
:103EE00018EF28E332E043EC50E064E170E0C401F5
:103EF0000E94EB199E01245B3F4F43EC50E066E4C7
:103F000070E0C4010E94EB198DEA90E00E94661EE9
:103F1000C12CD12CE12C78EFF72E0AE0282F43ECAE
:103F200050E062E870E0C4010E94B41AF40182819A
:103F300093819C838B83848195819E838D838681ED
:103F4000978198878F83808591859A8789878285D5
:103F500093859C878B87848595859E878D878685AD
:103F60009785988B8F87808991899A8B898B828995
:103F700093899C8B8B8B848995899E8B8D8B86896D
:103F80009789988F8F8BF201DE0159968CE1019011
:103F90000D928A95E1F7F40184A98DAB85A98EABCA
:103FA00086A997A998AF8FAB80AD91AD9AAF89AF35
:103FB00082AD93AD9CAF8BAF84AD95AD9EAF8DAF11
:103FC00086AD97AD21969FAF8EAF21973A82298219
:103FD0006B96EEADFFAD6B97808122968FAF2297E7
:103FE000E8E2CE2ED12CF8ECEF2EF12C0FEF10E002
:103FF00024E130E04AE352E0BE016F5F7F4FCE0123
:10400000885A9F4F0E94D720882309F4EFCE60E0A2
:1040100070E0C4010E941A16C65ADF4F0FB6F8941A
:10402000DEBF0FBECDBFDF91CF911F910F91FF90EB
:10403000EF90DF90CF90BF90AF909F908F907F9048
:104040006F905F904F903F902F900895CF93DF93A4
:10405000CDB7DEB7CB54D1090FB6F894DEBF0FBE93
:10406000CDBF5C012C966FAF2C9760E070E00E9492
:104070001A164E0182E4880E911C79E0772EEAE14F
:104080006E2EF0EF5F2EE5E5F2E0D401872D019072
:104090000D928A95E1F7F40101900020E9F731973C
:1040A000E819F909652D6E9E6019112470E043E04E
:1040B000C42EE12CF12C00E018EF94014FE050E009
:1040C000C5010E94EB19B501CE0101960E941405AD
:1040D00058E2C52ED12C68ECE62EF12C0BE410E052
:1040E00024E130E04FE352E0BE016F5F7F4FCE012D
:1040F000855B9F4F0E94D720882359F0B501CE01E0
:1041000001960E94140540E060E0CE0101960E94F5
:10411000E307B501CE0101960E94140528E2C22EE4
:10412000D12C38ECE32EF12C07E810E024E130E04C
:104130004CE452E0BE016F5F7F4FCE01855B9F4F25
:104140000E94D720882359F0B501CE0101960E9424
:10415000140540E060E0CE0101960E94BA2EB50140
:10416000CE0101960E94140588E2C82ED12C98EC4D
:10417000E92EF12C03EC10E024E130E049EE51E0AF
:10418000BE016F5F7F4FCE01855B9F4F0E94D7209E
:10419000882309F478CFB501CE0101960E94140559
:1041A00040E060E0CE0101960E94681E6CCF2F9225
:1041B0003F924F925F926F927F928F929F92AF92B7
:1041C000BF92CF92DF92EF92FF920F931F93CF9304
:1041D000DF9300D000D000D0CDB7DEB77E836D83F3
:1041E0001A015901480127013601FA010190002006
:1041F000E9F79F01215031096901C41AD50A43E04A
:10420000CC0CDD1C4A95E1F7CB010E9408248D817E
:104210009E810E94571EF301F695E795FA83E98384
:104220009701369527953C832B83892B09F45AC037
:104230008D819E810E94121E8A159B0508F452C032
:104240008D819E810E94121E95012E0D3F1D281703
:10425000390708F447C08D819E810E94341E801763
:10426000910708F43FC08D819E810E94341E980101
:10427000260D371D28173907A8F1E12C28EFF22E5B
:1042800083019201A401B5018D819E810E94E716F0
:1042900049815A81480D591D485051096B817C81D3
:1042A0006A0D7B1D6C197D0932E0C32E00E010E021
:1042B00091018D819E810E94EB193FEF89E698E183
:1042C000315080409040E1F700C00000E12CF12C1B
:1042D00083019201A401B5018D819E810E94E716A0
:1042E00081E023C0E12C88EFF82E83019201A40124
:1042F000B5018D819E810E94661849815A81480DC1
:10430000591D485051096B817C816A0D7B1D6C19C8
:104310007D0992E0C92EE12CF12C00E018EF91010B
:104320008D819E810E94EB1980E026960FB6F8944D
:10433000DEBF0FBECDBFDF91CF911F910F91FF90D8
:10434000EF90DF90CF90BF90AF909F908F907F9035
:104350006F905F904F903F902F9008954F925F9293
:104360006F927F929F92AF92BF92CF92DF92EF9225
:10437000FF920F931F93CF93DF93EB015A01922E7D
:10438000E12CE8EFFE2E0AE010E028EC30E064E1DA
:1043900070E0CE010E946618650185E0C81AD10858
:1043A000692D70E080E090E00E94673623EC35EFE5
:1043B00048E45FE30E94F33620E030E040E251E45D
:1043C0000E9468350E9434362B013C0104E110E064
:1043D00024E130E0A601CE010E94E716CE010E9442
:1043E0000824CE010E94571E892B09F463C0CE0118
:1043F0000E94121E44970CF45DC0CE010E94121E52
:10440000893C91050CF056C0CE010E94341E8C15DB
:104410009D0508F44FC0CE010E94341E9501215F16
:104420003F4F2817390708F445C0CE010E94121EDD
:10443000BC01882777FD8095982F0E94673620E081
:1044400030E048E85FE30E94F3360E943936962E4A
:10445000E12CF12C24E130E0A601B201CE010E9452
:10446000E716E12C78EFF72E0AE010E028EC30E0B8
:10447000A50164E170E0CE010E946618692D70E02C
:1044800080E090E00E94673623EC35EF48E45FE37C
:104490000E94F33620E030E040E251E40E946835AB
:1044A0000E94343604E110E024E130E0A601CE01A0
:1044B0000E94E716892DDF91CF911F910F91FF90F8
:1044C000EF90DF90CF90BF90AF909F907F906F90D4
:1044D0005F904F9008956F927F928F929F92AF92CC
:1044E000BF92CF92DF92EF92FF920F931F93CF93E1
:1044F000DF936B015A014901E8013701F70180811F
:10450000882321F0E12CB8EFFB2E02C0E12CF12C26
:104510008E019E01A401B501C6010E94E716C601E5
:104520000E940824C6010E94571E892BF1F0C60183
:104530000E94121E8A159B05C0F0C6010E94121E21
:104540009E012A0D3B1D2817390778F0C6010E94ED
:10455000341E8815990548F0C6010E94341E9E013C
:10456000280D391D2817390758F4E12CF8EFFF2ED4
:104570008E019E01A401B501C6010E94661816C0F5
:10458000F3018081811107C081E0F3018083E12C78
:10459000A8EFFA2E04C0F3011082E12CF12C8E0159
:1045A0009E01A401B501C6010E94E716DF91CF91DB
:1045B0001F910F91FF90EF90DF90CF90BF90AF9041
:1045C0009F908F907F906F900895CF93DF93EC0131
:1045D000FB01828193819B838A8382E292E09983AB
:1045E0008883848195819D838C83868197819F8335
:1045F0008E838085918599878887828593859B871F
:104600008A87848595859D878C87868597859F87F2
:104610008E8780899189998B888B828993899B8BDE
:104620008A8B848995899D8B8C8B868997899F8BB2
:104630008E8B8CE17896DE01589601900D928A95CA
:10464000E1F7FB0184A98CAB85A98DAB86A997A95D
:104650009FAB8EAB80AD91AD99AF88AF82AD93AD7E
:104660009BAF8AAF84AD95AD9DAF8CAF86AD97AD56
:104670009FAF8EAFDF91CF9108952F923F924F92CF
:104680005F926F927F928F929F92AF92BF92CF92E2
:10469000DF92EF92FF920F931F93CF93DF93CDB7EB
:1046A000DEB7C354D1090FB6F894DEBF0FBECDBF3D
:1046B0004C015B012A0139010B3519F000930A0105
:1046C00003C081E480930A01B501CE0101960E94E6
:1046D000E52212E6212E12E0312E3A822982C5010E
:1046E000805C9F4F24969FAF8EAF2497FC01808102
:1046F00022968FAF229702E3C02ED12C82E3E82EC0
:10470000F12C830192014AE051E0BE016F5F7F4FBF
:10471000C4010E94D7208823E9F080910A018F5FAD
:1047200080930A01B501CE0101960E94E5223A82EA
:1047300029822496EEADFFAD2497808122968FAF1B
:10474000229792014AE051E0BE016F5F7F4FC401A2
:104750000E94D72080910A01CD5BDF4F0FB6F894FD
:10476000DEBF0FBECDBFDF91CF911F910F91FF90A4
:10477000EF90DF90CF90BF90AF909F908F907F9001
:104780006F905F904F903F902F9008955F9A08959B
:10479000CF93DF931F92CDB7DEB7872F2B9A2D983B
:1047A0009CB59F7B9CBD2D9A9CB590649CBD6983F4
:1047B0000E9490022B9A2D989CB59F7B9CBD2D9AB0
:1047C0009CB590649CBD6981862F0F90DF91CF913D
:1047D0000C9490022CB5982F93702C7F922B9CBD3B
:1047E0009DB582FB882780F99E7F982B9DBD0895FB
:1047F000CF93DF93EC0140EF50E060E471E00E9462
:10480000E71582E692E099838883DF91CF9108953E
:10481000BF92CF92DF92EF92FF920F931F93CF93AD
:10482000DF93EC01ECB4FDB485E00E94EA235E98CE
:1048300088EB0E94900280E00E949002082F88EC92
:104840000E94900280E00E9490025E9A182F1095BC
:104850001F770F77100F163008F45AC05E9880E962
:104860000E94900280E00E949002082F80E00E9447
:10487000900280E90E94900280E00E949002D82E6F
:1048800080E00E949002C82E0D1140C080ED0E9471
:10489000900280E00E949002D82E80E00E94900258
:1048A00080ED0E94900280E00E949002B82E80E08D
:1048B0000E949002DB102AC04C2D50E096E05595E6
:1048C00047959A95E1F794E0099FB0011124462B92
:1048D000572B6FEF73E0641B750BA1F0282F30E0AE
:1048E00086E0359527958A95E1F784E0D89EA0016A
:1048F0001124242B352B2115310521F0798B688B60
:104900003B8B2A8B812F90E09F878E875E9A02C017
:104910001F861E86ECBCFDBC81E02E853F85232BC7
:1049200009F480E0DF91CF911F910F91FF90EF90FC
:10493000DF90CF90BF9008953F924F925F926F9219
:104940007F928F929F92AF92BF92CF92DF92EF921F
:10495000FF920F931F93CF93DF93CDB7DEB7E0970E
:104960000FB6F894DEBF0FBECDBF5C0188E1E2E177
:10497000F1E0DE01599601900D928A95E1F7C501AB
:104980000E9416162C01D501ED91FC910480F58151
:10499000E02D60E070E0C50109956FEF7FEFC50184
:1049A0000E941A16F5014085518557FF02C04F5FDE
:1049B0005F4F559547954A505109D50116966D910F
:1049C0007C91179777FF02C06F5F7F4F7595679552
:1049D00062537109CC24C394EE24EA94FE2C00E0C7
:1049E00010E024E733E0C5010E94291AC5010E94A6
:1049F00008248111FBCF4E01B9E18B0E911C612C73
:104A0000712C382CD92CF40144815581608171813D
:104A100000E010E022E030E0C5010E94B018D401AF
:104A200014964D915C9115976D917C9125E030E045
:104A3000C5010E94B018F4014481558160817181E3
:104A400000E018EF2AE030E0C5010E94B018C5016F
:104A50000E9408248823B9F2730173E0EE0CFF1C56
:104A60007A95E1F781E090E08C0F9D1FE80EF91E2A
:104A7000D7015C964D915C915D9758966D917C91B4
:104A8000599722E030E0C5010E945419F501808950
:104A90009189AA2797FDA095BA2FF701808391836A
:104AA000A283B383D50152968D919C915397AA27E7
:104AB00097FDA095BA2F84839583A683B78364E678
:104AC00070E080E090E00E94E2336FEF7FEFC5017D
:104AD0000E941A16F2E06F1621F1D50118964D9139
:104AE0005C91199757FF02C04F5F5F4F55954795EF
:104AF0004A505109F5016681778177FF02C06F5FE7
:104B00007F4F7595679562537109CC24C394EE2449
:104B1000EA94FE2C00E010E028E633E0C5010E9494
:104B2000291AFFEF6F1A7F0A88E0880E911C93E024
:104B30006916710409F067CFAE014F5F5F4F632DB7
:104B40007D2DC5010E94C41AD501ED91FC91048010
:104B5000F581E02DB201C5010995C5010E94082427
:104B60008111FBCFE0960FB6F894DEBF0FBECDBF2C
:104B7000DF91CF911F910F91FF90EF90DF90CF9039
:104B8000BF90AF909F908F907F906F905F904F906D
:104B90003F900895862F5F982B982D989CB59F7B0A
:104BA0009CBD2D9A9CB590649CBD0E9490025F9A1A
:104BB00008956CE20E94CA255F980895CF93DF9311
:104BC0001F92CDB7DEB7872F5F982B9A2D989CB593
:104BD0009F7B9CBD2D9A9CB590649CBD69830E946F
:104BE00090022B9A2D989CB59F7B9CBD2D9A9CB5CD
:104BF00090649CBD6981862F0E9490025F9A0F90FD
:104C0000DF91CF910895AF92BF92CF92DF92EF9252
:104C1000FF920F931F93CF93DF93EC017B016A0107
:104C200059016AE20E94CA25B701CE010E94DE2521
:104C3000B501CE010E94DE256BE2CE010E94CA259D
:104C4000B601CE010E94DE25B801CE01DF91CF91E1
:104C50001F910F91FF90EF90DF90CF90BF90AF909A
:104C60000C94DE25862F5F982B9A2D989CB59F7B00
:104C70009CBD2D9A9CB590649CBD0E9490025F9A49
:104C800008950F931F93CF93DF93EC016930710563
:104C900019F06A35710571F48AE590E09D838C8383
:104CA00080EF90E09F838E8380E491E099878887EE
:104CB00018E434C06231710519F0643B710571F478
:104CC00084EB90E09D838C8380E491E09F838E83CE
:104CD00080EF90E09987888718E320C06B317105D9
:104CE00021F07E7F6E30710571F48EE091E09D833E
:104CF0008C8380EF90E09F838E8380E491E099879E
:104D0000888718E80BC01D821C8280E491E09F8395
:104D10008E8380EF90E09987888718EE66E3CE0156
:104D20000E94CA25612FCE010E943226E881F981B6
:104D300008851985015011092E813F8121503109C3
:104D40000680F781E02D40E050E060E070E0CE01A9
:104D50000995DF91CF911F910F910895CF92DF9226
:104D6000EF92FF920F931F93CF93DF938C015F9A83
:104D7000289862E370E080E090E00E94E233289A95
:104D800068E770E080E090E00E94E233E0E8F3E062
:104D9000EF01219684918F3FA9F1982F907C903854
:104DA000B1F0903C39F1903411F0FE01F1CF8F73E6
:104DB000C82E7F01D82EFFEFEF1AFF0ADD20B9F0D1
:104DC000F7016491C8010E94CA25DA94F4CF8F7369
:104DD000C82E7F01D82EFFEFEF1AFF0ADD2039F031
:104DE000F7016491C8010E943226DA94F4CFCC0D09
:104DF000D11DDBCF682F6F7370E080E090E00E94E0
:104E0000E233D3CF60E070E0C801DF91CF911F9112
:104E10000F91FF90EF90DF90CF900C941A161F9394
:104E2000CF93DF93EC01162F61E088E00E94CD3430
:104E3000289861E089E00E94CD3461E087E00E941B
:104E4000CD3461E08DE00E94CD3461E08BE00E94C2
:104E5000CD3460E08CE00E94CD3429985F9A61E007
:104E600086E00E94CD345E9AFE01E05CFF4F108325
:104E70009CB5937F9CBD9CB59F7D9CBD0E945D3081
:104E800085E00E94EA23CE010E94AE26812F0E9477
:104E9000EA236FE770E089E0DF91CF911F910C94D6
:104EA000453460E00C940F2786E196E00E942A3199
:104EB00062E570E086E196E00E944E3160E470E0C9
:104EC00086E196E00E94890260E070E086E196E06B
:104ED0000E94890286E196E00E94633191E081118F
:104EE00090E0892F089562E570E086E196E00E94E7
:104EF0004E3160E070E086E196E00E94890286E132
:104F000096E00E94633191E0811190E0892F08952D
:104F100080910A06089580910D06882331F081FB67
:104F2000992790F981E08927089580E008951F93DB
:104F3000CF93DF93EC0146E050E062E570E086E15C
:104F400096E00E94413110E086E196E00E949330A5
:104F5000892B71F086E196E00E949B30E12FF0E012
:104F6000E85FF94F27E18227479680831F5FECCFE8
:104F7000CE010E94732781E090910D06911101C02E
:104F800080E0DF91CF911F9108954F925F926F92D1
:104F90007F928F929F92AF92BF92CF92DF92EF92C9
:104FA000FF920F931F93CF93DF93CDB7DEB7CC540F
:104FB000D1090FB6F894DEBF0FBECDBF5C012D96B0
:104FC0006FAF2D9760E070E00E941A164E0182E4E8
:104FD000880E911CBAE06B2E1AE1512E00EF402E84
:104FE00077247394E3E9F2E0D401862D01900D92C9
:104FF0008A95E1F7F40101900020E9F73197E8196B
:10500000F909642D5E9E6019112470E0E3E0CE2E54
:10501000E12CF12C00E018EF24E732E04FE050E003
:10502000C5010E94EB19B501CE0101960E9414053D
:10503000F8E2CF2ED12CA8ECEA2EF12C0BE410E0F4
:1050400024E130E04AE752E0BE016F5F7F4FCE01BE
:10505000845B9F4F0E94D720B501882351F0CE0179
:1050600001960E94140560E0CE0101960E945F0245
:1050700063C0CE0101960E94140548E2C42ED12CD3
:1050800058ECE52EF12C07E810E024E130E046E88A
:1050900052E0BE016F5F7F4FCE01845B9F4F0E9445
:1050A000D720882321F081E08093130645C0B50105
:1050B000CE0101960E94140528E2C22ED12C38ECB4
:1050C000E32EF12C03EC10E024E130E04CE452E05C
:1050D000BE016F5F7F4FCE01845B9F4F0E94D72040
:1050E000882359F0B501CE0101960E94140540E0D5
:1050F00060E0CE0101960E94BA2EB501CE01019664
:105100000E94140588E2C82ED12C98ECE92EF12CCF
:105110000FEF10E024E130E04EEC51E0BE016F5F94
:105120007F4FCE01845B9F4F0E94D720882309F4D4
:1051300059CF7092140656CFC45BDF4F0FB6F89468
:10514000DEBF0FBECDBFDF91CF911F910F91FF90BA
:10515000EF90DF90CF90BF90AF909F908F907F9017
:105160006F905F904F9008950C9477387F928F9254
:105170009F92AF92BF92CF92DF92EF92FF920F93E6
:105180001F93CF93DF93CDB7DEB7C254D1090FB6CB
:10519000F894DEBF0FBECDBF5C0123966FAF23979F
:1051A000712C812C912C23E0C22EE12CF12C00E0FB
:1051B00018EF2DE932E04FE050E060E070E0C5010B
:1051C0000E94EB1932E0C32E29EA32E040E550E0BC
:1051D0006FE070E0C5010E94EB19B501CE010196A8
:1051E0000E9414054FE0E42E41E0F42E00E310E0AD
:1051F0002FE330E041EB50E0BE016F5F7F4FCE0107
:105200008E5B9F4F0E946B22E12CF12C00E018EF87
:1052100020EB32E046E950E06FE070E0C5010E940B
:10522000EB19B501CE0101960E9414055FE0E52E51
:1052300056E0F52E00E310E025E830E041EB50E0C9
:10524000BE016F5F7F4FCE018E5B9F4F0E946B222E
:10525000E12CF12C00E018EF28EB32E04CED50E0AF
:105260006FE070E0C5010E94EB19B501CE01019617
:105270000E9414056EE0E62E66E0F62E00E310E0D4
:105280002BEC30E041EB50E0BE016F5F7F4FCE0171
:105290008E5B9F4F0E946B2220910F0190910F0611
:1052A00080910E06222311F07720A9F0992319F09E
:1052B000772009F488C0882349F0772019F07724F3
:1052C000739404C077247394882483942223A9F0D0
:1052D000911003C011C077247394992329F0109280
:1052E0000F01812C912C02C099249394882329F0DA
:1052F00010920F0188248394912C9923C9F0911066
:1053000012C0811015C090910F01992321F01092C5
:105310000F0691E001C090E0882341F010920F0643
:105320008824839405C09924939402C0992E15C0B3
:10533000882399F0882089F080910F06882321F036
:1053400010920E06812C912C80910F01882329F058
:1053500010920E06812C99249394B501CE010196EA
:105360000E94140588E2C82ED12C98ECE92EF12C6D
:105370000EE011E024E130E04AE352E0BE016F5F4D
:105380007F4FCE018E5B9F4F0E94D720882309F468
:105390000ACF60E070E0C5010E941A16CE5BDF4FB5
:1053A0000FB6F894DEBF0FBECDBFDF91CF911F9136
:1053B0000F91FF90EF90DF90CF90BF90AF909F90B4
:1053C0008F907F90089577247394812C95CFAF921E
:1053D000BF92CF92DF92EF92FF920F931F93CF93E2
:1053E000DF93CDB7DEB7C354D1090FB6F894DEBF53
:1053F0000FBECDBF5C0123966FAF239773E0C72E1E
:10540000E12CF12C00E018EF20EC32E04FE050E00E
:1054100060E070E0C5010E94EB1920910E01B5011A
:10542000CE01019624962FAF24970E94140524964E
:105430002FAD24974CE350E0BE016F5F7F4FCE014C
:105440008E5B9F4F0E94AE2180930E0120910C0134
:10545000B501CE01019624962FAF24970E94140522
:1054600024962FAD249744E650E0BE016F5F7F4F36
:10547000CE018E5B9F4F0E94AE2180930C01209144
:105480000D01B501CE01019624962FAF24970E94FD
:10549000140524962FAD24974CE850E0BE016F5FB1
:1054A0007F4FCE018E5B9F4F0E94AE2180930D01F6
:1054B00090910C019C7F28E0929F700111249091A3
:1054C0000E01987FF92A869586958695E82A00E44C
:1054D00010E028E230E044EB50E064E670E0C50103
:1054E0000E94661880910E01887F90910C019C7F2C
:1054F00028E0929F70011124F82A80910D01869571
:1055000086958695E82A0EEC10E02EE630E044EC15
:1055100050E065E670E0C5010E945B1780910E01C6
:10552000887F90910C019C7F28E0929F700111244C
:10553000F82A80910D01869586958695E82A22E8BD
:1055400030E044EC50E06BE870E0C5010E945B176E
:1055500080910E01887F90910C019C7F28E0929FA2
:1055600070011124F82A80910D0186958695869503
:10557000E82A22E830E04EEC50E06EE670E0C5012B
:105580000E945B1780910E01887F90910C019C7F97
:1055900028E0929F70011124F82A80910D018695D0
:1055A00086958695E82A0AED10E022E830E04AED7B
:1055B00050E06EE670E0C5010E945B1780910E011D
:1055C000887F90910C019C7F28E0929F70011124AC
:1055D000F82A80910D01869586958695E82A2EE613
:1055E00030E044EE50E065E670E0C5010E945B17D4
:1055F00080910E01887F90910C019C7F28E0929F02
:1056000070011124F82A80910D0186958695869562
:10561000E82A22E830E044EE50E06BE870E0C50193
:105620000E945B1780910E01887F90910C019C7FF6
:1056300028E0929F70011124F82A80910D0186952F
:1056400086958695E82A2EE630E04EEC50E06EE630
:1056500070E0C5010E945B1780910E01887F9091D8
:105660000C019C7F28E0929F70011124F82A809100
:105670000D01869586958695E82A22E830E04EEC65
:1056800050E062E870E0C5010E945B1780910E0156
:10569000887F90910C019C7F28E0929F70011124DB
:1056A000F82A80910D01869586958695E82A04EC66
:1056B00010E02AE830E044EC50E064E670E0C50118
:1056C0000E945B1780910E01887F90910C019C7F56
:1056D00028E0929F70011124F82A80910D0186958F
:1056E00086958695E82A04EE10E02AE830E044EE3C
:1056F00050E064E670E0C5010E945B17B501CE0181
:1057000001960E941405E8E2CE2ED12CF8ECEF2E83
:10571000F12C0EE011E024E130E042EE51E0BE0158
:105720006F5F7F4FCE018E5B9F4F0E94D7208823F3
:1057300009F464CE60E070E0C5010E941A16CD5BEA
:10574000DF4F0FB6F894DEBF0FBECDBFDF91CF9114
:105750001F910F91FF90EF90DF90CF90BF90AF908F
:1057600008957F928F929F92AF92BF92CF92DF92D5
:10577000EF92FF920F931F93CF93DF93CDB7DEB7D6
:10578000C254D1090FB6F894DEBF0FBECDBF5C0185
:1057900023966FAF2397712C812C912C13E0C12E8F
:1057A000E12CF12C00E018EF26EC32E04FE050E065
:1057B00060E070E0C5010E94EB1982E0C82E21ED87
:1057C00032E040E550E06FE070E0C5010E94EB1967
:1057D000B501CE0101960E94140590E1E92E91E0F9
:1057E000F92E00E310E02FE330E041EB50E0BE0182
:1057F0006F5F7F4FCE018E5B9F4F0E946B22E12C2B
:10580000F12C00E018EF20EB32E046E950E06FE0C9
:1058100070E0C5010E94EB19B501CE0101960E940E
:10582000140521E1E22E26E0F22E00E310E025E847
:1058300030E041EB50E0BE016F5F7F4FCE018E5BE9
:105840009F4F0E946B22E12CF12C00E018EF29ED14
:1058500032E04CED50E06FE070E0C5010E94EB19C2
:10586000B501CE0101960E94140530E1E32E36E029
:10587000F32E00E310E02BEC30E041EB50E0BE01F2
:105880006F5F7F4FCE018E5B9F4F0E946B222091F6
:1058900010019091110680911006222311F07720BB
:1058A000A9F0992319F0772009F488C0882349F0DA
:1058B000772019F07724739404C077247394882494
:1058C00083942223A9F0911003C011C0772473940C
:1058D000992329F010921001812C912C02C0992457
:1058E0009394882329F01092100188248394912C9A
:1058F0009923C9F0911012C0811015C09091100128
:10590000992321F01092110691E001C090E08823C4
:1059100041F0109211068824839405C09924939431
:1059200002C0992E15C0882399F0882089F08091B3
:105930001106882321F010921006812C912C809161
:105940001001882329F010921006812C9924939439
:10595000B501CE0101960E941405A8E2CA2ED12CF1
:10596000B8ECEB2EF12C0EE011E024E130E04AE33C
:1059700052E0BE016F5F7F4FCE018E5B9F4F0E9452
:10598000D720882309F40ACF60E070E0C5010E94A7
:105990001A16CE5BDF4F0FB6F894DEBF0FBECDBF39
:1059A000DF91CF911F910F91FF90EF90DF90CF90FB
:1059B000BF90AF909F908F907F90089577247394BD
:1059C000812C95CFAF92BF92CF92DF92EF92FF9250
:1059D0000F931F93CF93DF93CDB7DEB7C254D10996
:1059E0000FB6F894DEBF0FBECDBF5C0123966FAF3C
:1059F0002397A3E0CA2EE12CF12C00E018EF21EE52
:105A000032E04FE050E060E070E0C5010E94EB1929
:105A1000B501CE0101960E941405B8E2CB2ED12C1F
:105A200018ECE12EF12C0BE410E024E130E046EC20
:105A300052E0BE016F5F7F4FCE018E5B9F4F0E9491
:105A4000D720882381F060E070E0C5010E941A161B
:105A5000B501CE0101960E94140540E060E0CE0140
:105A600001960E94B12BB501CE0101960E9414054A
:105A7000E8E2CE2ED12CF8ECEF2EF12C07E810E066
:105A800024E130E040EC52E0BE016F5F7F4FCE0179
:105A90008E5B9F4F0E94D720882381F060E070E0EA
:105AA000C5010E941A16B501CE0101960E94140587
:105AB00040E060E0CE0101960E94E729B501CE01E9
:105AC00001960E94140568E2C62ED12C78ECE72ED0
:105AD000F12C03EC10E024E130E04DE952E0BE018E
